{
	"data": {
		"bytecode": {
			"linkReferences": {},
			"object": "608060405234801561000f575f80fd5b506040518060400160405280600d81526020017f42696c426f79644361724e4654000000000000000000000000000000000000008152506040518060400160405280600681526020017f4242434e46540000000000000000000000000000000000000000000000000000815250815f908161008a919061031c565b50806001908161009a919061031c565b5050503360095f6101000a81548173ffffffffffffffffffffffffffffffffffffffff021916908373ffffffffffffffffffffffffffffffffffffffff1602179055506103eb565b5f81519050919050565b7f4e487b71000000000000000000000000000000000000000000000000000000005f52604160045260245ffd5b7f4e487b71000000000000000000000000000000000000000000000000000000005f52602260045260245ffd5b5f600282049050600182168061015d57607f821691505b6020821081036101705761016f610119565b5b50919050565b5f819050815f5260205f209050919050565b5f6020601f8301049050919050565b5f82821b905092915050565b5f600883026101d27fffffffffffffffffffffffffffffffffffffffffffffffffffffffffffffffff82610197565b6101dc8683610197565b95508019841693508086168417925050509392505050565b5f819050919050565b5f819050919050565b5f61022061021b610216846101f4565b6101fd565b6101f4565b9050919050565b5f819050919050565b61023983610206565b61024d61024582610227565b8484546101a3565b825550505050565b5f90565b610261610255565b61026c818484610230565b505050565b5b8181101561028f576102845f82610259565b600181019050610272565b5050565b601f8211156102d4576102a581610176565b6102ae84610188565b810160208510156102bd578190505b6102d16102c985610188565b830182610271565b50505b505050565b5f82821c905092915050565b5f6102f45f19846008026102d9565b1980831691505092915050565b5f61030c83836102e5565b9150826002028217905092915050565b610325826100e2565b67ffffffffffffffff81111561033e5761033d6100ec565b5b6103488254610146565b610353828285610293565b5f60209050601f831160018114610384575f8415610372578287015190505b61037c8582610301565b8655506103e3565b601f19841661039286610176565b5f5b828110156103b957848901518255600182019150602085019450602081019050610394565b868310156103d657848901516103d2601f8916826102e5565b8355505b6001600288020188555050505b505050505050565b613dc1806103f85f395ff3fe60806040526004361061014a575f3560e01c806370a08231116100b5578063c87b56dd1161006e578063c87b56dd1461047e578063d74d1f43146104ba578063e985e9c5146104fb578063f01c823d14610537578063f5df701014610553578063f7746e361461057b5761014a565b806370a082311461036457806395d89b41146103a0578063a22cb465146103ca578063ae14ae40146103f2578063b88d4fde1461041a578063c31cf51a146104425761014a565b806323b872dd1161010757806323b872dd1461026c57806324cb1534146102945780633a8488f8146102bc57806342842e0e146102e4578063596389561461030c5780636352211e146103285761014a565b806301ffc9a71461014e57806303ef51041461018a57806306fdde03146101b4578063081812fc146101de578063095ea7b31461021a578063200ca6ef14610242575b5f80fd5b348015610159575f80fd5b50610174600480360381019061016f9190612b8a565b6105bc565b6040516101819190612bcf565b60405180910390f35b348015610195575f80fd5b5061019e61069d565b6040516101ab9190612c27565b60405180910390f35b3480156101bf575f80fd5b506101c86106c2565b6040516101d59190612cb0565b60405180910390f35b3480156101e9575f80fd5b5061020460048036038101906101ff9190612d03565b610751565b6040516102119190612c27565b60405180910390f35b348015610225575f80fd5b50610240600480360381019061023b9190612d58565b61076c565b005b34801561024d575f80fd5b50610256610782565b6040516102639190612da5565b60405180910390f35b348015610277575f80fd5b50610292600480360381019061028d9190612dbe565b610789565b005b34801561029f575f80fd5b506102ba60048036038101906102b59190612f3a565b610888565b005b3480156102c7575f80fd5b506102e260048036038101906102dd919061301f565b6109f4565b005b3480156102ef575f80fd5b5061030a60048036038101906103059190612dbe565b610c4c565b005b610326600480360381019061032191906130a8565b610c6b565b005b348015610333575f80fd5b5061034e60048036038101906103499190612d03565b610e37565b60405161035b9190612c27565b60405180910390f35b34801561036f575f80fd5b5061038a6004803603810190610385919061310c565b610e48565b6040516103979190612da5565b60405180910390f35b3480156103ab575f80fd5b506103b4610efe565b6040516103c19190612cb0565b60405180910390f35b3480156103d5575f80fd5b506103f060048036038101906103eb9190613161565b610f8e565b005b3480156103fd575f80fd5b506104186004803603810190610413919061310c565b610fa4565b005b348015610425575f80fd5b50610440600480360381019061043b919061323d565b611159565b005b34801561044d575f80fd5b50610468600480360381019061046391906130a8565b61117e565b6040516104759190612da5565b60405180910390f35b348015610489575f80fd5b506104a4600480360381019061049f9190612d03565b61155c565b6040516104b19190612cb0565b60405180910390f35b3480156104c5575f80fd5b506104e060048036038101906104db919061310c565b6115c2565b6040516104f2969594939291906132bd565b60405180910390f35b348015610506575f80fd5b50610521600480360381019061051c919061331c565b611632565b60405161052e9190612bcf565b60405180910390f35b610551600480360381019061054c9190612d03565b6116c0565b005b34801561055e575f80fd5b506105796004803603810190610574919061310c565b611935565b005b348015610586575f80fd5b506105a1600480360381019061059c9190612d03565b611b58565b6040516105b39695949392919061335a565b60405180910390f35b5f7f80ac58cd000000000000000000000000000000000000000000000000000000007bffffffffffffffffffffffffffffffffffffffffffffffffffffffff1916827bffffffffffffffffffffffffffffffffffffffffffffffffffffffff1916148061068657507f5b5e139f000000000000000000000000000000000000000000000000000000007bffffffffffffffffffffffffffffffffffffffffffffffffffffffff1916827bffffffffffffffffffffffffffffffffffffffffffffffffffffffff1916145b80610696575061069582611c9c565b5b9050919050565b60095f9054906101000a900473ffffffffffffffffffffffffffffffffffffffff1681565b60605f80546106d0906133f4565b80601f01602080910402602001604051908101604052809291908181526020018280546106fc906133f4565b80156107475780601f1061071e57610100808354040283529160200191610747565b820191905f5260205f20905b81548152906001019060200180831161072a57829003601f168201915b5050505050905090565b5f61075b82611d05565b5061076582611d8b565b9050919050565b61077e8282610779611dc4565b611dcb565b5050565b62278d0081565b5f73ffffffffffffffffffffffffffffffffffffffff168273ffffffffffffffffffffffffffffffffffffffff16036107f9575f6040517f64a0ae920000000000000000000000000000000000000000000000000000000081526004016107f09190612c27565b60405180910390fd5b5f61080c8383610807611dc4565b611ddd565b90508373ffffffffffffffffffffffffffffffffffffffff168173ffffffffffffffffffffffffffffffffffffffff1614610882578382826040517f64283d7b00000000000000000000000000000000000000000000000000000000815260040161087993929190613424565b60405180910390fd5b50505050565b60095f9054906101000a900473ffffffffffffffffffffffffffffffffffffffff1673ffffffffffffffffffffffffffffffffffffffff163373ffffffffffffffffffffffffffffffffffffffff1614610917576040517f08c379a000000000000000000000000000000000000000000000000000000000815260040161090e906134c9565b60405180910390fd5b6109216006611fe8565b5f61092c6006611ffc565b90506040518060c001604052808281526020018781526020018681526020018581526020018481526020018381525060075f8381526020019081526020015f205f820151815f015560208201518160010190816109899190613684565b50604082015181600201908161099f9190613684565b50606082015181600301556080820151816004015560a082015181600501559050506109ec60095f9054906101000a900473ffffffffffffffffffffffffffffffffffffffff1682612008565b505050505050565b858060085f3373ffffffffffffffffffffffffffffffffffffffff1673ffffffffffffffffffffffffffffffffffffffff1681526020019081526020015f205f015414610a76576040517f08c379a0000000000000000000000000000000000000000000000000000000008152600401610a6d9061379d565b60405180910390fd5b5f60085f3373ffffffffffffffffffffffffffffffffffffffff1673ffffffffffffffffffffffffffffffffffffffff1681526020019081526020015f2090508060040160019054906101000a900460ff16610b07576040517f08c379a0000000000000000000000000000000000000000000000000000000008152600401610afe90613805565b60405180910390fd5b60018760ff1603610b5f575f8160040160016101000a81548160ff021916908315150217905550610b5a3360095f9054906101000a900473ffffffffffffffffffffffffffffffffffffffff168a6120fb565b610c42565b60028760ff1603610ba1575f610b79895f6001600c61117e565b905080826002018190555062278d0042610b939190613850565b826003018190555050610c41565b60038760ff1603610c05575f8160040160016101000a81548160ff021916908315150217905550610bf43360095f9054906101000a900473ffffffffffffffffffffffffffffffffffffffff168a6120fb565b610c0086868686610c6b565b610c40565b6040517f08c379a0000000000000000000000000000000000000000000000000000000008152600401610c37906138cd565b60405180910390fd5b5b5b5050505050505050565b610c6683838360405180602001604052805f815250611159565b505050565b5f610c788585858561117e565b90505f600482610c8891906138eb565b9050803414610ccc576040517f08c379a0000000000000000000000000000000000000000000000000000000008152600401610cc390613976565b60405180910390fd5b6040518060c001604052808781526020013373ffffffffffffffffffffffffffffffffffffffff16815260200183815260200162278d0042610d0e9190613850565b81526020015f151581526020016001151581525060085f3373ffffffffffffffffffffffffffffffffffffffff1673ffffffffffffffffffffffffffffffffffffffff1681526020019081526020015f205f820151815f01556020820151816001015f6101000a81548173ffffffffffffffffffffffffffffffffffffffff021916908373ffffffffffffffffffffffffffffffffffffffff16021790555060408201518160020155606082015181600301556080820151816004015f6101000a81548160ff02191690831515021790555060a08201518160040160016101000a81548160ff021916908315150217905550905050610e2f60095f9054906101000a900473ffffffffffffffffffffffffffffffffffffffff1633886120fb565b505050505050565b5f610e4182611d05565b9050919050565b5f8073ffffffffffffffffffffffffffffffffffffffff168273ffffffffffffffffffffffffffffffffffffffff1603610eb9575f6040517f89c62b64000000000000000000000000000000000000000000000000000000008152600401610eb09190612c27565b60405180910390fd5b60035f8373ffffffffffffffffffffffffffffffffffffffff1673ffffffffffffffffffffffffffffffffffffffff1681526020019081526020015f20549050919050565b606060018054610f0d906133f4565b80601f0160208091040260200160405190810160405280929190818152602001828054610f39906133f4565b8015610f845780601f10610f5b57610100808354040283529160200191610f84565b820191905f5260205f20905b815481529060010190602001808311610f6757829003601f168201915b5050505050905090565b610fa0610f99611dc4565b8383612263565b5050565b60095f9054906101000a900473ffffffffffffffffffffffffffffffffffffffff1673ffffffffffffffffffffffffffffffffffffffff163373ffffffffffffffffffffffffffffffffffffffff1614611033576040517f08c379a000000000000000000000000000000000000000000000000000000000815260040161102a906134c9565b60405180910390fd5b5f60085f8373ffffffffffffffffffffffffffffffffffffffff1673ffffffffffffffffffffffffffffffffffffffff1681526020019081526020015f2090508060040160019054906101000a900460ff166110c4576040517f08c379a00000000000000000000000000000000000000000000000000000000081526004016110bb906139de565b60405180910390fd5b8060030154421161110a576040517f08c379a000000000000000000000000000000000000000000000000000000000815260040161110190613a46565b60405180910390fd5b5f8160040160016101000a81548160ff0219169083151502179055506111558260095f9054906101000a900473ffffffffffffffffffffffffffffffffffffffff16835f01546120fb565b5050565b611164848484610789565b61117861116f611dc4565b858585856123cc565b50505050565b5f8060075f8781526020019081526020015f206040518060c00160405290815f82015481526020016001820180546111b5906133f4565b80601f01602080910402602001604051908101604052809291908181526020018280546111e1906133f4565b801561122c5780601f106112035761010080835404028352916020019161122c565b820191905f5260205f20905b81548152906001019060200180831161120f57829003601f168201915b50505050508152602001600282018054611245906133f4565b80601f0160208091040260200160405190810160405280929190818152602001828054611271906133f4565b80156112bc5780601f10611293576101008083540402835291602001916112bc565b820191905f5260205f20905b81548152906001019060200180831161129f57829003601f168201915b50505050508152602001600382015481526020016004820154815260200160058201548152505090505f6103e882608001516112f89190613a91565b90505f6004871015801561130d5750600a8711155b1561133257606460028361132191906138eb565b61132b9190613a91565b9050611358565b600a87111561135757606460058361134a91906138eb565b6113549190613a91565b90505b5b5f6002871015801561136a5750600687105b1561138f57606460038461137e91906138eb565b6113889190613a91565b90506113ed565b600687101580156113a15750600c8711155b156113c65760646005846113b591906138eb565b6113bf9190613a91565b90506113ec565b600c8711156113eb5760646008846113de91906138eb565b6113e89190613a91565b90505b5b5b5f6113888710158015611401575061271087105b1561141a576064846114139190613a91565b905061147a565b612710871015801561142d5750614e2087105b1561145257606460028561144191906138eb565b61144b9190613a91565b9050611479565b614e2087111561147857606460038561146b91906138eb565b6114759190613a91565b90505b5b5b5f6127108660a00151101580156114965750614e208660a00151105b156114af576064856114a89190613a91565b905061151a565b614e208660a00151101580156114ca575061c3508660a00151105b156114ef5760646002866114de91906138eb565b6114e89190613a91565b9050611519565b61c3508660a001511061151857606460038661150b91906138eb565b6115159190613a91565b90505b5b5b5f818385878961152a9190613ac1565b6115349190613ac1565b61153e9190613850565b6115489190613ac1565b905080975050505050505050949350505050565b606061156782611d05565b505f611571612578565b90505f81511161158f5760405180602001604052805f8152506115ba565b806115998461258e565b6040516020016115aa929190613b2e565b6040516020818303038152906040525b915050919050565b6008602052805f5260405f205f91509050805f015490806001015f9054906101000a900473ffffffffffffffffffffffffffffffffffffffff1690806002015490806003015490806004015f9054906101000a900460ff16908060040160019054906101000a900460ff16905086565b5f60055f8473ffffffffffffffffffffffffffffffffffffffff1673ffffffffffffffffffffffffffffffffffffffff1681526020019081526020015f205f8373ffffffffffffffffffffffffffffffffffffffff1673ffffffffffffffffffffffffffffffffffffffff1681526020019081526020015f205f9054906101000a900460ff16905092915050565b808060085f3373ffffffffffffffffffffffffffffffffffffffff1673ffffffffffffffffffffffffffffffffffffffff1681526020019081526020015f205f015414611742576040517f08c379a00000000000000000000000000000000000000000000000000000000081526004016117399061379d565b60405180910390fd5b5f60085f3373ffffffffffffffffffffffffffffffffffffffff1673ffffffffffffffffffffffffffffffffffffffff1681526020019081526020015f2090508060040160019054906101000a900460ff166117d3576040517f08c379a00000000000000000000000000000000000000000000000000000000081526004016117ca906139de565b60405180910390fd5b806004015f9054906101000a900460ff16611823576040517f08c379a000000000000000000000000000000000000000000000000000000000815260040161181a90613b9b565b60405180910390fd5b806003015442111561186a576040517f08c379a000000000000000000000000000000000000000000000000000000000815260040161186190613c03565b60405180910390fd5b806002015434146118b0576040517f08c379a00000000000000000000000000000000000000000000000000000000081526004016118a790613976565b60405180910390fd5b62278d0081600301546118c39190613850565b816003018190555060095f9054906101000a900473ffffffffffffffffffffffffffffffffffffffff1673ffffffffffffffffffffffffffffffffffffffff166108fc3490811502906040515f60405180830381858888f1935050505015801561192f573d5f803e3d5ffd5b50505050565b60095f9054906101000a900473ffffffffffffffffffffffffffffffffffffffff1673ffffffffffffffffffffffffffffffffffffffff163373ffffffffffffffffffffffffffffffffffffffff16146119c4576040517f08c379a00000000000000000000000000000000000000000000000000000000081526004016119bb906134c9565b60405180910390fd5b5f60085f8373ffffffffffffffffffffffffffffffffffffffff1673ffffffffffffffffffffffffffffffffffffffff1681526020019081526020015f2090508060040160019054906101000a900460ff16611a55576040517f08c379a0000000000000000000000000000000000000000000000000000000008152600401611a4c90613805565b60405180910390fd5b806004015f9054906101000a900460ff1615611aa6576040517f08c379a0000000000000000000000000000000000000000000000000000000008152600401611a9d90613c6b565b60405180910390fd5b6001816004015f6101000a81548160ff02191690831515021790555060018160040160016101000a81548160ff02191690831515021790555060095f9054906101000a900473ffffffffffffffffffffffffffffffffffffffff1673ffffffffffffffffffffffffffffffffffffffff166108fc60048360020154611b2b91906138eb565b90811502906040515f60405180830381858888f19350505050158015611b53573d5f803e3d5ffd5b505050565b6007602052805f5260405f205f91509050805f015490806001018054611b7d906133f4565b80601f0160208091040260200160405190810160405280929190818152602001828054611ba9906133f4565b8015611bf45780601f10611bcb57610100808354040283529160200191611bf4565b820191905f5260205f20905b815481529060010190602001808311611bd757829003601f168201915b505050505090806002018054611c09906133f4565b80601f0160208091040260200160405190810160405280929190818152602001828054611c35906133f4565b8015611c805780601f10611c5757610100808354040283529160200191611c80565b820191905f5260205f20905b815481529060010190602001808311611c6357829003601f168201915b5050505050908060030154908060040154908060050154905086565b5f7f01ffc9a7000000000000000000000000000000000000000000000000000000007bffffffffffffffffffffffffffffffffffffffffffffffffffffffff1916827bffffffffffffffffffffffffffffffffffffffffffffffffffffffff1916149050919050565b5f80611d1083612658565b90505f73ffffffffffffffffffffffffffffffffffffffff168173ffffffffffffffffffffffffffffffffffffffff1603611d8257826040517f7e273289000000000000000000000000000000000000000000000000000000008152600401611d799190612da5565b60405180910390fd5b80915050919050565b5f60045f8381526020019081526020015f205f9054906101000a900473ffffffffffffffffffffffffffffffffffffffff169050919050565b5f33905090565b611dd88383836001612691565b505050565b5f80611de884612658565b90505f73ffffffffffffffffffffffffffffffffffffffff168373ffffffffffffffffffffffffffffffffffffffff1614611e2957611e28818486612850565b5b5f73ffffffffffffffffffffffffffffffffffffffff168173ffffffffffffffffffffffffffffffffffffffff1614611eb457611e685f855f80612691565b600160035f8373ffffffffffffffffffffffffffffffffffffffff1673ffffffffffffffffffffffffffffffffffffffff1681526020019081526020015f205f82825403925050819055505b5f73ffffffffffffffffffffffffffffffffffffffff168573ffffffffffffffffffffffffffffffffffffffff1614611f3357600160035f8773ffffffffffffffffffffffffffffffffffffffff1673ffffffffffffffffffffffffffffffffffffffff1681526020019081526020015f205f82825401925050819055505b8460025f8681526020019081526020015f205f6101000a81548173ffffffffffffffffffffffffffffffffffffffff021916908373ffffffffffffffffffffffffffffffffffffffff160217905550838573ffffffffffffffffffffffffffffffffffffffff168273ffffffffffffffffffffffffffffffffffffffff167fddf252ad1be2c89b69c2b068fc378daa952ba7f163c4a11628f55a4df523b3ef60405160405180910390a4809150509392505050565b6001815f015f828254019250508190555050565b5f815f01549050919050565b5f73ffffffffffffffffffffffffffffffffffffffff168273ffffffffffffffffffffffffffffffffffffffff1603612078575f6040517f64a0ae9200000000000000000000000000000000000000000000000000000000815260040161206f9190612c27565b60405180910390fd5b5f61208483835f611ddd565b90505f73ffffffffffffffffffffffffffffffffffffffff168173ffffffffffffffffffffffffffffffffffffffff16146120f6575f6040517f73c6ac6e0000000000000000000000000000000000000000000000000000000081526004016120ed9190612c27565b60405180910390fd5b505050565b5f73ffffffffffffffffffffffffffffffffffffffff168273ffffffffffffffffffffffffffffffffffffffff160361216b575f6040517f64a0ae920000000000000000000000000000000000000000000000000000000081526004016121629190612c27565b60405180910390fd5b5f61217783835f611ddd565b90505f73ffffffffffffffffffffffffffffffffffffffff168173ffffffffffffffffffffffffffffffffffffffff16036121e957816040517f7e2732890000000000000000000000000000000000000000000000000000000081526004016121e09190612da5565b60405180910390fd5b8373ffffffffffffffffffffffffffffffffffffffff168173ffffffffffffffffffffffffffffffffffffffff161461225d578382826040517f64283d7b00000000000000000000000000000000000000000000000000000000815260040161225493929190613424565b60405180910390fd5b50505050565b5f73ffffffffffffffffffffffffffffffffffffffff168273ffffffffffffffffffffffffffffffffffffffff16036122d357816040517f5b08ba180000000000000000000000000000000000000000000000000000000081526004016122ca9190612c27565b60405180910390fd5b8060055f8573ffffffffffffffffffffffffffffffffffffffff1673ffffffffffffffffffffffffffffffffffffffff1681526020019081526020015f205f8473ffffffffffffffffffffffffffffffffffffffff1673ffffffffffffffffffffffffffffffffffffffff1681526020019081526020015f205f6101000a81548160ff0219169083151502179055508173ffffffffffffffffffffffffffffffffffffffff168373ffffffffffffffffffffffffffffffffffffffff167f17307eab39ab6107e8899845ad3d59bd9653f200f220920489ca2b5937696c31836040516123bf9190612bcf565b60405180910390a3505050565b5f8373ffffffffffffffffffffffffffffffffffffffff163b1115612571578273ffffffffffffffffffffffffffffffffffffffff1663150b7a02868685856040518563ffffffff1660e01b815260040161242a9493929190613cdb565b6020604051808303815f875af192505050801561246557506040513d601f19601f820116820180604052508101906124629190613d39565b60015b6124e6573d805f8114612493576040519150601f19603f3d011682016040523d82523d5f602084013e612498565b606091505b505f8151036124de57836040517f64a0ae920000000000000000000000000000000000000000000000000000000081526004016124d59190612c27565b60405180910390fd5b805181602001fd5b63150b7a0260e01b7bffffffffffffffffffffffffffffffffffffffffffffffffffffffff1916817bffffffffffffffffffffffffffffffffffffffffffffffffffffffff19161461256f57836040517f64a0ae920000000000000000000000000000000000000000000000000000000081526004016125669190612c27565b60405180910390fd5b505b5050505050565b606060405180602001604052805f815250905090565b60605f600161259c84612913565b0190505f8167ffffffffffffffff8111156125ba576125b9612e16565b5b6040519080825280601f01601f1916602001820160405280156125ec5781602001600182028036833780820191505090505b5090505f82602001820190505b60011561264d578080600190039150507f3031323334353637383961626364656600000000000000000000000000000000600a86061a8153600a858161264257612641613a64565b5b0494505f85036125f9575b819350505050919050565b5f60025f8381526020019081526020015f205f9054906101000a900473ffffffffffffffffffffffffffffffffffffffff169050919050565b80806126c957505f73ffffffffffffffffffffffffffffffffffffffff168273ffffffffffffffffffffffffffffffffffffffff1614155b156127fb575f6126d884611d05565b90505f73ffffffffffffffffffffffffffffffffffffffff168373ffffffffffffffffffffffffffffffffffffffff161415801561274257508273ffffffffffffffffffffffffffffffffffffffff168173ffffffffffffffffffffffffffffffffffffffff1614155b801561275557506127538184611632565b155b1561279757826040517fa9fbf51f00000000000000000000000000000000000000000000000000000000815260040161278e9190612c27565b60405180910390fd5b81156127f957838573ffffffffffffffffffffffffffffffffffffffff168273ffffffffffffffffffffffffffffffffffffffff167f8c5be1e5ebec7d5bd14f71427d1e84f3dd0314c0f7b2291e5b200ac8c7c3b92560405160405180910390a45b505b8360045f8581526020019081526020015f205f6101000a81548173ffffffffffffffffffffffffffffffffffffffff021916908373ffffffffffffffffffffffffffffffffffffffff16021790555050505050565b61285b838383612a64565b61290e575f73ffffffffffffffffffffffffffffffffffffffff168373ffffffffffffffffffffffffffffffffffffffff16036128cf57806040517f7e2732890000000000000000000000000000000000000000000000000000000081526004016128c69190612da5565b60405180910390fd5b81816040517f177e802f000000000000000000000000000000000000000000000000000000008152600401612905929190613d64565b60405180910390fd5b505050565b5f805f90507a184f03e93ff9f4daa797ed6e38ed64bf6a1f010000000000000000831061296f577a184f03e93ff9f4daa797ed6e38ed64bf6a1f010000000000000000838161296557612964613a64565b5b0492506040810190505b6d04ee2d6d415b85acef810000000083106129ac576d04ee2d6d415b85acef810000000083816129a2576129a1613a64565b5b0492506020810190505b662386f26fc1000083106129db57662386f26fc1000083816129d1576129d0613a64565b5b0492506010810190505b6305f5e1008310612a04576305f5e10083816129fa576129f9613a64565b5b0492506008810190505b6127108310612a29576127108381612a1f57612a1e613a64565b5b0492506004810190505b60648310612a4c5760648381612a4257612a41613a64565b5b0492506002810190505b600a8310612a5b576001810190505b80915050919050565b5f8073ffffffffffffffffffffffffffffffffffffffff168373ffffffffffffffffffffffffffffffffffffffff1614158015612b1b57508273ffffffffffffffffffffffffffffffffffffffff168473ffffffffffffffffffffffffffffffffffffffff161480612adc5750612adb8484611632565b5b80612b1a57508273ffffffffffffffffffffffffffffffffffffffff16612b0283611d8b565b73ffffffffffffffffffffffffffffffffffffffff16145b5b90509392505050565b5f604051905090565b5f80fd5b5f80fd5b5f7fffffffff0000000000000000000000000000000000000000000000000000000082169050919050565b612b6981612b35565b8114612b73575f80fd5b50565b5f81359050612b8481612b60565b92915050565b5f60208284031215612b9f57612b9e612b2d565b5b5f612bac84828501612b76565b91505092915050565b5f8115159050919050565b612bc981612bb5565b82525050565b5f602082019050612be25f830184612bc0565b92915050565b5f73ffffffffffffffffffffffffffffffffffffffff82169050919050565b5f612c1182612be8565b9050919050565b612c2181612c07565b82525050565b5f602082019050612c3a5f830184612c18565b92915050565b5f81519050919050565b5f82825260208201905092915050565b8281835e5f83830152505050565b5f601f19601f8301169050919050565b5f612c8282612c40565b612c8c8185612c4a565b9350612c9c818560208601612c5a565b612ca581612c68565b840191505092915050565b5f6020820190508181035f830152612cc88184612c78565b905092915050565b5f819050919050565b612ce281612cd0565b8114612cec575f80fd5b50565b5f81359050612cfd81612cd9565b92915050565b5f60208284031215612d1857612d17612b2d565b5b5f612d2584828501612cef565b91505092915050565b612d3781612c07565b8114612d41575f80fd5b50565b5f81359050612d5281612d2e565b92915050565b5f8060408385031215612d6e57612d6d612b2d565b5b5f612d7b85828601612d44565b9250506020612d8c85828601612cef565b9150509250929050565b612d9f81612cd0565b82525050565b5f602082019050612db85f830184612d96565b92915050565b5f805f60608486031215612dd557612dd4612b2d565b5b5f612de286828701612d44565b9350506020612df386828701612d44565b9250506040612e0486828701612cef565b9150509250925092565b5f80fd5b5f80fd5b7f4e487b71000000000000000000000000000000000000000000000000000000005f52604160045260245ffd5b612e4c82612c68565b810181811067ffffffffffffffff82111715612e6b57612e6a612e16565b5b80604052505050565b5f612e7d612b24565b9050612e898282612e43565b919050565b5f67ffffffffffffffff821115612ea857612ea7612e16565b5b612eb182612c68565b9050602081019050919050565b828183375f83830152505050565b5f612ede612ed984612e8e565b612e74565b905082815260208101848484011115612efa57612ef9612e12565b5b612f05848285612ebe565b509392505050565b5f82601f830112612f2157612f20612e0e565b5b8135612f31848260208601612ecc565b91505092915050565b5f805f805f60a08688031215612f5357612f52612b2d565b5b5f86013567ffffffffffffffff811115612f7057612f6f612b31565b5b612f7c88828901612f0d565b955050602086013567ffffffffffffffff811115612f9d57612f9c612b31565b5b612fa988828901612f0d565b9450506040612fba88828901612cef565b9350506060612fcb88828901612cef565b9250506080612fdc88828901612cef565b9150509295509295909350565b5f60ff82169050919050565b612ffe81612fe9565b8114613008575f80fd5b50565b5f8135905061301981612ff5565b92915050565b5f805f805f8060c0878903121561303957613038612b2d565b5b5f61304689828a01612cef565b965050602061305789828a0161300b565b955050604061306889828a01612cef565b945050606061307989828a01612cef565b935050608061308a89828a01612cef565b92505060a061309b89828a01612cef565b9150509295509295509295565b5f805f80608085870312156130c0576130bf612b2d565b5b5f6130cd87828801612cef565b94505060206130de87828801612cef565b93505060406130ef87828801612cef565b925050606061310087828801612cef565b91505092959194509250565b5f6020828403121561312157613120612b2d565b5b5f61312e84828501612d44565b91505092915050565b61314081612bb5565b811461314a575f80fd5b50565b5f8135905061315b81613137565b92915050565b5f806040838503121561317757613176612b2d565b5b5f61318485828601612d44565b92505060206131958582860161314d565b9150509250929050565b5f67ffffffffffffffff8211156131b9576131b8612e16565b5b6131c282612c68565b9050602081019050919050565b5f6131e16131dc8461319f565b612e74565b9050828152602081018484840111156131fd576131fc612e12565b5b613208848285612ebe565b509392505050565b5f82601f83011261322457613223612e0e565b5b81356132348482602086016131cf565b91505092915050565b5f805f806080858703121561325557613254612b2d565b5b5f61326287828801612d44565b945050602061327387828801612d44565b935050604061328487828801612cef565b925050606085013567ffffffffffffffff8111156132a5576132a4612b31565b5b6132b187828801613210565b91505092959194509250565b5f60c0820190506132d05f830189612d96565b6132dd6020830188612c18565b6132ea6040830187612d96565b6132f76060830186612d96565b6133046080830185612bc0565b61331160a0830184612bc0565b979650505050505050565b5f806040838503121561333257613331612b2d565b5b5f61333f85828601612d44565b925050602061335085828601612d44565b9150509250929050565b5f60c08201905061336d5f830189612d96565b818103602083015261337f8188612c78565b905081810360408301526133938187612c78565b90506133a26060830186612d96565b6133af6080830185612d96565b6133bc60a0830184612d96565b979650505050505050565b7f4e487b71000000000000000000000000000000000000000000000000000000005f52602260045260245ffd5b5f600282049050600182168061340b57607f821691505b60208210810361341e5761341d6133c7565b5b50919050565b5f6060820190506134375f830186612c18565b6134446020830185612d96565b6134516040830184612c18565b949350505050565b7f4f6e6c792042696c426f79642063616e20706572666f726d20746869732061635f8201527f74696f6e2e000000000000000000000000000000000000000000000000000000602082015250565b5f6134b3602583612c4a565b91506134be82613459565b604082019050919050565b5f6020820190508181035f8301526134e0816134a7565b9050919050565b5f819050815f5260205f209050919050565b5f6020601f8301049050919050565b5f82821b905092915050565b5f600883026135437fffffffffffffffffffffffffffffffffffffffffffffffffffffffffffffffff82613508565b61354d8683613508565b95508019841693508086168417925050509392505050565b5f819050919050565b5f61358861358361357e84612cd0565b613565565b612cd0565b9050919050565b5f819050919050565b6135a18361356e565b6135b56135ad8261358f565b848454613514565b825550505050565b5f90565b6135c96135bd565b6135d4818484613598565b505050565b5b818110156135f7576135ec5f826135c1565b6001810190506135da565b5050565b601f82111561363c5761360d816134e7565b613616846134f9565b81016020851015613625578190505b613639613631856134f9565b8301826135d9565b50505b505050565b5f82821c905092915050565b5f61365c5f1984600802613641565b1980831691505092915050565b5f613674838361364d565b9150826002028217905092915050565b61368d82612c40565b67ffffffffffffffff8111156136a6576136a5612e16565b5b6136b082546133f4565b6136bb8282856135fb565b5f60209050601f8311600181146136ec575f84156136da578287015190505b6136e48582613669565b86555061374b565b601f1984166136fa866134e7565b5f5b82811015613721578489015182556001820191506020850194506020810190506136fc565b8683101561373e578489015161373a601f89168261364d565b8355505b6001600288020188555050505b505050505050565b7f4e6f7420617574686f72697a65642e00000000000000000000000000000000005f82015250565b5f613787600f83612c4a565b915061379282613753565b602082019050919050565b5f6020820190508181035f8301526137b48161377b565b9050919050565b7f4c65617365206e6f74206163746976652e0000000000000000000000000000005f82015250565b5f6137ef601183612c4a565b91506137fa826137bb565b602082019050919050565b5f6020820190508181035f83015261381c816137e3565b9050919050565b7f4e487b71000000000000000000000000000000000000000000000000000000005f52601160045260245ffd5b5f61385a82612cd0565b915061386583612cd0565b925082820190508082111561387d5761387c613823565b5b92915050565b7f496e76616c6964206f7074696f6e2073656c65637465642e00000000000000005f82015250565b5f6138b7601883612c4a565b91506138c282613883565b602082019050919050565b5f6020820190508181035f8301526138e4816138ab565b9050919050565b5f6138f582612cd0565b915061390083612cd0565b925082820261390e81612cd0565b9150828204841483151761392557613924613823565b5b5092915050565b7f496e636f7272656374207061796d656e7420616d6f756e742e000000000000005f82015250565b5f613960601983612c4a565b915061396b8261392c565b602082019050919050565b5f6020820190508181035f83015261398d81613954565b9050919050565b7f4c65617365206973206e6f74206163746976652e0000000000000000000000005f82015250565b5f6139c8601483612c4a565b91506139d382613994565b602082019050919050565b5f6020820190508181035f8301526139f5816139bc565b9050919050565b7f5061796d656e74206973206e6f74206f7665726475652e0000000000000000005f82015250565b5f613a30601783612c4a565b9150613a3b826139fc565b602082019050919050565b5f6020820190508181035f830152613a5d81613a24565b9050919050565b7f4e487b71000000000000000000000000000000000000000000000000000000005f52601260045260245ffd5b5f613a9b82612cd0565b9150613aa683612cd0565b925082613ab657613ab5613a64565b5b828204905092915050565b5f613acb82612cd0565b9150613ad683612cd0565b9250828203905081811115613aee57613aed613823565b5b92915050565b5f81905092915050565b5f613b0882612c40565b613b128185613af4565b9350613b22818560208601612c5a565b80840191505092915050565b5f613b398285613afe565b9150613b458284613afe565b91508190509392505050565b7f4c65617365206973206e6f7420636f6e6669726d65642e0000000000000000005f82015250565b5f613b85601783612c4a565b9150613b9082613b51565b602082019050919050565b5f6020820190508181035f830152613bb281613b79565b9050919050565b7f5061796d656e74206973206f7665726475652e000000000000000000000000005f82015250565b5f613bed601383612c4a565b9150613bf882613bb9565b602082019050919050565b5f6020820190508181035f830152613c1a81613be1565b9050919050565b7f4c6561736520616c726561647920636f6e6669726d65642e00000000000000005f82015250565b5f613c55601883612c4a565b9150613c6082613c21565b602082019050919050565b5f6020820190508181035f830152613c8281613c49565b9050919050565b5f81519050919050565b5f82825260208201905092915050565b5f613cad82613c89565b613cb78185613c93565b9350613cc7818560208601612c5a565b613cd081612c68565b840191505092915050565b5f608082019050613cee5f830187612c18565b613cfb6020830186612c18565b613d086040830185612d96565b8181036060830152613d1a8184613ca3565b905095945050505050565b5f81519050613d3381612b60565b92915050565b5f60208284031215613d4e57613d4d612b2d565b5b5f613d5b84828501613d25565b91505092915050565b5f604082019050613d775f830185612c18565b613d846020830184612d96565b939250505056fea264697066735822122046c88f00e91613145ca3f8bbf16a4a3fcc3ebab332577da4b1717d37b85232c764736f6c634300081a0033",
			"opcodes": "PUSH1 0x80 PUSH1 0x40 MSTORE CALLVALUE DUP1 ISZERO PUSH2 0xF JUMPI PUSH0 DUP1 REVERT JUMPDEST POP PUSH1 0x40 MLOAD DUP1 PUSH1 0x40 ADD PUSH1 0x40 MSTORE DUP1 PUSH1 0xD DUP2 MSTORE PUSH1 0x20 ADD PUSH32 0x42696C426F79644361724E465400000000000000000000000000000000000000 DUP2 MSTORE POP PUSH1 0x40 MLOAD DUP1 PUSH1 0x40 ADD PUSH1 0x40 MSTORE DUP1 PUSH1 0x6 DUP2 MSTORE PUSH1 0x20 ADD PUSH32 0x4242434E46540000000000000000000000000000000000000000000000000000 DUP2 MSTORE POP DUP2 PUSH0 SWAP1 DUP2 PUSH2 0x8A SWAP2 SWAP1 PUSH2 0x31C JUMP JUMPDEST POP DUP1 PUSH1 0x1 SWAP1 DUP2 PUSH2 0x9A SWAP2 SWAP1 PUSH2 0x31C JUMP JUMPDEST POP POP POP CALLER PUSH1 0x9 PUSH0 PUSH2 0x100 EXP DUP2 SLOAD DUP2 PUSH20 0xFFFFFFFFFFFFFFFFFFFFFFFFFFFFFFFFFFFFFFFF MUL NOT AND SWAP1 DUP4 PUSH20 0xFFFFFFFFFFFFFFFFFFFFFFFFFFFFFFFFFFFFFFFF AND MUL OR SWAP1 SSTORE POP PUSH2 0x3EB JUMP JUMPDEST PUSH0 DUP2 MLOAD SWAP1 POP SWAP2 SWAP1 POP JUMP JUMPDEST PUSH32 0x4E487B7100000000000000000000000000000000000000000000000000000000 PUSH0 MSTORE PUSH1 0x41 PUSH1 0x4 MSTORE PUSH1 0x24 PUSH0 REVERT JUMPDEST PUSH32 0x4E487B7100000000000000000000000000000000000000000000000000000000 PUSH0 MSTORE PUSH1 0x22 PUSH1 0x4 MSTORE PUSH1 0x24 PUSH0 REVERT JUMPDEST PUSH0 PUSH1 0x2 DUP3 DIV SWAP1 POP PUSH1 0x1 DUP3 AND DUP1 PUSH2 0x15D JUMPI PUSH1 0x7F DUP3 AND SWAP2 POP JUMPDEST PUSH1 0x20 DUP3 LT DUP2 SUB PUSH2 0x170 JUMPI PUSH2 0x16F PUSH2 0x119 JUMP JUMPDEST JUMPDEST POP SWAP2 SWAP1 POP JUMP JUMPDEST PUSH0 DUP2 SWAP1 POP DUP2 PUSH0 MSTORE PUSH1 0x20 PUSH0 KECCAK256 SWAP1 POP SWAP2 SWAP1 POP JUMP JUMPDEST PUSH0 PUSH1 0x20 PUSH1 0x1F DUP4 ADD DIV SWAP1 POP SWAP2 SWAP1 POP JUMP JUMPDEST PUSH0 DUP3 DUP3 SHL SWAP1 POP SWAP3 SWAP2 POP POP JUMP JUMPDEST PUSH0 PUSH1 0x8 DUP4 MUL PUSH2 0x1D2 PUSH32 0xFFFFFFFFFFFFFFFFFFFFFFFFFFFFFFFFFFFFFFFFFFFFFFFFFFFFFFFFFFFFFFFF DUP3 PUSH2 0x197 JUMP JUMPDEST PUSH2 0x1DC DUP7 DUP4 PUSH2 0x197 JUMP JUMPDEST SWAP6 POP DUP1 NOT DUP5 AND SWAP4 POP DUP1 DUP7 AND DUP5 OR SWAP3 POP POP POP SWAP4 SWAP3 POP POP POP JUMP JUMPDEST PUSH0 DUP2 SWAP1 POP SWAP2 SWAP1 POP JUMP JUMPDEST PUSH0 DUP2 SWAP1 POP SWAP2 SWAP1 POP JUMP JUMPDEST PUSH0 PUSH2 0x220 PUSH2 0x21B PUSH2 0x216 DUP5 PUSH2 0x1F4 JUMP JUMPDEST PUSH2 0x1FD JUMP JUMPDEST PUSH2 0x1F4 JUMP JUMPDEST SWAP1 POP SWAP2 SWAP1 POP JUMP JUMPDEST PUSH0 DUP2 SWAP1 POP SWAP2 SWAP1 POP JUMP JUMPDEST PUSH2 0x239 DUP4 PUSH2 0x206 JUMP JUMPDEST PUSH2 0x24D PUSH2 0x245 DUP3 PUSH2 0x227 JUMP JUMPDEST DUP5 DUP5 SLOAD PUSH2 0x1A3 JUMP JUMPDEST DUP3 SSTORE POP POP POP POP JUMP JUMPDEST PUSH0 SWAP1 JUMP JUMPDEST PUSH2 0x261 PUSH2 0x255 JUMP JUMPDEST PUSH2 0x26C DUP2 DUP5 DUP5 PUSH2 0x230 JUMP JUMPDEST POP POP POP JUMP JUMPDEST JUMPDEST DUP2 DUP2 LT ISZERO PUSH2 0x28F JUMPI PUSH2 0x284 PUSH0 DUP3 PUSH2 0x259 JUMP JUMPDEST PUSH1 0x1 DUP2 ADD SWAP1 POP PUSH2 0x272 JUMP JUMPDEST POP POP JUMP JUMPDEST PUSH1 0x1F DUP3 GT ISZERO PUSH2 0x2D4 JUMPI PUSH2 0x2A5 DUP2 PUSH2 0x176 JUMP JUMPDEST PUSH2 0x2AE DUP5 PUSH2 0x188 JUMP JUMPDEST DUP2 ADD PUSH1 0x20 DUP6 LT ISZERO PUSH2 0x2BD JUMPI DUP2 SWAP1 POP JUMPDEST PUSH2 0x2D1 PUSH2 0x2C9 DUP6 PUSH2 0x188 JUMP JUMPDEST DUP4 ADD DUP3 PUSH2 0x271 JUMP JUMPDEST POP POP JUMPDEST POP POP POP JUMP JUMPDEST PUSH0 DUP3 DUP3 SHR SWAP1 POP SWAP3 SWAP2 POP POP JUMP JUMPDEST PUSH0 PUSH2 0x2F4 PUSH0 NOT DUP5 PUSH1 0x8 MUL PUSH2 0x2D9 JUMP JUMPDEST NOT DUP1 DUP4 AND SWAP2 POP POP SWAP3 SWAP2 POP POP JUMP JUMPDEST PUSH0 PUSH2 0x30C DUP4 DUP4 PUSH2 0x2E5 JUMP JUMPDEST SWAP2 POP DUP3 PUSH1 0x2 MUL DUP3 OR SWAP1 POP SWAP3 SWAP2 POP POP JUMP JUMPDEST PUSH2 0x325 DUP3 PUSH2 0xE2 JUMP JUMPDEST PUSH8 0xFFFFFFFFFFFFFFFF DUP2 GT ISZERO PUSH2 0x33E JUMPI PUSH2 0x33D PUSH2 0xEC JUMP JUMPDEST JUMPDEST PUSH2 0x348 DUP3 SLOAD PUSH2 0x146 JUMP JUMPDEST PUSH2 0x353 DUP3 DUP3 DUP6 PUSH2 0x293 JUMP JUMPDEST PUSH0 PUSH1 0x20 SWAP1 POP PUSH1 0x1F DUP4 GT PUSH1 0x1 DUP2 EQ PUSH2 0x384 JUMPI PUSH0 DUP5 ISZERO PUSH2 0x372 JUMPI DUP3 DUP8 ADD MLOAD SWAP1 POP JUMPDEST PUSH2 0x37C DUP6 DUP3 PUSH2 0x301 JUMP JUMPDEST DUP7 SSTORE POP PUSH2 0x3E3 JUMP JUMPDEST PUSH1 0x1F NOT DUP5 AND PUSH2 0x392 DUP7 PUSH2 0x176 JUMP JUMPDEST PUSH0 JUMPDEST DUP3 DUP2 LT ISZERO PUSH2 0x3B9 JUMPI DUP5 DUP10 ADD MLOAD DUP3 SSTORE PUSH1 0x1 DUP3 ADD SWAP2 POP PUSH1 0x20 DUP6 ADD SWAP5 POP PUSH1 0x20 DUP2 ADD SWAP1 POP PUSH2 0x394 JUMP JUMPDEST DUP7 DUP4 LT ISZERO PUSH2 0x3D6 JUMPI DUP5 DUP10 ADD MLOAD PUSH2 0x3D2 PUSH1 0x1F DUP10 AND DUP3 PUSH2 0x2E5 JUMP JUMPDEST DUP4 SSTORE POP JUMPDEST PUSH1 0x1 PUSH1 0x2 DUP9 MUL ADD DUP9 SSTORE POP POP POP JUMPDEST POP POP POP POP POP POP JUMP JUMPDEST PUSH2 0x3DC1 DUP1 PUSH2 0x3F8 PUSH0 CODECOPY PUSH0 RETURN INVALID PUSH1 0x80 PUSH1 0x40 MSTORE PUSH1 0x4 CALLDATASIZE LT PUSH2 0x14A JUMPI PUSH0 CALLDATALOAD PUSH1 0xE0 SHR DUP1 PUSH4 0x70A08231 GT PUSH2 0xB5 JUMPI DUP1 PUSH4 0xC87B56DD GT PUSH2 0x6E JUMPI DUP1 PUSH4 0xC87B56DD EQ PUSH2 0x47E JUMPI DUP1 PUSH4 0xD74D1F43 EQ PUSH2 0x4BA JUMPI DUP1 PUSH4 0xE985E9C5 EQ PUSH2 0x4FB JUMPI DUP1 PUSH4 0xF01C823D EQ PUSH2 0x537 JUMPI DUP1 PUSH4 0xF5DF7010 EQ PUSH2 0x553 JUMPI DUP1 PUSH4 0xF7746E36 EQ PUSH2 0x57B JUMPI PUSH2 0x14A JUMP JUMPDEST DUP1 PUSH4 0x70A08231 EQ PUSH2 0x364 JUMPI DUP1 PUSH4 0x95D89B41 EQ PUSH2 0x3A0 JUMPI DUP1 PUSH4 0xA22CB465 EQ PUSH2 0x3CA JUMPI DUP1 PUSH4 0xAE14AE40 EQ PUSH2 0x3F2 JUMPI DUP1 PUSH4 0xB88D4FDE EQ PUSH2 0x41A JUMPI DUP1 PUSH4 0xC31CF51A EQ PUSH2 0x442 JUMPI PUSH2 0x14A JUMP JUMPDEST DUP1 PUSH4 0x23B872DD GT PUSH2 0x107 JUMPI DUP1 PUSH4 0x23B872DD EQ PUSH2 0x26C JUMPI DUP1 PUSH4 0x24CB1534 EQ PUSH2 0x294 JUMPI DUP1 PUSH4 0x3A8488F8 EQ PUSH2 0x2BC JUMPI DUP1 PUSH4 0x42842E0E EQ PUSH2 0x2E4 JUMPI DUP1 PUSH4 0x59638956 EQ PUSH2 0x30C JUMPI DUP1 PUSH4 0x6352211E EQ PUSH2 0x328 JUMPI PUSH2 0x14A JUMP JUMPDEST DUP1 PUSH4 0x1FFC9A7 EQ PUSH2 0x14E JUMPI DUP1 PUSH4 0x3EF5104 EQ PUSH2 0x18A JUMPI DUP1 PUSH4 0x6FDDE03 EQ PUSH2 0x1B4 JUMPI DUP1 PUSH4 0x81812FC EQ PUSH2 0x1DE JUMPI DUP1 PUSH4 0x95EA7B3 EQ PUSH2 0x21A JUMPI DUP1 PUSH4 0x200CA6EF EQ PUSH2 0x242 JUMPI JUMPDEST PUSH0 DUP1 REVERT JUMPDEST CALLVALUE DUP1 ISZERO PUSH2 0x159 JUMPI PUSH0 DUP1 REVERT JUMPDEST POP PUSH2 0x174 PUSH1 0x4 DUP1 CALLDATASIZE SUB DUP2 ADD SWAP1 PUSH2 0x16F SWAP2 SWAP1 PUSH2 0x2B8A JUMP JUMPDEST PUSH2 0x5BC JUMP JUMPDEST PUSH1 0x40 MLOAD PUSH2 0x181 SWAP2 SWAP1 PUSH2 0x2BCF JUMP JUMPDEST PUSH1 0x40 MLOAD DUP1 SWAP2 SUB SWAP1 RETURN JUMPDEST CALLVALUE DUP1 ISZERO PUSH2 0x195 JUMPI PUSH0 DUP1 REVERT JUMPDEST POP PUSH2 0x19E PUSH2 0x69D JUMP JUMPDEST PUSH1 0x40 MLOAD PUSH2 0x1AB SWAP2 SWAP1 PUSH2 0x2C27 JUMP JUMPDEST PUSH1 0x40 MLOAD DUP1 SWAP2 SUB SWAP1 RETURN JUMPDEST CALLVALUE DUP1 ISZERO PUSH2 0x1BF JUMPI PUSH0 DUP1 REVERT JUMPDEST POP PUSH2 0x1C8 PUSH2 0x6C2 JUMP JUMPDEST PUSH1 0x40 MLOAD PUSH2 0x1D5 SWAP2 SWAP1 PUSH2 0x2CB0 JUMP JUMPDEST PUSH1 0x40 MLOAD DUP1 SWAP2 SUB SWAP1 RETURN JUMPDEST CALLVALUE DUP1 ISZERO PUSH2 0x1E9 JUMPI PUSH0 DUP1 REVERT JUMPDEST POP PUSH2 0x204 PUSH1 0x4 DUP1 CALLDATASIZE SUB DUP2 ADD SWAP1 PUSH2 0x1FF SWAP2 SWAP1 PUSH2 0x2D03 JUMP JUMPDEST PUSH2 0x751 JUMP JUMPDEST PUSH1 0x40 MLOAD PUSH2 0x211 SWAP2 SWAP1 PUSH2 0x2C27 JUMP JUMPDEST PUSH1 0x40 MLOAD DUP1 SWAP2 SUB SWAP1 RETURN JUMPDEST CALLVALUE DUP1 ISZERO PUSH2 0x225 JUMPI PUSH0 DUP1 REVERT JUMPDEST POP PUSH2 0x240 PUSH1 0x4 DUP1 CALLDATASIZE SUB DUP2 ADD SWAP1 PUSH2 0x23B SWAP2 SWAP1 PUSH2 0x2D58 JUMP JUMPDEST PUSH2 0x76C JUMP JUMPDEST STOP JUMPDEST CALLVALUE DUP1 ISZERO PUSH2 0x24D JUMPI PUSH0 DUP1 REVERT JUMPDEST POP PUSH2 0x256 PUSH2 0x782 JUMP JUMPDEST PUSH1 0x40 MLOAD PUSH2 0x263 SWAP2 SWAP1 PUSH2 0x2DA5 JUMP JUMPDEST PUSH1 0x40 MLOAD DUP1 SWAP2 SUB SWAP1 RETURN JUMPDEST CALLVALUE DUP1 ISZERO PUSH2 0x277 JUMPI PUSH0 DUP1 REVERT JUMPDEST POP PUSH2 0x292 PUSH1 0x4 DUP1 CALLDATASIZE SUB DUP2 ADD SWAP1 PUSH2 0x28D SWAP2 SWAP1 PUSH2 0x2DBE JUMP JUMPDEST PUSH2 0x789 JUMP JUMPDEST STOP JUMPDEST CALLVALUE DUP1 ISZERO PUSH2 0x29F JUMPI PUSH0 DUP1 REVERT JUMPDEST POP PUSH2 0x2BA PUSH1 0x4 DUP1 CALLDATASIZE SUB DUP2 ADD SWAP1 PUSH2 0x2B5 SWAP2 SWAP1 PUSH2 0x2F3A JUMP JUMPDEST PUSH2 0x888 JUMP JUMPDEST STOP JUMPDEST CALLVALUE DUP1 ISZERO PUSH2 0x2C7 JUMPI PUSH0 DUP1 REVERT JUMPDEST POP PUSH2 0x2E2 PUSH1 0x4 DUP1 CALLDATASIZE SUB DUP2 ADD SWAP1 PUSH2 0x2DD SWAP2 SWAP1 PUSH2 0x301F JUMP JUMPDEST PUSH2 0x9F4 JUMP JUMPDEST STOP JUMPDEST CALLVALUE DUP1 ISZERO PUSH2 0x2EF JUMPI PUSH0 DUP1 REVERT JUMPDEST POP PUSH2 0x30A PUSH1 0x4 DUP1 CALLDATASIZE SUB DUP2 ADD SWAP1 PUSH2 0x305 SWAP2 SWAP1 PUSH2 0x2DBE JUMP JUMPDEST PUSH2 0xC4C JUMP JUMPDEST STOP JUMPDEST PUSH2 0x326 PUSH1 0x4 DUP1 CALLDATASIZE SUB DUP2 ADD SWAP1 PUSH2 0x321 SWAP2 SWAP1 PUSH2 0x30A8 JUMP JUMPDEST PUSH2 0xC6B JUMP JUMPDEST STOP JUMPDEST CALLVALUE DUP1 ISZERO PUSH2 0x333 JUMPI PUSH0 DUP1 REVERT JUMPDEST POP PUSH2 0x34E PUSH1 0x4 DUP1 CALLDATASIZE SUB DUP2 ADD SWAP1 PUSH2 0x349 SWAP2 SWAP1 PUSH2 0x2D03 JUMP JUMPDEST PUSH2 0xE37 JUMP JUMPDEST PUSH1 0x40 MLOAD PUSH2 0x35B SWAP2 SWAP1 PUSH2 0x2C27 JUMP JUMPDEST PUSH1 0x40 MLOAD DUP1 SWAP2 SUB SWAP1 RETURN JUMPDEST CALLVALUE DUP1 ISZERO PUSH2 0x36F JUMPI PUSH0 DUP1 REVERT JUMPDEST POP PUSH2 0x38A PUSH1 0x4 DUP1 CALLDATASIZE SUB DUP2 ADD SWAP1 PUSH2 0x385 SWAP2 SWAP1 PUSH2 0x310C JUMP JUMPDEST PUSH2 0xE48 JUMP JUMPDEST PUSH1 0x40 MLOAD PUSH2 0x397 SWAP2 SWAP1 PUSH2 0x2DA5 JUMP JUMPDEST PUSH1 0x40 MLOAD DUP1 SWAP2 SUB SWAP1 RETURN JUMPDEST CALLVALUE DUP1 ISZERO PUSH2 0x3AB JUMPI PUSH0 DUP1 REVERT JUMPDEST POP PUSH2 0x3B4 PUSH2 0xEFE JUMP JUMPDEST PUSH1 0x40 MLOAD PUSH2 0x3C1 SWAP2 SWAP1 PUSH2 0x2CB0 JUMP JUMPDEST PUSH1 0x40 MLOAD DUP1 SWAP2 SUB SWAP1 RETURN JUMPDEST CALLVALUE DUP1 ISZERO PUSH2 0x3D5 JUMPI PUSH0 DUP1 REVERT JUMPDEST POP PUSH2 0x3F0 PUSH1 0x4 DUP1 CALLDATASIZE SUB DUP2 ADD SWAP1 PUSH2 0x3EB SWAP2 SWAP1 PUSH2 0x3161 JUMP JUMPDEST PUSH2 0xF8E JUMP JUMPDEST STOP JUMPDEST CALLVALUE DUP1 ISZERO PUSH2 0x3FD JUMPI PUSH0 DUP1 REVERT JUMPDEST POP PUSH2 0x418 PUSH1 0x4 DUP1 CALLDATASIZE SUB DUP2 ADD SWAP1 PUSH2 0x413 SWAP2 SWAP1 PUSH2 0x310C JUMP JUMPDEST PUSH2 0xFA4 JUMP JUMPDEST STOP JUMPDEST CALLVALUE DUP1 ISZERO PUSH2 0x425 JUMPI PUSH0 DUP1 REVERT JUMPDEST POP PUSH2 0x440 PUSH1 0x4 DUP1 CALLDATASIZE SUB DUP2 ADD SWAP1 PUSH2 0x43B SWAP2 SWAP1 PUSH2 0x323D JUMP JUMPDEST PUSH2 0x1159 JUMP JUMPDEST STOP JUMPDEST CALLVALUE DUP1 ISZERO PUSH2 0x44D JUMPI PUSH0 DUP1 REVERT JUMPDEST POP PUSH2 0x468 PUSH1 0x4 DUP1 CALLDATASIZE SUB DUP2 ADD SWAP1 PUSH2 0x463 SWAP2 SWAP1 PUSH2 0x30A8 JUMP JUMPDEST PUSH2 0x117E JUMP JUMPDEST PUSH1 0x40 MLOAD PUSH2 0x475 SWAP2 SWAP1 PUSH2 0x2DA5 JUMP JUMPDEST PUSH1 0x40 MLOAD DUP1 SWAP2 SUB SWAP1 RETURN JUMPDEST CALLVALUE DUP1 ISZERO PUSH2 0x489 JUMPI PUSH0 DUP1 REVERT JUMPDEST POP PUSH2 0x4A4 PUSH1 0x4 DUP1 CALLDATASIZE SUB DUP2 ADD SWAP1 PUSH2 0x49F SWAP2 SWAP1 PUSH2 0x2D03 JUMP JUMPDEST PUSH2 0x155C JUMP JUMPDEST PUSH1 0x40 MLOAD PUSH2 0x4B1 SWAP2 SWAP1 PUSH2 0x2CB0 JUMP JUMPDEST PUSH1 0x40 MLOAD DUP1 SWAP2 SUB SWAP1 RETURN JUMPDEST CALLVALUE DUP1 ISZERO PUSH2 0x4C5 JUMPI PUSH0 DUP1 REVERT JUMPDEST POP PUSH2 0x4E0 PUSH1 0x4 DUP1 CALLDATASIZE SUB DUP2 ADD SWAP1 PUSH2 0x4DB SWAP2 SWAP1 PUSH2 0x310C JUMP JUMPDEST PUSH2 0x15C2 JUMP JUMPDEST PUSH1 0x40 MLOAD PUSH2 0x4F2 SWAP7 SWAP6 SWAP5 SWAP4 SWAP3 SWAP2 SWAP1 PUSH2 0x32BD JUMP JUMPDEST PUSH1 0x40 MLOAD DUP1 SWAP2 SUB SWAP1 RETURN JUMPDEST CALLVALUE DUP1 ISZERO PUSH2 0x506 JUMPI PUSH0 DUP1 REVERT JUMPDEST POP PUSH2 0x521 PUSH1 0x4 DUP1 CALLDATASIZE SUB DUP2 ADD SWAP1 PUSH2 0x51C SWAP2 SWAP1 PUSH2 0x331C JUMP JUMPDEST PUSH2 0x1632 JUMP JUMPDEST PUSH1 0x40 MLOAD PUSH2 0x52E SWAP2 SWAP1 PUSH2 0x2BCF JUMP JUMPDEST PUSH1 0x40 MLOAD DUP1 SWAP2 SUB SWAP1 RETURN JUMPDEST PUSH2 0x551 PUSH1 0x4 DUP1 CALLDATASIZE SUB DUP2 ADD SWAP1 PUSH2 0x54C SWAP2 SWAP1 PUSH2 0x2D03 JUMP JUMPDEST PUSH2 0x16C0 JUMP JUMPDEST STOP JUMPDEST CALLVALUE DUP1 ISZERO PUSH2 0x55E JUMPI PUSH0 DUP1 REVERT JUMPDEST POP PUSH2 0x579 PUSH1 0x4 DUP1 CALLDATASIZE SUB DUP2 ADD SWAP1 PUSH2 0x574 SWAP2 SWAP1 PUSH2 0x310C JUMP JUMPDEST PUSH2 0x1935 JUMP JUMPDEST STOP JUMPDEST CALLVALUE DUP1 ISZERO PUSH2 0x586 JUMPI PUSH0 DUP1 REVERT JUMPDEST POP PUSH2 0x5A1 PUSH1 0x4 DUP1 CALLDATASIZE SUB DUP2 ADD SWAP1 PUSH2 0x59C SWAP2 SWAP1 PUSH2 0x2D03 JUMP JUMPDEST PUSH2 0x1B58 JUMP JUMPDEST PUSH1 0x40 MLOAD PUSH2 0x5B3 SWAP7 SWAP6 SWAP5 SWAP4 SWAP3 SWAP2 SWAP1 PUSH2 0x335A JUMP JUMPDEST PUSH1 0x40 MLOAD DUP1 SWAP2 SUB SWAP1 RETURN JUMPDEST PUSH0 PUSH32 0x80AC58CD00000000000000000000000000000000000000000000000000000000 PUSH28 0xFFFFFFFFFFFFFFFFFFFFFFFFFFFFFFFFFFFFFFFFFFFFFFFFFFFFFFFF NOT AND DUP3 PUSH28 0xFFFFFFFFFFFFFFFFFFFFFFFFFFFFFFFFFFFFFFFFFFFFFFFFFFFFFFFF NOT AND EQ DUP1 PUSH2 0x686 JUMPI POP PUSH32 0x5B5E139F00000000000000000000000000000000000000000000000000000000 PUSH28 0xFFFFFFFFFFFFFFFFFFFFFFFFFFFFFFFFFFFFFFFFFFFFFFFFFFFFFFFF NOT AND DUP3 PUSH28 0xFFFFFFFFFFFFFFFFFFFFFFFFFFFFFFFFFFFFFFFFFFFFFFFFFFFFFFFF NOT AND EQ JUMPDEST DUP1 PUSH2 0x696 JUMPI POP PUSH2 0x695 DUP3 PUSH2 0x1C9C JUMP JUMPDEST JUMPDEST SWAP1 POP SWAP2 SWAP1 POP JUMP JUMPDEST PUSH1 0x9 PUSH0 SWAP1 SLOAD SWAP1 PUSH2 0x100 EXP SWAP1 DIV PUSH20 0xFFFFFFFFFFFFFFFFFFFFFFFFFFFFFFFFFFFFFFFF AND DUP2 JUMP JUMPDEST PUSH1 0x60 PUSH0 DUP1 SLOAD PUSH2 0x6D0 SWAP1 PUSH2 0x33F4 JUMP JUMPDEST DUP1 PUSH1 0x1F ADD PUSH1 0x20 DUP1 SWAP2 DIV MUL PUSH1 0x20 ADD PUSH1 0x40 MLOAD SWAP1 DUP2 ADD PUSH1 0x40 MSTORE DUP1 SWAP3 SWAP2 SWAP1 DUP2 DUP2 MSTORE PUSH1 0x20 ADD DUP3 DUP1 SLOAD PUSH2 0x6FC SWAP1 PUSH2 0x33F4 JUMP JUMPDEST DUP1 ISZERO PUSH2 0x747 JUMPI DUP1 PUSH1 0x1F LT PUSH2 0x71E JUMPI PUSH2 0x100 DUP1 DUP4 SLOAD DIV MUL DUP4 MSTORE SWAP2 PUSH1 0x20 ADD SWAP2 PUSH2 0x747 JUMP JUMPDEST DUP3 ADD SWAP2 SWAP1 PUSH0 MSTORE PUSH1 0x20 PUSH0 KECCAK256 SWAP1 JUMPDEST DUP2 SLOAD DUP2 MSTORE SWAP1 PUSH1 0x1 ADD SWAP1 PUSH1 0x20 ADD DUP1 DUP4 GT PUSH2 0x72A JUMPI DUP3 SWAP1 SUB PUSH1 0x1F AND DUP3 ADD SWAP2 JUMPDEST POP POP POP POP POP SWAP1 POP SWAP1 JUMP JUMPDEST PUSH0 PUSH2 0x75B DUP3 PUSH2 0x1D05 JUMP JUMPDEST POP PUSH2 0x765 DUP3 PUSH2 0x1D8B JUMP JUMPDEST SWAP1 POP SWAP2 SWAP1 POP JUMP JUMPDEST PUSH2 0x77E DUP3 DUP3 PUSH2 0x779 PUSH2 0x1DC4 JUMP JUMPDEST PUSH2 0x1DCB JUMP JUMPDEST POP POP JUMP JUMPDEST PUSH3 0x278D00 DUP2 JUMP JUMPDEST PUSH0 PUSH20 0xFFFFFFFFFFFFFFFFFFFFFFFFFFFFFFFFFFFFFFFF AND DUP3 PUSH20 0xFFFFFFFFFFFFFFFFFFFFFFFFFFFFFFFFFFFFFFFF AND SUB PUSH2 0x7F9 JUMPI PUSH0 PUSH1 0x40 MLOAD PUSH32 0x64A0AE9200000000000000000000000000000000000000000000000000000000 DUP2 MSTORE PUSH1 0x4 ADD PUSH2 0x7F0 SWAP2 SWAP1 PUSH2 0x2C27 JUMP JUMPDEST PUSH1 0x40 MLOAD DUP1 SWAP2 SUB SWAP1 REVERT JUMPDEST PUSH0 PUSH2 0x80C DUP4 DUP4 PUSH2 0x807 PUSH2 0x1DC4 JUMP JUMPDEST PUSH2 0x1DDD JUMP JUMPDEST SWAP1 POP DUP4 PUSH20 0xFFFFFFFFFFFFFFFFFFFFFFFFFFFFFFFFFFFFFFFF AND DUP2 PUSH20 0xFFFFFFFFFFFFFFFFFFFFFFFFFFFFFFFFFFFFFFFF AND EQ PUSH2 0x882 JUMPI DUP4 DUP3 DUP3 PUSH1 0x40 MLOAD PUSH32 0x64283D7B00000000000000000000000000000000000000000000000000000000 DUP2 MSTORE PUSH1 0x4 ADD PUSH2 0x879 SWAP4 SWAP3 SWAP2 SWAP1 PUSH2 0x3424 JUMP JUMPDEST PUSH1 0x40 MLOAD DUP1 SWAP2 SUB SWAP1 REVERT JUMPDEST POP POP POP POP JUMP JUMPDEST PUSH1 0x9 PUSH0 SWAP1 SLOAD SWAP1 PUSH2 0x100 EXP SWAP1 DIV PUSH20 0xFFFFFFFFFFFFFFFFFFFFFFFFFFFFFFFFFFFFFFFF AND PUSH20 0xFFFFFFFFFFFFFFFFFFFFFFFFFFFFFFFFFFFFFFFF AND CALLER PUSH20 0xFFFFFFFFFFFFFFFFFFFFFFFFFFFFFFFFFFFFFFFF AND EQ PUSH2 0x917 JUMPI PUSH1 0x40 MLOAD PUSH32 0x8C379A000000000000000000000000000000000000000000000000000000000 DUP2 MSTORE PUSH1 0x4 ADD PUSH2 0x90E SWAP1 PUSH2 0x34C9 JUMP JUMPDEST PUSH1 0x40 MLOAD DUP1 SWAP2 SUB SWAP1 REVERT JUMPDEST PUSH2 0x921 PUSH1 0x6 PUSH2 0x1FE8 JUMP JUMPDEST PUSH0 PUSH2 0x92C PUSH1 0x6 PUSH2 0x1FFC JUMP JUMPDEST SWAP1 POP PUSH1 0x40 MLOAD DUP1 PUSH1 0xC0 ADD PUSH1 0x40 MSTORE DUP1 DUP3 DUP2 MSTORE PUSH1 0x20 ADD DUP8 DUP2 MSTORE PUSH1 0x20 ADD DUP7 DUP2 MSTORE PUSH1 0x20 ADD DUP6 DUP2 MSTORE PUSH1 0x20 ADD DUP5 DUP2 MSTORE PUSH1 0x20 ADD DUP4 DUP2 MSTORE POP PUSH1 0x7 PUSH0 DUP4 DUP2 MSTORE PUSH1 0x20 ADD SWAP1 DUP2 MSTORE PUSH1 0x20 ADD PUSH0 KECCAK256 PUSH0 DUP3 ADD MLOAD DUP2 PUSH0 ADD SSTORE PUSH1 0x20 DUP3 ADD MLOAD DUP2 PUSH1 0x1 ADD SWAP1 DUP2 PUSH2 0x989 SWAP2 SWAP1 PUSH2 0x3684 JUMP JUMPDEST POP PUSH1 0x40 DUP3 ADD MLOAD DUP2 PUSH1 0x2 ADD SWAP1 DUP2 PUSH2 0x99F SWAP2 SWAP1 PUSH2 0x3684 JUMP JUMPDEST POP PUSH1 0x60 DUP3 ADD MLOAD DUP2 PUSH1 0x3 ADD SSTORE PUSH1 0x80 DUP3 ADD MLOAD DUP2 PUSH1 0x4 ADD SSTORE PUSH1 0xA0 DUP3 ADD MLOAD DUP2 PUSH1 0x5 ADD SSTORE SWAP1 POP POP PUSH2 0x9EC PUSH1 0x9 PUSH0 SWAP1 SLOAD SWAP1 PUSH2 0x100 EXP SWAP1 DIV PUSH20 0xFFFFFFFFFFFFFFFFFFFFFFFFFFFFFFFFFFFFFFFF AND DUP3 PUSH2 0x2008 JUMP JUMPDEST POP POP POP POP POP POP JUMP JUMPDEST DUP6 DUP1 PUSH1 0x8 PUSH0 CALLER PUSH20 0xFFFFFFFFFFFFFFFFFFFFFFFFFFFFFFFFFFFFFFFF AND PUSH20 0xFFFFFFFFFFFFFFFFFFFFFFFFFFFFFFFFFFFFFFFF AND DUP2 MSTORE PUSH1 0x20 ADD SWAP1 DUP2 MSTORE PUSH1 0x20 ADD PUSH0 KECCAK256 PUSH0 ADD SLOAD EQ PUSH2 0xA76 JUMPI PUSH1 0x40 MLOAD PUSH32 0x8C379A000000000000000000000000000000000000000000000000000000000 DUP2 MSTORE PUSH1 0x4 ADD PUSH2 0xA6D SWAP1 PUSH2 0x379D JUMP JUMPDEST PUSH1 0x40 MLOAD DUP1 SWAP2 SUB SWAP1 REVERT JUMPDEST PUSH0 PUSH1 0x8 PUSH0 CALLER PUSH20 0xFFFFFFFFFFFFFFFFFFFFFFFFFFFFFFFFFFFFFFFF AND PUSH20 0xFFFFFFFFFFFFFFFFFFFFFFFFFFFFFFFFFFFFFFFF AND DUP2 MSTORE PUSH1 0x20 ADD SWAP1 DUP2 MSTORE PUSH1 0x20 ADD PUSH0 KECCAK256 SWAP1 POP DUP1 PUSH1 0x4 ADD PUSH1 0x1 SWAP1 SLOAD SWAP1 PUSH2 0x100 EXP SWAP1 DIV PUSH1 0xFF AND PUSH2 0xB07 JUMPI PUSH1 0x40 MLOAD PUSH32 0x8C379A000000000000000000000000000000000000000000000000000000000 DUP2 MSTORE PUSH1 0x4 ADD PUSH2 0xAFE SWAP1 PUSH2 0x3805 JUMP JUMPDEST PUSH1 0x40 MLOAD DUP1 SWAP2 SUB SWAP1 REVERT JUMPDEST PUSH1 0x1 DUP8 PUSH1 0xFF AND SUB PUSH2 0xB5F JUMPI PUSH0 DUP2 PUSH1 0x4 ADD PUSH1 0x1 PUSH2 0x100 EXP DUP2 SLOAD DUP2 PUSH1 0xFF MUL NOT AND SWAP1 DUP4 ISZERO ISZERO MUL OR SWAP1 SSTORE POP PUSH2 0xB5A CALLER PUSH1 0x9 PUSH0 SWAP1 SLOAD SWAP1 PUSH2 0x100 EXP SWAP1 DIV PUSH20 0xFFFFFFFFFFFFFFFFFFFFFFFFFFFFFFFFFFFFFFFF AND DUP11 PUSH2 0x20FB JUMP JUMPDEST PUSH2 0xC42 JUMP JUMPDEST PUSH1 0x2 DUP8 PUSH1 0xFF AND SUB PUSH2 0xBA1 JUMPI PUSH0 PUSH2 0xB79 DUP10 PUSH0 PUSH1 0x1 PUSH1 0xC PUSH2 0x117E JUMP JUMPDEST SWAP1 POP DUP1 DUP3 PUSH1 0x2 ADD DUP2 SWAP1 SSTORE POP PUSH3 0x278D00 TIMESTAMP PUSH2 0xB93 SWAP2 SWAP1 PUSH2 0x3850 JUMP JUMPDEST DUP3 PUSH1 0x3 ADD DUP2 SWAP1 SSTORE POP POP PUSH2 0xC41 JUMP JUMPDEST PUSH1 0x3 DUP8 PUSH1 0xFF AND SUB PUSH2 0xC05 JUMPI PUSH0 DUP2 PUSH1 0x4 ADD PUSH1 0x1 PUSH2 0x100 EXP DUP2 SLOAD DUP2 PUSH1 0xFF MUL NOT AND SWAP1 DUP4 ISZERO ISZERO MUL OR SWAP1 SSTORE POP PUSH2 0xBF4 CALLER PUSH1 0x9 PUSH0 SWAP1 SLOAD SWAP1 PUSH2 0x100 EXP SWAP1 DIV PUSH20 0xFFFFFFFFFFFFFFFFFFFFFFFFFFFFFFFFFFFFFFFF AND DUP11 PUSH2 0x20FB JUMP JUMPDEST PUSH2 0xC00 DUP7 DUP7 DUP7 DUP7 PUSH2 0xC6B JUMP JUMPDEST PUSH2 0xC40 JUMP JUMPDEST PUSH1 0x40 MLOAD PUSH32 0x8C379A000000000000000000000000000000000000000000000000000000000 DUP2 MSTORE PUSH1 0x4 ADD PUSH2 0xC37 SWAP1 PUSH2 0x38CD JUMP JUMPDEST PUSH1 0x40 MLOAD DUP1 SWAP2 SUB SWAP1 REVERT JUMPDEST JUMPDEST JUMPDEST POP POP POP POP POP POP POP POP JUMP JUMPDEST PUSH2 0xC66 DUP4 DUP4 DUP4 PUSH1 0x40 MLOAD DUP1 PUSH1 0x20 ADD PUSH1 0x40 MSTORE DUP1 PUSH0 DUP2 MSTORE POP PUSH2 0x1159 JUMP JUMPDEST POP POP POP JUMP JUMPDEST PUSH0 PUSH2 0xC78 DUP6 DUP6 DUP6 DUP6 PUSH2 0x117E JUMP JUMPDEST SWAP1 POP PUSH0 PUSH1 0x4 DUP3 PUSH2 0xC88 SWAP2 SWAP1 PUSH2 0x38EB JUMP JUMPDEST SWAP1 POP DUP1 CALLVALUE EQ PUSH2 0xCCC JUMPI PUSH1 0x40 MLOAD PUSH32 0x8C379A000000000000000000000000000000000000000000000000000000000 DUP2 MSTORE PUSH1 0x4 ADD PUSH2 0xCC3 SWAP1 PUSH2 0x3976 JUMP JUMPDEST PUSH1 0x40 MLOAD DUP1 SWAP2 SUB SWAP1 REVERT JUMPDEST PUSH1 0x40 MLOAD DUP1 PUSH1 0xC0 ADD PUSH1 0x40 MSTORE DUP1 DUP8 DUP2 MSTORE PUSH1 0x20 ADD CALLER PUSH20 0xFFFFFFFFFFFFFFFFFFFFFFFFFFFFFFFFFFFFFFFF AND DUP2 MSTORE PUSH1 0x20 ADD DUP4 DUP2 MSTORE PUSH1 0x20 ADD PUSH3 0x278D00 TIMESTAMP PUSH2 0xD0E SWAP2 SWAP1 PUSH2 0x3850 JUMP JUMPDEST DUP2 MSTORE PUSH1 0x20 ADD PUSH0 ISZERO ISZERO DUP2 MSTORE PUSH1 0x20 ADD PUSH1 0x1 ISZERO ISZERO DUP2 MSTORE POP PUSH1 0x8 PUSH0 CALLER PUSH20 0xFFFFFFFFFFFFFFFFFFFFFFFFFFFFFFFFFFFFFFFF AND PUSH20 0xFFFFFFFFFFFFFFFFFFFFFFFFFFFFFFFFFFFFFFFF AND DUP2 MSTORE PUSH1 0x20 ADD SWAP1 DUP2 MSTORE PUSH1 0x20 ADD PUSH0 KECCAK256 PUSH0 DUP3 ADD MLOAD DUP2 PUSH0 ADD SSTORE PUSH1 0x20 DUP3 ADD MLOAD DUP2 PUSH1 0x1 ADD PUSH0 PUSH2 0x100 EXP DUP2 SLOAD DUP2 PUSH20 0xFFFFFFFFFFFFFFFFFFFFFFFFFFFFFFFFFFFFFFFF MUL NOT AND SWAP1 DUP4 PUSH20 0xFFFFFFFFFFFFFFFFFFFFFFFFFFFFFFFFFFFFFFFF AND MUL OR SWAP1 SSTORE POP PUSH1 0x40 DUP3 ADD MLOAD DUP2 PUSH1 0x2 ADD SSTORE PUSH1 0x60 DUP3 ADD MLOAD DUP2 PUSH1 0x3 ADD SSTORE PUSH1 0x80 DUP3 ADD MLOAD DUP2 PUSH1 0x4 ADD PUSH0 PUSH2 0x100 EXP DUP2 SLOAD DUP2 PUSH1 0xFF MUL NOT AND SWAP1 DUP4 ISZERO ISZERO MUL OR SWAP1 SSTORE POP PUSH1 0xA0 DUP3 ADD MLOAD DUP2 PUSH1 0x4 ADD PUSH1 0x1 PUSH2 0x100 EXP DUP2 SLOAD DUP2 PUSH1 0xFF MUL NOT AND SWAP1 DUP4 ISZERO ISZERO MUL OR SWAP1 SSTORE POP SWAP1 POP POP PUSH2 0xE2F PUSH1 0x9 PUSH0 SWAP1 SLOAD SWAP1 PUSH2 0x100 EXP SWAP1 DIV PUSH20 0xFFFFFFFFFFFFFFFFFFFFFFFFFFFFFFFFFFFFFFFF AND CALLER DUP9 PUSH2 0x20FB JUMP JUMPDEST POP POP POP POP POP POP JUMP JUMPDEST PUSH0 PUSH2 0xE41 DUP3 PUSH2 0x1D05 JUMP JUMPDEST SWAP1 POP SWAP2 SWAP1 POP JUMP JUMPDEST PUSH0 DUP1 PUSH20 0xFFFFFFFFFFFFFFFFFFFFFFFFFFFFFFFFFFFFFFFF AND DUP3 PUSH20 0xFFFFFFFFFFFFFFFFFFFFFFFFFFFFFFFFFFFFFFFF AND SUB PUSH2 0xEB9 JUMPI PUSH0 PUSH1 0x40 MLOAD PUSH32 0x89C62B6400000000000000000000000000000000000000000000000000000000 DUP2 MSTORE PUSH1 0x4 ADD PUSH2 0xEB0 SWAP2 SWAP1 PUSH2 0x2C27 JUMP JUMPDEST PUSH1 0x40 MLOAD DUP1 SWAP2 SUB SWAP1 REVERT JUMPDEST PUSH1 0x3 PUSH0 DUP4 PUSH20 0xFFFFFFFFFFFFFFFFFFFFFFFFFFFFFFFFFFFFFFFF AND PUSH20 0xFFFFFFFFFFFFFFFFFFFFFFFFFFFFFFFFFFFFFFFF AND DUP2 MSTORE PUSH1 0x20 ADD SWAP1 DUP2 MSTORE PUSH1 0x20 ADD PUSH0 KECCAK256 SLOAD SWAP1 POP SWAP2 SWAP1 POP JUMP JUMPDEST PUSH1 0x60 PUSH1 0x1 DUP1 SLOAD PUSH2 0xF0D SWAP1 PUSH2 0x33F4 JUMP JUMPDEST DUP1 PUSH1 0x1F ADD PUSH1 0x20 DUP1 SWAP2 DIV MUL PUSH1 0x20 ADD PUSH1 0x40 MLOAD SWAP1 DUP2 ADD PUSH1 0x40 MSTORE DUP1 SWAP3 SWAP2 SWAP1 DUP2 DUP2 MSTORE PUSH1 0x20 ADD DUP3 DUP1 SLOAD PUSH2 0xF39 SWAP1 PUSH2 0x33F4 JUMP JUMPDEST DUP1 ISZERO PUSH2 0xF84 JUMPI DUP1 PUSH1 0x1F LT PUSH2 0xF5B JUMPI PUSH2 0x100 DUP1 DUP4 SLOAD DIV MUL DUP4 MSTORE SWAP2 PUSH1 0x20 ADD SWAP2 PUSH2 0xF84 JUMP JUMPDEST DUP3 ADD SWAP2 SWAP1 PUSH0 MSTORE PUSH1 0x20 PUSH0 KECCAK256 SWAP1 JUMPDEST DUP2 SLOAD DUP2 MSTORE SWAP1 PUSH1 0x1 ADD SWAP1 PUSH1 0x20 ADD DUP1 DUP4 GT PUSH2 0xF67 JUMPI DUP3 SWAP1 SUB PUSH1 0x1F AND DUP3 ADD SWAP2 JUMPDEST POP POP POP POP POP SWAP1 POP SWAP1 JUMP JUMPDEST PUSH2 0xFA0 PUSH2 0xF99 PUSH2 0x1DC4 JUMP JUMPDEST DUP4 DUP4 PUSH2 0x2263 JUMP JUMPDEST POP POP JUMP JUMPDEST PUSH1 0x9 PUSH0 SWAP1 SLOAD SWAP1 PUSH2 0x100 EXP SWAP1 DIV PUSH20 0xFFFFFFFFFFFFFFFFFFFFFFFFFFFFFFFFFFFFFFFF AND PUSH20 0xFFFFFFFFFFFFFFFFFFFFFFFFFFFFFFFFFFFFFFFF AND CALLER PUSH20 0xFFFFFFFFFFFFFFFFFFFFFFFFFFFFFFFFFFFFFFFF AND EQ PUSH2 0x1033 JUMPI PUSH1 0x40 MLOAD PUSH32 0x8C379A000000000000000000000000000000000000000000000000000000000 DUP2 MSTORE PUSH1 0x4 ADD PUSH2 0x102A SWAP1 PUSH2 0x34C9 JUMP JUMPDEST PUSH1 0x40 MLOAD DUP1 SWAP2 SUB SWAP1 REVERT JUMPDEST PUSH0 PUSH1 0x8 PUSH0 DUP4 PUSH20 0xFFFFFFFFFFFFFFFFFFFFFFFFFFFFFFFFFFFFFFFF AND PUSH20 0xFFFFFFFFFFFFFFFFFFFFFFFFFFFFFFFFFFFFFFFF AND DUP2 MSTORE PUSH1 0x20 ADD SWAP1 DUP2 MSTORE PUSH1 0x20 ADD PUSH0 KECCAK256 SWAP1 POP DUP1 PUSH1 0x4 ADD PUSH1 0x1 SWAP1 SLOAD SWAP1 PUSH2 0x100 EXP SWAP1 DIV PUSH1 0xFF AND PUSH2 0x10C4 JUMPI PUSH1 0x40 MLOAD PUSH32 0x8C379A000000000000000000000000000000000000000000000000000000000 DUP2 MSTORE PUSH1 0x4 ADD PUSH2 0x10BB SWAP1 PUSH2 0x39DE JUMP JUMPDEST PUSH1 0x40 MLOAD DUP1 SWAP2 SUB SWAP1 REVERT JUMPDEST DUP1 PUSH1 0x3 ADD SLOAD TIMESTAMP GT PUSH2 0x110A JUMPI PUSH1 0x40 MLOAD PUSH32 0x8C379A000000000000000000000000000000000000000000000000000000000 DUP2 MSTORE PUSH1 0x4 ADD PUSH2 0x1101 SWAP1 PUSH2 0x3A46 JUMP JUMPDEST PUSH1 0x40 MLOAD DUP1 SWAP2 SUB SWAP1 REVERT JUMPDEST PUSH0 DUP2 PUSH1 0x4 ADD PUSH1 0x1 PUSH2 0x100 EXP DUP2 SLOAD DUP2 PUSH1 0xFF MUL NOT AND SWAP1 DUP4 ISZERO ISZERO MUL OR SWAP1 SSTORE POP PUSH2 0x1155 DUP3 PUSH1 0x9 PUSH0 SWAP1 SLOAD SWAP1 PUSH2 0x100 EXP SWAP1 DIV PUSH20 0xFFFFFFFFFFFFFFFFFFFFFFFFFFFFFFFFFFFFFFFF AND DUP4 PUSH0 ADD SLOAD PUSH2 0x20FB JUMP JUMPDEST POP POP JUMP JUMPDEST PUSH2 0x1164 DUP5 DUP5 DUP5 PUSH2 0x789 JUMP JUMPDEST PUSH2 0x1178 PUSH2 0x116F PUSH2 0x1DC4 JUMP JUMPDEST DUP6 DUP6 DUP6 DUP6 PUSH2 0x23CC JUMP JUMPDEST POP POP POP POP JUMP JUMPDEST PUSH0 DUP1 PUSH1 0x7 PUSH0 DUP8 DUP2 MSTORE PUSH1 0x20 ADD SWAP1 DUP2 MSTORE PUSH1 0x20 ADD PUSH0 KECCAK256 PUSH1 0x40 MLOAD DUP1 PUSH1 0xC0 ADD PUSH1 0x40 MSTORE SWAP1 DUP2 PUSH0 DUP3 ADD SLOAD DUP2 MSTORE PUSH1 0x20 ADD PUSH1 0x1 DUP3 ADD DUP1 SLOAD PUSH2 0x11B5 SWAP1 PUSH2 0x33F4 JUMP JUMPDEST DUP1 PUSH1 0x1F ADD PUSH1 0x20 DUP1 SWAP2 DIV MUL PUSH1 0x20 ADD PUSH1 0x40 MLOAD SWAP1 DUP2 ADD PUSH1 0x40 MSTORE DUP1 SWAP3 SWAP2 SWAP1 DUP2 DUP2 MSTORE PUSH1 0x20 ADD DUP3 DUP1 SLOAD PUSH2 0x11E1 SWAP1 PUSH2 0x33F4 JUMP JUMPDEST DUP1 ISZERO PUSH2 0x122C JUMPI DUP1 PUSH1 0x1F LT PUSH2 0x1203 JUMPI PUSH2 0x100 DUP1 DUP4 SLOAD DIV MUL DUP4 MSTORE SWAP2 PUSH1 0x20 ADD SWAP2 PUSH2 0x122C JUMP JUMPDEST DUP3 ADD SWAP2 SWAP1 PUSH0 MSTORE PUSH1 0x20 PUSH0 KECCAK256 SWAP1 JUMPDEST DUP2 SLOAD DUP2 MSTORE SWAP1 PUSH1 0x1 ADD SWAP1 PUSH1 0x20 ADD DUP1 DUP4 GT PUSH2 0x120F JUMPI DUP3 SWAP1 SUB PUSH1 0x1F AND DUP3 ADD SWAP2 JUMPDEST POP POP POP POP POP DUP2 MSTORE PUSH1 0x20 ADD PUSH1 0x2 DUP3 ADD DUP1 SLOAD PUSH2 0x1245 SWAP1 PUSH2 0x33F4 JUMP JUMPDEST DUP1 PUSH1 0x1F ADD PUSH1 0x20 DUP1 SWAP2 DIV MUL PUSH1 0x20 ADD PUSH1 0x40 MLOAD SWAP1 DUP2 ADD PUSH1 0x40 MSTORE DUP1 SWAP3 SWAP2 SWAP1 DUP2 DUP2 MSTORE PUSH1 0x20 ADD DUP3 DUP1 SLOAD PUSH2 0x1271 SWAP1 PUSH2 0x33F4 JUMP JUMPDEST DUP1 ISZERO PUSH2 0x12BC JUMPI DUP1 PUSH1 0x1F LT PUSH2 0x1293 JUMPI PUSH2 0x100 DUP1 DUP4 SLOAD DIV MUL DUP4 MSTORE SWAP2 PUSH1 0x20 ADD SWAP2 PUSH2 0x12BC JUMP JUMPDEST DUP3 ADD SWAP2 SWAP1 PUSH0 MSTORE PUSH1 0x20 PUSH0 KECCAK256 SWAP1 JUMPDEST DUP2 SLOAD DUP2 MSTORE SWAP1 PUSH1 0x1 ADD SWAP1 PUSH1 0x20 ADD DUP1 DUP4 GT PUSH2 0x129F JUMPI DUP3 SWAP1 SUB PUSH1 0x1F AND DUP3 ADD SWAP2 JUMPDEST POP POP POP POP POP DUP2 MSTORE PUSH1 0x20 ADD PUSH1 0x3 DUP3 ADD SLOAD DUP2 MSTORE PUSH1 0x20 ADD PUSH1 0x4 DUP3 ADD SLOAD DUP2 MSTORE PUSH1 0x20 ADD PUSH1 0x5 DUP3 ADD SLOAD DUP2 MSTORE POP POP SWAP1 POP PUSH0 PUSH2 0x3E8 DUP3 PUSH1 0x80 ADD MLOAD PUSH2 0x12F8 SWAP2 SWAP1 PUSH2 0x3A91 JUMP JUMPDEST SWAP1 POP PUSH0 PUSH1 0x4 DUP8 LT ISZERO DUP1 ISZERO PUSH2 0x130D JUMPI POP PUSH1 0xA DUP8 GT ISZERO JUMPDEST ISZERO PUSH2 0x1332 JUMPI PUSH1 0x64 PUSH1 0x2 DUP4 PUSH2 0x1321 SWAP2 SWAP1 PUSH2 0x38EB JUMP JUMPDEST PUSH2 0x132B SWAP2 SWAP1 PUSH2 0x3A91 JUMP JUMPDEST SWAP1 POP PUSH2 0x1358 JUMP JUMPDEST PUSH1 0xA DUP8 GT ISZERO PUSH2 0x1357 JUMPI PUSH1 0x64 PUSH1 0x5 DUP4 PUSH2 0x134A SWAP2 SWAP1 PUSH2 0x38EB JUMP JUMPDEST PUSH2 0x1354 SWAP2 SWAP1 PUSH2 0x3A91 JUMP JUMPDEST SWAP1 POP JUMPDEST JUMPDEST PUSH0 PUSH1 0x2 DUP8 LT ISZERO DUP1 ISZERO PUSH2 0x136A JUMPI POP PUSH1 0x6 DUP8 LT JUMPDEST ISZERO PUSH2 0x138F JUMPI PUSH1 0x64 PUSH1 0x3 DUP5 PUSH2 0x137E SWAP2 SWAP1 PUSH2 0x38EB JUMP JUMPDEST PUSH2 0x1388 SWAP2 SWAP1 PUSH2 0x3A91 JUMP JUMPDEST SWAP1 POP PUSH2 0x13ED JUMP JUMPDEST PUSH1 0x6 DUP8 LT ISZERO DUP1 ISZERO PUSH2 0x13A1 JUMPI POP PUSH1 0xC DUP8 GT ISZERO JUMPDEST ISZERO PUSH2 0x13C6 JUMPI PUSH1 0x64 PUSH1 0x5 DUP5 PUSH2 0x13B5 SWAP2 SWAP1 PUSH2 0x38EB JUMP JUMPDEST PUSH2 0x13BF SWAP2 SWAP1 PUSH2 0x3A91 JUMP JUMPDEST SWAP1 POP PUSH2 0x13EC JUMP JUMPDEST PUSH1 0xC DUP8 GT ISZERO PUSH2 0x13EB JUMPI PUSH1 0x64 PUSH1 0x8 DUP5 PUSH2 0x13DE SWAP2 SWAP1 PUSH2 0x38EB JUMP JUMPDEST PUSH2 0x13E8 SWAP2 SWAP1 PUSH2 0x3A91 JUMP JUMPDEST SWAP1 POP JUMPDEST JUMPDEST JUMPDEST PUSH0 PUSH2 0x1388 DUP8 LT ISZERO DUP1 ISZERO PUSH2 0x1401 JUMPI POP PUSH2 0x2710 DUP8 LT JUMPDEST ISZERO PUSH2 0x141A JUMPI PUSH1 0x64 DUP5 PUSH2 0x1413 SWAP2 SWAP1 PUSH2 0x3A91 JUMP JUMPDEST SWAP1 POP PUSH2 0x147A JUMP JUMPDEST PUSH2 0x2710 DUP8 LT ISZERO DUP1 ISZERO PUSH2 0x142D JUMPI POP PUSH2 0x4E20 DUP8 LT JUMPDEST ISZERO PUSH2 0x1452 JUMPI PUSH1 0x64 PUSH1 0x2 DUP6 PUSH2 0x1441 SWAP2 SWAP1 PUSH2 0x38EB JUMP JUMPDEST PUSH2 0x144B SWAP2 SWAP1 PUSH2 0x3A91 JUMP JUMPDEST SWAP1 POP PUSH2 0x1479 JUMP JUMPDEST PUSH2 0x4E20 DUP8 GT ISZERO PUSH2 0x1478 JUMPI PUSH1 0x64 PUSH1 0x3 DUP6 PUSH2 0x146B SWAP2 SWAP1 PUSH2 0x38EB JUMP JUMPDEST PUSH2 0x1475 SWAP2 SWAP1 PUSH2 0x3A91 JUMP JUMPDEST SWAP1 POP JUMPDEST JUMPDEST JUMPDEST PUSH0 PUSH2 0x2710 DUP7 PUSH1 0xA0 ADD MLOAD LT ISZERO DUP1 ISZERO PUSH2 0x1496 JUMPI POP PUSH2 0x4E20 DUP7 PUSH1 0xA0 ADD MLOAD LT JUMPDEST ISZERO PUSH2 0x14AF JUMPI PUSH1 0x64 DUP6 PUSH2 0x14A8 SWAP2 SWAP1 PUSH2 0x3A91 JUMP JUMPDEST SWAP1 POP PUSH2 0x151A JUMP JUMPDEST PUSH2 0x4E20 DUP7 PUSH1 0xA0 ADD MLOAD LT ISZERO DUP1 ISZERO PUSH2 0x14CA JUMPI POP PUSH2 0xC350 DUP7 PUSH1 0xA0 ADD MLOAD LT JUMPDEST ISZERO PUSH2 0x14EF JUMPI PUSH1 0x64 PUSH1 0x2 DUP7 PUSH2 0x14DE SWAP2 SWAP1 PUSH2 0x38EB JUMP JUMPDEST PUSH2 0x14E8 SWAP2 SWAP1 PUSH2 0x3A91 JUMP JUMPDEST SWAP1 POP PUSH2 0x1519 JUMP JUMPDEST PUSH2 0xC350 DUP7 PUSH1 0xA0 ADD MLOAD LT PUSH2 0x1518 JUMPI PUSH1 0x64 PUSH1 0x3 DUP7 PUSH2 0x150B SWAP2 SWAP1 PUSH2 0x38EB JUMP JUMPDEST PUSH2 0x1515 SWAP2 SWAP1 PUSH2 0x3A91 JUMP JUMPDEST SWAP1 POP JUMPDEST JUMPDEST JUMPDEST PUSH0 DUP2 DUP4 DUP6 DUP8 DUP10 PUSH2 0x152A SWAP2 SWAP1 PUSH2 0x3AC1 JUMP JUMPDEST PUSH2 0x1534 SWAP2 SWAP1 PUSH2 0x3AC1 JUMP JUMPDEST PUSH2 0x153E SWAP2 SWAP1 PUSH2 0x3850 JUMP JUMPDEST PUSH2 0x1548 SWAP2 SWAP1 PUSH2 0x3AC1 JUMP JUMPDEST SWAP1 POP DUP1 SWAP8 POP POP POP POP POP POP POP POP SWAP5 SWAP4 POP POP POP POP JUMP JUMPDEST PUSH1 0x60 PUSH2 0x1567 DUP3 PUSH2 0x1D05 JUMP JUMPDEST POP PUSH0 PUSH2 0x1571 PUSH2 0x2578 JUMP JUMPDEST SWAP1 POP PUSH0 DUP2 MLOAD GT PUSH2 0x158F JUMPI PUSH1 0x40 MLOAD DUP1 PUSH1 0x20 ADD PUSH1 0x40 MSTORE DUP1 PUSH0 DUP2 MSTORE POP PUSH2 0x15BA JUMP JUMPDEST DUP1 PUSH2 0x1599 DUP5 PUSH2 0x258E JUMP JUMPDEST PUSH1 0x40 MLOAD PUSH1 0x20 ADD PUSH2 0x15AA SWAP3 SWAP2 SWAP1 PUSH2 0x3B2E JUMP JUMPDEST PUSH1 0x40 MLOAD PUSH1 0x20 DUP2 DUP4 SUB SUB DUP2 MSTORE SWAP1 PUSH1 0x40 MSTORE JUMPDEST SWAP2 POP POP SWAP2 SWAP1 POP JUMP JUMPDEST PUSH1 0x8 PUSH1 0x20 MSTORE DUP1 PUSH0 MSTORE PUSH1 0x40 PUSH0 KECCAK256 PUSH0 SWAP2 POP SWAP1 POP DUP1 PUSH0 ADD SLOAD SWAP1 DUP1 PUSH1 0x1 ADD PUSH0 SWAP1 SLOAD SWAP1 PUSH2 0x100 EXP SWAP1 DIV PUSH20 0xFFFFFFFFFFFFFFFFFFFFFFFFFFFFFFFFFFFFFFFF AND SWAP1 DUP1 PUSH1 0x2 ADD SLOAD SWAP1 DUP1 PUSH1 0x3 ADD SLOAD SWAP1 DUP1 PUSH1 0x4 ADD PUSH0 SWAP1 SLOAD SWAP1 PUSH2 0x100 EXP SWAP1 DIV PUSH1 0xFF AND SWAP1 DUP1 PUSH1 0x4 ADD PUSH1 0x1 SWAP1 SLOAD SWAP1 PUSH2 0x100 EXP SWAP1 DIV PUSH1 0xFF AND SWAP1 POP DUP7 JUMP JUMPDEST PUSH0 PUSH1 0x5 PUSH0 DUP5 PUSH20 0xFFFFFFFFFFFFFFFFFFFFFFFFFFFFFFFFFFFFFFFF AND PUSH20 0xFFFFFFFFFFFFFFFFFFFFFFFFFFFFFFFFFFFFFFFF AND DUP2 MSTORE PUSH1 0x20 ADD SWAP1 DUP2 MSTORE PUSH1 0x20 ADD PUSH0 KECCAK256 PUSH0 DUP4 PUSH20 0xFFFFFFFFFFFFFFFFFFFFFFFFFFFFFFFFFFFFFFFF AND PUSH20 0xFFFFFFFFFFFFFFFFFFFFFFFFFFFFFFFFFFFFFFFF AND DUP2 MSTORE PUSH1 0x20 ADD SWAP1 DUP2 MSTORE PUSH1 0x20 ADD PUSH0 KECCAK256 PUSH0 SWAP1 SLOAD SWAP1 PUSH2 0x100 EXP SWAP1 DIV PUSH1 0xFF AND SWAP1 POP SWAP3 SWAP2 POP POP JUMP JUMPDEST DUP1 DUP1 PUSH1 0x8 PUSH0 CALLER PUSH20 0xFFFFFFFFFFFFFFFFFFFFFFFFFFFFFFFFFFFFFFFF AND PUSH20 0xFFFFFFFFFFFFFFFFFFFFFFFFFFFFFFFFFFFFFFFF AND DUP2 MSTORE PUSH1 0x20 ADD SWAP1 DUP2 MSTORE PUSH1 0x20 ADD PUSH0 KECCAK256 PUSH0 ADD SLOAD EQ PUSH2 0x1742 JUMPI PUSH1 0x40 MLOAD PUSH32 0x8C379A000000000000000000000000000000000000000000000000000000000 DUP2 MSTORE PUSH1 0x4 ADD PUSH2 0x1739 SWAP1 PUSH2 0x379D JUMP JUMPDEST PUSH1 0x40 MLOAD DUP1 SWAP2 SUB SWAP1 REVERT JUMPDEST PUSH0 PUSH1 0x8 PUSH0 CALLER PUSH20 0xFFFFFFFFFFFFFFFFFFFFFFFFFFFFFFFFFFFFFFFF AND PUSH20 0xFFFFFFFFFFFFFFFFFFFFFFFFFFFFFFFFFFFFFFFF AND DUP2 MSTORE PUSH1 0x20 ADD SWAP1 DUP2 MSTORE PUSH1 0x20 ADD PUSH0 KECCAK256 SWAP1 POP DUP1 PUSH1 0x4 ADD PUSH1 0x1 SWAP1 SLOAD SWAP1 PUSH2 0x100 EXP SWAP1 DIV PUSH1 0xFF AND PUSH2 0x17D3 JUMPI PUSH1 0x40 MLOAD PUSH32 0x8C379A000000000000000000000000000000000000000000000000000000000 DUP2 MSTORE PUSH1 0x4 ADD PUSH2 0x17CA SWAP1 PUSH2 0x39DE JUMP JUMPDEST PUSH1 0x40 MLOAD DUP1 SWAP2 SUB SWAP1 REVERT JUMPDEST DUP1 PUSH1 0x4 ADD PUSH0 SWAP1 SLOAD SWAP1 PUSH2 0x100 EXP SWAP1 DIV PUSH1 0xFF AND PUSH2 0x1823 JUMPI PUSH1 0x40 MLOAD PUSH32 0x8C379A000000000000000000000000000000000000000000000000000000000 DUP2 MSTORE PUSH1 0x4 ADD PUSH2 0x181A SWAP1 PUSH2 0x3B9B JUMP JUMPDEST PUSH1 0x40 MLOAD DUP1 SWAP2 SUB SWAP1 REVERT JUMPDEST DUP1 PUSH1 0x3 ADD SLOAD TIMESTAMP GT ISZERO PUSH2 0x186A JUMPI PUSH1 0x40 MLOAD PUSH32 0x8C379A000000000000000000000000000000000000000000000000000000000 DUP2 MSTORE PUSH1 0x4 ADD PUSH2 0x1861 SWAP1 PUSH2 0x3C03 JUMP JUMPDEST PUSH1 0x40 MLOAD DUP1 SWAP2 SUB SWAP1 REVERT JUMPDEST DUP1 PUSH1 0x2 ADD SLOAD CALLVALUE EQ PUSH2 0x18B0 JUMPI PUSH1 0x40 MLOAD PUSH32 0x8C379A000000000000000000000000000000000000000000000000000000000 DUP2 MSTORE PUSH1 0x4 ADD PUSH2 0x18A7 SWAP1 PUSH2 0x3976 JUMP JUMPDEST PUSH1 0x40 MLOAD DUP1 SWAP2 SUB SWAP1 REVERT JUMPDEST PUSH3 0x278D00 DUP2 PUSH1 0x3 ADD SLOAD PUSH2 0x18C3 SWAP2 SWAP1 PUSH2 0x3850 JUMP JUMPDEST DUP2 PUSH1 0x3 ADD DUP2 SWAP1 SSTORE POP PUSH1 0x9 PUSH0 SWAP1 SLOAD SWAP1 PUSH2 0x100 EXP SWAP1 DIV PUSH20 0xFFFFFFFFFFFFFFFFFFFFFFFFFFFFFFFFFFFFFFFF AND PUSH20 0xFFFFFFFFFFFFFFFFFFFFFFFFFFFFFFFFFFFFFFFF AND PUSH2 0x8FC CALLVALUE SWAP1 DUP2 ISZERO MUL SWAP1 PUSH1 0x40 MLOAD PUSH0 PUSH1 0x40 MLOAD DUP1 DUP4 SUB DUP2 DUP6 DUP9 DUP9 CALL SWAP4 POP POP POP POP ISZERO DUP1 ISZERO PUSH2 0x192F JUMPI RETURNDATASIZE PUSH0 DUP1 RETURNDATACOPY RETURNDATASIZE PUSH0 REVERT JUMPDEST POP POP POP POP JUMP JUMPDEST PUSH1 0x9 PUSH0 SWAP1 SLOAD SWAP1 PUSH2 0x100 EXP SWAP1 DIV PUSH20 0xFFFFFFFFFFFFFFFFFFFFFFFFFFFFFFFFFFFFFFFF AND PUSH20 0xFFFFFFFFFFFFFFFFFFFFFFFFFFFFFFFFFFFFFFFF AND CALLER PUSH20 0xFFFFFFFFFFFFFFFFFFFFFFFFFFFFFFFFFFFFFFFF AND EQ PUSH2 0x19C4 JUMPI PUSH1 0x40 MLOAD PUSH32 0x8C379A000000000000000000000000000000000000000000000000000000000 DUP2 MSTORE PUSH1 0x4 ADD PUSH2 0x19BB SWAP1 PUSH2 0x34C9 JUMP JUMPDEST PUSH1 0x40 MLOAD DUP1 SWAP2 SUB SWAP1 REVERT JUMPDEST PUSH0 PUSH1 0x8 PUSH0 DUP4 PUSH20 0xFFFFFFFFFFFFFFFFFFFFFFFFFFFFFFFFFFFFFFFF AND PUSH20 0xFFFFFFFFFFFFFFFFFFFFFFFFFFFFFFFFFFFFFFFF AND DUP2 MSTORE PUSH1 0x20 ADD SWAP1 DUP2 MSTORE PUSH1 0x20 ADD PUSH0 KECCAK256 SWAP1 POP DUP1 PUSH1 0x4 ADD PUSH1 0x1 SWAP1 SLOAD SWAP1 PUSH2 0x100 EXP SWAP1 DIV PUSH1 0xFF AND PUSH2 0x1A55 JUMPI PUSH1 0x40 MLOAD PUSH32 0x8C379A000000000000000000000000000000000000000000000000000000000 DUP2 MSTORE PUSH1 0x4 ADD PUSH2 0x1A4C SWAP1 PUSH2 0x3805 JUMP JUMPDEST PUSH1 0x40 MLOAD DUP1 SWAP2 SUB SWAP1 REVERT JUMPDEST DUP1 PUSH1 0x4 ADD PUSH0 SWAP1 SLOAD SWAP1 PUSH2 0x100 EXP SWAP1 DIV PUSH1 0xFF AND ISZERO PUSH2 0x1AA6 JUMPI PUSH1 0x40 MLOAD PUSH32 0x8C379A000000000000000000000000000000000000000000000000000000000 DUP2 MSTORE PUSH1 0x4 ADD PUSH2 0x1A9D SWAP1 PUSH2 0x3C6B JUMP JUMPDEST PUSH1 0x40 MLOAD DUP1 SWAP2 SUB SWAP1 REVERT JUMPDEST PUSH1 0x1 DUP2 PUSH1 0x4 ADD PUSH0 PUSH2 0x100 EXP DUP2 SLOAD DUP2 PUSH1 0xFF MUL NOT AND SWAP1 DUP4 ISZERO ISZERO MUL OR SWAP1 SSTORE POP PUSH1 0x1 DUP2 PUSH1 0x4 ADD PUSH1 0x1 PUSH2 0x100 EXP DUP2 SLOAD DUP2 PUSH1 0xFF MUL NOT AND SWAP1 DUP4 ISZERO ISZERO MUL OR SWAP1 SSTORE POP PUSH1 0x9 PUSH0 SWAP1 SLOAD SWAP1 PUSH2 0x100 EXP SWAP1 DIV PUSH20 0xFFFFFFFFFFFFFFFFFFFFFFFFFFFFFFFFFFFFFFFF AND PUSH20 0xFFFFFFFFFFFFFFFFFFFFFFFFFFFFFFFFFFFFFFFF AND PUSH2 0x8FC PUSH1 0x4 DUP4 PUSH1 0x2 ADD SLOAD PUSH2 0x1B2B SWAP2 SWAP1 PUSH2 0x38EB JUMP JUMPDEST SWAP1 DUP2 ISZERO MUL SWAP1 PUSH1 0x40 MLOAD PUSH0 PUSH1 0x40 MLOAD DUP1 DUP4 SUB DUP2 DUP6 DUP9 DUP9 CALL SWAP4 POP POP POP POP ISZERO DUP1 ISZERO PUSH2 0x1B53 JUMPI RETURNDATASIZE PUSH0 DUP1 RETURNDATACOPY RETURNDATASIZE PUSH0 REVERT JUMPDEST POP POP POP JUMP JUMPDEST PUSH1 0x7 PUSH1 0x20 MSTORE DUP1 PUSH0 MSTORE PUSH1 0x40 PUSH0 KECCAK256 PUSH0 SWAP2 POP SWAP1 POP DUP1 PUSH0 ADD SLOAD SWAP1 DUP1 PUSH1 0x1 ADD DUP1 SLOAD PUSH2 0x1B7D SWAP1 PUSH2 0x33F4 JUMP JUMPDEST DUP1 PUSH1 0x1F ADD PUSH1 0x20 DUP1 SWAP2 DIV MUL PUSH1 0x20 ADD PUSH1 0x40 MLOAD SWAP1 DUP2 ADD PUSH1 0x40 MSTORE DUP1 SWAP3 SWAP2 SWAP1 DUP2 DUP2 MSTORE PUSH1 0x20 ADD DUP3 DUP1 SLOAD PUSH2 0x1BA9 SWAP1 PUSH2 0x33F4 JUMP JUMPDEST DUP1 ISZERO PUSH2 0x1BF4 JUMPI DUP1 PUSH1 0x1F LT PUSH2 0x1BCB JUMPI PUSH2 0x100 DUP1 DUP4 SLOAD DIV MUL DUP4 MSTORE SWAP2 PUSH1 0x20 ADD SWAP2 PUSH2 0x1BF4 JUMP JUMPDEST DUP3 ADD SWAP2 SWAP1 PUSH0 MSTORE PUSH1 0x20 PUSH0 KECCAK256 SWAP1 JUMPDEST DUP2 SLOAD DUP2 MSTORE SWAP1 PUSH1 0x1 ADD SWAP1 PUSH1 0x20 ADD DUP1 DUP4 GT PUSH2 0x1BD7 JUMPI DUP3 SWAP1 SUB PUSH1 0x1F AND DUP3 ADD SWAP2 JUMPDEST POP POP POP POP POP SWAP1 DUP1 PUSH1 0x2 ADD DUP1 SLOAD PUSH2 0x1C09 SWAP1 PUSH2 0x33F4 JUMP JUMPDEST DUP1 PUSH1 0x1F ADD PUSH1 0x20 DUP1 SWAP2 DIV MUL PUSH1 0x20 ADD PUSH1 0x40 MLOAD SWAP1 DUP2 ADD PUSH1 0x40 MSTORE DUP1 SWAP3 SWAP2 SWAP1 DUP2 DUP2 MSTORE PUSH1 0x20 ADD DUP3 DUP1 SLOAD PUSH2 0x1C35 SWAP1 PUSH2 0x33F4 JUMP JUMPDEST DUP1 ISZERO PUSH2 0x1C80 JUMPI DUP1 PUSH1 0x1F LT PUSH2 0x1C57 JUMPI PUSH2 0x100 DUP1 DUP4 SLOAD DIV MUL DUP4 MSTORE SWAP2 PUSH1 0x20 ADD SWAP2 PUSH2 0x1C80 JUMP JUMPDEST DUP3 ADD SWAP2 SWAP1 PUSH0 MSTORE PUSH1 0x20 PUSH0 KECCAK256 SWAP1 JUMPDEST DUP2 SLOAD DUP2 MSTORE SWAP1 PUSH1 0x1 ADD SWAP1 PUSH1 0x20 ADD DUP1 DUP4 GT PUSH2 0x1C63 JUMPI DUP3 SWAP1 SUB PUSH1 0x1F AND DUP3 ADD SWAP2 JUMPDEST POP POP POP POP POP SWAP1 DUP1 PUSH1 0x3 ADD SLOAD SWAP1 DUP1 PUSH1 0x4 ADD SLOAD SWAP1 DUP1 PUSH1 0x5 ADD SLOAD SWAP1 POP DUP7 JUMP JUMPDEST PUSH0 PUSH32 0x1FFC9A700000000000000000000000000000000000000000000000000000000 PUSH28 0xFFFFFFFFFFFFFFFFFFFFFFFFFFFFFFFFFFFFFFFFFFFFFFFFFFFFFFFF NOT AND DUP3 PUSH28 0xFFFFFFFFFFFFFFFFFFFFFFFFFFFFFFFFFFFFFFFFFFFFFFFFFFFFFFFF NOT AND EQ SWAP1 POP SWAP2 SWAP1 POP JUMP JUMPDEST PUSH0 DUP1 PUSH2 0x1D10 DUP4 PUSH2 0x2658 JUMP JUMPDEST SWAP1 POP PUSH0 PUSH20 0xFFFFFFFFFFFFFFFFFFFFFFFFFFFFFFFFFFFFFFFF AND DUP2 PUSH20 0xFFFFFFFFFFFFFFFFFFFFFFFFFFFFFFFFFFFFFFFF AND SUB PUSH2 0x1D82 JUMPI DUP3 PUSH1 0x40 MLOAD PUSH32 0x7E27328900000000000000000000000000000000000000000000000000000000 DUP2 MSTORE PUSH1 0x4 ADD PUSH2 0x1D79 SWAP2 SWAP1 PUSH2 0x2DA5 JUMP JUMPDEST PUSH1 0x40 MLOAD DUP1 SWAP2 SUB SWAP1 REVERT JUMPDEST DUP1 SWAP2 POP POP SWAP2 SWAP1 POP JUMP JUMPDEST PUSH0 PUSH1 0x4 PUSH0 DUP4 DUP2 MSTORE PUSH1 0x20 ADD SWAP1 DUP2 MSTORE PUSH1 0x20 ADD PUSH0 KECCAK256 PUSH0 SWAP1 SLOAD SWAP1 PUSH2 0x100 EXP SWAP1 DIV PUSH20 0xFFFFFFFFFFFFFFFFFFFFFFFFFFFFFFFFFFFFFFFF AND SWAP1 POP SWAP2 SWAP1 POP JUMP JUMPDEST PUSH0 CALLER SWAP1 POP SWAP1 JUMP JUMPDEST PUSH2 0x1DD8 DUP4 DUP4 DUP4 PUSH1 0x1 PUSH2 0x2691 JUMP JUMPDEST POP POP POP JUMP JUMPDEST PUSH0 DUP1 PUSH2 0x1DE8 DUP5 PUSH2 0x2658 JUMP JUMPDEST SWAP1 POP PUSH0 PUSH20 0xFFFFFFFFFFFFFFFFFFFFFFFFFFFFFFFFFFFFFFFF AND DUP4 PUSH20 0xFFFFFFFFFFFFFFFFFFFFFFFFFFFFFFFFFFFFFFFF AND EQ PUSH2 0x1E29 JUMPI PUSH2 0x1E28 DUP2 DUP5 DUP7 PUSH2 0x2850 JUMP JUMPDEST JUMPDEST PUSH0 PUSH20 0xFFFFFFFFFFFFFFFFFFFFFFFFFFFFFFFFFFFFFFFF AND DUP2 PUSH20 0xFFFFFFFFFFFFFFFFFFFFFFFFFFFFFFFFFFFFFFFF AND EQ PUSH2 0x1EB4 JUMPI PUSH2 0x1E68 PUSH0 DUP6 PUSH0 DUP1 PUSH2 0x2691 JUMP JUMPDEST PUSH1 0x1 PUSH1 0x3 PUSH0 DUP4 PUSH20 0xFFFFFFFFFFFFFFFFFFFFFFFFFFFFFFFFFFFFFFFF AND PUSH20 0xFFFFFFFFFFFFFFFFFFFFFFFFFFFFFFFFFFFFFFFF AND DUP2 MSTORE PUSH1 0x20 ADD SWAP1 DUP2 MSTORE PUSH1 0x20 ADD PUSH0 KECCAK256 PUSH0 DUP3 DUP3 SLOAD SUB SWAP3 POP POP DUP2 SWAP1 SSTORE POP JUMPDEST PUSH0 PUSH20 0xFFFFFFFFFFFFFFFFFFFFFFFFFFFFFFFFFFFFFFFF AND DUP6 PUSH20 0xFFFFFFFFFFFFFFFFFFFFFFFFFFFFFFFFFFFFFFFF AND EQ PUSH2 0x1F33 JUMPI PUSH1 0x1 PUSH1 0x3 PUSH0 DUP8 PUSH20 0xFFFFFFFFFFFFFFFFFFFFFFFFFFFFFFFFFFFFFFFF AND PUSH20 0xFFFFFFFFFFFFFFFFFFFFFFFFFFFFFFFFFFFFFFFF AND DUP2 MSTORE PUSH1 0x20 ADD SWAP1 DUP2 MSTORE PUSH1 0x20 ADD PUSH0 KECCAK256 PUSH0 DUP3 DUP3 SLOAD ADD SWAP3 POP POP DUP2 SWAP1 SSTORE POP JUMPDEST DUP5 PUSH1 0x2 PUSH0 DUP7 DUP2 MSTORE PUSH1 0x20 ADD SWAP1 DUP2 MSTORE PUSH1 0x20 ADD PUSH0 KECCAK256 PUSH0 PUSH2 0x100 EXP DUP2 SLOAD DUP2 PUSH20 0xFFFFFFFFFFFFFFFFFFFFFFFFFFFFFFFFFFFFFFFF MUL NOT AND SWAP1 DUP4 PUSH20 0xFFFFFFFFFFFFFFFFFFFFFFFFFFFFFFFFFFFFFFFF AND MUL OR SWAP1 SSTORE POP DUP4 DUP6 PUSH20 0xFFFFFFFFFFFFFFFFFFFFFFFFFFFFFFFFFFFFFFFF AND DUP3 PUSH20 0xFFFFFFFFFFFFFFFFFFFFFFFFFFFFFFFFFFFFFFFF AND PUSH32 0xDDF252AD1BE2C89B69C2B068FC378DAA952BA7F163C4A11628F55A4DF523B3EF PUSH1 0x40 MLOAD PUSH1 0x40 MLOAD DUP1 SWAP2 SUB SWAP1 LOG4 DUP1 SWAP2 POP POP SWAP4 SWAP3 POP POP POP JUMP JUMPDEST PUSH1 0x1 DUP2 PUSH0 ADD PUSH0 DUP3 DUP3 SLOAD ADD SWAP3 POP POP DUP2 SWAP1 SSTORE POP POP JUMP JUMPDEST PUSH0 DUP2 PUSH0 ADD SLOAD SWAP1 POP SWAP2 SWAP1 POP JUMP JUMPDEST PUSH0 PUSH20 0xFFFFFFFFFFFFFFFFFFFFFFFFFFFFFFFFFFFFFFFF AND DUP3 PUSH20 0xFFFFFFFFFFFFFFFFFFFFFFFFFFFFFFFFFFFFFFFF AND SUB PUSH2 0x2078 JUMPI PUSH0 PUSH1 0x40 MLOAD PUSH32 0x64A0AE9200000000000000000000000000000000000000000000000000000000 DUP2 MSTORE PUSH1 0x4 ADD PUSH2 0x206F SWAP2 SWAP1 PUSH2 0x2C27 JUMP JUMPDEST PUSH1 0x40 MLOAD DUP1 SWAP2 SUB SWAP1 REVERT JUMPDEST PUSH0 PUSH2 0x2084 DUP4 DUP4 PUSH0 PUSH2 0x1DDD JUMP JUMPDEST SWAP1 POP PUSH0 PUSH20 0xFFFFFFFFFFFFFFFFFFFFFFFFFFFFFFFFFFFFFFFF AND DUP2 PUSH20 0xFFFFFFFFFFFFFFFFFFFFFFFFFFFFFFFFFFFFFFFF AND EQ PUSH2 0x20F6 JUMPI PUSH0 PUSH1 0x40 MLOAD PUSH32 0x73C6AC6E00000000000000000000000000000000000000000000000000000000 DUP2 MSTORE PUSH1 0x4 ADD PUSH2 0x20ED SWAP2 SWAP1 PUSH2 0x2C27 JUMP JUMPDEST PUSH1 0x40 MLOAD DUP1 SWAP2 SUB SWAP1 REVERT JUMPDEST POP POP POP JUMP JUMPDEST PUSH0 PUSH20 0xFFFFFFFFFFFFFFFFFFFFFFFFFFFFFFFFFFFFFFFF AND DUP3 PUSH20 0xFFFFFFFFFFFFFFFFFFFFFFFFFFFFFFFFFFFFFFFF AND SUB PUSH2 0x216B JUMPI PUSH0 PUSH1 0x40 MLOAD PUSH32 0x64A0AE9200000000000000000000000000000000000000000000000000000000 DUP2 MSTORE PUSH1 0x4 ADD PUSH2 0x2162 SWAP2 SWAP1 PUSH2 0x2C27 JUMP JUMPDEST PUSH1 0x40 MLOAD DUP1 SWAP2 SUB SWAP1 REVERT JUMPDEST PUSH0 PUSH2 0x2177 DUP4 DUP4 PUSH0 PUSH2 0x1DDD JUMP JUMPDEST SWAP1 POP PUSH0 PUSH20 0xFFFFFFFFFFFFFFFFFFFFFFFFFFFFFFFFFFFFFFFF AND DUP2 PUSH20 0xFFFFFFFFFFFFFFFFFFFFFFFFFFFFFFFFFFFFFFFF AND SUB PUSH2 0x21E9 JUMPI DUP2 PUSH1 0x40 MLOAD PUSH32 0x7E27328900000000000000000000000000000000000000000000000000000000 DUP2 MSTORE PUSH1 0x4 ADD PUSH2 0x21E0 SWAP2 SWAP1 PUSH2 0x2DA5 JUMP JUMPDEST PUSH1 0x40 MLOAD DUP1 SWAP2 SUB SWAP1 REVERT JUMPDEST DUP4 PUSH20 0xFFFFFFFFFFFFFFFFFFFFFFFFFFFFFFFFFFFFFFFF AND DUP2 PUSH20 0xFFFFFFFFFFFFFFFFFFFFFFFFFFFFFFFFFFFFFFFF AND EQ PUSH2 0x225D JUMPI DUP4 DUP3 DUP3 PUSH1 0x40 MLOAD PUSH32 0x64283D7B00000000000000000000000000000000000000000000000000000000 DUP2 MSTORE PUSH1 0x4 ADD PUSH2 0x2254 SWAP4 SWAP3 SWAP2 SWAP1 PUSH2 0x3424 JUMP JUMPDEST PUSH1 0x40 MLOAD DUP1 SWAP2 SUB SWAP1 REVERT JUMPDEST POP POP POP POP JUMP JUMPDEST PUSH0 PUSH20 0xFFFFFFFFFFFFFFFFFFFFFFFFFFFFFFFFFFFFFFFF AND DUP3 PUSH20 0xFFFFFFFFFFFFFFFFFFFFFFFFFFFFFFFFFFFFFFFF AND SUB PUSH2 0x22D3 JUMPI DUP2 PUSH1 0x40 MLOAD PUSH32 0x5B08BA1800000000000000000000000000000000000000000000000000000000 DUP2 MSTORE PUSH1 0x4 ADD PUSH2 0x22CA SWAP2 SWAP1 PUSH2 0x2C27 JUMP JUMPDEST PUSH1 0x40 MLOAD DUP1 SWAP2 SUB SWAP1 REVERT JUMPDEST DUP1 PUSH1 0x5 PUSH0 DUP6 PUSH20 0xFFFFFFFFFFFFFFFFFFFFFFFFFFFFFFFFFFFFFFFF AND PUSH20 0xFFFFFFFFFFFFFFFFFFFFFFFFFFFFFFFFFFFFFFFF AND DUP2 MSTORE PUSH1 0x20 ADD SWAP1 DUP2 MSTORE PUSH1 0x20 ADD PUSH0 KECCAK256 PUSH0 DUP5 PUSH20 0xFFFFFFFFFFFFFFFFFFFFFFFFFFFFFFFFFFFFFFFF AND PUSH20 0xFFFFFFFFFFFFFFFFFFFFFFFFFFFFFFFFFFFFFFFF AND DUP2 MSTORE PUSH1 0x20 ADD SWAP1 DUP2 MSTORE PUSH1 0x20 ADD PUSH0 KECCAK256 PUSH0 PUSH2 0x100 EXP DUP2 SLOAD DUP2 PUSH1 0xFF MUL NOT AND SWAP1 DUP4 ISZERO ISZERO MUL OR SWAP1 SSTORE POP DUP2 PUSH20 0xFFFFFFFFFFFFFFFFFFFFFFFFFFFFFFFFFFFFFFFF AND DUP4 PUSH20 0xFFFFFFFFFFFFFFFFFFFFFFFFFFFFFFFFFFFFFFFF AND PUSH32 0x17307EAB39AB6107E8899845AD3D59BD9653F200F220920489CA2B5937696C31 DUP4 PUSH1 0x40 MLOAD PUSH2 0x23BF SWAP2 SWAP1 PUSH2 0x2BCF JUMP JUMPDEST PUSH1 0x40 MLOAD DUP1 SWAP2 SUB SWAP1 LOG3 POP POP POP JUMP JUMPDEST PUSH0 DUP4 PUSH20 0xFFFFFFFFFFFFFFFFFFFFFFFFFFFFFFFFFFFFFFFF AND EXTCODESIZE GT ISZERO PUSH2 0x2571 JUMPI DUP3 PUSH20 0xFFFFFFFFFFFFFFFFFFFFFFFFFFFFFFFFFFFFFFFF AND PUSH4 0x150B7A02 DUP7 DUP7 DUP6 DUP6 PUSH1 0x40 MLOAD DUP6 PUSH4 0xFFFFFFFF AND PUSH1 0xE0 SHL DUP2 MSTORE PUSH1 0x4 ADD PUSH2 0x242A SWAP5 SWAP4 SWAP3 SWAP2 SWAP1 PUSH2 0x3CDB JUMP JUMPDEST PUSH1 0x20 PUSH1 0x40 MLOAD DUP1 DUP4 SUB DUP2 PUSH0 DUP8 GAS CALL SWAP3 POP POP POP DUP1 ISZERO PUSH2 0x2465 JUMPI POP PUSH1 0x40 MLOAD RETURNDATASIZE PUSH1 0x1F NOT PUSH1 0x1F DUP3 ADD AND DUP3 ADD DUP1 PUSH1 0x40 MSTORE POP DUP2 ADD SWAP1 PUSH2 0x2462 SWAP2 SWAP1 PUSH2 0x3D39 JUMP JUMPDEST PUSH1 0x1 JUMPDEST PUSH2 0x24E6 JUMPI RETURNDATASIZE DUP1 PUSH0 DUP2 EQ PUSH2 0x2493 JUMPI PUSH1 0x40 MLOAD SWAP2 POP PUSH1 0x1F NOT PUSH1 0x3F RETURNDATASIZE ADD AND DUP3 ADD PUSH1 0x40 MSTORE RETURNDATASIZE DUP3 MSTORE RETURNDATASIZE PUSH0 PUSH1 0x20 DUP5 ADD RETURNDATACOPY PUSH2 0x2498 JUMP JUMPDEST PUSH1 0x60 SWAP2 POP JUMPDEST POP PUSH0 DUP2 MLOAD SUB PUSH2 0x24DE JUMPI DUP4 PUSH1 0x40 MLOAD PUSH32 0x64A0AE9200000000000000000000000000000000000000000000000000000000 DUP2 MSTORE PUSH1 0x4 ADD PUSH2 0x24D5 SWAP2 SWAP1 PUSH2 0x2C27 JUMP JUMPDEST PUSH1 0x40 MLOAD DUP1 SWAP2 SUB SWAP1 REVERT JUMPDEST DUP1 MLOAD DUP2 PUSH1 0x20 ADD REVERT JUMPDEST PUSH4 0x150B7A02 PUSH1 0xE0 SHL PUSH28 0xFFFFFFFFFFFFFFFFFFFFFFFFFFFFFFFFFFFFFFFFFFFFFFFFFFFFFFFF NOT AND DUP2 PUSH28 0xFFFFFFFFFFFFFFFFFFFFFFFFFFFFFFFFFFFFFFFFFFFFFFFFFFFFFFFF NOT AND EQ PUSH2 0x256F JUMPI DUP4 PUSH1 0x40 MLOAD PUSH32 0x64A0AE9200000000000000000000000000000000000000000000000000000000 DUP2 MSTORE PUSH1 0x4 ADD PUSH2 0x2566 SWAP2 SWAP1 PUSH2 0x2C27 JUMP JUMPDEST PUSH1 0x40 MLOAD DUP1 SWAP2 SUB SWAP1 REVERT JUMPDEST POP JUMPDEST POP POP POP POP POP JUMP JUMPDEST PUSH1 0x60 PUSH1 0x40 MLOAD DUP1 PUSH1 0x20 ADD PUSH1 0x40 MSTORE DUP1 PUSH0 DUP2 MSTORE POP SWAP1 POP SWAP1 JUMP JUMPDEST PUSH1 0x60 PUSH0 PUSH1 0x1 PUSH2 0x259C DUP5 PUSH2 0x2913 JUMP JUMPDEST ADD SWAP1 POP PUSH0 DUP2 PUSH8 0xFFFFFFFFFFFFFFFF DUP2 GT ISZERO PUSH2 0x25BA JUMPI PUSH2 0x25B9 PUSH2 0x2E16 JUMP JUMPDEST JUMPDEST PUSH1 0x40 MLOAD SWAP1 DUP1 DUP3 MSTORE DUP1 PUSH1 0x1F ADD PUSH1 0x1F NOT AND PUSH1 0x20 ADD DUP3 ADD PUSH1 0x40 MSTORE DUP1 ISZERO PUSH2 0x25EC JUMPI DUP2 PUSH1 0x20 ADD PUSH1 0x1 DUP3 MUL DUP1 CALLDATASIZE DUP4 CALLDATACOPY DUP1 DUP3 ADD SWAP2 POP POP SWAP1 POP JUMPDEST POP SWAP1 POP PUSH0 DUP3 PUSH1 0x20 ADD DUP3 ADD SWAP1 POP JUMPDEST PUSH1 0x1 ISZERO PUSH2 0x264D JUMPI DUP1 DUP1 PUSH1 0x1 SWAP1 SUB SWAP2 POP POP PUSH32 0x3031323334353637383961626364656600000000000000000000000000000000 PUSH1 0xA DUP7 MOD BYTE DUP2 MSTORE8 PUSH1 0xA DUP6 DUP2 PUSH2 0x2642 JUMPI PUSH2 0x2641 PUSH2 0x3A64 JUMP JUMPDEST JUMPDEST DIV SWAP5 POP PUSH0 DUP6 SUB PUSH2 0x25F9 JUMPI JUMPDEST DUP2 SWAP4 POP POP POP POP SWAP2 SWAP1 POP JUMP JUMPDEST PUSH0 PUSH1 0x2 PUSH0 DUP4 DUP2 MSTORE PUSH1 0x20 ADD SWAP1 DUP2 MSTORE PUSH1 0x20 ADD PUSH0 KECCAK256 PUSH0 SWAP1 SLOAD SWAP1 PUSH2 0x100 EXP SWAP1 DIV PUSH20 0xFFFFFFFFFFFFFFFFFFFFFFFFFFFFFFFFFFFFFFFF AND SWAP1 POP SWAP2 SWAP1 POP JUMP JUMPDEST DUP1 DUP1 PUSH2 0x26C9 JUMPI POP PUSH0 PUSH20 0xFFFFFFFFFFFFFFFFFFFFFFFFFFFFFFFFFFFFFFFF AND DUP3 PUSH20 0xFFFFFFFFFFFFFFFFFFFFFFFFFFFFFFFFFFFFFFFF AND EQ ISZERO JUMPDEST ISZERO PUSH2 0x27FB JUMPI PUSH0 PUSH2 0x26D8 DUP5 PUSH2 0x1D05 JUMP JUMPDEST SWAP1 POP PUSH0 PUSH20 0xFFFFFFFFFFFFFFFFFFFFFFFFFFFFFFFFFFFFFFFF AND DUP4 PUSH20 0xFFFFFFFFFFFFFFFFFFFFFFFFFFFFFFFFFFFFFFFF AND EQ ISZERO DUP1 ISZERO PUSH2 0x2742 JUMPI POP DUP3 PUSH20 0xFFFFFFFFFFFFFFFFFFFFFFFFFFFFFFFFFFFFFFFF AND DUP2 PUSH20 0xFFFFFFFFFFFFFFFFFFFFFFFFFFFFFFFFFFFFFFFF AND EQ ISZERO JUMPDEST DUP1 ISZERO PUSH2 0x2755 JUMPI POP PUSH2 0x2753 DUP2 DUP5 PUSH2 0x1632 JUMP JUMPDEST ISZERO JUMPDEST ISZERO PUSH2 0x2797 JUMPI DUP3 PUSH1 0x40 MLOAD PUSH32 0xA9FBF51F00000000000000000000000000000000000000000000000000000000 DUP2 MSTORE PUSH1 0x4 ADD PUSH2 0x278E SWAP2 SWAP1 PUSH2 0x2C27 JUMP JUMPDEST PUSH1 0x40 MLOAD DUP1 SWAP2 SUB SWAP1 REVERT JUMPDEST DUP2 ISZERO PUSH2 0x27F9 JUMPI DUP4 DUP6 PUSH20 0xFFFFFFFFFFFFFFFFFFFFFFFFFFFFFFFFFFFFFFFF AND DUP3 PUSH20 0xFFFFFFFFFFFFFFFFFFFFFFFFFFFFFFFFFFFFFFFF AND PUSH32 0x8C5BE1E5EBEC7D5BD14F71427D1E84F3DD0314C0F7B2291E5B200AC8C7C3B925 PUSH1 0x40 MLOAD PUSH1 0x40 MLOAD DUP1 SWAP2 SUB SWAP1 LOG4 JUMPDEST POP JUMPDEST DUP4 PUSH1 0x4 PUSH0 DUP6 DUP2 MSTORE PUSH1 0x20 ADD SWAP1 DUP2 MSTORE PUSH1 0x20 ADD PUSH0 KECCAK256 PUSH0 PUSH2 0x100 EXP DUP2 SLOAD DUP2 PUSH20 0xFFFFFFFFFFFFFFFFFFFFFFFFFFFFFFFFFFFFFFFF MUL NOT AND SWAP1 DUP4 PUSH20 0xFFFFFFFFFFFFFFFFFFFFFFFFFFFFFFFFFFFFFFFF AND MUL OR SWAP1 SSTORE POP POP POP POP POP JUMP JUMPDEST PUSH2 0x285B DUP4 DUP4 DUP4 PUSH2 0x2A64 JUMP JUMPDEST PUSH2 0x290E JUMPI PUSH0 PUSH20 0xFFFFFFFFFFFFFFFFFFFFFFFFFFFFFFFFFFFFFFFF AND DUP4 PUSH20 0xFFFFFFFFFFFFFFFFFFFFFFFFFFFFFFFFFFFFFFFF AND SUB PUSH2 0x28CF JUMPI DUP1 PUSH1 0x40 MLOAD PUSH32 0x7E27328900000000000000000000000000000000000000000000000000000000 DUP2 MSTORE PUSH1 0x4 ADD PUSH2 0x28C6 SWAP2 SWAP1 PUSH2 0x2DA5 JUMP JUMPDEST PUSH1 0x40 MLOAD DUP1 SWAP2 SUB SWAP1 REVERT JUMPDEST DUP2 DUP2 PUSH1 0x40 MLOAD PUSH32 0x177E802F00000000000000000000000000000000000000000000000000000000 DUP2 MSTORE PUSH1 0x4 ADD PUSH2 0x2905 SWAP3 SWAP2 SWAP1 PUSH2 0x3D64 JUMP JUMPDEST PUSH1 0x40 MLOAD DUP1 SWAP2 SUB SWAP1 REVERT JUMPDEST POP POP POP JUMP JUMPDEST PUSH0 DUP1 PUSH0 SWAP1 POP PUSH27 0x184F03E93FF9F4DAA797ED6E38ED64BF6A1F010000000000000000 DUP4 LT PUSH2 0x296F JUMPI PUSH27 0x184F03E93FF9F4DAA797ED6E38ED64BF6A1F010000000000000000 DUP4 DUP2 PUSH2 0x2965 JUMPI PUSH2 0x2964 PUSH2 0x3A64 JUMP JUMPDEST JUMPDEST DIV SWAP3 POP PUSH1 0x40 DUP2 ADD SWAP1 POP JUMPDEST PUSH14 0x4EE2D6D415B85ACEF8100000000 DUP4 LT PUSH2 0x29AC JUMPI PUSH14 0x4EE2D6D415B85ACEF8100000000 DUP4 DUP2 PUSH2 0x29A2 JUMPI PUSH2 0x29A1 PUSH2 0x3A64 JUMP JUMPDEST JUMPDEST DIV SWAP3 POP PUSH1 0x20 DUP2 ADD SWAP1 POP JUMPDEST PUSH7 0x2386F26FC10000 DUP4 LT PUSH2 0x29DB JUMPI PUSH7 0x2386F26FC10000 DUP4 DUP2 PUSH2 0x29D1 JUMPI PUSH2 0x29D0 PUSH2 0x3A64 JUMP JUMPDEST JUMPDEST DIV SWAP3 POP PUSH1 0x10 DUP2 ADD SWAP1 POP JUMPDEST PUSH4 0x5F5E100 DUP4 LT PUSH2 0x2A04 JUMPI PUSH4 0x5F5E100 DUP4 DUP2 PUSH2 0x29FA JUMPI PUSH2 0x29F9 PUSH2 0x3A64 JUMP JUMPDEST JUMPDEST DIV SWAP3 POP PUSH1 0x8 DUP2 ADD SWAP1 POP JUMPDEST PUSH2 0x2710 DUP4 LT PUSH2 0x2A29 JUMPI PUSH2 0x2710 DUP4 DUP2 PUSH2 0x2A1F JUMPI PUSH2 0x2A1E PUSH2 0x3A64 JUMP JUMPDEST JUMPDEST DIV SWAP3 POP PUSH1 0x4 DUP2 ADD SWAP1 POP JUMPDEST PUSH1 0x64 DUP4 LT PUSH2 0x2A4C JUMPI PUSH1 0x64 DUP4 DUP2 PUSH2 0x2A42 JUMPI PUSH2 0x2A41 PUSH2 0x3A64 JUMP JUMPDEST JUMPDEST DIV SWAP3 POP PUSH1 0x2 DUP2 ADD SWAP1 POP JUMPDEST PUSH1 0xA DUP4 LT PUSH2 0x2A5B JUMPI PUSH1 0x1 DUP2 ADD SWAP1 POP JUMPDEST DUP1 SWAP2 POP POP SWAP2 SWAP1 POP JUMP JUMPDEST PUSH0 DUP1 PUSH20 0xFFFFFFFFFFFFFFFFFFFFFFFFFFFFFFFFFFFFFFFF AND DUP4 PUSH20 0xFFFFFFFFFFFFFFFFFFFFFFFFFFFFFFFFFFFFFFFF AND EQ ISZERO DUP1 ISZERO PUSH2 0x2B1B JUMPI POP DUP3 PUSH20 0xFFFFFFFFFFFFFFFFFFFFFFFFFFFFFFFFFFFFFFFF AND DUP5 PUSH20 0xFFFFFFFFFFFFFFFFFFFFFFFFFFFFFFFFFFFFFFFF AND EQ DUP1 PUSH2 0x2ADC JUMPI POP PUSH2 0x2ADB DUP5 DUP5 PUSH2 0x1632 JUMP JUMPDEST JUMPDEST DUP1 PUSH2 0x2B1A JUMPI POP DUP3 PUSH20 0xFFFFFFFFFFFFFFFFFFFFFFFFFFFFFFFFFFFFFFFF AND PUSH2 0x2B02 DUP4 PUSH2 0x1D8B JUMP JUMPDEST PUSH20 0xFFFFFFFFFFFFFFFFFFFFFFFFFFFFFFFFFFFFFFFF AND EQ JUMPDEST JUMPDEST SWAP1 POP SWAP4 SWAP3 POP POP POP JUMP JUMPDEST PUSH0 PUSH1 0x40 MLOAD SWAP1 POP SWAP1 JUMP JUMPDEST PUSH0 DUP1 REVERT JUMPDEST PUSH0 DUP1 REVERT JUMPDEST PUSH0 PUSH32 0xFFFFFFFF00000000000000000000000000000000000000000000000000000000 DUP3 AND SWAP1 POP SWAP2 SWAP1 POP JUMP JUMPDEST PUSH2 0x2B69 DUP2 PUSH2 0x2B35 JUMP JUMPDEST DUP2 EQ PUSH2 0x2B73 JUMPI PUSH0 DUP1 REVERT JUMPDEST POP JUMP JUMPDEST PUSH0 DUP2 CALLDATALOAD SWAP1 POP PUSH2 0x2B84 DUP2 PUSH2 0x2B60 JUMP JUMPDEST SWAP3 SWAP2 POP POP JUMP JUMPDEST PUSH0 PUSH1 0x20 DUP3 DUP5 SUB SLT ISZERO PUSH2 0x2B9F JUMPI PUSH2 0x2B9E PUSH2 0x2B2D JUMP JUMPDEST JUMPDEST PUSH0 PUSH2 0x2BAC DUP5 DUP3 DUP6 ADD PUSH2 0x2B76 JUMP JUMPDEST SWAP2 POP POP SWAP3 SWAP2 POP POP JUMP JUMPDEST PUSH0 DUP2 ISZERO ISZERO SWAP1 POP SWAP2 SWAP1 POP JUMP JUMPDEST PUSH2 0x2BC9 DUP2 PUSH2 0x2BB5 JUMP JUMPDEST DUP3 MSTORE POP POP JUMP JUMPDEST PUSH0 PUSH1 0x20 DUP3 ADD SWAP1 POP PUSH2 0x2BE2 PUSH0 DUP4 ADD DUP5 PUSH2 0x2BC0 JUMP JUMPDEST SWAP3 SWAP2 POP POP JUMP JUMPDEST PUSH0 PUSH20 0xFFFFFFFFFFFFFFFFFFFFFFFFFFFFFFFFFFFFFFFF DUP3 AND SWAP1 POP SWAP2 SWAP1 POP JUMP JUMPDEST PUSH0 PUSH2 0x2C11 DUP3 PUSH2 0x2BE8 JUMP JUMPDEST SWAP1 POP SWAP2 SWAP1 POP JUMP JUMPDEST PUSH2 0x2C21 DUP2 PUSH2 0x2C07 JUMP JUMPDEST DUP3 MSTORE POP POP JUMP JUMPDEST PUSH0 PUSH1 0x20 DUP3 ADD SWAP1 POP PUSH2 0x2C3A PUSH0 DUP4 ADD DUP5 PUSH2 0x2C18 JUMP JUMPDEST SWAP3 SWAP2 POP POP JUMP JUMPDEST PUSH0 DUP2 MLOAD SWAP1 POP SWAP2 SWAP1 POP JUMP JUMPDEST PUSH0 DUP3 DUP3 MSTORE PUSH1 0x20 DUP3 ADD SWAP1 POP SWAP3 SWAP2 POP POP JUMP JUMPDEST DUP3 DUP2 DUP4 MCOPY PUSH0 DUP4 DUP4 ADD MSTORE POP POP POP JUMP JUMPDEST PUSH0 PUSH1 0x1F NOT PUSH1 0x1F DUP4 ADD AND SWAP1 POP SWAP2 SWAP1 POP JUMP JUMPDEST PUSH0 PUSH2 0x2C82 DUP3 PUSH2 0x2C40 JUMP JUMPDEST PUSH2 0x2C8C DUP2 DUP6 PUSH2 0x2C4A JUMP JUMPDEST SWAP4 POP PUSH2 0x2C9C DUP2 DUP6 PUSH1 0x20 DUP7 ADD PUSH2 0x2C5A JUMP JUMPDEST PUSH2 0x2CA5 DUP2 PUSH2 0x2C68 JUMP JUMPDEST DUP5 ADD SWAP2 POP POP SWAP3 SWAP2 POP POP JUMP JUMPDEST PUSH0 PUSH1 0x20 DUP3 ADD SWAP1 POP DUP2 DUP2 SUB PUSH0 DUP4 ADD MSTORE PUSH2 0x2CC8 DUP2 DUP5 PUSH2 0x2C78 JUMP JUMPDEST SWAP1 POP SWAP3 SWAP2 POP POP JUMP JUMPDEST PUSH0 DUP2 SWAP1 POP SWAP2 SWAP1 POP JUMP JUMPDEST PUSH2 0x2CE2 DUP2 PUSH2 0x2CD0 JUMP JUMPDEST DUP2 EQ PUSH2 0x2CEC JUMPI PUSH0 DUP1 REVERT JUMPDEST POP JUMP JUMPDEST PUSH0 DUP2 CALLDATALOAD SWAP1 POP PUSH2 0x2CFD DUP2 PUSH2 0x2CD9 JUMP JUMPDEST SWAP3 SWAP2 POP POP JUMP JUMPDEST PUSH0 PUSH1 0x20 DUP3 DUP5 SUB SLT ISZERO PUSH2 0x2D18 JUMPI PUSH2 0x2D17 PUSH2 0x2B2D JUMP JUMPDEST JUMPDEST PUSH0 PUSH2 0x2D25 DUP5 DUP3 DUP6 ADD PUSH2 0x2CEF JUMP JUMPDEST SWAP2 POP POP SWAP3 SWAP2 POP POP JUMP JUMPDEST PUSH2 0x2D37 DUP2 PUSH2 0x2C07 JUMP JUMPDEST DUP2 EQ PUSH2 0x2D41 JUMPI PUSH0 DUP1 REVERT JUMPDEST POP JUMP JUMPDEST PUSH0 DUP2 CALLDATALOAD SWAP1 POP PUSH2 0x2D52 DUP2 PUSH2 0x2D2E JUMP JUMPDEST SWAP3 SWAP2 POP POP JUMP JUMPDEST PUSH0 DUP1 PUSH1 0x40 DUP4 DUP6 SUB SLT ISZERO PUSH2 0x2D6E JUMPI PUSH2 0x2D6D PUSH2 0x2B2D JUMP JUMPDEST JUMPDEST PUSH0 PUSH2 0x2D7B DUP6 DUP3 DUP7 ADD PUSH2 0x2D44 JUMP JUMPDEST SWAP3 POP POP PUSH1 0x20 PUSH2 0x2D8C DUP6 DUP3 DUP7 ADD PUSH2 0x2CEF JUMP JUMPDEST SWAP2 POP POP SWAP3 POP SWAP3 SWAP1 POP JUMP JUMPDEST PUSH2 0x2D9F DUP2 PUSH2 0x2CD0 JUMP JUMPDEST DUP3 MSTORE POP POP JUMP JUMPDEST PUSH0 PUSH1 0x20 DUP3 ADD SWAP1 POP PUSH2 0x2DB8 PUSH0 DUP4 ADD DUP5 PUSH2 0x2D96 JUMP JUMPDEST SWAP3 SWAP2 POP POP JUMP JUMPDEST PUSH0 DUP1 PUSH0 PUSH1 0x60 DUP5 DUP7 SUB SLT ISZERO PUSH2 0x2DD5 JUMPI PUSH2 0x2DD4 PUSH2 0x2B2D JUMP JUMPDEST JUMPDEST PUSH0 PUSH2 0x2DE2 DUP7 DUP3 DUP8 ADD PUSH2 0x2D44 JUMP JUMPDEST SWAP4 POP POP PUSH1 0x20 PUSH2 0x2DF3 DUP7 DUP3 DUP8 ADD PUSH2 0x2D44 JUMP JUMPDEST SWAP3 POP POP PUSH1 0x40 PUSH2 0x2E04 DUP7 DUP3 DUP8 ADD PUSH2 0x2CEF JUMP JUMPDEST SWAP2 POP POP SWAP3 POP SWAP3 POP SWAP3 JUMP JUMPDEST PUSH0 DUP1 REVERT JUMPDEST PUSH0 DUP1 REVERT JUMPDEST PUSH32 0x4E487B7100000000000000000000000000000000000000000000000000000000 PUSH0 MSTORE PUSH1 0x41 PUSH1 0x4 MSTORE PUSH1 0x24 PUSH0 REVERT JUMPDEST PUSH2 0x2E4C DUP3 PUSH2 0x2C68 JUMP JUMPDEST DUP2 ADD DUP2 DUP2 LT PUSH8 0xFFFFFFFFFFFFFFFF DUP3 GT OR ISZERO PUSH2 0x2E6B JUMPI PUSH2 0x2E6A PUSH2 0x2E16 JUMP JUMPDEST JUMPDEST DUP1 PUSH1 0x40 MSTORE POP POP POP JUMP JUMPDEST PUSH0 PUSH2 0x2E7D PUSH2 0x2B24 JUMP JUMPDEST SWAP1 POP PUSH2 0x2E89 DUP3 DUP3 PUSH2 0x2E43 JUMP JUMPDEST SWAP2 SWAP1 POP JUMP JUMPDEST PUSH0 PUSH8 0xFFFFFFFFFFFFFFFF DUP3 GT ISZERO PUSH2 0x2EA8 JUMPI PUSH2 0x2EA7 PUSH2 0x2E16 JUMP JUMPDEST JUMPDEST PUSH2 0x2EB1 DUP3 PUSH2 0x2C68 JUMP JUMPDEST SWAP1 POP PUSH1 0x20 DUP2 ADD SWAP1 POP SWAP2 SWAP1 POP JUMP JUMPDEST DUP3 DUP2 DUP4 CALLDATACOPY PUSH0 DUP4 DUP4 ADD MSTORE POP POP POP JUMP JUMPDEST PUSH0 PUSH2 0x2EDE PUSH2 0x2ED9 DUP5 PUSH2 0x2E8E JUMP JUMPDEST PUSH2 0x2E74 JUMP JUMPDEST SWAP1 POP DUP3 DUP2 MSTORE PUSH1 0x20 DUP2 ADD DUP5 DUP5 DUP5 ADD GT ISZERO PUSH2 0x2EFA JUMPI PUSH2 0x2EF9 PUSH2 0x2E12 JUMP JUMPDEST JUMPDEST PUSH2 0x2F05 DUP5 DUP3 DUP6 PUSH2 0x2EBE JUMP JUMPDEST POP SWAP4 SWAP3 POP POP POP JUMP JUMPDEST PUSH0 DUP3 PUSH1 0x1F DUP4 ADD SLT PUSH2 0x2F21 JUMPI PUSH2 0x2F20 PUSH2 0x2E0E JUMP JUMPDEST JUMPDEST DUP2 CALLDATALOAD PUSH2 0x2F31 DUP5 DUP3 PUSH1 0x20 DUP7 ADD PUSH2 0x2ECC JUMP JUMPDEST SWAP2 POP POP SWAP3 SWAP2 POP POP JUMP JUMPDEST PUSH0 DUP1 PUSH0 DUP1 PUSH0 PUSH1 0xA0 DUP7 DUP9 SUB SLT ISZERO PUSH2 0x2F53 JUMPI PUSH2 0x2F52 PUSH2 0x2B2D JUMP JUMPDEST JUMPDEST PUSH0 DUP7 ADD CALLDATALOAD PUSH8 0xFFFFFFFFFFFFFFFF DUP2 GT ISZERO PUSH2 0x2F70 JUMPI PUSH2 0x2F6F PUSH2 0x2B31 JUMP JUMPDEST JUMPDEST PUSH2 0x2F7C DUP9 DUP3 DUP10 ADD PUSH2 0x2F0D JUMP JUMPDEST SWAP6 POP POP PUSH1 0x20 DUP7 ADD CALLDATALOAD PUSH8 0xFFFFFFFFFFFFFFFF DUP2 GT ISZERO PUSH2 0x2F9D JUMPI PUSH2 0x2F9C PUSH2 0x2B31 JUMP JUMPDEST JUMPDEST PUSH2 0x2FA9 DUP9 DUP3 DUP10 ADD PUSH2 0x2F0D JUMP JUMPDEST SWAP5 POP POP PUSH1 0x40 PUSH2 0x2FBA DUP9 DUP3 DUP10 ADD PUSH2 0x2CEF JUMP JUMPDEST SWAP4 POP POP PUSH1 0x60 PUSH2 0x2FCB DUP9 DUP3 DUP10 ADD PUSH2 0x2CEF JUMP JUMPDEST SWAP3 POP POP PUSH1 0x80 PUSH2 0x2FDC DUP9 DUP3 DUP10 ADD PUSH2 0x2CEF JUMP JUMPDEST SWAP2 POP POP SWAP3 SWAP6 POP SWAP3 SWAP6 SWAP1 SWAP4 POP JUMP JUMPDEST PUSH0 PUSH1 0xFF DUP3 AND SWAP1 POP SWAP2 SWAP1 POP JUMP JUMPDEST PUSH2 0x2FFE DUP2 PUSH2 0x2FE9 JUMP JUMPDEST DUP2 EQ PUSH2 0x3008 JUMPI PUSH0 DUP1 REVERT JUMPDEST POP JUMP JUMPDEST PUSH0 DUP2 CALLDATALOAD SWAP1 POP PUSH2 0x3019 DUP2 PUSH2 0x2FF5 JUMP JUMPDEST SWAP3 SWAP2 POP POP JUMP JUMPDEST PUSH0 DUP1 PUSH0 DUP1 PUSH0 DUP1 PUSH1 0xC0 DUP8 DUP10 SUB SLT ISZERO PUSH2 0x3039 JUMPI PUSH2 0x3038 PUSH2 0x2B2D JUMP JUMPDEST JUMPDEST PUSH0 PUSH2 0x3046 DUP10 DUP3 DUP11 ADD PUSH2 0x2CEF JUMP JUMPDEST SWAP7 POP POP PUSH1 0x20 PUSH2 0x3057 DUP10 DUP3 DUP11 ADD PUSH2 0x300B JUMP JUMPDEST SWAP6 POP POP PUSH1 0x40 PUSH2 0x3068 DUP10 DUP3 DUP11 ADD PUSH2 0x2CEF JUMP JUMPDEST SWAP5 POP POP PUSH1 0x60 PUSH2 0x3079 DUP10 DUP3 DUP11 ADD PUSH2 0x2CEF JUMP JUMPDEST SWAP4 POP POP PUSH1 0x80 PUSH2 0x308A DUP10 DUP3 DUP11 ADD PUSH2 0x2CEF JUMP JUMPDEST SWAP3 POP POP PUSH1 0xA0 PUSH2 0x309B DUP10 DUP3 DUP11 ADD PUSH2 0x2CEF JUMP JUMPDEST SWAP2 POP POP SWAP3 SWAP6 POP SWAP3 SWAP6 POP SWAP3 SWAP6 JUMP JUMPDEST PUSH0 DUP1 PUSH0 DUP1 PUSH1 0x80 DUP6 DUP8 SUB SLT ISZERO PUSH2 0x30C0 JUMPI PUSH2 0x30BF PUSH2 0x2B2D JUMP JUMPDEST JUMPDEST PUSH0 PUSH2 0x30CD DUP8 DUP3 DUP9 ADD PUSH2 0x2CEF JUMP JUMPDEST SWAP5 POP POP PUSH1 0x20 PUSH2 0x30DE DUP8 DUP3 DUP9 ADD PUSH2 0x2CEF JUMP JUMPDEST SWAP4 POP POP PUSH1 0x40 PUSH2 0x30EF DUP8 DUP3 DUP9 ADD PUSH2 0x2CEF JUMP JUMPDEST SWAP3 POP POP PUSH1 0x60 PUSH2 0x3100 DUP8 DUP3 DUP9 ADD PUSH2 0x2CEF JUMP JUMPDEST SWAP2 POP POP SWAP3 SWAP6 SWAP2 SWAP5 POP SWAP3 POP JUMP JUMPDEST PUSH0 PUSH1 0x20 DUP3 DUP5 SUB SLT ISZERO PUSH2 0x3121 JUMPI PUSH2 0x3120 PUSH2 0x2B2D JUMP JUMPDEST JUMPDEST PUSH0 PUSH2 0x312E DUP5 DUP3 DUP6 ADD PUSH2 0x2D44 JUMP JUMPDEST SWAP2 POP POP SWAP3 SWAP2 POP POP JUMP JUMPDEST PUSH2 0x3140 DUP2 PUSH2 0x2BB5 JUMP JUMPDEST DUP2 EQ PUSH2 0x314A JUMPI PUSH0 DUP1 REVERT JUMPDEST POP JUMP JUMPDEST PUSH0 DUP2 CALLDATALOAD SWAP1 POP PUSH2 0x315B DUP2 PUSH2 0x3137 JUMP JUMPDEST SWAP3 SWAP2 POP POP JUMP JUMPDEST PUSH0 DUP1 PUSH1 0x40 DUP4 DUP6 SUB SLT ISZERO PUSH2 0x3177 JUMPI PUSH2 0x3176 PUSH2 0x2B2D JUMP JUMPDEST JUMPDEST PUSH0 PUSH2 0x3184 DUP6 DUP3 DUP7 ADD PUSH2 0x2D44 JUMP JUMPDEST SWAP3 POP POP PUSH1 0x20 PUSH2 0x3195 DUP6 DUP3 DUP7 ADD PUSH2 0x314D JUMP JUMPDEST SWAP2 POP POP SWAP3 POP SWAP3 SWAP1 POP JUMP JUMPDEST PUSH0 PUSH8 0xFFFFFFFFFFFFFFFF DUP3 GT ISZERO PUSH2 0x31B9 JUMPI PUSH2 0x31B8 PUSH2 0x2E16 JUMP JUMPDEST JUMPDEST PUSH2 0x31C2 DUP3 PUSH2 0x2C68 JUMP JUMPDEST SWAP1 POP PUSH1 0x20 DUP2 ADD SWAP1 POP SWAP2 SWAP1 POP JUMP JUMPDEST PUSH0 PUSH2 0x31E1 PUSH2 0x31DC DUP5 PUSH2 0x319F JUMP JUMPDEST PUSH2 0x2E74 JUMP JUMPDEST SWAP1 POP DUP3 DUP2 MSTORE PUSH1 0x20 DUP2 ADD DUP5 DUP5 DUP5 ADD GT ISZERO PUSH2 0x31FD JUMPI PUSH2 0x31FC PUSH2 0x2E12 JUMP JUMPDEST JUMPDEST PUSH2 0x3208 DUP5 DUP3 DUP6 PUSH2 0x2EBE JUMP JUMPDEST POP SWAP4 SWAP3 POP POP POP JUMP JUMPDEST PUSH0 DUP3 PUSH1 0x1F DUP4 ADD SLT PUSH2 0x3224 JUMPI PUSH2 0x3223 PUSH2 0x2E0E JUMP JUMPDEST JUMPDEST DUP2 CALLDATALOAD PUSH2 0x3234 DUP5 DUP3 PUSH1 0x20 DUP7 ADD PUSH2 0x31CF JUMP JUMPDEST SWAP2 POP POP SWAP3 SWAP2 POP POP JUMP JUMPDEST PUSH0 DUP1 PUSH0 DUP1 PUSH1 0x80 DUP6 DUP8 SUB SLT ISZERO PUSH2 0x3255 JUMPI PUSH2 0x3254 PUSH2 0x2B2D JUMP JUMPDEST JUMPDEST PUSH0 PUSH2 0x3262 DUP8 DUP3 DUP9 ADD PUSH2 0x2D44 JUMP JUMPDEST SWAP5 POP POP PUSH1 0x20 PUSH2 0x3273 DUP8 DUP3 DUP9 ADD PUSH2 0x2D44 JUMP JUMPDEST SWAP4 POP POP PUSH1 0x40 PUSH2 0x3284 DUP8 DUP3 DUP9 ADD PUSH2 0x2CEF JUMP JUMPDEST SWAP3 POP POP PUSH1 0x60 DUP6 ADD CALLDATALOAD PUSH8 0xFFFFFFFFFFFFFFFF DUP2 GT ISZERO PUSH2 0x32A5 JUMPI PUSH2 0x32A4 PUSH2 0x2B31 JUMP JUMPDEST JUMPDEST PUSH2 0x32B1 DUP8 DUP3 DUP9 ADD PUSH2 0x3210 JUMP JUMPDEST SWAP2 POP POP SWAP3 SWAP6 SWAP2 SWAP5 POP SWAP3 POP JUMP JUMPDEST PUSH0 PUSH1 0xC0 DUP3 ADD SWAP1 POP PUSH2 0x32D0 PUSH0 DUP4 ADD DUP10 PUSH2 0x2D96 JUMP JUMPDEST PUSH2 0x32DD PUSH1 0x20 DUP4 ADD DUP9 PUSH2 0x2C18 JUMP JUMPDEST PUSH2 0x32EA PUSH1 0x40 DUP4 ADD DUP8 PUSH2 0x2D96 JUMP JUMPDEST PUSH2 0x32F7 PUSH1 0x60 DUP4 ADD DUP7 PUSH2 0x2D96 JUMP JUMPDEST PUSH2 0x3304 PUSH1 0x80 DUP4 ADD DUP6 PUSH2 0x2BC0 JUMP JUMPDEST PUSH2 0x3311 PUSH1 0xA0 DUP4 ADD DUP5 PUSH2 0x2BC0 JUMP JUMPDEST SWAP8 SWAP7 POP POP POP POP POP POP POP JUMP JUMPDEST PUSH0 DUP1 PUSH1 0x40 DUP4 DUP6 SUB SLT ISZERO PUSH2 0x3332 JUMPI PUSH2 0x3331 PUSH2 0x2B2D JUMP JUMPDEST JUMPDEST PUSH0 PUSH2 0x333F DUP6 DUP3 DUP7 ADD PUSH2 0x2D44 JUMP JUMPDEST SWAP3 POP POP PUSH1 0x20 PUSH2 0x3350 DUP6 DUP3 DUP7 ADD PUSH2 0x2D44 JUMP JUMPDEST SWAP2 POP POP SWAP3 POP SWAP3 SWAP1 POP JUMP JUMPDEST PUSH0 PUSH1 0xC0 DUP3 ADD SWAP1 POP PUSH2 0x336D PUSH0 DUP4 ADD DUP10 PUSH2 0x2D96 JUMP JUMPDEST DUP2 DUP2 SUB PUSH1 0x20 DUP4 ADD MSTORE PUSH2 0x337F DUP2 DUP9 PUSH2 0x2C78 JUMP JUMPDEST SWAP1 POP DUP2 DUP2 SUB PUSH1 0x40 DUP4 ADD MSTORE PUSH2 0x3393 DUP2 DUP8 PUSH2 0x2C78 JUMP JUMPDEST SWAP1 POP PUSH2 0x33A2 PUSH1 0x60 DUP4 ADD DUP7 PUSH2 0x2D96 JUMP JUMPDEST PUSH2 0x33AF PUSH1 0x80 DUP4 ADD DUP6 PUSH2 0x2D96 JUMP JUMPDEST PUSH2 0x33BC PUSH1 0xA0 DUP4 ADD DUP5 PUSH2 0x2D96 JUMP JUMPDEST SWAP8 SWAP7 POP POP POP POP POP POP POP JUMP JUMPDEST PUSH32 0x4E487B7100000000000000000000000000000000000000000000000000000000 PUSH0 MSTORE PUSH1 0x22 PUSH1 0x4 MSTORE PUSH1 0x24 PUSH0 REVERT JUMPDEST PUSH0 PUSH1 0x2 DUP3 DIV SWAP1 POP PUSH1 0x1 DUP3 AND DUP1 PUSH2 0x340B JUMPI PUSH1 0x7F DUP3 AND SWAP2 POP JUMPDEST PUSH1 0x20 DUP3 LT DUP2 SUB PUSH2 0x341E JUMPI PUSH2 0x341D PUSH2 0x33C7 JUMP JUMPDEST JUMPDEST POP SWAP2 SWAP1 POP JUMP JUMPDEST PUSH0 PUSH1 0x60 DUP3 ADD SWAP1 POP PUSH2 0x3437 PUSH0 DUP4 ADD DUP7 PUSH2 0x2C18 JUMP JUMPDEST PUSH2 0x3444 PUSH1 0x20 DUP4 ADD DUP6 PUSH2 0x2D96 JUMP JUMPDEST PUSH2 0x3451 PUSH1 0x40 DUP4 ADD DUP5 PUSH2 0x2C18 JUMP JUMPDEST SWAP5 SWAP4 POP POP POP POP JUMP JUMPDEST PUSH32 0x4F6E6C792042696C426F79642063616E20706572666F726D2074686973206163 PUSH0 DUP3 ADD MSTORE PUSH32 0x74696F6E2E000000000000000000000000000000000000000000000000000000 PUSH1 0x20 DUP3 ADD MSTORE POP JUMP JUMPDEST PUSH0 PUSH2 0x34B3 PUSH1 0x25 DUP4 PUSH2 0x2C4A JUMP JUMPDEST SWAP2 POP PUSH2 0x34BE DUP3 PUSH2 0x3459 JUMP JUMPDEST PUSH1 0x40 DUP3 ADD SWAP1 POP SWAP2 SWAP1 POP JUMP JUMPDEST PUSH0 PUSH1 0x20 DUP3 ADD SWAP1 POP DUP2 DUP2 SUB PUSH0 DUP4 ADD MSTORE PUSH2 0x34E0 DUP2 PUSH2 0x34A7 JUMP JUMPDEST SWAP1 POP SWAP2 SWAP1 POP JUMP JUMPDEST PUSH0 DUP2 SWAP1 POP DUP2 PUSH0 MSTORE PUSH1 0x20 PUSH0 KECCAK256 SWAP1 POP SWAP2 SWAP1 POP JUMP JUMPDEST PUSH0 PUSH1 0x20 PUSH1 0x1F DUP4 ADD DIV SWAP1 POP SWAP2 SWAP1 POP JUMP JUMPDEST PUSH0 DUP3 DUP3 SHL SWAP1 POP SWAP3 SWAP2 POP POP JUMP JUMPDEST PUSH0 PUSH1 0x8 DUP4 MUL PUSH2 0x3543 PUSH32 0xFFFFFFFFFFFFFFFFFFFFFFFFFFFFFFFFFFFFFFFFFFFFFFFFFFFFFFFFFFFFFFFF DUP3 PUSH2 0x3508 JUMP JUMPDEST PUSH2 0x354D DUP7 DUP4 PUSH2 0x3508 JUMP JUMPDEST SWAP6 POP DUP1 NOT DUP5 AND SWAP4 POP DUP1 DUP7 AND DUP5 OR SWAP3 POP POP POP SWAP4 SWAP3 POP POP POP JUMP JUMPDEST PUSH0 DUP2 SWAP1 POP SWAP2 SWAP1 POP JUMP JUMPDEST PUSH0 PUSH2 0x3588 PUSH2 0x3583 PUSH2 0x357E DUP5 PUSH2 0x2CD0 JUMP JUMPDEST PUSH2 0x3565 JUMP JUMPDEST PUSH2 0x2CD0 JUMP JUMPDEST SWAP1 POP SWAP2 SWAP1 POP JUMP JUMPDEST PUSH0 DUP2 SWAP1 POP SWAP2 SWAP1 POP JUMP JUMPDEST PUSH2 0x35A1 DUP4 PUSH2 0x356E JUMP JUMPDEST PUSH2 0x35B5 PUSH2 0x35AD DUP3 PUSH2 0x358F JUMP JUMPDEST DUP5 DUP5 SLOAD PUSH2 0x3514 JUMP JUMPDEST DUP3 SSTORE POP POP POP POP JUMP JUMPDEST PUSH0 SWAP1 JUMP JUMPDEST PUSH2 0x35C9 PUSH2 0x35BD JUMP JUMPDEST PUSH2 0x35D4 DUP2 DUP5 DUP5 PUSH2 0x3598 JUMP JUMPDEST POP POP POP JUMP JUMPDEST JUMPDEST DUP2 DUP2 LT ISZERO PUSH2 0x35F7 JUMPI PUSH2 0x35EC PUSH0 DUP3 PUSH2 0x35C1 JUMP JUMPDEST PUSH1 0x1 DUP2 ADD SWAP1 POP PUSH2 0x35DA JUMP JUMPDEST POP POP JUMP JUMPDEST PUSH1 0x1F DUP3 GT ISZERO PUSH2 0x363C JUMPI PUSH2 0x360D DUP2 PUSH2 0x34E7 JUMP JUMPDEST PUSH2 0x3616 DUP5 PUSH2 0x34F9 JUMP JUMPDEST DUP2 ADD PUSH1 0x20 DUP6 LT ISZERO PUSH2 0x3625 JUMPI DUP2 SWAP1 POP JUMPDEST PUSH2 0x3639 PUSH2 0x3631 DUP6 PUSH2 0x34F9 JUMP JUMPDEST DUP4 ADD DUP3 PUSH2 0x35D9 JUMP JUMPDEST POP POP JUMPDEST POP POP POP JUMP JUMPDEST PUSH0 DUP3 DUP3 SHR SWAP1 POP SWAP3 SWAP2 POP POP JUMP JUMPDEST PUSH0 PUSH2 0x365C PUSH0 NOT DUP5 PUSH1 0x8 MUL PUSH2 0x3641 JUMP JUMPDEST NOT DUP1 DUP4 AND SWAP2 POP POP SWAP3 SWAP2 POP POP JUMP JUMPDEST PUSH0 PUSH2 0x3674 DUP4 DUP4 PUSH2 0x364D JUMP JUMPDEST SWAP2 POP DUP3 PUSH1 0x2 MUL DUP3 OR SWAP1 POP SWAP3 SWAP2 POP POP JUMP JUMPDEST PUSH2 0x368D DUP3 PUSH2 0x2C40 JUMP JUMPDEST PUSH8 0xFFFFFFFFFFFFFFFF DUP2 GT ISZERO PUSH2 0x36A6 JUMPI PUSH2 0x36A5 PUSH2 0x2E16 JUMP JUMPDEST JUMPDEST PUSH2 0x36B0 DUP3 SLOAD PUSH2 0x33F4 JUMP JUMPDEST PUSH2 0x36BB DUP3 DUP3 DUP6 PUSH2 0x35FB JUMP JUMPDEST PUSH0 PUSH1 0x20 SWAP1 POP PUSH1 0x1F DUP4 GT PUSH1 0x1 DUP2 EQ PUSH2 0x36EC JUMPI PUSH0 DUP5 ISZERO PUSH2 0x36DA JUMPI DUP3 DUP8 ADD MLOAD SWAP1 POP JUMPDEST PUSH2 0x36E4 DUP6 DUP3 PUSH2 0x3669 JUMP JUMPDEST DUP7 SSTORE POP PUSH2 0x374B JUMP JUMPDEST PUSH1 0x1F NOT DUP5 AND PUSH2 0x36FA DUP7 PUSH2 0x34E7 JUMP JUMPDEST PUSH0 JUMPDEST DUP3 DUP2 LT ISZERO PUSH2 0x3721 JUMPI DUP5 DUP10 ADD MLOAD DUP3 SSTORE PUSH1 0x1 DUP3 ADD SWAP2 POP PUSH1 0x20 DUP6 ADD SWAP5 POP PUSH1 0x20 DUP2 ADD SWAP1 POP PUSH2 0x36FC JUMP JUMPDEST DUP7 DUP4 LT ISZERO PUSH2 0x373E JUMPI DUP5 DUP10 ADD MLOAD PUSH2 0x373A PUSH1 0x1F DUP10 AND DUP3 PUSH2 0x364D JUMP JUMPDEST DUP4 SSTORE POP JUMPDEST PUSH1 0x1 PUSH1 0x2 DUP9 MUL ADD DUP9 SSTORE POP POP POP JUMPDEST POP POP POP POP POP POP JUMP JUMPDEST PUSH32 0x4E6F7420617574686F72697A65642E0000000000000000000000000000000000 PUSH0 DUP3 ADD MSTORE POP JUMP JUMPDEST PUSH0 PUSH2 0x3787 PUSH1 0xF DUP4 PUSH2 0x2C4A JUMP JUMPDEST SWAP2 POP PUSH2 0x3792 DUP3 PUSH2 0x3753 JUMP JUMPDEST PUSH1 0x20 DUP3 ADD SWAP1 POP SWAP2 SWAP1 POP JUMP JUMPDEST PUSH0 PUSH1 0x20 DUP3 ADD SWAP1 POP DUP2 DUP2 SUB PUSH0 DUP4 ADD MSTORE PUSH2 0x37B4 DUP2 PUSH2 0x377B JUMP JUMPDEST SWAP1 POP SWAP2 SWAP1 POP JUMP JUMPDEST PUSH32 0x4C65617365206E6F74206163746976652E000000000000000000000000000000 PUSH0 DUP3 ADD MSTORE POP JUMP JUMPDEST PUSH0 PUSH2 0x37EF PUSH1 0x11 DUP4 PUSH2 0x2C4A JUMP JUMPDEST SWAP2 POP PUSH2 0x37FA DUP3 PUSH2 0x37BB JUMP JUMPDEST PUSH1 0x20 DUP3 ADD SWAP1 POP SWAP2 SWAP1 POP JUMP JUMPDEST PUSH0 PUSH1 0x20 DUP3 ADD SWAP1 POP DUP2 DUP2 SUB PUSH0 DUP4 ADD MSTORE PUSH2 0x381C DUP2 PUSH2 0x37E3 JUMP JUMPDEST SWAP1 POP SWAP2 SWAP1 POP JUMP JUMPDEST PUSH32 0x4E487B7100000000000000000000000000000000000000000000000000000000 PUSH0 MSTORE PUSH1 0x11 PUSH1 0x4 MSTORE PUSH1 0x24 PUSH0 REVERT JUMPDEST PUSH0 PUSH2 0x385A DUP3 PUSH2 0x2CD0 JUMP JUMPDEST SWAP2 POP PUSH2 0x3865 DUP4 PUSH2 0x2CD0 JUMP JUMPDEST SWAP3 POP DUP3 DUP3 ADD SWAP1 POP DUP1 DUP3 GT ISZERO PUSH2 0x387D JUMPI PUSH2 0x387C PUSH2 0x3823 JUMP JUMPDEST JUMPDEST SWAP3 SWAP2 POP POP JUMP JUMPDEST PUSH32 0x496E76616C6964206F7074696F6E2073656C65637465642E0000000000000000 PUSH0 DUP3 ADD MSTORE POP JUMP JUMPDEST PUSH0 PUSH2 0x38B7 PUSH1 0x18 DUP4 PUSH2 0x2C4A JUMP JUMPDEST SWAP2 POP PUSH2 0x38C2 DUP3 PUSH2 0x3883 JUMP JUMPDEST PUSH1 0x20 DUP3 ADD SWAP1 POP SWAP2 SWAP1 POP JUMP JUMPDEST PUSH0 PUSH1 0x20 DUP3 ADD SWAP1 POP DUP2 DUP2 SUB PUSH0 DUP4 ADD MSTORE PUSH2 0x38E4 DUP2 PUSH2 0x38AB JUMP JUMPDEST SWAP1 POP SWAP2 SWAP1 POP JUMP JUMPDEST PUSH0 PUSH2 0x38F5 DUP3 PUSH2 0x2CD0 JUMP JUMPDEST SWAP2 POP PUSH2 0x3900 DUP4 PUSH2 0x2CD0 JUMP JUMPDEST SWAP3 POP DUP3 DUP3 MUL PUSH2 0x390E DUP2 PUSH2 0x2CD0 JUMP JUMPDEST SWAP2 POP DUP3 DUP3 DIV DUP5 EQ DUP4 ISZERO OR PUSH2 0x3925 JUMPI PUSH2 0x3924 PUSH2 0x3823 JUMP JUMPDEST JUMPDEST POP SWAP3 SWAP2 POP POP JUMP JUMPDEST PUSH32 0x496E636F7272656374207061796D656E7420616D6F756E742E00000000000000 PUSH0 DUP3 ADD MSTORE POP JUMP JUMPDEST PUSH0 PUSH2 0x3960 PUSH1 0x19 DUP4 PUSH2 0x2C4A JUMP JUMPDEST SWAP2 POP PUSH2 0x396B DUP3 PUSH2 0x392C JUMP JUMPDEST PUSH1 0x20 DUP3 ADD SWAP1 POP SWAP2 SWAP1 POP JUMP JUMPDEST PUSH0 PUSH1 0x20 DUP3 ADD SWAP1 POP DUP2 DUP2 SUB PUSH0 DUP4 ADD MSTORE PUSH2 0x398D DUP2 PUSH2 0x3954 JUMP JUMPDEST SWAP1 POP SWAP2 SWAP1 POP JUMP JUMPDEST PUSH32 0x4C65617365206973206E6F74206163746976652E000000000000000000000000 PUSH0 DUP3 ADD MSTORE POP JUMP JUMPDEST PUSH0 PUSH2 0x39C8 PUSH1 0x14 DUP4 PUSH2 0x2C4A JUMP JUMPDEST SWAP2 POP PUSH2 0x39D3 DUP3 PUSH2 0x3994 JUMP JUMPDEST PUSH1 0x20 DUP3 ADD SWAP1 POP SWAP2 SWAP1 POP JUMP JUMPDEST PUSH0 PUSH1 0x20 DUP3 ADD SWAP1 POP DUP2 DUP2 SUB PUSH0 DUP4 ADD MSTORE PUSH2 0x39F5 DUP2 PUSH2 0x39BC JUMP JUMPDEST SWAP1 POP SWAP2 SWAP1 POP JUMP JUMPDEST PUSH32 0x5061796D656E74206973206E6F74206F7665726475652E000000000000000000 PUSH0 DUP3 ADD MSTORE POP JUMP JUMPDEST PUSH0 PUSH2 0x3A30 PUSH1 0x17 DUP4 PUSH2 0x2C4A JUMP JUMPDEST SWAP2 POP PUSH2 0x3A3B DUP3 PUSH2 0x39FC JUMP JUMPDEST PUSH1 0x20 DUP3 ADD SWAP1 POP SWAP2 SWAP1 POP JUMP JUMPDEST PUSH0 PUSH1 0x20 DUP3 ADD SWAP1 POP DUP2 DUP2 SUB PUSH0 DUP4 ADD MSTORE PUSH2 0x3A5D DUP2 PUSH2 0x3A24 JUMP JUMPDEST SWAP1 POP SWAP2 SWAP1 POP JUMP JUMPDEST PUSH32 0x4E487B7100000000000000000000000000000000000000000000000000000000 PUSH0 MSTORE PUSH1 0x12 PUSH1 0x4 MSTORE PUSH1 0x24 PUSH0 REVERT JUMPDEST PUSH0 PUSH2 0x3A9B DUP3 PUSH2 0x2CD0 JUMP JUMPDEST SWAP2 POP PUSH2 0x3AA6 DUP4 PUSH2 0x2CD0 JUMP JUMPDEST SWAP3 POP DUP3 PUSH2 0x3AB6 JUMPI PUSH2 0x3AB5 PUSH2 0x3A64 JUMP JUMPDEST JUMPDEST DUP3 DUP3 DIV SWAP1 POP SWAP3 SWAP2 POP POP JUMP JUMPDEST PUSH0 PUSH2 0x3ACB DUP3 PUSH2 0x2CD0 JUMP JUMPDEST SWAP2 POP PUSH2 0x3AD6 DUP4 PUSH2 0x2CD0 JUMP JUMPDEST SWAP3 POP DUP3 DUP3 SUB SWAP1 POP DUP2 DUP2 GT ISZERO PUSH2 0x3AEE JUMPI PUSH2 0x3AED PUSH2 0x3823 JUMP JUMPDEST JUMPDEST SWAP3 SWAP2 POP POP JUMP JUMPDEST PUSH0 DUP2 SWAP1 POP SWAP3 SWAP2 POP POP JUMP JUMPDEST PUSH0 PUSH2 0x3B08 DUP3 PUSH2 0x2C40 JUMP JUMPDEST PUSH2 0x3B12 DUP2 DUP6 PUSH2 0x3AF4 JUMP JUMPDEST SWAP4 POP PUSH2 0x3B22 DUP2 DUP6 PUSH1 0x20 DUP7 ADD PUSH2 0x2C5A JUMP JUMPDEST DUP1 DUP5 ADD SWAP2 POP POP SWAP3 SWAP2 POP POP JUMP JUMPDEST PUSH0 PUSH2 0x3B39 DUP3 DUP6 PUSH2 0x3AFE JUMP JUMPDEST SWAP2 POP PUSH2 0x3B45 DUP3 DUP5 PUSH2 0x3AFE JUMP JUMPDEST SWAP2 POP DUP2 SWAP1 POP SWAP4 SWAP3 POP POP POP JUMP JUMPDEST PUSH32 0x4C65617365206973206E6F7420636F6E6669726D65642E000000000000000000 PUSH0 DUP3 ADD MSTORE POP JUMP JUMPDEST PUSH0 PUSH2 0x3B85 PUSH1 0x17 DUP4 PUSH2 0x2C4A JUMP JUMPDEST SWAP2 POP PUSH2 0x3B90 DUP3 PUSH2 0x3B51 JUMP JUMPDEST PUSH1 0x20 DUP3 ADD SWAP1 POP SWAP2 SWAP1 POP JUMP JUMPDEST PUSH0 PUSH1 0x20 DUP3 ADD SWAP1 POP DUP2 DUP2 SUB PUSH0 DUP4 ADD MSTORE PUSH2 0x3BB2 DUP2 PUSH2 0x3B79 JUMP JUMPDEST SWAP1 POP SWAP2 SWAP1 POP JUMP JUMPDEST PUSH32 0x5061796D656E74206973206F7665726475652E00000000000000000000000000 PUSH0 DUP3 ADD MSTORE POP JUMP JUMPDEST PUSH0 PUSH2 0x3BED PUSH1 0x13 DUP4 PUSH2 0x2C4A JUMP JUMPDEST SWAP2 POP PUSH2 0x3BF8 DUP3 PUSH2 0x3BB9 JUMP JUMPDEST PUSH1 0x20 DUP3 ADD SWAP1 POP SWAP2 SWAP1 POP JUMP JUMPDEST PUSH0 PUSH1 0x20 DUP3 ADD SWAP1 POP DUP2 DUP2 SUB PUSH0 DUP4 ADD MSTORE PUSH2 0x3C1A DUP2 PUSH2 0x3BE1 JUMP JUMPDEST SWAP1 POP SWAP2 SWAP1 POP JUMP JUMPDEST PUSH32 0x4C6561736520616C726561647920636F6E6669726D65642E0000000000000000 PUSH0 DUP3 ADD MSTORE POP JUMP JUMPDEST PUSH0 PUSH2 0x3C55 PUSH1 0x18 DUP4 PUSH2 0x2C4A JUMP JUMPDEST SWAP2 POP PUSH2 0x3C60 DUP3 PUSH2 0x3C21 JUMP JUMPDEST PUSH1 0x20 DUP3 ADD SWAP1 POP SWAP2 SWAP1 POP JUMP JUMPDEST PUSH0 PUSH1 0x20 DUP3 ADD SWAP1 POP DUP2 DUP2 SUB PUSH0 DUP4 ADD MSTORE PUSH2 0x3C82 DUP2 PUSH2 0x3C49 JUMP JUMPDEST SWAP1 POP SWAP2 SWAP1 POP JUMP JUMPDEST PUSH0 DUP2 MLOAD SWAP1 POP SWAP2 SWAP1 POP JUMP JUMPDEST PUSH0 DUP3 DUP3 MSTORE PUSH1 0x20 DUP3 ADD SWAP1 POP SWAP3 SWAP2 POP POP JUMP JUMPDEST PUSH0 PUSH2 0x3CAD DUP3 PUSH2 0x3C89 JUMP JUMPDEST PUSH2 0x3CB7 DUP2 DUP6 PUSH2 0x3C93 JUMP JUMPDEST SWAP4 POP PUSH2 0x3CC7 DUP2 DUP6 PUSH1 0x20 DUP7 ADD PUSH2 0x2C5A JUMP JUMPDEST PUSH2 0x3CD0 DUP2 PUSH2 0x2C68 JUMP JUMPDEST DUP5 ADD SWAP2 POP POP SWAP3 SWAP2 POP POP JUMP JUMPDEST PUSH0 PUSH1 0x80 DUP3 ADD SWAP1 POP PUSH2 0x3CEE PUSH0 DUP4 ADD DUP8 PUSH2 0x2C18 JUMP JUMPDEST PUSH2 0x3CFB PUSH1 0x20 DUP4 ADD DUP7 PUSH2 0x2C18 JUMP JUMPDEST PUSH2 0x3D08 PUSH1 0x40 DUP4 ADD DUP6 PUSH2 0x2D96 JUMP JUMPDEST DUP2 DUP2 SUB PUSH1 0x60 DUP4 ADD MSTORE PUSH2 0x3D1A DUP2 DUP5 PUSH2 0x3CA3 JUMP JUMPDEST SWAP1 POP SWAP6 SWAP5 POP POP POP POP POP JUMP JUMPDEST PUSH0 DUP2 MLOAD SWAP1 POP PUSH2 0x3D33 DUP2 PUSH2 0x2B60 JUMP JUMPDEST SWAP3 SWAP2 POP POP JUMP JUMPDEST PUSH0 PUSH1 0x20 DUP3 DUP5 SUB SLT ISZERO PUSH2 0x3D4E JUMPI PUSH2 0x3D4D PUSH2 0x2B2D JUMP JUMPDEST JUMPDEST PUSH0 PUSH2 0x3D5B DUP5 DUP3 DUP6 ADD PUSH2 0x3D25 JUMP JUMPDEST SWAP2 POP POP SWAP3 SWAP2 POP POP JUMP JUMPDEST PUSH0 PUSH1 0x40 DUP3 ADD SWAP1 POP PUSH2 0x3D77 PUSH0 DUP4 ADD DUP6 PUSH2 0x2C18 JUMP JUMPDEST PUSH2 0x3D84 PUSH1 0x20 DUP4 ADD DUP5 PUSH2 0x2D96 JUMP JUMPDEST SWAP4 SWAP3 POP POP POP JUMP INVALID LOG2 PUSH5 0x6970667358 0x22 SLT KECCAK256 CHAINID 0xC8 DUP16 STOP 0xE9 AND SGT EQ TLOAD LOG3 0xF8 0xBB CALL PUSH11 0x4A3FCC3EBAB332577DA4B1 PUSH18 0x7D37B85232C764736F6C634300081A003300 "
		},
		"gasEstimates": {
			"creation": {
				"codeDepositCost": "3161800",
				"executionCost": "infinite",
				"totalCost": "infinite"
			},
			"external": {
				"PAYMENT_PERIOD()": "459",
				"addCar(string,string,uint256,uint256,uint256)": "infinite",
				"approve(address,uint256)": "infinite",
				"balanceOf(address)": "infinite",
				"bilBoyd()": "2554",
				"calculateMonthlyQuota(uint256,uint256,uint256,uint256)": "infinite",
				"cars(uint256)": "infinite",
				"confirmLease(address)": "infinite",
				"endLease(uint256,uint8,uint256,uint256,uint256,uint256)": "infinite",
				"getApproved(uint256)": "infinite",
				"isApprovedForAll(address,address)": "infinite",
				"leases(address)": "infinite",
				"name()": "infinite",
				"ownerOf(uint256)": "infinite",
				"payMonthlyQuota(uint256)": "infinite",
				"registerLease(uint256,uint256,uint256,uint256)": "infinite",
				"safeTransferFrom(address,address,uint256)": "infinite",
				"safeTransferFrom(address,address,uint256,bytes)": "infinite",
				"setApprovalForAll(address,bool)": "infinite",
				"supportsInterface(bytes4)": "787",
				"symbol()": "infinite",
				"terminateLeaseForNonPayment(address)": "infinite",
				"tokenURI(uint256)": "infinite",
				"transferFrom(address,address,uint256)": "infinite"
			}
		},
		"methodIdentifiers": {
			"PAYMENT_PERIOD()": "200ca6ef",
			"addCar(string,string,uint256,uint256,uint256)": "24cb1534",
			"approve(address,uint256)": "095ea7b3",
			"balanceOf(address)": "70a08231",
			"bilBoyd()": "03ef5104",
			"calculateMonthlyQuota(uint256,uint256,uint256,uint256)": "c31cf51a",
			"cars(uint256)": "f7746e36",
			"confirmLease(address)": "f5df7010",
			"endLease(uint256,uint8,uint256,uint256,uint256,uint256)": "3a8488f8",
			"getApproved(uint256)": "081812fc",
			"isApprovedForAll(address,address)": "e985e9c5",
			"leases(address)": "d74d1f43",
			"name()": "06fdde03",
			"ownerOf(uint256)": "6352211e",
			"payMonthlyQuota(uint256)": "f01c823d",
			"registerLease(uint256,uint256,uint256,uint256)": "59638956",
			"safeTransferFrom(address,address,uint256)": "42842e0e",
			"safeTransferFrom(address,address,uint256,bytes)": "b88d4fde",
			"setApprovalForAll(address,bool)": "a22cb465",
			"supportsInterface(bytes4)": "01ffc9a7",
			"symbol()": "95d89b41",
			"terminateLeaseForNonPayment(address)": "ae14ae40",
			"tokenURI(uint256)": "c87b56dd",
			"transferFrom(address,address,uint256)": "23b872dd"
		}
	},
	"abi": [
		{
			"inputs": [],
			"stateMutability": "nonpayable",
			"type": "constructor"
		},
		{
			"inputs": [
				{
					"internalType": "address",
					"name": "sender",
					"type": "address"
				},
				{
					"internalType": "uint256",
					"name": "tokenId",
					"type": "uint256"
				},
				{
					"internalType": "address",
					"name": "owner",
					"type": "address"
				}
			],
			"name": "ERC721IncorrectOwner",
			"type": "error"
		},
		{
			"inputs": [
				{
					"internalType": "address",
					"name": "operator",
					"type": "address"
				},
				{
					"internalType": "uint256",
					"name": "tokenId",
					"type": "uint256"
				}
			],
			"name": "ERC721InsufficientApproval",
			"type": "error"
		},
		{
			"inputs": [
				{
					"internalType": "address",
					"name": "approver",
					"type": "address"
				}
			],
			"name": "ERC721InvalidApprover",
			"type": "error"
		},
		{
			"inputs": [
				{
					"internalType": "address",
					"name": "operator",
					"type": "address"
				}
			],
			"name": "ERC721InvalidOperator",
			"type": "error"
		},
		{
			"inputs": [
				{
					"internalType": "address",
					"name": "owner",
					"type": "address"
				}
			],
			"name": "ERC721InvalidOwner",
			"type": "error"
		},
		{
			"inputs": [
				{
					"internalType": "address",
					"name": "receiver",
					"type": "address"
				}
			],
			"name": "ERC721InvalidReceiver",
			"type": "error"
		},
		{
			"inputs": [
				{
					"internalType": "address",
					"name": "sender",
					"type": "address"
				}
			],
			"name": "ERC721InvalidSender",
			"type": "error"
		},
		{
			"inputs": [
				{
					"internalType": "uint256",
					"name": "tokenId",
					"type": "uint256"
				}
			],
			"name": "ERC721NonexistentToken",
			"type": "error"
		},
		{
			"anonymous": false,
			"inputs": [
				{
					"indexed": true,
					"internalType": "address",
					"name": "owner",
					"type": "address"
				},
				{
					"indexed": true,
					"internalType": "address",
					"name": "approved",
					"type": "address"
				},
				{
					"indexed": true,
					"internalType": "uint256",
					"name": "tokenId",
					"type": "uint256"
				}
			],
			"name": "Approval",
			"type": "event"
		},
		{
			"anonymous": false,
			"inputs": [
				{
					"indexed": true,
					"internalType": "address",
					"name": "owner",
					"type": "address"
				},
				{
					"indexed": true,
					"internalType": "address",
					"name": "operator",
					"type": "address"
				},
				{
					"indexed": false,
					"internalType": "bool",
					"name": "approved",
					"type": "bool"
				}
			],
			"name": "ApprovalForAll",
			"type": "event"
		},
		{
			"anonymous": false,
			"inputs": [
				{
					"indexed": true,
					"internalType": "address",
					"name": "from",
					"type": "address"
				},
				{
					"indexed": true,
					"internalType": "address",
					"name": "to",
					"type": "address"
				},
				{
					"indexed": true,
					"internalType": "uint256",
					"name": "tokenId",
					"type": "uint256"
				}
			],
			"name": "Transfer",
			"type": "event"
		},
		{
			"inputs": [],
			"name": "PAYMENT_PERIOD",
			"outputs": [
				{
					"internalType": "uint256",
					"name": "",
					"type": "uint256"
				}
			],
			"stateMutability": "view",
			"type": "function"
		},
		{
			"inputs": [
				{
					"internalType": "string",
					"name": "model",
					"type": "string"
				},
				{
					"internalType": "string",
					"name": "color",
					"type": "string"
				},
				{
					"internalType": "uint256",
					"name": "year",
					"type": "uint256"
				},
				{
					"internalType": "uint256",
					"name": "originalValue",
					"type": "uint256"
				},
				{
					"internalType": "uint256",
					"name": "currentMileage",
					"type": "uint256"
				}
			],
			"name": "addCar",
			"outputs": [],
			"stateMutability": "nonpayable",
			"type": "function"
		},
		{
			"inputs": [
				{
					"internalType": "address",
					"name": "to",
					"type": "address"
				},
				{
					"internalType": "uint256",
					"name": "tokenId",
					"type": "uint256"
				}
			],
			"name": "approve",
			"outputs": [],
			"stateMutability": "nonpayable",
			"type": "function"
		},
		{
			"inputs": [
				{
					"internalType": "address",
					"name": "owner",
					"type": "address"
				}
			],
			"name": "balanceOf",
			"outputs": [
				{
					"internalType": "uint256",
					"name": "",
					"type": "uint256"
				}
			],
			"stateMutability": "view",
			"type": "function"
		},
		{
			"inputs": [],
			"name": "bilBoyd",
			"outputs": [
				{
					"internalType": "address",
					"name": "",
					"type": "address"
				}
			],
			"stateMutability": "view",
			"type": "function"
		},
		{
			"inputs": [
				{
					"internalType": "uint256",
					"name": "carId",
					"type": "uint256"
				},
				{
					"internalType": "uint256",
					"name": "yearsOfExperience",
					"type": "uint256"
				},
				{
					"internalType": "uint256",
					"name": "contractDuration",
					"type": "uint256"
				},
				{
					"internalType": "uint256",
					"name": "mileageCap",
					"type": "uint256"
				}
			],
			"name": "calculateMonthlyQuota",
			"outputs": [
				{
					"internalType": "uint256",
					"name": "",
					"type": "uint256"
				}
			],
			"stateMutability": "view",
			"type": "function"
		},
		{
			"inputs": [
				{
					"internalType": "uint256",
					"name": "",
					"type": "uint256"
				}
			],
			"name": "cars",
			"outputs": [
				{
					"internalType": "uint256",
					"name": "id",
					"type": "uint256"
				},
				{
					"internalType": "string",
					"name": "model",
					"type": "string"
				},
				{
					"internalType": "string",
					"name": "color",
					"type": "string"
				},
				{
					"internalType": "uint256",
					"name": "year",
					"type": "uint256"
				},
				{
					"internalType": "uint256",
					"name": "originalValue",
					"type": "uint256"
				},
				{
					"internalType": "uint256",
					"name": "currentMileage",
					"type": "uint256"
				}
			],
			"stateMutability": "view",
			"type": "function"
		},
		{
			"inputs": [
				{
					"internalType": "address",
					"name": "lessee",
					"type": "address"
				}
			],
			"name": "confirmLease",
			"outputs": [],
			"stateMutability": "nonpayable",
			"type": "function"
		},
		{
			"inputs": [
				{
					"internalType": "uint256",
					"name": "carId",
					"type": "uint256"
				},
				{
					"internalType": "uint8",
					"name": "option",
					"type": "uint8"
				},
				{
					"internalType": "uint256",
					"name": "newCarId",
					"type": "uint256"
				},
				{
					"internalType": "uint256",
					"name": "currentMileage",
					"type": "uint256"
				},
				{
					"internalType": "uint256",
					"name": "yearsOfExperience",
					"type": "uint256"
				},
				{
					"internalType": "uint256",
					"name": "contractDuration",
					"type": "uint256"
				}
			],
			"name": "endLease",
			"outputs": [],
			"stateMutability": "nonpayable",
			"type": "function"
		},
		{
			"inputs": [
				{
					"internalType": "uint256",
					"name": "tokenId",
					"type": "uint256"
				}
			],
			"name": "getApproved",
			"outputs": [
				{
					"internalType": "address",
					"name": "",
					"type": "address"
				}
			],
			"stateMutability": "view",
			"type": "function"
		},
		{
			"inputs": [
				{
					"internalType": "address",
					"name": "owner",
					"type": "address"
				},
				{
					"internalType": "address",
					"name": "operator",
					"type": "address"
				}
			],
			"name": "isApprovedForAll",
			"outputs": [
				{
					"internalType": "bool",
					"name": "",
					"type": "bool"
				}
			],
			"stateMutability": "view",
			"type": "function"
		},
		{
			"inputs": [
				{
					"internalType": "address",
					"name": "",
					"type": "address"
				}
			],
			"name": "leases",
			"outputs": [
				{
					"internalType": "uint256",
					"name": "carId",
					"type": "uint256"
				},
				{
					"internalType": "address",
					"name": "lessee",
					"type": "address"
				},
				{
					"internalType": "uint256",
					"name": "monthlyQuota",
					"type": "uint256"
				},
				{
					"internalType": "uint256",
					"name": "nextPaymentDue",
					"type": "uint256"
				},
				{
					"internalType": "bool",
					"name": "confirmedByBilBoyd",
					"type": "bool"
				},
				{
					"internalType": "bool",
					"name": "active",
					"type": "bool"
				}
			],
			"stateMutability": "view",
			"type": "function"
		},
		{
			"inputs": [],
			"name": "name",
			"outputs": [
				{
					"internalType": "string",
					"name": "",
					"type": "string"
				}
			],
			"stateMutability": "view",
			"type": "function"
		},
		{
			"inputs": [
				{
					"internalType": "uint256",
					"name": "tokenId",
					"type": "uint256"
				}
			],
			"name": "ownerOf",
			"outputs": [
				{
					"internalType": "address",
					"name": "",
					"type": "address"
				}
			],
			"stateMutability": "view",
			"type": "function"
		},
		{
			"inputs": [
				{
					"internalType": "uint256",
					"name": "carId",
					"type": "uint256"
				}
			],
			"name": "payMonthlyQuota",
			"outputs": [],
			"stateMutability": "payable",
			"type": "function"
		},
		{
			"inputs": [
				{
					"internalType": "uint256",
					"name": "carId",
					"type": "uint256"
				},
				{
					"internalType": "uint256",
					"name": "yearsOfExperience",
					"type": "uint256"
				},
				{
					"internalType": "uint256",
					"name": "contractDuration",
					"type": "uint256"
				},
				{
					"internalType": "uint256",
					"name": "mileageCap",
					"type": "uint256"
				}
			],
			"name": "registerLease",
			"outputs": [],
			"stateMutability": "payable",
			"type": "function"
		},
		{
			"inputs": [
				{
					"internalType": "address",
					"name": "from",
					"type": "address"
				},
				{
					"internalType": "address",
					"name": "to",
					"type": "address"
				},
				{
					"internalType": "uint256",
					"name": "tokenId",
					"type": "uint256"
				}
			],
			"name": "safeTransferFrom",
			"outputs": [],
			"stateMutability": "nonpayable",
			"type": "function"
		},
		{
			"inputs": [
				{
					"internalType": "address",
					"name": "from",
					"type": "address"
				},
				{
					"internalType": "address",
					"name": "to",
					"type": "address"
				},
				{
					"internalType": "uint256",
					"name": "tokenId",
					"type": "uint256"
				},
				{
					"internalType": "bytes",
					"name": "data",
					"type": "bytes"
				}
			],
			"name": "safeTransferFrom",
			"outputs": [],
			"stateMutability": "nonpayable",
			"type": "function"
		},
		{
			"inputs": [
				{
					"internalType": "address",
					"name": "operator",
					"type": "address"
				},
				{
					"internalType": "bool",
					"name": "approved",
					"type": "bool"
				}
			],
			"name": "setApprovalForAll",
			"outputs": [],
			"stateMutability": "nonpayable",
			"type": "function"
		},
		{
			"inputs": [
				{
					"internalType": "bytes4",
					"name": "interfaceId",
					"type": "bytes4"
				}
			],
			"name": "supportsInterface",
			"outputs": [
				{
					"internalType": "bool",
					"name": "",
					"type": "bool"
				}
			],
			"stateMutability": "view",
			"type": "function"
		},
		{
			"inputs": [],
			"name": "symbol",
			"outputs": [
				{
					"internalType": "string",
					"name": "",
					"type": "string"
				}
			],
			"stateMutability": "view",
			"type": "function"
		},
		{
			"inputs": [
				{
					"internalType": "address",
					"name": "lessee",
					"type": "address"
				}
			],
			"name": "terminateLeaseForNonPayment",
			"outputs": [],
			"stateMutability": "nonpayable",
			"type": "function"
		},
		{
			"inputs": [
				{
					"internalType": "uint256",
					"name": "tokenId",
					"type": "uint256"
				}
			],
			"name": "tokenURI",
			"outputs": [
				{
					"internalType": "string",
					"name": "",
					"type": "string"
				}
			],
			"stateMutability": "view",
			"type": "function"
		},
		{
			"inputs": [
				{
					"internalType": "address",
					"name": "from",
					"type": "address"
				},
				{
					"internalType": "address",
					"name": "to",
					"type": "address"
				},
				{
					"internalType": "uint256",
					"name": "tokenId",
					"type": "uint256"
				}
			],
			"name": "transferFrom",
			"outputs": [],
			"stateMutability": "nonpayable",
			"type": "function"
		}
	]
}