{
	"data": {
		"bytecode": {
			"linkReferences": {},
			"object": "608060405234801561000f575f80fd5b506040518060400160405280600d81526020017f42696c426f79644361724e4654000000000000000000000000000000000000008152506040518060400160405280600681526020017f4242434e46540000000000000000000000000000000000000000000000000000815250815f908161008a919061031c565b50806001908161009a919061031c565b5050503360095f6101000a81548173ffffffffffffffffffffffffffffffffffffffff021916908373ffffffffffffffffffffffffffffffffffffffff1602179055506103eb565b5f81519050919050565b7f4e487b71000000000000000000000000000000000000000000000000000000005f52604160045260245ffd5b7f4e487b71000000000000000000000000000000000000000000000000000000005f52602260045260245ffd5b5f600282049050600182168061015d57607f821691505b6020821081036101705761016f610119565b5b50919050565b5f819050815f5260205f209050919050565b5f6020601f8301049050919050565b5f82821b905092915050565b5f600883026101d27fffffffffffffffffffffffffffffffffffffffffffffffffffffffffffffffff82610197565b6101dc8683610197565b95508019841693508086168417925050509392505050565b5f819050919050565b5f819050919050565b5f61022061021b610216846101f4565b6101fd565b6101f4565b9050919050565b5f819050919050565b61023983610206565b61024d61024582610227565b8484546101a3565b825550505050565b5f90565b610261610255565b61026c818484610230565b505050565b5b8181101561028f576102845f82610259565b600181019050610272565b5050565b601f8211156102d4576102a581610176565b6102ae84610188565b810160208510156102bd578190505b6102d16102c985610188565b830182610271565b50505b505050565b5f82821c905092915050565b5f6102f45f19846008026102d9565b1980831691505092915050565b5f61030c83836102e5565b9150826002028217905092915050565b610325826100e2565b67ffffffffffffffff81111561033e5761033d6100ec565b5b6103488254610146565b610353828285610293565b5f60209050601f831160018114610384575f8415610372578287015190505b61037c8582610301565b8655506103e3565b601f19841661039286610176565b5f5b828110156103b957848901518255600182019150602085019450602081019050610394565b868310156103d657848901516103d2601f8916826102e5565b8355505b6001600288020188555050505b505050505050565b613cbe806103f85f395ff3fe60806040526004361061014a575f3560e01c806395d89b41116100b5578063d74d1f431161006e578063d74d1f4314610492578063e64dea11146104d3578063e985e9c5146104fb578063f01c823d14610537578063f5df701014610553578063f7746e361461057b5761014a565b806395d89b4114610378578063a22cb465146103a2578063ae14ae40146103ca578063b88d4fde146103f2578063c31cf51a1461041a578063c87b56dd146104565761014a565b806323b872dd1161010757806323b872dd1461026c57806324cb15341461029457806342842e0e146102bc57806359638956146102e45780636352211e1461030057806370a082311461033c5761014a565b806301ffc9a71461014e57806303ef51041461018a57806306fdde03146101b4578063081812fc146101de578063095ea7b31461021a578063200ca6ef14610242575b5f80fd5b348015610159575f80fd5b50610174600480360381019061016f9190612b3a565b6105bc565b6040516101819190612b7f565b60405180910390f35b348015610195575f80fd5b5061019e61069d565b6040516101ab9190612bd7565b60405180910390f35b3480156101bf575f80fd5b506101c86106c2565b6040516101d59190612c60565b60405180910390f35b3480156101e9575f80fd5b5061020460048036038101906101ff9190612cb3565b610751565b6040516102119190612bd7565b60405180910390f35b348015610225575f80fd5b50610240600480360381019061023b9190612d08565b61076c565b005b34801561024d575f80fd5b50610256610782565b6040516102639190612d55565b60405180910390f35b348015610277575f80fd5b50610292600480360381019061028d9190612d6e565b610789565b005b34801561029f575f80fd5b506102ba60048036038101906102b59190612eea565b610888565b005b3480156102c7575f80fd5b506102e260048036038101906102dd9190612d6e565b6109f4565b005b6102fe60048036038101906102f99190612f99565b610a13565b005b34801561030b575f80fd5b5061032660048036038101906103219190612cb3565b610bdf565b6040516103339190612bd7565b60405180910390f35b348015610347575f80fd5b50610362600480360381019061035d9190612ffd565b610bf0565b60405161036f9190612d55565b60405180910390f35b348015610383575f80fd5b5061038c610ca6565b6040516103999190612c60565b60405180910390f35b3480156103ad575f80fd5b506103c860048036038101906103c39190613052565b610d36565b005b3480156103d5575f80fd5b506103f060048036038101906103eb9190612ffd565b610d4c565b005b3480156103fd575f80fd5b506104186004803603810190610413919061312e565b610f01565b005b348015610425575f80fd5b50610440600480360381019061043b9190612f99565b610f26565b60405161044d9190612d55565b60405180910390f35b348015610461575f80fd5b5061047c60048036038101906104779190612cb3565b611303565b6040516104899190612c60565b60405180910390f35b34801561049d575f80fd5b506104b860048036038101906104b39190612ffd565b611369565b6040516104ca969594939291906131ae565b60405180910390f35b3480156104de575f80fd5b506104f960048036038101906104f49190613243565b6113d9565b005b348015610506575f80fd5b50610521600480360381019061051c9190613281565b6115e2565b60405161052e9190612b7f565b60405180910390f35b610551600480360381019061054c9190612cb3565b611670565b005b34801561055e575f80fd5b5061057960048036038101906105749190612ffd565b6118e5565b005b348015610586575f80fd5b506105a1600480360381019061059c9190612cb3565b611b08565b6040516105b3969594939291906132bf565b60405180910390f35b5f7f80ac58cd000000000000000000000000000000000000000000000000000000007bffffffffffffffffffffffffffffffffffffffffffffffffffffffff1916827bffffffffffffffffffffffffffffffffffffffffffffffffffffffff1916148061068657507f5b5e139f000000000000000000000000000000000000000000000000000000007bffffffffffffffffffffffffffffffffffffffffffffffffffffffff1916827bffffffffffffffffffffffffffffffffffffffffffffffffffffffff1916145b80610696575061069582611c4c565b5b9050919050565b60095f9054906101000a900473ffffffffffffffffffffffffffffffffffffffff1681565b60605f80546106d090613359565b80601f01602080910402602001604051908101604052809291908181526020018280546106fc90613359565b80156107475780601f1061071e57610100808354040283529160200191610747565b820191905f5260205f20905b81548152906001019060200180831161072a57829003601f168201915b5050505050905090565b5f61075b82611cb5565b5061076582611d3b565b9050919050565b61077e8282610779611d74565b611d7b565b5050565b62278d0081565b5f73ffffffffffffffffffffffffffffffffffffffff168273ffffffffffffffffffffffffffffffffffffffff16036107f9575f6040517f64a0ae920000000000000000000000000000000000000000000000000000000081526004016107f09190612bd7565b60405180910390fd5b5f61080c8383610807611d74565b611d8d565b90508373ffffffffffffffffffffffffffffffffffffffff168173ffffffffffffffffffffffffffffffffffffffff1614610882578382826040517f64283d7b00000000000000000000000000000000000000000000000000000000815260040161087993929190613389565b60405180910390fd5b50505050565b60095f9054906101000a900473ffffffffffffffffffffffffffffffffffffffff1673ffffffffffffffffffffffffffffffffffffffff163373ffffffffffffffffffffffffffffffffffffffff1614610917576040517f08c379a000000000000000000000000000000000000000000000000000000000815260040161090e9061342e565b60405180910390fd5b6109216006611f98565b5f61092c6006611fac565b90506040518060c001604052808281526020018781526020018681526020018581526020018481526020018381525060075f8381526020019081526020015f205f820151815f0155602082015181600101908161098991906135e9565b50604082015181600201908161099f91906135e9565b50606082015181600301556080820151816004015560a082015181600501559050506109ec60095f9054906101000a900473ffffffffffffffffffffffffffffffffffffffff1682611fb8565b505050505050565b610a0e83838360405180602001604052805f815250610f01565b505050565b5f610a2085858585610f26565b90505f600482610a3091906136e5565b9050803414610a74576040517f08c379a0000000000000000000000000000000000000000000000000000000008152600401610a6b90613770565b60405180910390fd5b6040518060c001604052808781526020013373ffffffffffffffffffffffffffffffffffffffff16815260200183815260200162278d0042610ab6919061378e565b81526020015f151581526020016001151581525060085f3373ffffffffffffffffffffffffffffffffffffffff1673ffffffffffffffffffffffffffffffffffffffff1681526020019081526020015f205f820151815f01556020820151816001015f6101000a81548173ffffffffffffffffffffffffffffffffffffffff021916908373ffffffffffffffffffffffffffffffffffffffff16021790555060408201518160020155606082015181600301556080820151816004015f6101000a81548160ff02191690831515021790555060a08201518160040160016101000a81548160ff021916908315150217905550905050610bd760095f9054906101000a900473ffffffffffffffffffffffffffffffffffffffff1633886120ab565b505050505050565b5f610be982611cb5565b9050919050565b5f8073ffffffffffffffffffffffffffffffffffffffff168273ffffffffffffffffffffffffffffffffffffffff1603610c61575f6040517f89c62b64000000000000000000000000000000000000000000000000000000008152600401610c589190612bd7565b60405180910390fd5b60035f8373ffffffffffffffffffffffffffffffffffffffff1673ffffffffffffffffffffffffffffffffffffffff1681526020019081526020015f20549050919050565b606060018054610cb590613359565b80601f0160208091040260200160405190810160405280929190818152602001828054610ce190613359565b8015610d2c5780601f10610d0357610100808354040283529160200191610d2c565b820191905f5260205f20905b815481529060010190602001808311610d0f57829003601f168201915b5050505050905090565b610d48610d41611d74565b8383612213565b5050565b60095f9054906101000a900473ffffffffffffffffffffffffffffffffffffffff1673ffffffffffffffffffffffffffffffffffffffff163373ffffffffffffffffffffffffffffffffffffffff1614610ddb576040517f08c379a0000000000000000000000000000000000000000000000000000000008152600401610dd29061342e565b60405180910390fd5b5f60085f8373ffffffffffffffffffffffffffffffffffffffff1673ffffffffffffffffffffffffffffffffffffffff1681526020019081526020015f2090508060040160019054906101000a900460ff16610e6c576040517f08c379a0000000000000000000000000000000000000000000000000000000008152600401610e639061380b565b60405180910390fd5b80600301544211610eb2576040517f08c379a0000000000000000000000000000000000000000000000000000000008152600401610ea990613873565b60405180910390fd5b5f8160040160016101000a81548160ff021916908315150217905550610efd8260095f9054906101000a900473ffffffffffffffffffffffffffffffffffffffff16835f01546120ab565b5050565b610f0c848484610789565b610f20610f17611d74565b8585858561237c565b50505050565b5f8060075f8781526020019081526020015f206040518060c00160405290815f8201548152602001600182018054610f5d90613359565b80601f0160208091040260200160405190810160405280929190818152602001828054610f8990613359565b8015610fd45780601f10610fab57610100808354040283529160200191610fd4565b820191905f5260205f20905b815481529060010190602001808311610fb757829003601f168201915b50505050508152602001600282018054610fed90613359565b80601f016020809104026020016040519081016040528092919081815260200182805461101990613359565b80156110645780601f1061103b57610100808354040283529160200191611064565b820191905f5260205f20905b81548152906001019060200180831161104757829003601f168201915b50505050508152602001600382015481526020016004820154815260200160058201548152505090505f6103e882608001516110a091906138be565b90505f600487101580156110b55750600a8711155b156110da5760646002836110c991906136e5565b6110d391906138be565b9050611100565b600a8711156110ff5760646005836110f291906136e5565b6110fc91906138be565b90505b5b5f600287101580156111125750600687105b1561113757606460038461112691906136e5565b61113091906138be565b9050611194565b600687101580156111485750600c87105b1561116d57606460058461115c91906136e5565b61116691906138be565b9050611193565b600c87111561119257606460088461118591906136e5565b61118f91906138be565b90505b5b5b5f61138887101580156111a8575061271087105b156111c1576064846111ba91906138be565b9050611221565b61271087101580156111d45750614e2087105b156111f95760646002856111e891906136e5565b6111f291906138be565b9050611220565b614e2087111561121f57606460038561121291906136e5565b61121c91906138be565b90505b5b5b5f6127108660a001511015801561123d5750614e208660a00151105b156112565760648561124f91906138be565b90506112c1565b614e208660a0015110158015611271575061c3508660a00151105b1561129657606460028661128591906136e5565b61128f91906138be565b90506112c0565b61c3508660a00151106112bf5760646003866112b291906136e5565b6112bc91906138be565b90505b5b5b5f81838587896112d191906138ee565b6112db91906138ee565b6112e5919061378e565b6112ef91906138ee565b905080975050505050505050949350505050565b606061130e82611cb5565b505f611318612528565b90505f8151116113365760405180602001604052805f815250611361565b806113408461253e565b60405160200161135192919061395b565b6040516020818303038152906040525b915050919050565b6008602052805f5260405f205f91509050805f015490806001015f9054906101000a900473ffffffffffffffffffffffffffffffffffffffff1690806002015490806003015490806004015f9054906101000a900460ff16908060040160019054906101000a900460ff16905086565b818060085f3373ffffffffffffffffffffffffffffffffffffffff1673ffffffffffffffffffffffffffffffffffffffff1681526020019081526020015f205f01541461145b576040517f08c379a0000000000000000000000000000000000000000000000000000000008152600401611452906139c8565b60405180910390fd5b5f60085f3373ffffffffffffffffffffffffffffffffffffffff1673ffffffffffffffffffffffffffffffffffffffff1681526020019081526020015f2090508060040160019054906101000a900460ff166114ec576040517f08c379a00000000000000000000000000000000000000000000000000000000081526004016114e390613a30565b60405180910390fd5b60018360ff1603611544575f8160040160016101000a81548160ff02191690831515021790555061153f3360095f9054906101000a900473ffffffffffffffffffffffffffffffffffffffff16866120ab565b6115dc565b60028360ff1603611586575f61155e855f6001600c610f26565b905080826002018190555062278d0042611578919061378e565b8260030181905550506115db565b60038360ff16036115da575f8160040160016101000a81548160ff0219169083151502179055506115d93360095f9054906101000a900473ffffffffffffffffffffffffffffffffffffffff16866120ab565b5b5b5b50505050565b5f60055f8473ffffffffffffffffffffffffffffffffffffffff1673ffffffffffffffffffffffffffffffffffffffff1681526020019081526020015f205f8373ffffffffffffffffffffffffffffffffffffffff1673ffffffffffffffffffffffffffffffffffffffff1681526020019081526020015f205f9054906101000a900460ff16905092915050565b808060085f3373ffffffffffffffffffffffffffffffffffffffff1673ffffffffffffffffffffffffffffffffffffffff1681526020019081526020015f205f0154146116f2576040517f08c379a00000000000000000000000000000000000000000000000000000000081526004016116e9906139c8565b60405180910390fd5b5f60085f3373ffffffffffffffffffffffffffffffffffffffff1673ffffffffffffffffffffffffffffffffffffffff1681526020019081526020015f2090508060040160019054906101000a900460ff16611783576040517f08c379a000000000000000000000000000000000000000000000000000000000815260040161177a9061380b565b60405180910390fd5b806004015f9054906101000a900460ff166117d3576040517f08c379a00000000000000000000000000000000000000000000000000000000081526004016117ca90613a98565b60405180910390fd5b806003015442111561181a576040517f08c379a000000000000000000000000000000000000000000000000000000000815260040161181190613b00565b60405180910390fd5b80600201543414611860576040517f08c379a000000000000000000000000000000000000000000000000000000000815260040161185790613770565b60405180910390fd5b62278d008160030154611873919061378e565b816003018190555060095f9054906101000a900473ffffffffffffffffffffffffffffffffffffffff1673ffffffffffffffffffffffffffffffffffffffff166108fc3490811502906040515f60405180830381858888f193505050501580156118df573d5f803e3d5ffd5b50505050565b60095f9054906101000a900473ffffffffffffffffffffffffffffffffffffffff1673ffffffffffffffffffffffffffffffffffffffff163373ffffffffffffffffffffffffffffffffffffffff1614611974576040517f08c379a000000000000000000000000000000000000000000000000000000000815260040161196b9061342e565b60405180910390fd5b5f60085f8373ffffffffffffffffffffffffffffffffffffffff1673ffffffffffffffffffffffffffffffffffffffff1681526020019081526020015f2090508060040160019054906101000a900460ff16611a05576040517f08c379a00000000000000000000000000000000000000000000000000000000081526004016119fc90613a30565b60405180910390fd5b806004015f9054906101000a900460ff1615611a56576040517f08c379a0000000000000000000000000000000000000000000000000000000008152600401611a4d90613b68565b60405180910390fd5b6001816004015f6101000a81548160ff02191690831515021790555060018160040160016101000a81548160ff02191690831515021790555060095f9054906101000a900473ffffffffffffffffffffffffffffffffffffffff1673ffffffffffffffffffffffffffffffffffffffff166108fc60048360020154611adb91906136e5565b90811502906040515f60405180830381858888f19350505050158015611b03573d5f803e3d5ffd5b505050565b6007602052805f5260405f205f91509050805f015490806001018054611b2d90613359565b80601f0160208091040260200160405190810160405280929190818152602001828054611b5990613359565b8015611ba45780601f10611b7b57610100808354040283529160200191611ba4565b820191905f5260205f20905b815481529060010190602001808311611b8757829003601f168201915b505050505090806002018054611bb990613359565b80601f0160208091040260200160405190810160405280929190818152602001828054611be590613359565b8015611c305780601f10611c0757610100808354040283529160200191611c30565b820191905f5260205f20905b815481529060010190602001808311611c1357829003601f168201915b5050505050908060030154908060040154908060050154905086565b5f7f01ffc9a7000000000000000000000000000000000000000000000000000000007bffffffffffffffffffffffffffffffffffffffffffffffffffffffff1916827bffffffffffffffffffffffffffffffffffffffffffffffffffffffff1916149050919050565b5f80611cc083612608565b90505f73ffffffffffffffffffffffffffffffffffffffff168173ffffffffffffffffffffffffffffffffffffffff1603611d3257826040517f7e273289000000000000000000000000000000000000000000000000000000008152600401611d299190612d55565b60405180910390fd5b80915050919050565b5f60045f8381526020019081526020015f205f9054906101000a900473ffffffffffffffffffffffffffffffffffffffff169050919050565b5f33905090565b611d888383836001612641565b505050565b5f80611d9884612608565b90505f73ffffffffffffffffffffffffffffffffffffffff168373ffffffffffffffffffffffffffffffffffffffff1614611dd957611dd8818486612800565b5b5f73ffffffffffffffffffffffffffffffffffffffff168173ffffffffffffffffffffffffffffffffffffffff1614611e6457611e185f855f80612641565b600160035f8373ffffffffffffffffffffffffffffffffffffffff1673ffffffffffffffffffffffffffffffffffffffff1681526020019081526020015f205f82825403925050819055505b5f73ffffffffffffffffffffffffffffffffffffffff168573ffffffffffffffffffffffffffffffffffffffff1614611ee357600160035f8773ffffffffffffffffffffffffffffffffffffffff1673ffffffffffffffffffffffffffffffffffffffff1681526020019081526020015f205f82825401925050819055505b8460025f8681526020019081526020015f205f6101000a81548173ffffffffffffffffffffffffffffffffffffffff021916908373ffffffffffffffffffffffffffffffffffffffff160217905550838573ffffffffffffffffffffffffffffffffffffffff168273ffffffffffffffffffffffffffffffffffffffff167fddf252ad1be2c89b69c2b068fc378daa952ba7f163c4a11628f55a4df523b3ef60405160405180910390a4809150509392505050565b6001815f015f828254019250508190555050565b5f815f01549050919050565b5f73ffffffffffffffffffffffffffffffffffffffff168273ffffffffffffffffffffffffffffffffffffffff1603612028575f6040517f64a0ae9200000000000000000000000000000000000000000000000000000000815260040161201f9190612bd7565b60405180910390fd5b5f61203483835f611d8d565b90505f73ffffffffffffffffffffffffffffffffffffffff168173ffffffffffffffffffffffffffffffffffffffff16146120a6575f6040517f73c6ac6e00000000000000000000000000000000000000000000000000000000815260040161209d9190612bd7565b60405180910390fd5b505050565b5f73ffffffffffffffffffffffffffffffffffffffff168273ffffffffffffffffffffffffffffffffffffffff160361211b575f6040517f64a0ae920000000000000000000000000000000000000000000000000000000081526004016121129190612bd7565b60405180910390fd5b5f61212783835f611d8d565b90505f73ffffffffffffffffffffffffffffffffffffffff168173ffffffffffffffffffffffffffffffffffffffff160361219957816040517f7e2732890000000000000000000000000000000000000000000000000000000081526004016121909190612d55565b60405180910390fd5b8373ffffffffffffffffffffffffffffffffffffffff168173ffffffffffffffffffffffffffffffffffffffff161461220d578382826040517f64283d7b00000000000000000000000000000000000000000000000000000000815260040161220493929190613389565b60405180910390fd5b50505050565b5f73ffffffffffffffffffffffffffffffffffffffff168273ffffffffffffffffffffffffffffffffffffffff160361228357816040517f5b08ba1800000000000000000000000000000000000000000000000000000000815260040161227a9190612bd7565b60405180910390fd5b8060055f8573ffffffffffffffffffffffffffffffffffffffff1673ffffffffffffffffffffffffffffffffffffffff1681526020019081526020015f205f8473ffffffffffffffffffffffffffffffffffffffff1673ffffffffffffffffffffffffffffffffffffffff1681526020019081526020015f205f6101000a81548160ff0219169083151502179055508173ffffffffffffffffffffffffffffffffffffffff168373ffffffffffffffffffffffffffffffffffffffff167f17307eab39ab6107e8899845ad3d59bd9653f200f220920489ca2b5937696c318360405161236f9190612b7f565b60405180910390a3505050565b5f8373ffffffffffffffffffffffffffffffffffffffff163b1115612521578273ffffffffffffffffffffffffffffffffffffffff1663150b7a02868685856040518563ffffffff1660e01b81526004016123da9493929190613bd8565b6020604051808303815f875af192505050801561241557506040513d601f19601f820116820180604052508101906124129190613c36565b60015b612496573d805f8114612443576040519150601f19603f3d011682016040523d82523d5f602084013e612448565b606091505b505f81510361248e57836040517f64a0ae920000000000000000000000000000000000000000000000000000000081526004016124859190612bd7565b60405180910390fd5b805181602001fd5b63150b7a0260e01b7bffffffffffffffffffffffffffffffffffffffffffffffffffffffff1916817bffffffffffffffffffffffffffffffffffffffffffffffffffffffff19161461251f57836040517f64a0ae920000000000000000000000000000000000000000000000000000000081526004016125169190612bd7565b60405180910390fd5b505b5050505050565b606060405180602001604052805f815250905090565b60605f600161254c846128c3565b0190505f8167ffffffffffffffff81111561256a57612569612dc6565b5b6040519080825280601f01601f19166020018201604052801561259c5781602001600182028036833780820191505090505b5090505f82602001820190505b6001156125fd578080600190039150507f3031323334353637383961626364656600000000000000000000000000000000600a86061a8153600a85816125f2576125f1613891565b5b0494505f85036125a9575b819350505050919050565b5f60025f8381526020019081526020015f205f9054906101000a900473ffffffffffffffffffffffffffffffffffffffff169050919050565b808061267957505f73ffffffffffffffffffffffffffffffffffffffff168273ffffffffffffffffffffffffffffffffffffffff1614155b156127ab575f61268884611cb5565b90505f73ffffffffffffffffffffffffffffffffffffffff168373ffffffffffffffffffffffffffffffffffffffff16141580156126f257508273ffffffffffffffffffffffffffffffffffffffff168173ffffffffffffffffffffffffffffffffffffffff1614155b8015612705575061270381846115e2565b155b1561274757826040517fa9fbf51f00000000000000000000000000000000000000000000000000000000815260040161273e9190612bd7565b60405180910390fd5b81156127a957838573ffffffffffffffffffffffffffffffffffffffff168273ffffffffffffffffffffffffffffffffffffffff167f8c5be1e5ebec7d5bd14f71427d1e84f3dd0314c0f7b2291e5b200ac8c7c3b92560405160405180910390a45b505b8360045f8581526020019081526020015f205f6101000a81548173ffffffffffffffffffffffffffffffffffffffff021916908373ffffffffffffffffffffffffffffffffffffffff16021790555050505050565b61280b838383612a14565b6128be575f73ffffffffffffffffffffffffffffffffffffffff168373ffffffffffffffffffffffffffffffffffffffff160361287f57806040517f7e2732890000000000000000000000000000000000000000000000000000000081526004016128769190612d55565b60405180910390fd5b81816040517f177e802f0000000000000000000000000000000000000000000000000000000081526004016128b5929190613c61565b60405180910390fd5b505050565b5f805f90507a184f03e93ff9f4daa797ed6e38ed64bf6a1f010000000000000000831061291f577a184f03e93ff9f4daa797ed6e38ed64bf6a1f010000000000000000838161291557612914613891565b5b0492506040810190505b6d04ee2d6d415b85acef8100000000831061295c576d04ee2d6d415b85acef8100000000838161295257612951613891565b5b0492506020810190505b662386f26fc10000831061298b57662386f26fc10000838161298157612980613891565b5b0492506010810190505b6305f5e10083106129b4576305f5e10083816129aa576129a9613891565b5b0492506008810190505b61271083106129d95761271083816129cf576129ce613891565b5b0492506004810190505b606483106129fc57606483816129f2576129f1613891565b5b0492506002810190505b600a8310612a0b576001810190505b80915050919050565b5f8073ffffffffffffffffffffffffffffffffffffffff168373ffffffffffffffffffffffffffffffffffffffff1614158015612acb57508273ffffffffffffffffffffffffffffffffffffffff168473ffffffffffffffffffffffffffffffffffffffff161480612a8c5750612a8b84846115e2565b5b80612aca57508273ffffffffffffffffffffffffffffffffffffffff16612ab283611d3b565b73ffffffffffffffffffffffffffffffffffffffff16145b5b90509392505050565b5f604051905090565b5f80fd5b5f80fd5b5f7fffffffff0000000000000000000000000000000000000000000000000000000082169050919050565b612b1981612ae5565b8114612b23575f80fd5b50565b5f81359050612b3481612b10565b92915050565b5f60208284031215612b4f57612b4e612add565b5b5f612b5c84828501612b26565b91505092915050565b5f8115159050919050565b612b7981612b65565b82525050565b5f602082019050612b925f830184612b70565b92915050565b5f73ffffffffffffffffffffffffffffffffffffffff82169050919050565b5f612bc182612b98565b9050919050565b612bd181612bb7565b82525050565b5f602082019050612bea5f830184612bc8565b92915050565b5f81519050919050565b5f82825260208201905092915050565b8281835e5f83830152505050565b5f601f19601f8301169050919050565b5f612c3282612bf0565b612c3c8185612bfa565b9350612c4c818560208601612c0a565b612c5581612c18565b840191505092915050565b5f6020820190508181035f830152612c788184612c28565b905092915050565b5f819050919050565b612c9281612c80565b8114612c9c575f80fd5b50565b5f81359050612cad81612c89565b92915050565b5f60208284031215612cc857612cc7612add565b5b5f612cd584828501612c9f565b91505092915050565b612ce781612bb7565b8114612cf1575f80fd5b50565b5f81359050612d0281612cde565b92915050565b5f8060408385031215612d1e57612d1d612add565b5b5f612d2b85828601612cf4565b9250506020612d3c85828601612c9f565b9150509250929050565b612d4f81612c80565b82525050565b5f602082019050612d685f830184612d46565b92915050565b5f805f60608486031215612d8557612d84612add565b5b5f612d9286828701612cf4565b9350506020612da386828701612cf4565b9250506040612db486828701612c9f565b9150509250925092565b5f80fd5b5f80fd5b7f4e487b71000000000000000000000000000000000000000000000000000000005f52604160045260245ffd5b612dfc82612c18565b810181811067ffffffffffffffff82111715612e1b57612e1a612dc6565b5b80604052505050565b5f612e2d612ad4565b9050612e398282612df3565b919050565b5f67ffffffffffffffff821115612e5857612e57612dc6565b5b612e6182612c18565b9050602081019050919050565b828183375f83830152505050565b5f612e8e612e8984612e3e565b612e24565b905082815260208101848484011115612eaa57612ea9612dc2565b5b612eb5848285612e6e565b509392505050565b5f82601f830112612ed157612ed0612dbe565b5b8135612ee1848260208601612e7c565b91505092915050565b5f805f805f60a08688031215612f0357612f02612add565b5b5f86013567ffffffffffffffff811115612f2057612f1f612ae1565b5b612f2c88828901612ebd565b955050602086013567ffffffffffffffff811115612f4d57612f4c612ae1565b5b612f5988828901612ebd565b9450506040612f6a88828901612c9f565b9350506060612f7b88828901612c9f565b9250506080612f8c88828901612c9f565b9150509295509295909350565b5f805f8060808587031215612fb157612fb0612add565b5b5f612fbe87828801612c9f565b9450506020612fcf87828801612c9f565b9350506040612fe087828801612c9f565b9250506060612ff187828801612c9f565b91505092959194509250565b5f6020828403121561301257613011612add565b5b5f61301f84828501612cf4565b91505092915050565b61303181612b65565b811461303b575f80fd5b50565b5f8135905061304c81613028565b92915050565b5f806040838503121561306857613067612add565b5b5f61307585828601612cf4565b92505060206130868582860161303e565b9150509250929050565b5f67ffffffffffffffff8211156130aa576130a9612dc6565b5b6130b382612c18565b9050602081019050919050565b5f6130d26130cd84613090565b612e24565b9050828152602081018484840111156130ee576130ed612dc2565b5b6130f9848285612e6e565b509392505050565b5f82601f83011261311557613114612dbe565b5b81356131258482602086016130c0565b91505092915050565b5f805f806080858703121561314657613145612add565b5b5f61315387828801612cf4565b945050602061316487828801612cf4565b935050604061317587828801612c9f565b925050606085013567ffffffffffffffff81111561319657613195612ae1565b5b6131a287828801613101565b91505092959194509250565b5f60c0820190506131c15f830189612d46565b6131ce6020830188612bc8565b6131db6040830187612d46565b6131e86060830186612d46565b6131f56080830185612b70565b61320260a0830184612b70565b979650505050505050565b5f60ff82169050919050565b6132228161320d565b811461322c575f80fd5b50565b5f8135905061323d81613219565b92915050565b5f806040838503121561325957613258612add565b5b5f61326685828601612c9f565b92505060206132778582860161322f565b9150509250929050565b5f806040838503121561329757613296612add565b5b5f6132a485828601612cf4565b92505060206132b585828601612cf4565b9150509250929050565b5f60c0820190506132d25f830189612d46565b81810360208301526132e48188612c28565b905081810360408301526132f88187612c28565b90506133076060830186612d46565b6133146080830185612d46565b61332160a0830184612d46565b979650505050505050565b7f4e487b71000000000000000000000000000000000000000000000000000000005f52602260045260245ffd5b5f600282049050600182168061337057607f821691505b6020821081036133835761338261332c565b5b50919050565b5f60608201905061339c5f830186612bc8565b6133a96020830185612d46565b6133b66040830184612bc8565b949350505050565b7f4f6e6c792042696c426f79642063616e20706572666f726d20746869732061635f8201527f74696f6e2e000000000000000000000000000000000000000000000000000000602082015250565b5f613418602583612bfa565b9150613423826133be565b604082019050919050565b5f6020820190508181035f8301526134458161340c565b9050919050565b5f819050815f5260205f209050919050565b5f6020601f8301049050919050565b5f82821b905092915050565b5f600883026134a87fffffffffffffffffffffffffffffffffffffffffffffffffffffffffffffffff8261346d565b6134b2868361346d565b95508019841693508086168417925050509392505050565b5f819050919050565b5f6134ed6134e86134e384612c80565b6134ca565b612c80565b9050919050565b5f819050919050565b613506836134d3565b61351a613512826134f4565b848454613479565b825550505050565b5f90565b61352e613522565b6135398184846134fd565b505050565b5b8181101561355c576135515f82613526565b60018101905061353f565b5050565b601f8211156135a1576135728161344c565b61357b8461345e565b8101602085101561358a578190505b61359e6135968561345e565b83018261353e565b50505b505050565b5f82821c905092915050565b5f6135c15f19846008026135a6565b1980831691505092915050565b5f6135d983836135b2565b9150826002028217905092915050565b6135f282612bf0565b67ffffffffffffffff81111561360b5761360a612dc6565b5b6136158254613359565b613620828285613560565b5f60209050601f831160018114613651575f841561363f578287015190505b61364985826135ce565b8655506136b0565b601f19841661365f8661344c565b5f5b8281101561368657848901518255600182019150602085019450602081019050613661565b868310156136a3578489015161369f601f8916826135b2565b8355505b6001600288020188555050505b505050505050565b7f4e487b71000000000000000000000000000000000000000000000000000000005f52601160045260245ffd5b5f6136ef82612c80565b91506136fa83612c80565b925082820261370881612c80565b9150828204841483151761371f5761371e6136b8565b5b5092915050565b7f496e636f7272656374207061796d656e7420616d6f756e742e000000000000005f82015250565b5f61375a601983612bfa565b915061376582613726565b602082019050919050565b5f6020820190508181035f8301526137878161374e565b9050919050565b5f61379882612c80565b91506137a383612c80565b92508282019050808211156137bb576137ba6136b8565b5b92915050565b7f4c65617365206973206e6f74206163746976652e0000000000000000000000005f82015250565b5f6137f5601483612bfa565b9150613800826137c1565b602082019050919050565b5f6020820190508181035f830152613822816137e9565b9050919050565b7f5061796d656e74206973206e6f74206f7665726475652e0000000000000000005f82015250565b5f61385d601783612bfa565b915061386882613829565b602082019050919050565b5f6020820190508181035f83015261388a81613851565b9050919050565b7f4e487b71000000000000000000000000000000000000000000000000000000005f52601260045260245ffd5b5f6138c882612c80565b91506138d383612c80565b9250826138e3576138e2613891565b5b828204905092915050565b5f6138f882612c80565b915061390383612c80565b925082820390508181111561391b5761391a6136b8565b5b92915050565b5f81905092915050565b5f61393582612bf0565b61393f8185613921565b935061394f818560208601612c0a565b80840191505092915050565b5f613966828561392b565b9150613972828461392b565b91508190509392505050565b7f4e6f7420617574686f72697a65642e00000000000000000000000000000000005f82015250565b5f6139b2600f83612bfa565b91506139bd8261397e565b602082019050919050565b5f6020820190508181035f8301526139df816139a6565b9050919050565b7f4c65617365206e6f74206163746976652e0000000000000000000000000000005f82015250565b5f613a1a601183612bfa565b9150613a25826139e6565b602082019050919050565b5f6020820190508181035f830152613a4781613a0e565b9050919050565b7f4c65617365206973206e6f7420636f6e6669726d65642e0000000000000000005f82015250565b5f613a82601783612bfa565b9150613a8d82613a4e565b602082019050919050565b5f6020820190508181035f830152613aaf81613a76565b9050919050565b7f5061796d656e74206973206f7665726475652e000000000000000000000000005f82015250565b5f613aea601383612bfa565b9150613af582613ab6565b602082019050919050565b5f6020820190508181035f830152613b1781613ade565b9050919050565b7f4c6561736520616c726561647920636f6e6669726d65642e00000000000000005f82015250565b5f613b52601883612bfa565b9150613b5d82613b1e565b602082019050919050565b5f6020820190508181035f830152613b7f81613b46565b9050919050565b5f81519050919050565b5f82825260208201905092915050565b5f613baa82613b86565b613bb48185613b90565b9350613bc4818560208601612c0a565b613bcd81612c18565b840191505092915050565b5f608082019050613beb5f830187612bc8565b613bf86020830186612bc8565b613c056040830185612d46565b8181036060830152613c178184613ba0565b905095945050505050565b5f81519050613c3081612b10565b92915050565b5f60208284031215613c4b57613c4a612add565b5b5f613c5884828501613c22565b91505092915050565b5f604082019050613c745f830185612bc8565b613c816020830184612d46565b939250505056fea2646970667358221220e137be4d31c655c9535fcccaa5ddce0128631a4cc42d1ac1c198806bb7bc541064736f6c634300081a0033",
			"opcodes": "PUSH1 0x80 PUSH1 0x40 MSTORE CALLVALUE DUP1 ISZERO PUSH2 0xF JUMPI PUSH0 DUP1 REVERT JUMPDEST POP PUSH1 0x40 MLOAD DUP1 PUSH1 0x40 ADD PUSH1 0x40 MSTORE DUP1 PUSH1 0xD DUP2 MSTORE PUSH1 0x20 ADD PUSH32 0x42696C426F79644361724E465400000000000000000000000000000000000000 DUP2 MSTORE POP PUSH1 0x40 MLOAD DUP1 PUSH1 0x40 ADD PUSH1 0x40 MSTORE DUP1 PUSH1 0x6 DUP2 MSTORE PUSH1 0x20 ADD PUSH32 0x4242434E46540000000000000000000000000000000000000000000000000000 DUP2 MSTORE POP DUP2 PUSH0 SWAP1 DUP2 PUSH2 0x8A SWAP2 SWAP1 PUSH2 0x31C JUMP JUMPDEST POP DUP1 PUSH1 0x1 SWAP1 DUP2 PUSH2 0x9A SWAP2 SWAP1 PUSH2 0x31C JUMP JUMPDEST POP POP POP CALLER PUSH1 0x9 PUSH0 PUSH2 0x100 EXP DUP2 SLOAD DUP2 PUSH20 0xFFFFFFFFFFFFFFFFFFFFFFFFFFFFFFFFFFFFFFFF MUL NOT AND SWAP1 DUP4 PUSH20 0xFFFFFFFFFFFFFFFFFFFFFFFFFFFFFFFFFFFFFFFF AND MUL OR SWAP1 SSTORE POP PUSH2 0x3EB JUMP JUMPDEST PUSH0 DUP2 MLOAD SWAP1 POP SWAP2 SWAP1 POP JUMP JUMPDEST PUSH32 0x4E487B7100000000000000000000000000000000000000000000000000000000 PUSH0 MSTORE PUSH1 0x41 PUSH1 0x4 MSTORE PUSH1 0x24 PUSH0 REVERT JUMPDEST PUSH32 0x4E487B7100000000000000000000000000000000000000000000000000000000 PUSH0 MSTORE PUSH1 0x22 PUSH1 0x4 MSTORE PUSH1 0x24 PUSH0 REVERT JUMPDEST PUSH0 PUSH1 0x2 DUP3 DIV SWAP1 POP PUSH1 0x1 DUP3 AND DUP1 PUSH2 0x15D JUMPI PUSH1 0x7F DUP3 AND SWAP2 POP JUMPDEST PUSH1 0x20 DUP3 LT DUP2 SUB PUSH2 0x170 JUMPI PUSH2 0x16F PUSH2 0x119 JUMP JUMPDEST JUMPDEST POP SWAP2 SWAP1 POP JUMP JUMPDEST PUSH0 DUP2 SWAP1 POP DUP2 PUSH0 MSTORE PUSH1 0x20 PUSH0 KECCAK256 SWAP1 POP SWAP2 SWAP1 POP JUMP JUMPDEST PUSH0 PUSH1 0x20 PUSH1 0x1F DUP4 ADD DIV SWAP1 POP SWAP2 SWAP1 POP JUMP JUMPDEST PUSH0 DUP3 DUP3 SHL SWAP1 POP SWAP3 SWAP2 POP POP JUMP JUMPDEST PUSH0 PUSH1 0x8 DUP4 MUL PUSH2 0x1D2 PUSH32 0xFFFFFFFFFFFFFFFFFFFFFFFFFFFFFFFFFFFFFFFFFFFFFFFFFFFFFFFFFFFFFFFF DUP3 PUSH2 0x197 JUMP JUMPDEST PUSH2 0x1DC DUP7 DUP4 PUSH2 0x197 JUMP JUMPDEST SWAP6 POP DUP1 NOT DUP5 AND SWAP4 POP DUP1 DUP7 AND DUP5 OR SWAP3 POP POP POP SWAP4 SWAP3 POP POP POP JUMP JUMPDEST PUSH0 DUP2 SWAP1 POP SWAP2 SWAP1 POP JUMP JUMPDEST PUSH0 DUP2 SWAP1 POP SWAP2 SWAP1 POP JUMP JUMPDEST PUSH0 PUSH2 0x220 PUSH2 0x21B PUSH2 0x216 DUP5 PUSH2 0x1F4 JUMP JUMPDEST PUSH2 0x1FD JUMP JUMPDEST PUSH2 0x1F4 JUMP JUMPDEST SWAP1 POP SWAP2 SWAP1 POP JUMP JUMPDEST PUSH0 DUP2 SWAP1 POP SWAP2 SWAP1 POP JUMP JUMPDEST PUSH2 0x239 DUP4 PUSH2 0x206 JUMP JUMPDEST PUSH2 0x24D PUSH2 0x245 DUP3 PUSH2 0x227 JUMP JUMPDEST DUP5 DUP5 SLOAD PUSH2 0x1A3 JUMP JUMPDEST DUP3 SSTORE POP POP POP POP JUMP JUMPDEST PUSH0 SWAP1 JUMP JUMPDEST PUSH2 0x261 PUSH2 0x255 JUMP JUMPDEST PUSH2 0x26C DUP2 DUP5 DUP5 PUSH2 0x230 JUMP JUMPDEST POP POP POP JUMP JUMPDEST JUMPDEST DUP2 DUP2 LT ISZERO PUSH2 0x28F JUMPI PUSH2 0x284 PUSH0 DUP3 PUSH2 0x259 JUMP JUMPDEST PUSH1 0x1 DUP2 ADD SWAP1 POP PUSH2 0x272 JUMP JUMPDEST POP POP JUMP JUMPDEST PUSH1 0x1F DUP3 GT ISZERO PUSH2 0x2D4 JUMPI PUSH2 0x2A5 DUP2 PUSH2 0x176 JUMP JUMPDEST PUSH2 0x2AE DUP5 PUSH2 0x188 JUMP JUMPDEST DUP2 ADD PUSH1 0x20 DUP6 LT ISZERO PUSH2 0x2BD JUMPI DUP2 SWAP1 POP JUMPDEST PUSH2 0x2D1 PUSH2 0x2C9 DUP6 PUSH2 0x188 JUMP JUMPDEST DUP4 ADD DUP3 PUSH2 0x271 JUMP JUMPDEST POP POP JUMPDEST POP POP POP JUMP JUMPDEST PUSH0 DUP3 DUP3 SHR SWAP1 POP SWAP3 SWAP2 POP POP JUMP JUMPDEST PUSH0 PUSH2 0x2F4 PUSH0 NOT DUP5 PUSH1 0x8 MUL PUSH2 0x2D9 JUMP JUMPDEST NOT DUP1 DUP4 AND SWAP2 POP POP SWAP3 SWAP2 POP POP JUMP JUMPDEST PUSH0 PUSH2 0x30C DUP4 DUP4 PUSH2 0x2E5 JUMP JUMPDEST SWAP2 POP DUP3 PUSH1 0x2 MUL DUP3 OR SWAP1 POP SWAP3 SWAP2 POP POP JUMP JUMPDEST PUSH2 0x325 DUP3 PUSH2 0xE2 JUMP JUMPDEST PUSH8 0xFFFFFFFFFFFFFFFF DUP2 GT ISZERO PUSH2 0x33E JUMPI PUSH2 0x33D PUSH2 0xEC JUMP JUMPDEST JUMPDEST PUSH2 0x348 DUP3 SLOAD PUSH2 0x146 JUMP JUMPDEST PUSH2 0x353 DUP3 DUP3 DUP6 PUSH2 0x293 JUMP JUMPDEST PUSH0 PUSH1 0x20 SWAP1 POP PUSH1 0x1F DUP4 GT PUSH1 0x1 DUP2 EQ PUSH2 0x384 JUMPI PUSH0 DUP5 ISZERO PUSH2 0x372 JUMPI DUP3 DUP8 ADD MLOAD SWAP1 POP JUMPDEST PUSH2 0x37C DUP6 DUP3 PUSH2 0x301 JUMP JUMPDEST DUP7 SSTORE POP PUSH2 0x3E3 JUMP JUMPDEST PUSH1 0x1F NOT DUP5 AND PUSH2 0x392 DUP7 PUSH2 0x176 JUMP JUMPDEST PUSH0 JUMPDEST DUP3 DUP2 LT ISZERO PUSH2 0x3B9 JUMPI DUP5 DUP10 ADD MLOAD DUP3 SSTORE PUSH1 0x1 DUP3 ADD SWAP2 POP PUSH1 0x20 DUP6 ADD SWAP5 POP PUSH1 0x20 DUP2 ADD SWAP1 POP PUSH2 0x394 JUMP JUMPDEST DUP7 DUP4 LT ISZERO PUSH2 0x3D6 JUMPI DUP5 DUP10 ADD MLOAD PUSH2 0x3D2 PUSH1 0x1F DUP10 AND DUP3 PUSH2 0x2E5 JUMP JUMPDEST DUP4 SSTORE POP JUMPDEST PUSH1 0x1 PUSH1 0x2 DUP9 MUL ADD DUP9 SSTORE POP POP POP JUMPDEST POP POP POP POP POP POP JUMP JUMPDEST PUSH2 0x3CBE DUP1 PUSH2 0x3F8 PUSH0 CODECOPY PUSH0 RETURN INVALID PUSH1 0x80 PUSH1 0x40 MSTORE PUSH1 0x4 CALLDATASIZE LT PUSH2 0x14A JUMPI PUSH0 CALLDATALOAD PUSH1 0xE0 SHR DUP1 PUSH4 0x95D89B41 GT PUSH2 0xB5 JUMPI DUP1 PUSH4 0xD74D1F43 GT PUSH2 0x6E JUMPI DUP1 PUSH4 0xD74D1F43 EQ PUSH2 0x492 JUMPI DUP1 PUSH4 0xE64DEA11 EQ PUSH2 0x4D3 JUMPI DUP1 PUSH4 0xE985E9C5 EQ PUSH2 0x4FB JUMPI DUP1 PUSH4 0xF01C823D EQ PUSH2 0x537 JUMPI DUP1 PUSH4 0xF5DF7010 EQ PUSH2 0x553 JUMPI DUP1 PUSH4 0xF7746E36 EQ PUSH2 0x57B JUMPI PUSH2 0x14A JUMP JUMPDEST DUP1 PUSH4 0x95D89B41 EQ PUSH2 0x378 JUMPI DUP1 PUSH4 0xA22CB465 EQ PUSH2 0x3A2 JUMPI DUP1 PUSH4 0xAE14AE40 EQ PUSH2 0x3CA JUMPI DUP1 PUSH4 0xB88D4FDE EQ PUSH2 0x3F2 JUMPI DUP1 PUSH4 0xC31CF51A EQ PUSH2 0x41A JUMPI DUP1 PUSH4 0xC87B56DD EQ PUSH2 0x456 JUMPI PUSH2 0x14A JUMP JUMPDEST DUP1 PUSH4 0x23B872DD GT PUSH2 0x107 JUMPI DUP1 PUSH4 0x23B872DD EQ PUSH2 0x26C JUMPI DUP1 PUSH4 0x24CB1534 EQ PUSH2 0x294 JUMPI DUP1 PUSH4 0x42842E0E EQ PUSH2 0x2BC JUMPI DUP1 PUSH4 0x59638956 EQ PUSH2 0x2E4 JUMPI DUP1 PUSH4 0x6352211E EQ PUSH2 0x300 JUMPI DUP1 PUSH4 0x70A08231 EQ PUSH2 0x33C JUMPI PUSH2 0x14A JUMP JUMPDEST DUP1 PUSH4 0x1FFC9A7 EQ PUSH2 0x14E JUMPI DUP1 PUSH4 0x3EF5104 EQ PUSH2 0x18A JUMPI DUP1 PUSH4 0x6FDDE03 EQ PUSH2 0x1B4 JUMPI DUP1 PUSH4 0x81812FC EQ PUSH2 0x1DE JUMPI DUP1 PUSH4 0x95EA7B3 EQ PUSH2 0x21A JUMPI DUP1 PUSH4 0x200CA6EF EQ PUSH2 0x242 JUMPI JUMPDEST PUSH0 DUP1 REVERT JUMPDEST CALLVALUE DUP1 ISZERO PUSH2 0x159 JUMPI PUSH0 DUP1 REVERT JUMPDEST POP PUSH2 0x174 PUSH1 0x4 DUP1 CALLDATASIZE SUB DUP2 ADD SWAP1 PUSH2 0x16F SWAP2 SWAP1 PUSH2 0x2B3A JUMP JUMPDEST PUSH2 0x5BC JUMP JUMPDEST PUSH1 0x40 MLOAD PUSH2 0x181 SWAP2 SWAP1 PUSH2 0x2B7F JUMP JUMPDEST PUSH1 0x40 MLOAD DUP1 SWAP2 SUB SWAP1 RETURN JUMPDEST CALLVALUE DUP1 ISZERO PUSH2 0x195 JUMPI PUSH0 DUP1 REVERT JUMPDEST POP PUSH2 0x19E PUSH2 0x69D JUMP JUMPDEST PUSH1 0x40 MLOAD PUSH2 0x1AB SWAP2 SWAP1 PUSH2 0x2BD7 JUMP JUMPDEST PUSH1 0x40 MLOAD DUP1 SWAP2 SUB SWAP1 RETURN JUMPDEST CALLVALUE DUP1 ISZERO PUSH2 0x1BF JUMPI PUSH0 DUP1 REVERT JUMPDEST POP PUSH2 0x1C8 PUSH2 0x6C2 JUMP JUMPDEST PUSH1 0x40 MLOAD PUSH2 0x1D5 SWAP2 SWAP1 PUSH2 0x2C60 JUMP JUMPDEST PUSH1 0x40 MLOAD DUP1 SWAP2 SUB SWAP1 RETURN JUMPDEST CALLVALUE DUP1 ISZERO PUSH2 0x1E9 JUMPI PUSH0 DUP1 REVERT JUMPDEST POP PUSH2 0x204 PUSH1 0x4 DUP1 CALLDATASIZE SUB DUP2 ADD SWAP1 PUSH2 0x1FF SWAP2 SWAP1 PUSH2 0x2CB3 JUMP JUMPDEST PUSH2 0x751 JUMP JUMPDEST PUSH1 0x40 MLOAD PUSH2 0x211 SWAP2 SWAP1 PUSH2 0x2BD7 JUMP JUMPDEST PUSH1 0x40 MLOAD DUP1 SWAP2 SUB SWAP1 RETURN JUMPDEST CALLVALUE DUP1 ISZERO PUSH2 0x225 JUMPI PUSH0 DUP1 REVERT JUMPDEST POP PUSH2 0x240 PUSH1 0x4 DUP1 CALLDATASIZE SUB DUP2 ADD SWAP1 PUSH2 0x23B SWAP2 SWAP1 PUSH2 0x2D08 JUMP JUMPDEST PUSH2 0x76C JUMP JUMPDEST STOP JUMPDEST CALLVALUE DUP1 ISZERO PUSH2 0x24D JUMPI PUSH0 DUP1 REVERT JUMPDEST POP PUSH2 0x256 PUSH2 0x782 JUMP JUMPDEST PUSH1 0x40 MLOAD PUSH2 0x263 SWAP2 SWAP1 PUSH2 0x2D55 JUMP JUMPDEST PUSH1 0x40 MLOAD DUP1 SWAP2 SUB SWAP1 RETURN JUMPDEST CALLVALUE DUP1 ISZERO PUSH2 0x277 JUMPI PUSH0 DUP1 REVERT JUMPDEST POP PUSH2 0x292 PUSH1 0x4 DUP1 CALLDATASIZE SUB DUP2 ADD SWAP1 PUSH2 0x28D SWAP2 SWAP1 PUSH2 0x2D6E JUMP JUMPDEST PUSH2 0x789 JUMP JUMPDEST STOP JUMPDEST CALLVALUE DUP1 ISZERO PUSH2 0x29F JUMPI PUSH0 DUP1 REVERT JUMPDEST POP PUSH2 0x2BA PUSH1 0x4 DUP1 CALLDATASIZE SUB DUP2 ADD SWAP1 PUSH2 0x2B5 SWAP2 SWAP1 PUSH2 0x2EEA JUMP JUMPDEST PUSH2 0x888 JUMP JUMPDEST STOP JUMPDEST CALLVALUE DUP1 ISZERO PUSH2 0x2C7 JUMPI PUSH0 DUP1 REVERT JUMPDEST POP PUSH2 0x2E2 PUSH1 0x4 DUP1 CALLDATASIZE SUB DUP2 ADD SWAP1 PUSH2 0x2DD SWAP2 SWAP1 PUSH2 0x2D6E JUMP JUMPDEST PUSH2 0x9F4 JUMP JUMPDEST STOP JUMPDEST PUSH2 0x2FE PUSH1 0x4 DUP1 CALLDATASIZE SUB DUP2 ADD SWAP1 PUSH2 0x2F9 SWAP2 SWAP1 PUSH2 0x2F99 JUMP JUMPDEST PUSH2 0xA13 JUMP JUMPDEST STOP JUMPDEST CALLVALUE DUP1 ISZERO PUSH2 0x30B JUMPI PUSH0 DUP1 REVERT JUMPDEST POP PUSH2 0x326 PUSH1 0x4 DUP1 CALLDATASIZE SUB DUP2 ADD SWAP1 PUSH2 0x321 SWAP2 SWAP1 PUSH2 0x2CB3 JUMP JUMPDEST PUSH2 0xBDF JUMP JUMPDEST PUSH1 0x40 MLOAD PUSH2 0x333 SWAP2 SWAP1 PUSH2 0x2BD7 JUMP JUMPDEST PUSH1 0x40 MLOAD DUP1 SWAP2 SUB SWAP1 RETURN JUMPDEST CALLVALUE DUP1 ISZERO PUSH2 0x347 JUMPI PUSH0 DUP1 REVERT JUMPDEST POP PUSH2 0x362 PUSH1 0x4 DUP1 CALLDATASIZE SUB DUP2 ADD SWAP1 PUSH2 0x35D SWAP2 SWAP1 PUSH2 0x2FFD JUMP JUMPDEST PUSH2 0xBF0 JUMP JUMPDEST PUSH1 0x40 MLOAD PUSH2 0x36F SWAP2 SWAP1 PUSH2 0x2D55 JUMP JUMPDEST PUSH1 0x40 MLOAD DUP1 SWAP2 SUB SWAP1 RETURN JUMPDEST CALLVALUE DUP1 ISZERO PUSH2 0x383 JUMPI PUSH0 DUP1 REVERT JUMPDEST POP PUSH2 0x38C PUSH2 0xCA6 JUMP JUMPDEST PUSH1 0x40 MLOAD PUSH2 0x399 SWAP2 SWAP1 PUSH2 0x2C60 JUMP JUMPDEST PUSH1 0x40 MLOAD DUP1 SWAP2 SUB SWAP1 RETURN JUMPDEST CALLVALUE DUP1 ISZERO PUSH2 0x3AD JUMPI PUSH0 DUP1 REVERT JUMPDEST POP PUSH2 0x3C8 PUSH1 0x4 DUP1 CALLDATASIZE SUB DUP2 ADD SWAP1 PUSH2 0x3C3 SWAP2 SWAP1 PUSH2 0x3052 JUMP JUMPDEST PUSH2 0xD36 JUMP JUMPDEST STOP JUMPDEST CALLVALUE DUP1 ISZERO PUSH2 0x3D5 JUMPI PUSH0 DUP1 REVERT JUMPDEST POP PUSH2 0x3F0 PUSH1 0x4 DUP1 CALLDATASIZE SUB DUP2 ADD SWAP1 PUSH2 0x3EB SWAP2 SWAP1 PUSH2 0x2FFD JUMP JUMPDEST PUSH2 0xD4C JUMP JUMPDEST STOP JUMPDEST CALLVALUE DUP1 ISZERO PUSH2 0x3FD JUMPI PUSH0 DUP1 REVERT JUMPDEST POP PUSH2 0x418 PUSH1 0x4 DUP1 CALLDATASIZE SUB DUP2 ADD SWAP1 PUSH2 0x413 SWAP2 SWAP1 PUSH2 0x312E JUMP JUMPDEST PUSH2 0xF01 JUMP JUMPDEST STOP JUMPDEST CALLVALUE DUP1 ISZERO PUSH2 0x425 JUMPI PUSH0 DUP1 REVERT JUMPDEST POP PUSH2 0x440 PUSH1 0x4 DUP1 CALLDATASIZE SUB DUP2 ADD SWAP1 PUSH2 0x43B SWAP2 SWAP1 PUSH2 0x2F99 JUMP JUMPDEST PUSH2 0xF26 JUMP JUMPDEST PUSH1 0x40 MLOAD PUSH2 0x44D SWAP2 SWAP1 PUSH2 0x2D55 JUMP JUMPDEST PUSH1 0x40 MLOAD DUP1 SWAP2 SUB SWAP1 RETURN JUMPDEST CALLVALUE DUP1 ISZERO PUSH2 0x461 JUMPI PUSH0 DUP1 REVERT JUMPDEST POP PUSH2 0x47C PUSH1 0x4 DUP1 CALLDATASIZE SUB DUP2 ADD SWAP1 PUSH2 0x477 SWAP2 SWAP1 PUSH2 0x2CB3 JUMP JUMPDEST PUSH2 0x1303 JUMP JUMPDEST PUSH1 0x40 MLOAD PUSH2 0x489 SWAP2 SWAP1 PUSH2 0x2C60 JUMP JUMPDEST PUSH1 0x40 MLOAD DUP1 SWAP2 SUB SWAP1 RETURN JUMPDEST CALLVALUE DUP1 ISZERO PUSH2 0x49D JUMPI PUSH0 DUP1 REVERT JUMPDEST POP PUSH2 0x4B8 PUSH1 0x4 DUP1 CALLDATASIZE SUB DUP2 ADD SWAP1 PUSH2 0x4B3 SWAP2 SWAP1 PUSH2 0x2FFD JUMP JUMPDEST PUSH2 0x1369 JUMP JUMPDEST PUSH1 0x40 MLOAD PUSH2 0x4CA SWAP7 SWAP6 SWAP5 SWAP4 SWAP3 SWAP2 SWAP1 PUSH2 0x31AE JUMP JUMPDEST PUSH1 0x40 MLOAD DUP1 SWAP2 SUB SWAP1 RETURN JUMPDEST CALLVALUE DUP1 ISZERO PUSH2 0x4DE JUMPI PUSH0 DUP1 REVERT JUMPDEST POP PUSH2 0x4F9 PUSH1 0x4 DUP1 CALLDATASIZE SUB DUP2 ADD SWAP1 PUSH2 0x4F4 SWAP2 SWAP1 PUSH2 0x3243 JUMP JUMPDEST PUSH2 0x13D9 JUMP JUMPDEST STOP JUMPDEST CALLVALUE DUP1 ISZERO PUSH2 0x506 JUMPI PUSH0 DUP1 REVERT JUMPDEST POP PUSH2 0x521 PUSH1 0x4 DUP1 CALLDATASIZE SUB DUP2 ADD SWAP1 PUSH2 0x51C SWAP2 SWAP1 PUSH2 0x3281 JUMP JUMPDEST PUSH2 0x15E2 JUMP JUMPDEST PUSH1 0x40 MLOAD PUSH2 0x52E SWAP2 SWAP1 PUSH2 0x2B7F JUMP JUMPDEST PUSH1 0x40 MLOAD DUP1 SWAP2 SUB SWAP1 RETURN JUMPDEST PUSH2 0x551 PUSH1 0x4 DUP1 CALLDATASIZE SUB DUP2 ADD SWAP1 PUSH2 0x54C SWAP2 SWAP1 PUSH2 0x2CB3 JUMP JUMPDEST PUSH2 0x1670 JUMP JUMPDEST STOP JUMPDEST CALLVALUE DUP1 ISZERO PUSH2 0x55E JUMPI PUSH0 DUP1 REVERT JUMPDEST POP PUSH2 0x579 PUSH1 0x4 DUP1 CALLDATASIZE SUB DUP2 ADD SWAP1 PUSH2 0x574 SWAP2 SWAP1 PUSH2 0x2FFD JUMP JUMPDEST PUSH2 0x18E5 JUMP JUMPDEST STOP JUMPDEST CALLVALUE DUP1 ISZERO PUSH2 0x586 JUMPI PUSH0 DUP1 REVERT JUMPDEST POP PUSH2 0x5A1 PUSH1 0x4 DUP1 CALLDATASIZE SUB DUP2 ADD SWAP1 PUSH2 0x59C SWAP2 SWAP1 PUSH2 0x2CB3 JUMP JUMPDEST PUSH2 0x1B08 JUMP JUMPDEST PUSH1 0x40 MLOAD PUSH2 0x5B3 SWAP7 SWAP6 SWAP5 SWAP4 SWAP3 SWAP2 SWAP1 PUSH2 0x32BF JUMP JUMPDEST PUSH1 0x40 MLOAD DUP1 SWAP2 SUB SWAP1 RETURN JUMPDEST PUSH0 PUSH32 0x80AC58CD00000000000000000000000000000000000000000000000000000000 PUSH28 0xFFFFFFFFFFFFFFFFFFFFFFFFFFFFFFFFFFFFFFFFFFFFFFFFFFFFFFFF NOT AND DUP3 PUSH28 0xFFFFFFFFFFFFFFFFFFFFFFFFFFFFFFFFFFFFFFFFFFFFFFFFFFFFFFFF NOT AND EQ DUP1 PUSH2 0x686 JUMPI POP PUSH32 0x5B5E139F00000000000000000000000000000000000000000000000000000000 PUSH28 0xFFFFFFFFFFFFFFFFFFFFFFFFFFFFFFFFFFFFFFFFFFFFFFFFFFFFFFFF NOT AND DUP3 PUSH28 0xFFFFFFFFFFFFFFFFFFFFFFFFFFFFFFFFFFFFFFFFFFFFFFFFFFFFFFFF NOT AND EQ JUMPDEST DUP1 PUSH2 0x696 JUMPI POP PUSH2 0x695 DUP3 PUSH2 0x1C4C JUMP JUMPDEST JUMPDEST SWAP1 POP SWAP2 SWAP1 POP JUMP JUMPDEST PUSH1 0x9 PUSH0 SWAP1 SLOAD SWAP1 PUSH2 0x100 EXP SWAP1 DIV PUSH20 0xFFFFFFFFFFFFFFFFFFFFFFFFFFFFFFFFFFFFFFFF AND DUP2 JUMP JUMPDEST PUSH1 0x60 PUSH0 DUP1 SLOAD PUSH2 0x6D0 SWAP1 PUSH2 0x3359 JUMP JUMPDEST DUP1 PUSH1 0x1F ADD PUSH1 0x20 DUP1 SWAP2 DIV MUL PUSH1 0x20 ADD PUSH1 0x40 MLOAD SWAP1 DUP2 ADD PUSH1 0x40 MSTORE DUP1 SWAP3 SWAP2 SWAP1 DUP2 DUP2 MSTORE PUSH1 0x20 ADD DUP3 DUP1 SLOAD PUSH2 0x6FC SWAP1 PUSH2 0x3359 JUMP JUMPDEST DUP1 ISZERO PUSH2 0x747 JUMPI DUP1 PUSH1 0x1F LT PUSH2 0x71E JUMPI PUSH2 0x100 DUP1 DUP4 SLOAD DIV MUL DUP4 MSTORE SWAP2 PUSH1 0x20 ADD SWAP2 PUSH2 0x747 JUMP JUMPDEST DUP3 ADD SWAP2 SWAP1 PUSH0 MSTORE PUSH1 0x20 PUSH0 KECCAK256 SWAP1 JUMPDEST DUP2 SLOAD DUP2 MSTORE SWAP1 PUSH1 0x1 ADD SWAP1 PUSH1 0x20 ADD DUP1 DUP4 GT PUSH2 0x72A JUMPI DUP3 SWAP1 SUB PUSH1 0x1F AND DUP3 ADD SWAP2 JUMPDEST POP POP POP POP POP SWAP1 POP SWAP1 JUMP JUMPDEST PUSH0 PUSH2 0x75B DUP3 PUSH2 0x1CB5 JUMP JUMPDEST POP PUSH2 0x765 DUP3 PUSH2 0x1D3B JUMP JUMPDEST SWAP1 POP SWAP2 SWAP1 POP JUMP JUMPDEST PUSH2 0x77E DUP3 DUP3 PUSH2 0x779 PUSH2 0x1D74 JUMP JUMPDEST PUSH2 0x1D7B JUMP JUMPDEST POP POP JUMP JUMPDEST PUSH3 0x278D00 DUP2 JUMP JUMPDEST PUSH0 PUSH20 0xFFFFFFFFFFFFFFFFFFFFFFFFFFFFFFFFFFFFFFFF AND DUP3 PUSH20 0xFFFFFFFFFFFFFFFFFFFFFFFFFFFFFFFFFFFFFFFF AND SUB PUSH2 0x7F9 JUMPI PUSH0 PUSH1 0x40 MLOAD PUSH32 0x64A0AE9200000000000000000000000000000000000000000000000000000000 DUP2 MSTORE PUSH1 0x4 ADD PUSH2 0x7F0 SWAP2 SWAP1 PUSH2 0x2BD7 JUMP JUMPDEST PUSH1 0x40 MLOAD DUP1 SWAP2 SUB SWAP1 REVERT JUMPDEST PUSH0 PUSH2 0x80C DUP4 DUP4 PUSH2 0x807 PUSH2 0x1D74 JUMP JUMPDEST PUSH2 0x1D8D JUMP JUMPDEST SWAP1 POP DUP4 PUSH20 0xFFFFFFFFFFFFFFFFFFFFFFFFFFFFFFFFFFFFFFFF AND DUP2 PUSH20 0xFFFFFFFFFFFFFFFFFFFFFFFFFFFFFFFFFFFFFFFF AND EQ PUSH2 0x882 JUMPI DUP4 DUP3 DUP3 PUSH1 0x40 MLOAD PUSH32 0x64283D7B00000000000000000000000000000000000000000000000000000000 DUP2 MSTORE PUSH1 0x4 ADD PUSH2 0x879 SWAP4 SWAP3 SWAP2 SWAP1 PUSH2 0x3389 JUMP JUMPDEST PUSH1 0x40 MLOAD DUP1 SWAP2 SUB SWAP1 REVERT JUMPDEST POP POP POP POP JUMP JUMPDEST PUSH1 0x9 PUSH0 SWAP1 SLOAD SWAP1 PUSH2 0x100 EXP SWAP1 DIV PUSH20 0xFFFFFFFFFFFFFFFFFFFFFFFFFFFFFFFFFFFFFFFF AND PUSH20 0xFFFFFFFFFFFFFFFFFFFFFFFFFFFFFFFFFFFFFFFF AND CALLER PUSH20 0xFFFFFFFFFFFFFFFFFFFFFFFFFFFFFFFFFFFFFFFF AND EQ PUSH2 0x917 JUMPI PUSH1 0x40 MLOAD PUSH32 0x8C379A000000000000000000000000000000000000000000000000000000000 DUP2 MSTORE PUSH1 0x4 ADD PUSH2 0x90E SWAP1 PUSH2 0x342E JUMP JUMPDEST PUSH1 0x40 MLOAD DUP1 SWAP2 SUB SWAP1 REVERT JUMPDEST PUSH2 0x921 PUSH1 0x6 PUSH2 0x1F98 JUMP JUMPDEST PUSH0 PUSH2 0x92C PUSH1 0x6 PUSH2 0x1FAC JUMP JUMPDEST SWAP1 POP PUSH1 0x40 MLOAD DUP1 PUSH1 0xC0 ADD PUSH1 0x40 MSTORE DUP1 DUP3 DUP2 MSTORE PUSH1 0x20 ADD DUP8 DUP2 MSTORE PUSH1 0x20 ADD DUP7 DUP2 MSTORE PUSH1 0x20 ADD DUP6 DUP2 MSTORE PUSH1 0x20 ADD DUP5 DUP2 MSTORE PUSH1 0x20 ADD DUP4 DUP2 MSTORE POP PUSH1 0x7 PUSH0 DUP4 DUP2 MSTORE PUSH1 0x20 ADD SWAP1 DUP2 MSTORE PUSH1 0x20 ADD PUSH0 KECCAK256 PUSH0 DUP3 ADD MLOAD DUP2 PUSH0 ADD SSTORE PUSH1 0x20 DUP3 ADD MLOAD DUP2 PUSH1 0x1 ADD SWAP1 DUP2 PUSH2 0x989 SWAP2 SWAP1 PUSH2 0x35E9 JUMP JUMPDEST POP PUSH1 0x40 DUP3 ADD MLOAD DUP2 PUSH1 0x2 ADD SWAP1 DUP2 PUSH2 0x99F SWAP2 SWAP1 PUSH2 0x35E9 JUMP JUMPDEST POP PUSH1 0x60 DUP3 ADD MLOAD DUP2 PUSH1 0x3 ADD SSTORE PUSH1 0x80 DUP3 ADD MLOAD DUP2 PUSH1 0x4 ADD SSTORE PUSH1 0xA0 DUP3 ADD MLOAD DUP2 PUSH1 0x5 ADD SSTORE SWAP1 POP POP PUSH2 0x9EC PUSH1 0x9 PUSH0 SWAP1 SLOAD SWAP1 PUSH2 0x100 EXP SWAP1 DIV PUSH20 0xFFFFFFFFFFFFFFFFFFFFFFFFFFFFFFFFFFFFFFFF AND DUP3 PUSH2 0x1FB8 JUMP JUMPDEST POP POP POP POP POP POP JUMP JUMPDEST PUSH2 0xA0E DUP4 DUP4 DUP4 PUSH1 0x40 MLOAD DUP1 PUSH1 0x20 ADD PUSH1 0x40 MSTORE DUP1 PUSH0 DUP2 MSTORE POP PUSH2 0xF01 JUMP JUMPDEST POP POP POP JUMP JUMPDEST PUSH0 PUSH2 0xA20 DUP6 DUP6 DUP6 DUP6 PUSH2 0xF26 JUMP JUMPDEST SWAP1 POP PUSH0 PUSH1 0x4 DUP3 PUSH2 0xA30 SWAP2 SWAP1 PUSH2 0x36E5 JUMP JUMPDEST SWAP1 POP DUP1 CALLVALUE EQ PUSH2 0xA74 JUMPI PUSH1 0x40 MLOAD PUSH32 0x8C379A000000000000000000000000000000000000000000000000000000000 DUP2 MSTORE PUSH1 0x4 ADD PUSH2 0xA6B SWAP1 PUSH2 0x3770 JUMP JUMPDEST PUSH1 0x40 MLOAD DUP1 SWAP2 SUB SWAP1 REVERT JUMPDEST PUSH1 0x40 MLOAD DUP1 PUSH1 0xC0 ADD PUSH1 0x40 MSTORE DUP1 DUP8 DUP2 MSTORE PUSH1 0x20 ADD CALLER PUSH20 0xFFFFFFFFFFFFFFFFFFFFFFFFFFFFFFFFFFFFFFFF AND DUP2 MSTORE PUSH1 0x20 ADD DUP4 DUP2 MSTORE PUSH1 0x20 ADD PUSH3 0x278D00 TIMESTAMP PUSH2 0xAB6 SWAP2 SWAP1 PUSH2 0x378E JUMP JUMPDEST DUP2 MSTORE PUSH1 0x20 ADD PUSH0 ISZERO ISZERO DUP2 MSTORE PUSH1 0x20 ADD PUSH1 0x1 ISZERO ISZERO DUP2 MSTORE POP PUSH1 0x8 PUSH0 CALLER PUSH20 0xFFFFFFFFFFFFFFFFFFFFFFFFFFFFFFFFFFFFFFFF AND PUSH20 0xFFFFFFFFFFFFFFFFFFFFFFFFFFFFFFFFFFFFFFFF AND DUP2 MSTORE PUSH1 0x20 ADD SWAP1 DUP2 MSTORE PUSH1 0x20 ADD PUSH0 KECCAK256 PUSH0 DUP3 ADD MLOAD DUP2 PUSH0 ADD SSTORE PUSH1 0x20 DUP3 ADD MLOAD DUP2 PUSH1 0x1 ADD PUSH0 PUSH2 0x100 EXP DUP2 SLOAD DUP2 PUSH20 0xFFFFFFFFFFFFFFFFFFFFFFFFFFFFFFFFFFFFFFFF MUL NOT AND SWAP1 DUP4 PUSH20 0xFFFFFFFFFFFFFFFFFFFFFFFFFFFFFFFFFFFFFFFF AND MUL OR SWAP1 SSTORE POP PUSH1 0x40 DUP3 ADD MLOAD DUP2 PUSH1 0x2 ADD SSTORE PUSH1 0x60 DUP3 ADD MLOAD DUP2 PUSH1 0x3 ADD SSTORE PUSH1 0x80 DUP3 ADD MLOAD DUP2 PUSH1 0x4 ADD PUSH0 PUSH2 0x100 EXP DUP2 SLOAD DUP2 PUSH1 0xFF MUL NOT AND SWAP1 DUP4 ISZERO ISZERO MUL OR SWAP1 SSTORE POP PUSH1 0xA0 DUP3 ADD MLOAD DUP2 PUSH1 0x4 ADD PUSH1 0x1 PUSH2 0x100 EXP DUP2 SLOAD DUP2 PUSH1 0xFF MUL NOT AND SWAP1 DUP4 ISZERO ISZERO MUL OR SWAP1 SSTORE POP SWAP1 POP POP PUSH2 0xBD7 PUSH1 0x9 PUSH0 SWAP1 SLOAD SWAP1 PUSH2 0x100 EXP SWAP1 DIV PUSH20 0xFFFFFFFFFFFFFFFFFFFFFFFFFFFFFFFFFFFFFFFF AND CALLER DUP9 PUSH2 0x20AB JUMP JUMPDEST POP POP POP POP POP POP JUMP JUMPDEST PUSH0 PUSH2 0xBE9 DUP3 PUSH2 0x1CB5 JUMP JUMPDEST SWAP1 POP SWAP2 SWAP1 POP JUMP JUMPDEST PUSH0 DUP1 PUSH20 0xFFFFFFFFFFFFFFFFFFFFFFFFFFFFFFFFFFFFFFFF AND DUP3 PUSH20 0xFFFFFFFFFFFFFFFFFFFFFFFFFFFFFFFFFFFFFFFF AND SUB PUSH2 0xC61 JUMPI PUSH0 PUSH1 0x40 MLOAD PUSH32 0x89C62B6400000000000000000000000000000000000000000000000000000000 DUP2 MSTORE PUSH1 0x4 ADD PUSH2 0xC58 SWAP2 SWAP1 PUSH2 0x2BD7 JUMP JUMPDEST PUSH1 0x40 MLOAD DUP1 SWAP2 SUB SWAP1 REVERT JUMPDEST PUSH1 0x3 PUSH0 DUP4 PUSH20 0xFFFFFFFFFFFFFFFFFFFFFFFFFFFFFFFFFFFFFFFF AND PUSH20 0xFFFFFFFFFFFFFFFFFFFFFFFFFFFFFFFFFFFFFFFF AND DUP2 MSTORE PUSH1 0x20 ADD SWAP1 DUP2 MSTORE PUSH1 0x20 ADD PUSH0 KECCAK256 SLOAD SWAP1 POP SWAP2 SWAP1 POP JUMP JUMPDEST PUSH1 0x60 PUSH1 0x1 DUP1 SLOAD PUSH2 0xCB5 SWAP1 PUSH2 0x3359 JUMP JUMPDEST DUP1 PUSH1 0x1F ADD PUSH1 0x20 DUP1 SWAP2 DIV MUL PUSH1 0x20 ADD PUSH1 0x40 MLOAD SWAP1 DUP2 ADD PUSH1 0x40 MSTORE DUP1 SWAP3 SWAP2 SWAP1 DUP2 DUP2 MSTORE PUSH1 0x20 ADD DUP3 DUP1 SLOAD PUSH2 0xCE1 SWAP1 PUSH2 0x3359 JUMP JUMPDEST DUP1 ISZERO PUSH2 0xD2C JUMPI DUP1 PUSH1 0x1F LT PUSH2 0xD03 JUMPI PUSH2 0x100 DUP1 DUP4 SLOAD DIV MUL DUP4 MSTORE SWAP2 PUSH1 0x20 ADD SWAP2 PUSH2 0xD2C JUMP JUMPDEST DUP3 ADD SWAP2 SWAP1 PUSH0 MSTORE PUSH1 0x20 PUSH0 KECCAK256 SWAP1 JUMPDEST DUP2 SLOAD DUP2 MSTORE SWAP1 PUSH1 0x1 ADD SWAP1 PUSH1 0x20 ADD DUP1 DUP4 GT PUSH2 0xD0F JUMPI DUP3 SWAP1 SUB PUSH1 0x1F AND DUP3 ADD SWAP2 JUMPDEST POP POP POP POP POP SWAP1 POP SWAP1 JUMP JUMPDEST PUSH2 0xD48 PUSH2 0xD41 PUSH2 0x1D74 JUMP JUMPDEST DUP4 DUP4 PUSH2 0x2213 JUMP JUMPDEST POP POP JUMP JUMPDEST PUSH1 0x9 PUSH0 SWAP1 SLOAD SWAP1 PUSH2 0x100 EXP SWAP1 DIV PUSH20 0xFFFFFFFFFFFFFFFFFFFFFFFFFFFFFFFFFFFFFFFF AND PUSH20 0xFFFFFFFFFFFFFFFFFFFFFFFFFFFFFFFFFFFFFFFF AND CALLER PUSH20 0xFFFFFFFFFFFFFFFFFFFFFFFFFFFFFFFFFFFFFFFF AND EQ PUSH2 0xDDB JUMPI PUSH1 0x40 MLOAD PUSH32 0x8C379A000000000000000000000000000000000000000000000000000000000 DUP2 MSTORE PUSH1 0x4 ADD PUSH2 0xDD2 SWAP1 PUSH2 0x342E JUMP JUMPDEST PUSH1 0x40 MLOAD DUP1 SWAP2 SUB SWAP1 REVERT JUMPDEST PUSH0 PUSH1 0x8 PUSH0 DUP4 PUSH20 0xFFFFFFFFFFFFFFFFFFFFFFFFFFFFFFFFFFFFFFFF AND PUSH20 0xFFFFFFFFFFFFFFFFFFFFFFFFFFFFFFFFFFFFFFFF AND DUP2 MSTORE PUSH1 0x20 ADD SWAP1 DUP2 MSTORE PUSH1 0x20 ADD PUSH0 KECCAK256 SWAP1 POP DUP1 PUSH1 0x4 ADD PUSH1 0x1 SWAP1 SLOAD SWAP1 PUSH2 0x100 EXP SWAP1 DIV PUSH1 0xFF AND PUSH2 0xE6C JUMPI PUSH1 0x40 MLOAD PUSH32 0x8C379A000000000000000000000000000000000000000000000000000000000 DUP2 MSTORE PUSH1 0x4 ADD PUSH2 0xE63 SWAP1 PUSH2 0x380B JUMP JUMPDEST PUSH1 0x40 MLOAD DUP1 SWAP2 SUB SWAP1 REVERT JUMPDEST DUP1 PUSH1 0x3 ADD SLOAD TIMESTAMP GT PUSH2 0xEB2 JUMPI PUSH1 0x40 MLOAD PUSH32 0x8C379A000000000000000000000000000000000000000000000000000000000 DUP2 MSTORE PUSH1 0x4 ADD PUSH2 0xEA9 SWAP1 PUSH2 0x3873 JUMP JUMPDEST PUSH1 0x40 MLOAD DUP1 SWAP2 SUB SWAP1 REVERT JUMPDEST PUSH0 DUP2 PUSH1 0x4 ADD PUSH1 0x1 PUSH2 0x100 EXP DUP2 SLOAD DUP2 PUSH1 0xFF MUL NOT AND SWAP1 DUP4 ISZERO ISZERO MUL OR SWAP1 SSTORE POP PUSH2 0xEFD DUP3 PUSH1 0x9 PUSH0 SWAP1 SLOAD SWAP1 PUSH2 0x100 EXP SWAP1 DIV PUSH20 0xFFFFFFFFFFFFFFFFFFFFFFFFFFFFFFFFFFFFFFFF AND DUP4 PUSH0 ADD SLOAD PUSH2 0x20AB JUMP JUMPDEST POP POP JUMP JUMPDEST PUSH2 0xF0C DUP5 DUP5 DUP5 PUSH2 0x789 JUMP JUMPDEST PUSH2 0xF20 PUSH2 0xF17 PUSH2 0x1D74 JUMP JUMPDEST DUP6 DUP6 DUP6 DUP6 PUSH2 0x237C JUMP JUMPDEST POP POP POP POP JUMP JUMPDEST PUSH0 DUP1 PUSH1 0x7 PUSH0 DUP8 DUP2 MSTORE PUSH1 0x20 ADD SWAP1 DUP2 MSTORE PUSH1 0x20 ADD PUSH0 KECCAK256 PUSH1 0x40 MLOAD DUP1 PUSH1 0xC0 ADD PUSH1 0x40 MSTORE SWAP1 DUP2 PUSH0 DUP3 ADD SLOAD DUP2 MSTORE PUSH1 0x20 ADD PUSH1 0x1 DUP3 ADD DUP1 SLOAD PUSH2 0xF5D SWAP1 PUSH2 0x3359 JUMP JUMPDEST DUP1 PUSH1 0x1F ADD PUSH1 0x20 DUP1 SWAP2 DIV MUL PUSH1 0x20 ADD PUSH1 0x40 MLOAD SWAP1 DUP2 ADD PUSH1 0x40 MSTORE DUP1 SWAP3 SWAP2 SWAP1 DUP2 DUP2 MSTORE PUSH1 0x20 ADD DUP3 DUP1 SLOAD PUSH2 0xF89 SWAP1 PUSH2 0x3359 JUMP JUMPDEST DUP1 ISZERO PUSH2 0xFD4 JUMPI DUP1 PUSH1 0x1F LT PUSH2 0xFAB JUMPI PUSH2 0x100 DUP1 DUP4 SLOAD DIV MUL DUP4 MSTORE SWAP2 PUSH1 0x20 ADD SWAP2 PUSH2 0xFD4 JUMP JUMPDEST DUP3 ADD SWAP2 SWAP1 PUSH0 MSTORE PUSH1 0x20 PUSH0 KECCAK256 SWAP1 JUMPDEST DUP2 SLOAD DUP2 MSTORE SWAP1 PUSH1 0x1 ADD SWAP1 PUSH1 0x20 ADD DUP1 DUP4 GT PUSH2 0xFB7 JUMPI DUP3 SWAP1 SUB PUSH1 0x1F AND DUP3 ADD SWAP2 JUMPDEST POP POP POP POP POP DUP2 MSTORE PUSH1 0x20 ADD PUSH1 0x2 DUP3 ADD DUP1 SLOAD PUSH2 0xFED SWAP1 PUSH2 0x3359 JUMP JUMPDEST DUP1 PUSH1 0x1F ADD PUSH1 0x20 DUP1 SWAP2 DIV MUL PUSH1 0x20 ADD PUSH1 0x40 MLOAD SWAP1 DUP2 ADD PUSH1 0x40 MSTORE DUP1 SWAP3 SWAP2 SWAP1 DUP2 DUP2 MSTORE PUSH1 0x20 ADD DUP3 DUP1 SLOAD PUSH2 0x1019 SWAP1 PUSH2 0x3359 JUMP JUMPDEST DUP1 ISZERO PUSH2 0x1064 JUMPI DUP1 PUSH1 0x1F LT PUSH2 0x103B JUMPI PUSH2 0x100 DUP1 DUP4 SLOAD DIV MUL DUP4 MSTORE SWAP2 PUSH1 0x20 ADD SWAP2 PUSH2 0x1064 JUMP JUMPDEST DUP3 ADD SWAP2 SWAP1 PUSH0 MSTORE PUSH1 0x20 PUSH0 KECCAK256 SWAP1 JUMPDEST DUP2 SLOAD DUP2 MSTORE SWAP1 PUSH1 0x1 ADD SWAP1 PUSH1 0x20 ADD DUP1 DUP4 GT PUSH2 0x1047 JUMPI DUP3 SWAP1 SUB PUSH1 0x1F AND DUP3 ADD SWAP2 JUMPDEST POP POP POP POP POP DUP2 MSTORE PUSH1 0x20 ADD PUSH1 0x3 DUP3 ADD SLOAD DUP2 MSTORE PUSH1 0x20 ADD PUSH1 0x4 DUP3 ADD SLOAD DUP2 MSTORE PUSH1 0x20 ADD PUSH1 0x5 DUP3 ADD SLOAD DUP2 MSTORE POP POP SWAP1 POP PUSH0 PUSH2 0x3E8 DUP3 PUSH1 0x80 ADD MLOAD PUSH2 0x10A0 SWAP2 SWAP1 PUSH2 0x38BE JUMP JUMPDEST SWAP1 POP PUSH0 PUSH1 0x4 DUP8 LT ISZERO DUP1 ISZERO PUSH2 0x10B5 JUMPI POP PUSH1 0xA DUP8 GT ISZERO JUMPDEST ISZERO PUSH2 0x10DA JUMPI PUSH1 0x64 PUSH1 0x2 DUP4 PUSH2 0x10C9 SWAP2 SWAP1 PUSH2 0x36E5 JUMP JUMPDEST PUSH2 0x10D3 SWAP2 SWAP1 PUSH2 0x38BE JUMP JUMPDEST SWAP1 POP PUSH2 0x1100 JUMP JUMPDEST PUSH1 0xA DUP8 GT ISZERO PUSH2 0x10FF JUMPI PUSH1 0x64 PUSH1 0x5 DUP4 PUSH2 0x10F2 SWAP2 SWAP1 PUSH2 0x36E5 JUMP JUMPDEST PUSH2 0x10FC SWAP2 SWAP1 PUSH2 0x38BE JUMP JUMPDEST SWAP1 POP JUMPDEST JUMPDEST PUSH0 PUSH1 0x2 DUP8 LT ISZERO DUP1 ISZERO PUSH2 0x1112 JUMPI POP PUSH1 0x6 DUP8 LT JUMPDEST ISZERO PUSH2 0x1137 JUMPI PUSH1 0x64 PUSH1 0x3 DUP5 PUSH2 0x1126 SWAP2 SWAP1 PUSH2 0x36E5 JUMP JUMPDEST PUSH2 0x1130 SWAP2 SWAP1 PUSH2 0x38BE JUMP JUMPDEST SWAP1 POP PUSH2 0x1194 JUMP JUMPDEST PUSH1 0x6 DUP8 LT ISZERO DUP1 ISZERO PUSH2 0x1148 JUMPI POP PUSH1 0xC DUP8 LT JUMPDEST ISZERO PUSH2 0x116D JUMPI PUSH1 0x64 PUSH1 0x5 DUP5 PUSH2 0x115C SWAP2 SWAP1 PUSH2 0x36E5 JUMP JUMPDEST PUSH2 0x1166 SWAP2 SWAP1 PUSH2 0x38BE JUMP JUMPDEST SWAP1 POP PUSH2 0x1193 JUMP JUMPDEST PUSH1 0xC DUP8 GT ISZERO PUSH2 0x1192 JUMPI PUSH1 0x64 PUSH1 0x8 DUP5 PUSH2 0x1185 SWAP2 SWAP1 PUSH2 0x36E5 JUMP JUMPDEST PUSH2 0x118F SWAP2 SWAP1 PUSH2 0x38BE JUMP JUMPDEST SWAP1 POP JUMPDEST JUMPDEST JUMPDEST PUSH0 PUSH2 0x1388 DUP8 LT ISZERO DUP1 ISZERO PUSH2 0x11A8 JUMPI POP PUSH2 0x2710 DUP8 LT JUMPDEST ISZERO PUSH2 0x11C1 JUMPI PUSH1 0x64 DUP5 PUSH2 0x11BA SWAP2 SWAP1 PUSH2 0x38BE JUMP JUMPDEST SWAP1 POP PUSH2 0x1221 JUMP JUMPDEST PUSH2 0x2710 DUP8 LT ISZERO DUP1 ISZERO PUSH2 0x11D4 JUMPI POP PUSH2 0x4E20 DUP8 LT JUMPDEST ISZERO PUSH2 0x11F9 JUMPI PUSH1 0x64 PUSH1 0x2 DUP6 PUSH2 0x11E8 SWAP2 SWAP1 PUSH2 0x36E5 JUMP JUMPDEST PUSH2 0x11F2 SWAP2 SWAP1 PUSH2 0x38BE JUMP JUMPDEST SWAP1 POP PUSH2 0x1220 JUMP JUMPDEST PUSH2 0x4E20 DUP8 GT ISZERO PUSH2 0x121F JUMPI PUSH1 0x64 PUSH1 0x3 DUP6 PUSH2 0x1212 SWAP2 SWAP1 PUSH2 0x36E5 JUMP JUMPDEST PUSH2 0x121C SWAP2 SWAP1 PUSH2 0x38BE JUMP JUMPDEST SWAP1 POP JUMPDEST JUMPDEST JUMPDEST PUSH0 PUSH2 0x2710 DUP7 PUSH1 0xA0 ADD MLOAD LT ISZERO DUP1 ISZERO PUSH2 0x123D JUMPI POP PUSH2 0x4E20 DUP7 PUSH1 0xA0 ADD MLOAD LT JUMPDEST ISZERO PUSH2 0x1256 JUMPI PUSH1 0x64 DUP6 PUSH2 0x124F SWAP2 SWAP1 PUSH2 0x38BE JUMP JUMPDEST SWAP1 POP PUSH2 0x12C1 JUMP JUMPDEST PUSH2 0x4E20 DUP7 PUSH1 0xA0 ADD MLOAD LT ISZERO DUP1 ISZERO PUSH2 0x1271 JUMPI POP PUSH2 0xC350 DUP7 PUSH1 0xA0 ADD MLOAD LT JUMPDEST ISZERO PUSH2 0x1296 JUMPI PUSH1 0x64 PUSH1 0x2 DUP7 PUSH2 0x1285 SWAP2 SWAP1 PUSH2 0x36E5 JUMP JUMPDEST PUSH2 0x128F SWAP2 SWAP1 PUSH2 0x38BE JUMP JUMPDEST SWAP1 POP PUSH2 0x12C0 JUMP JUMPDEST PUSH2 0xC350 DUP7 PUSH1 0xA0 ADD MLOAD LT PUSH2 0x12BF JUMPI PUSH1 0x64 PUSH1 0x3 DUP7 PUSH2 0x12B2 SWAP2 SWAP1 PUSH2 0x36E5 JUMP JUMPDEST PUSH2 0x12BC SWAP2 SWAP1 PUSH2 0x38BE JUMP JUMPDEST SWAP1 POP JUMPDEST JUMPDEST JUMPDEST PUSH0 DUP2 DUP4 DUP6 DUP8 DUP10 PUSH2 0x12D1 SWAP2 SWAP1 PUSH2 0x38EE JUMP JUMPDEST PUSH2 0x12DB SWAP2 SWAP1 PUSH2 0x38EE JUMP JUMPDEST PUSH2 0x12E5 SWAP2 SWAP1 PUSH2 0x378E JUMP JUMPDEST PUSH2 0x12EF SWAP2 SWAP1 PUSH2 0x38EE JUMP JUMPDEST SWAP1 POP DUP1 SWAP8 POP POP POP POP POP POP POP POP SWAP5 SWAP4 POP POP POP POP JUMP JUMPDEST PUSH1 0x60 PUSH2 0x130E DUP3 PUSH2 0x1CB5 JUMP JUMPDEST POP PUSH0 PUSH2 0x1318 PUSH2 0x2528 JUMP JUMPDEST SWAP1 POP PUSH0 DUP2 MLOAD GT PUSH2 0x1336 JUMPI PUSH1 0x40 MLOAD DUP1 PUSH1 0x20 ADD PUSH1 0x40 MSTORE DUP1 PUSH0 DUP2 MSTORE POP PUSH2 0x1361 JUMP JUMPDEST DUP1 PUSH2 0x1340 DUP5 PUSH2 0x253E JUMP JUMPDEST PUSH1 0x40 MLOAD PUSH1 0x20 ADD PUSH2 0x1351 SWAP3 SWAP2 SWAP1 PUSH2 0x395B JUMP JUMPDEST PUSH1 0x40 MLOAD PUSH1 0x20 DUP2 DUP4 SUB SUB DUP2 MSTORE SWAP1 PUSH1 0x40 MSTORE JUMPDEST SWAP2 POP POP SWAP2 SWAP1 POP JUMP JUMPDEST PUSH1 0x8 PUSH1 0x20 MSTORE DUP1 PUSH0 MSTORE PUSH1 0x40 PUSH0 KECCAK256 PUSH0 SWAP2 POP SWAP1 POP DUP1 PUSH0 ADD SLOAD SWAP1 DUP1 PUSH1 0x1 ADD PUSH0 SWAP1 SLOAD SWAP1 PUSH2 0x100 EXP SWAP1 DIV PUSH20 0xFFFFFFFFFFFFFFFFFFFFFFFFFFFFFFFFFFFFFFFF AND SWAP1 DUP1 PUSH1 0x2 ADD SLOAD SWAP1 DUP1 PUSH1 0x3 ADD SLOAD SWAP1 DUP1 PUSH1 0x4 ADD PUSH0 SWAP1 SLOAD SWAP1 PUSH2 0x100 EXP SWAP1 DIV PUSH1 0xFF AND SWAP1 DUP1 PUSH1 0x4 ADD PUSH1 0x1 SWAP1 SLOAD SWAP1 PUSH2 0x100 EXP SWAP1 DIV PUSH1 0xFF AND SWAP1 POP DUP7 JUMP JUMPDEST DUP2 DUP1 PUSH1 0x8 PUSH0 CALLER PUSH20 0xFFFFFFFFFFFFFFFFFFFFFFFFFFFFFFFFFFFFFFFF AND PUSH20 0xFFFFFFFFFFFFFFFFFFFFFFFFFFFFFFFFFFFFFFFF AND DUP2 MSTORE PUSH1 0x20 ADD SWAP1 DUP2 MSTORE PUSH1 0x20 ADD PUSH0 KECCAK256 PUSH0 ADD SLOAD EQ PUSH2 0x145B JUMPI PUSH1 0x40 MLOAD PUSH32 0x8C379A000000000000000000000000000000000000000000000000000000000 DUP2 MSTORE PUSH1 0x4 ADD PUSH2 0x1452 SWAP1 PUSH2 0x39C8 JUMP JUMPDEST PUSH1 0x40 MLOAD DUP1 SWAP2 SUB SWAP1 REVERT JUMPDEST PUSH0 PUSH1 0x8 PUSH0 CALLER PUSH20 0xFFFFFFFFFFFFFFFFFFFFFFFFFFFFFFFFFFFFFFFF AND PUSH20 0xFFFFFFFFFFFFFFFFFFFFFFFFFFFFFFFFFFFFFFFF AND DUP2 MSTORE PUSH1 0x20 ADD SWAP1 DUP2 MSTORE PUSH1 0x20 ADD PUSH0 KECCAK256 SWAP1 POP DUP1 PUSH1 0x4 ADD PUSH1 0x1 SWAP1 SLOAD SWAP1 PUSH2 0x100 EXP SWAP1 DIV PUSH1 0xFF AND PUSH2 0x14EC JUMPI PUSH1 0x40 MLOAD PUSH32 0x8C379A000000000000000000000000000000000000000000000000000000000 DUP2 MSTORE PUSH1 0x4 ADD PUSH2 0x14E3 SWAP1 PUSH2 0x3A30 JUMP JUMPDEST PUSH1 0x40 MLOAD DUP1 SWAP2 SUB SWAP1 REVERT JUMPDEST PUSH1 0x1 DUP4 PUSH1 0xFF AND SUB PUSH2 0x1544 JUMPI PUSH0 DUP2 PUSH1 0x4 ADD PUSH1 0x1 PUSH2 0x100 EXP DUP2 SLOAD DUP2 PUSH1 0xFF MUL NOT AND SWAP1 DUP4 ISZERO ISZERO MUL OR SWAP1 SSTORE POP PUSH2 0x153F CALLER PUSH1 0x9 PUSH0 SWAP1 SLOAD SWAP1 PUSH2 0x100 EXP SWAP1 DIV PUSH20 0xFFFFFFFFFFFFFFFFFFFFFFFFFFFFFFFFFFFFFFFF AND DUP7 PUSH2 0x20AB JUMP JUMPDEST PUSH2 0x15DC JUMP JUMPDEST PUSH1 0x2 DUP4 PUSH1 0xFF AND SUB PUSH2 0x1586 JUMPI PUSH0 PUSH2 0x155E DUP6 PUSH0 PUSH1 0x1 PUSH1 0xC PUSH2 0xF26 JUMP JUMPDEST SWAP1 POP DUP1 DUP3 PUSH1 0x2 ADD DUP2 SWAP1 SSTORE POP PUSH3 0x278D00 TIMESTAMP PUSH2 0x1578 SWAP2 SWAP1 PUSH2 0x378E JUMP JUMPDEST DUP3 PUSH1 0x3 ADD DUP2 SWAP1 SSTORE POP POP PUSH2 0x15DB JUMP JUMPDEST PUSH1 0x3 DUP4 PUSH1 0xFF AND SUB PUSH2 0x15DA JUMPI PUSH0 DUP2 PUSH1 0x4 ADD PUSH1 0x1 PUSH2 0x100 EXP DUP2 SLOAD DUP2 PUSH1 0xFF MUL NOT AND SWAP1 DUP4 ISZERO ISZERO MUL OR SWAP1 SSTORE POP PUSH2 0x15D9 CALLER PUSH1 0x9 PUSH0 SWAP1 SLOAD SWAP1 PUSH2 0x100 EXP SWAP1 DIV PUSH20 0xFFFFFFFFFFFFFFFFFFFFFFFFFFFFFFFFFFFFFFFF AND DUP7 PUSH2 0x20AB JUMP JUMPDEST JUMPDEST JUMPDEST JUMPDEST POP POP POP POP JUMP JUMPDEST PUSH0 PUSH1 0x5 PUSH0 DUP5 PUSH20 0xFFFFFFFFFFFFFFFFFFFFFFFFFFFFFFFFFFFFFFFF AND PUSH20 0xFFFFFFFFFFFFFFFFFFFFFFFFFFFFFFFFFFFFFFFF AND DUP2 MSTORE PUSH1 0x20 ADD SWAP1 DUP2 MSTORE PUSH1 0x20 ADD PUSH0 KECCAK256 PUSH0 DUP4 PUSH20 0xFFFFFFFFFFFFFFFFFFFFFFFFFFFFFFFFFFFFFFFF AND PUSH20 0xFFFFFFFFFFFFFFFFFFFFFFFFFFFFFFFFFFFFFFFF AND DUP2 MSTORE PUSH1 0x20 ADD SWAP1 DUP2 MSTORE PUSH1 0x20 ADD PUSH0 KECCAK256 PUSH0 SWAP1 SLOAD SWAP1 PUSH2 0x100 EXP SWAP1 DIV PUSH1 0xFF AND SWAP1 POP SWAP3 SWAP2 POP POP JUMP JUMPDEST DUP1 DUP1 PUSH1 0x8 PUSH0 CALLER PUSH20 0xFFFFFFFFFFFFFFFFFFFFFFFFFFFFFFFFFFFFFFFF AND PUSH20 0xFFFFFFFFFFFFFFFFFFFFFFFFFFFFFFFFFFFFFFFF AND DUP2 MSTORE PUSH1 0x20 ADD SWAP1 DUP2 MSTORE PUSH1 0x20 ADD PUSH0 KECCAK256 PUSH0 ADD SLOAD EQ PUSH2 0x16F2 JUMPI PUSH1 0x40 MLOAD PUSH32 0x8C379A000000000000000000000000000000000000000000000000000000000 DUP2 MSTORE PUSH1 0x4 ADD PUSH2 0x16E9 SWAP1 PUSH2 0x39C8 JUMP JUMPDEST PUSH1 0x40 MLOAD DUP1 SWAP2 SUB SWAP1 REVERT JUMPDEST PUSH0 PUSH1 0x8 PUSH0 CALLER PUSH20 0xFFFFFFFFFFFFFFFFFFFFFFFFFFFFFFFFFFFFFFFF AND PUSH20 0xFFFFFFFFFFFFFFFFFFFFFFFFFFFFFFFFFFFFFFFF AND DUP2 MSTORE PUSH1 0x20 ADD SWAP1 DUP2 MSTORE PUSH1 0x20 ADD PUSH0 KECCAK256 SWAP1 POP DUP1 PUSH1 0x4 ADD PUSH1 0x1 SWAP1 SLOAD SWAP1 PUSH2 0x100 EXP SWAP1 DIV PUSH1 0xFF AND PUSH2 0x1783 JUMPI PUSH1 0x40 MLOAD PUSH32 0x8C379A000000000000000000000000000000000000000000000000000000000 DUP2 MSTORE PUSH1 0x4 ADD PUSH2 0x177A SWAP1 PUSH2 0x380B JUMP JUMPDEST PUSH1 0x40 MLOAD DUP1 SWAP2 SUB SWAP1 REVERT JUMPDEST DUP1 PUSH1 0x4 ADD PUSH0 SWAP1 SLOAD SWAP1 PUSH2 0x100 EXP SWAP1 DIV PUSH1 0xFF AND PUSH2 0x17D3 JUMPI PUSH1 0x40 MLOAD PUSH32 0x8C379A000000000000000000000000000000000000000000000000000000000 DUP2 MSTORE PUSH1 0x4 ADD PUSH2 0x17CA SWAP1 PUSH2 0x3A98 JUMP JUMPDEST PUSH1 0x40 MLOAD DUP1 SWAP2 SUB SWAP1 REVERT JUMPDEST DUP1 PUSH1 0x3 ADD SLOAD TIMESTAMP GT ISZERO PUSH2 0x181A JUMPI PUSH1 0x40 MLOAD PUSH32 0x8C379A000000000000000000000000000000000000000000000000000000000 DUP2 MSTORE PUSH1 0x4 ADD PUSH2 0x1811 SWAP1 PUSH2 0x3B00 JUMP JUMPDEST PUSH1 0x40 MLOAD DUP1 SWAP2 SUB SWAP1 REVERT JUMPDEST DUP1 PUSH1 0x2 ADD SLOAD CALLVALUE EQ PUSH2 0x1860 JUMPI PUSH1 0x40 MLOAD PUSH32 0x8C379A000000000000000000000000000000000000000000000000000000000 DUP2 MSTORE PUSH1 0x4 ADD PUSH2 0x1857 SWAP1 PUSH2 0x3770 JUMP JUMPDEST PUSH1 0x40 MLOAD DUP1 SWAP2 SUB SWAP1 REVERT JUMPDEST PUSH3 0x278D00 DUP2 PUSH1 0x3 ADD SLOAD PUSH2 0x1873 SWAP2 SWAP1 PUSH2 0x378E JUMP JUMPDEST DUP2 PUSH1 0x3 ADD DUP2 SWAP1 SSTORE POP PUSH1 0x9 PUSH0 SWAP1 SLOAD SWAP1 PUSH2 0x100 EXP SWAP1 DIV PUSH20 0xFFFFFFFFFFFFFFFFFFFFFFFFFFFFFFFFFFFFFFFF AND PUSH20 0xFFFFFFFFFFFFFFFFFFFFFFFFFFFFFFFFFFFFFFFF AND PUSH2 0x8FC CALLVALUE SWAP1 DUP2 ISZERO MUL SWAP1 PUSH1 0x40 MLOAD PUSH0 PUSH1 0x40 MLOAD DUP1 DUP4 SUB DUP2 DUP6 DUP9 DUP9 CALL SWAP4 POP POP POP POP ISZERO DUP1 ISZERO PUSH2 0x18DF JUMPI RETURNDATASIZE PUSH0 DUP1 RETURNDATACOPY RETURNDATASIZE PUSH0 REVERT JUMPDEST POP POP POP POP JUMP JUMPDEST PUSH1 0x9 PUSH0 SWAP1 SLOAD SWAP1 PUSH2 0x100 EXP SWAP1 DIV PUSH20 0xFFFFFFFFFFFFFFFFFFFFFFFFFFFFFFFFFFFFFFFF AND PUSH20 0xFFFFFFFFFFFFFFFFFFFFFFFFFFFFFFFFFFFFFFFF AND CALLER PUSH20 0xFFFFFFFFFFFFFFFFFFFFFFFFFFFFFFFFFFFFFFFF AND EQ PUSH2 0x1974 JUMPI PUSH1 0x40 MLOAD PUSH32 0x8C379A000000000000000000000000000000000000000000000000000000000 DUP2 MSTORE PUSH1 0x4 ADD PUSH2 0x196B SWAP1 PUSH2 0x342E JUMP JUMPDEST PUSH1 0x40 MLOAD DUP1 SWAP2 SUB SWAP1 REVERT JUMPDEST PUSH0 PUSH1 0x8 PUSH0 DUP4 PUSH20 0xFFFFFFFFFFFFFFFFFFFFFFFFFFFFFFFFFFFFFFFF AND PUSH20 0xFFFFFFFFFFFFFFFFFFFFFFFFFFFFFFFFFFFFFFFF AND DUP2 MSTORE PUSH1 0x20 ADD SWAP1 DUP2 MSTORE PUSH1 0x20 ADD PUSH0 KECCAK256 SWAP1 POP DUP1 PUSH1 0x4 ADD PUSH1 0x1 SWAP1 SLOAD SWAP1 PUSH2 0x100 EXP SWAP1 DIV PUSH1 0xFF AND PUSH2 0x1A05 JUMPI PUSH1 0x40 MLOAD PUSH32 0x8C379A000000000000000000000000000000000000000000000000000000000 DUP2 MSTORE PUSH1 0x4 ADD PUSH2 0x19FC SWAP1 PUSH2 0x3A30 JUMP JUMPDEST PUSH1 0x40 MLOAD DUP1 SWAP2 SUB SWAP1 REVERT JUMPDEST DUP1 PUSH1 0x4 ADD PUSH0 SWAP1 SLOAD SWAP1 PUSH2 0x100 EXP SWAP1 DIV PUSH1 0xFF AND ISZERO PUSH2 0x1A56 JUMPI PUSH1 0x40 MLOAD PUSH32 0x8C379A000000000000000000000000000000000000000000000000000000000 DUP2 MSTORE PUSH1 0x4 ADD PUSH2 0x1A4D SWAP1 PUSH2 0x3B68 JUMP JUMPDEST PUSH1 0x40 MLOAD DUP1 SWAP2 SUB SWAP1 REVERT JUMPDEST PUSH1 0x1 DUP2 PUSH1 0x4 ADD PUSH0 PUSH2 0x100 EXP DUP2 SLOAD DUP2 PUSH1 0xFF MUL NOT AND SWAP1 DUP4 ISZERO ISZERO MUL OR SWAP1 SSTORE POP PUSH1 0x1 DUP2 PUSH1 0x4 ADD PUSH1 0x1 PUSH2 0x100 EXP DUP2 SLOAD DUP2 PUSH1 0xFF MUL NOT AND SWAP1 DUP4 ISZERO ISZERO MUL OR SWAP1 SSTORE POP PUSH1 0x9 PUSH0 SWAP1 SLOAD SWAP1 PUSH2 0x100 EXP SWAP1 DIV PUSH20 0xFFFFFFFFFFFFFFFFFFFFFFFFFFFFFFFFFFFFFFFF AND PUSH20 0xFFFFFFFFFFFFFFFFFFFFFFFFFFFFFFFFFFFFFFFF AND PUSH2 0x8FC PUSH1 0x4 DUP4 PUSH1 0x2 ADD SLOAD PUSH2 0x1ADB SWAP2 SWAP1 PUSH2 0x36E5 JUMP JUMPDEST SWAP1 DUP2 ISZERO MUL SWAP1 PUSH1 0x40 MLOAD PUSH0 PUSH1 0x40 MLOAD DUP1 DUP4 SUB DUP2 DUP6 DUP9 DUP9 CALL SWAP4 POP POP POP POP ISZERO DUP1 ISZERO PUSH2 0x1B03 JUMPI RETURNDATASIZE PUSH0 DUP1 RETURNDATACOPY RETURNDATASIZE PUSH0 REVERT JUMPDEST POP POP POP JUMP JUMPDEST PUSH1 0x7 PUSH1 0x20 MSTORE DUP1 PUSH0 MSTORE PUSH1 0x40 PUSH0 KECCAK256 PUSH0 SWAP2 POP SWAP1 POP DUP1 PUSH0 ADD SLOAD SWAP1 DUP1 PUSH1 0x1 ADD DUP1 SLOAD PUSH2 0x1B2D SWAP1 PUSH2 0x3359 JUMP JUMPDEST DUP1 PUSH1 0x1F ADD PUSH1 0x20 DUP1 SWAP2 DIV MUL PUSH1 0x20 ADD PUSH1 0x40 MLOAD SWAP1 DUP2 ADD PUSH1 0x40 MSTORE DUP1 SWAP3 SWAP2 SWAP1 DUP2 DUP2 MSTORE PUSH1 0x20 ADD DUP3 DUP1 SLOAD PUSH2 0x1B59 SWAP1 PUSH2 0x3359 JUMP JUMPDEST DUP1 ISZERO PUSH2 0x1BA4 JUMPI DUP1 PUSH1 0x1F LT PUSH2 0x1B7B JUMPI PUSH2 0x100 DUP1 DUP4 SLOAD DIV MUL DUP4 MSTORE SWAP2 PUSH1 0x20 ADD SWAP2 PUSH2 0x1BA4 JUMP JUMPDEST DUP3 ADD SWAP2 SWAP1 PUSH0 MSTORE PUSH1 0x20 PUSH0 KECCAK256 SWAP1 JUMPDEST DUP2 SLOAD DUP2 MSTORE SWAP1 PUSH1 0x1 ADD SWAP1 PUSH1 0x20 ADD DUP1 DUP4 GT PUSH2 0x1B87 JUMPI DUP3 SWAP1 SUB PUSH1 0x1F AND DUP3 ADD SWAP2 JUMPDEST POP POP POP POP POP SWAP1 DUP1 PUSH1 0x2 ADD DUP1 SLOAD PUSH2 0x1BB9 SWAP1 PUSH2 0x3359 JUMP JUMPDEST DUP1 PUSH1 0x1F ADD PUSH1 0x20 DUP1 SWAP2 DIV MUL PUSH1 0x20 ADD PUSH1 0x40 MLOAD SWAP1 DUP2 ADD PUSH1 0x40 MSTORE DUP1 SWAP3 SWAP2 SWAP1 DUP2 DUP2 MSTORE PUSH1 0x20 ADD DUP3 DUP1 SLOAD PUSH2 0x1BE5 SWAP1 PUSH2 0x3359 JUMP JUMPDEST DUP1 ISZERO PUSH2 0x1C30 JUMPI DUP1 PUSH1 0x1F LT PUSH2 0x1C07 JUMPI PUSH2 0x100 DUP1 DUP4 SLOAD DIV MUL DUP4 MSTORE SWAP2 PUSH1 0x20 ADD SWAP2 PUSH2 0x1C30 JUMP JUMPDEST DUP3 ADD SWAP2 SWAP1 PUSH0 MSTORE PUSH1 0x20 PUSH0 KECCAK256 SWAP1 JUMPDEST DUP2 SLOAD DUP2 MSTORE SWAP1 PUSH1 0x1 ADD SWAP1 PUSH1 0x20 ADD DUP1 DUP4 GT PUSH2 0x1C13 JUMPI DUP3 SWAP1 SUB PUSH1 0x1F AND DUP3 ADD SWAP2 JUMPDEST POP POP POP POP POP SWAP1 DUP1 PUSH1 0x3 ADD SLOAD SWAP1 DUP1 PUSH1 0x4 ADD SLOAD SWAP1 DUP1 PUSH1 0x5 ADD SLOAD SWAP1 POP DUP7 JUMP JUMPDEST PUSH0 PUSH32 0x1FFC9A700000000000000000000000000000000000000000000000000000000 PUSH28 0xFFFFFFFFFFFFFFFFFFFFFFFFFFFFFFFFFFFFFFFFFFFFFFFFFFFFFFFF NOT AND DUP3 PUSH28 0xFFFFFFFFFFFFFFFFFFFFFFFFFFFFFFFFFFFFFFFFFFFFFFFFFFFFFFFF NOT AND EQ SWAP1 POP SWAP2 SWAP1 POP JUMP JUMPDEST PUSH0 DUP1 PUSH2 0x1CC0 DUP4 PUSH2 0x2608 JUMP JUMPDEST SWAP1 POP PUSH0 PUSH20 0xFFFFFFFFFFFFFFFFFFFFFFFFFFFFFFFFFFFFFFFF AND DUP2 PUSH20 0xFFFFFFFFFFFFFFFFFFFFFFFFFFFFFFFFFFFFFFFF AND SUB PUSH2 0x1D32 JUMPI DUP3 PUSH1 0x40 MLOAD PUSH32 0x7E27328900000000000000000000000000000000000000000000000000000000 DUP2 MSTORE PUSH1 0x4 ADD PUSH2 0x1D29 SWAP2 SWAP1 PUSH2 0x2D55 JUMP JUMPDEST PUSH1 0x40 MLOAD DUP1 SWAP2 SUB SWAP1 REVERT JUMPDEST DUP1 SWAP2 POP POP SWAP2 SWAP1 POP JUMP JUMPDEST PUSH0 PUSH1 0x4 PUSH0 DUP4 DUP2 MSTORE PUSH1 0x20 ADD SWAP1 DUP2 MSTORE PUSH1 0x20 ADD PUSH0 KECCAK256 PUSH0 SWAP1 SLOAD SWAP1 PUSH2 0x100 EXP SWAP1 DIV PUSH20 0xFFFFFFFFFFFFFFFFFFFFFFFFFFFFFFFFFFFFFFFF AND SWAP1 POP SWAP2 SWAP1 POP JUMP JUMPDEST PUSH0 CALLER SWAP1 POP SWAP1 JUMP JUMPDEST PUSH2 0x1D88 DUP4 DUP4 DUP4 PUSH1 0x1 PUSH2 0x2641 JUMP JUMPDEST POP POP POP JUMP JUMPDEST PUSH0 DUP1 PUSH2 0x1D98 DUP5 PUSH2 0x2608 JUMP JUMPDEST SWAP1 POP PUSH0 PUSH20 0xFFFFFFFFFFFFFFFFFFFFFFFFFFFFFFFFFFFFFFFF AND DUP4 PUSH20 0xFFFFFFFFFFFFFFFFFFFFFFFFFFFFFFFFFFFFFFFF AND EQ PUSH2 0x1DD9 JUMPI PUSH2 0x1DD8 DUP2 DUP5 DUP7 PUSH2 0x2800 JUMP JUMPDEST JUMPDEST PUSH0 PUSH20 0xFFFFFFFFFFFFFFFFFFFFFFFFFFFFFFFFFFFFFFFF AND DUP2 PUSH20 0xFFFFFFFFFFFFFFFFFFFFFFFFFFFFFFFFFFFFFFFF AND EQ PUSH2 0x1E64 JUMPI PUSH2 0x1E18 PUSH0 DUP6 PUSH0 DUP1 PUSH2 0x2641 JUMP JUMPDEST PUSH1 0x1 PUSH1 0x3 PUSH0 DUP4 PUSH20 0xFFFFFFFFFFFFFFFFFFFFFFFFFFFFFFFFFFFFFFFF AND PUSH20 0xFFFFFFFFFFFFFFFFFFFFFFFFFFFFFFFFFFFFFFFF AND DUP2 MSTORE PUSH1 0x20 ADD SWAP1 DUP2 MSTORE PUSH1 0x20 ADD PUSH0 KECCAK256 PUSH0 DUP3 DUP3 SLOAD SUB SWAP3 POP POP DUP2 SWAP1 SSTORE POP JUMPDEST PUSH0 PUSH20 0xFFFFFFFFFFFFFFFFFFFFFFFFFFFFFFFFFFFFFFFF AND DUP6 PUSH20 0xFFFFFFFFFFFFFFFFFFFFFFFFFFFFFFFFFFFFFFFF AND EQ PUSH2 0x1EE3 JUMPI PUSH1 0x1 PUSH1 0x3 PUSH0 DUP8 PUSH20 0xFFFFFFFFFFFFFFFFFFFFFFFFFFFFFFFFFFFFFFFF AND PUSH20 0xFFFFFFFFFFFFFFFFFFFFFFFFFFFFFFFFFFFFFFFF AND DUP2 MSTORE PUSH1 0x20 ADD SWAP1 DUP2 MSTORE PUSH1 0x20 ADD PUSH0 KECCAK256 PUSH0 DUP3 DUP3 SLOAD ADD SWAP3 POP POP DUP2 SWAP1 SSTORE POP JUMPDEST DUP5 PUSH1 0x2 PUSH0 DUP7 DUP2 MSTORE PUSH1 0x20 ADD SWAP1 DUP2 MSTORE PUSH1 0x20 ADD PUSH0 KECCAK256 PUSH0 PUSH2 0x100 EXP DUP2 SLOAD DUP2 PUSH20 0xFFFFFFFFFFFFFFFFFFFFFFFFFFFFFFFFFFFFFFFF MUL NOT AND SWAP1 DUP4 PUSH20 0xFFFFFFFFFFFFFFFFFFFFFFFFFFFFFFFFFFFFFFFF AND MUL OR SWAP1 SSTORE POP DUP4 DUP6 PUSH20 0xFFFFFFFFFFFFFFFFFFFFFFFFFFFFFFFFFFFFFFFF AND DUP3 PUSH20 0xFFFFFFFFFFFFFFFFFFFFFFFFFFFFFFFFFFFFFFFF AND PUSH32 0xDDF252AD1BE2C89B69C2B068FC378DAA952BA7F163C4A11628F55A4DF523B3EF PUSH1 0x40 MLOAD PUSH1 0x40 MLOAD DUP1 SWAP2 SUB SWAP1 LOG4 DUP1 SWAP2 POP POP SWAP4 SWAP3 POP POP POP JUMP JUMPDEST PUSH1 0x1 DUP2 PUSH0 ADD PUSH0 DUP3 DUP3 SLOAD ADD SWAP3 POP POP DUP2 SWAP1 SSTORE POP POP JUMP JUMPDEST PUSH0 DUP2 PUSH0 ADD SLOAD SWAP1 POP SWAP2 SWAP1 POP JUMP JUMPDEST PUSH0 PUSH20 0xFFFFFFFFFFFFFFFFFFFFFFFFFFFFFFFFFFFFFFFF AND DUP3 PUSH20 0xFFFFFFFFFFFFFFFFFFFFFFFFFFFFFFFFFFFFFFFF AND SUB PUSH2 0x2028 JUMPI PUSH0 PUSH1 0x40 MLOAD PUSH32 0x64A0AE9200000000000000000000000000000000000000000000000000000000 DUP2 MSTORE PUSH1 0x4 ADD PUSH2 0x201F SWAP2 SWAP1 PUSH2 0x2BD7 JUMP JUMPDEST PUSH1 0x40 MLOAD DUP1 SWAP2 SUB SWAP1 REVERT JUMPDEST PUSH0 PUSH2 0x2034 DUP4 DUP4 PUSH0 PUSH2 0x1D8D JUMP JUMPDEST SWAP1 POP PUSH0 PUSH20 0xFFFFFFFFFFFFFFFFFFFFFFFFFFFFFFFFFFFFFFFF AND DUP2 PUSH20 0xFFFFFFFFFFFFFFFFFFFFFFFFFFFFFFFFFFFFFFFF AND EQ PUSH2 0x20A6 JUMPI PUSH0 PUSH1 0x40 MLOAD PUSH32 0x73C6AC6E00000000000000000000000000000000000000000000000000000000 DUP2 MSTORE PUSH1 0x4 ADD PUSH2 0x209D SWAP2 SWAP1 PUSH2 0x2BD7 JUMP JUMPDEST PUSH1 0x40 MLOAD DUP1 SWAP2 SUB SWAP1 REVERT JUMPDEST POP POP POP JUMP JUMPDEST PUSH0 PUSH20 0xFFFFFFFFFFFFFFFFFFFFFFFFFFFFFFFFFFFFFFFF AND DUP3 PUSH20 0xFFFFFFFFFFFFFFFFFFFFFFFFFFFFFFFFFFFFFFFF AND SUB PUSH2 0x211B JUMPI PUSH0 PUSH1 0x40 MLOAD PUSH32 0x64A0AE9200000000000000000000000000000000000000000000000000000000 DUP2 MSTORE PUSH1 0x4 ADD PUSH2 0x2112 SWAP2 SWAP1 PUSH2 0x2BD7 JUMP JUMPDEST PUSH1 0x40 MLOAD DUP1 SWAP2 SUB SWAP1 REVERT JUMPDEST PUSH0 PUSH2 0x2127 DUP4 DUP4 PUSH0 PUSH2 0x1D8D JUMP JUMPDEST SWAP1 POP PUSH0 PUSH20 0xFFFFFFFFFFFFFFFFFFFFFFFFFFFFFFFFFFFFFFFF AND DUP2 PUSH20 0xFFFFFFFFFFFFFFFFFFFFFFFFFFFFFFFFFFFFFFFF AND SUB PUSH2 0x2199 JUMPI DUP2 PUSH1 0x40 MLOAD PUSH32 0x7E27328900000000000000000000000000000000000000000000000000000000 DUP2 MSTORE PUSH1 0x4 ADD PUSH2 0x2190 SWAP2 SWAP1 PUSH2 0x2D55 JUMP JUMPDEST PUSH1 0x40 MLOAD DUP1 SWAP2 SUB SWAP1 REVERT JUMPDEST DUP4 PUSH20 0xFFFFFFFFFFFFFFFFFFFFFFFFFFFFFFFFFFFFFFFF AND DUP2 PUSH20 0xFFFFFFFFFFFFFFFFFFFFFFFFFFFFFFFFFFFFFFFF AND EQ PUSH2 0x220D JUMPI DUP4 DUP3 DUP3 PUSH1 0x40 MLOAD PUSH32 0x64283D7B00000000000000000000000000000000000000000000000000000000 DUP2 MSTORE PUSH1 0x4 ADD PUSH2 0x2204 SWAP4 SWAP3 SWAP2 SWAP1 PUSH2 0x3389 JUMP JUMPDEST PUSH1 0x40 MLOAD DUP1 SWAP2 SUB SWAP1 REVERT JUMPDEST POP POP POP POP JUMP JUMPDEST PUSH0 PUSH20 0xFFFFFFFFFFFFFFFFFFFFFFFFFFFFFFFFFFFFFFFF AND DUP3 PUSH20 0xFFFFFFFFFFFFFFFFFFFFFFFFFFFFFFFFFFFFFFFF AND SUB PUSH2 0x2283 JUMPI DUP2 PUSH1 0x40 MLOAD PUSH32 0x5B08BA1800000000000000000000000000000000000000000000000000000000 DUP2 MSTORE PUSH1 0x4 ADD PUSH2 0x227A SWAP2 SWAP1 PUSH2 0x2BD7 JUMP JUMPDEST PUSH1 0x40 MLOAD DUP1 SWAP2 SUB SWAP1 REVERT JUMPDEST DUP1 PUSH1 0x5 PUSH0 DUP6 PUSH20 0xFFFFFFFFFFFFFFFFFFFFFFFFFFFFFFFFFFFFFFFF AND PUSH20 0xFFFFFFFFFFFFFFFFFFFFFFFFFFFFFFFFFFFFFFFF AND DUP2 MSTORE PUSH1 0x20 ADD SWAP1 DUP2 MSTORE PUSH1 0x20 ADD PUSH0 KECCAK256 PUSH0 DUP5 PUSH20 0xFFFFFFFFFFFFFFFFFFFFFFFFFFFFFFFFFFFFFFFF AND PUSH20 0xFFFFFFFFFFFFFFFFFFFFFFFFFFFFFFFFFFFFFFFF AND DUP2 MSTORE PUSH1 0x20 ADD SWAP1 DUP2 MSTORE PUSH1 0x20 ADD PUSH0 KECCAK256 PUSH0 PUSH2 0x100 EXP DUP2 SLOAD DUP2 PUSH1 0xFF MUL NOT AND SWAP1 DUP4 ISZERO ISZERO MUL OR SWAP1 SSTORE POP DUP2 PUSH20 0xFFFFFFFFFFFFFFFFFFFFFFFFFFFFFFFFFFFFFFFF AND DUP4 PUSH20 0xFFFFFFFFFFFFFFFFFFFFFFFFFFFFFFFFFFFFFFFF AND PUSH32 0x17307EAB39AB6107E8899845AD3D59BD9653F200F220920489CA2B5937696C31 DUP4 PUSH1 0x40 MLOAD PUSH2 0x236F SWAP2 SWAP1 PUSH2 0x2B7F JUMP JUMPDEST PUSH1 0x40 MLOAD DUP1 SWAP2 SUB SWAP1 LOG3 POP POP POP JUMP JUMPDEST PUSH0 DUP4 PUSH20 0xFFFFFFFFFFFFFFFFFFFFFFFFFFFFFFFFFFFFFFFF AND EXTCODESIZE GT ISZERO PUSH2 0x2521 JUMPI DUP3 PUSH20 0xFFFFFFFFFFFFFFFFFFFFFFFFFFFFFFFFFFFFFFFF AND PUSH4 0x150B7A02 DUP7 DUP7 DUP6 DUP6 PUSH1 0x40 MLOAD DUP6 PUSH4 0xFFFFFFFF AND PUSH1 0xE0 SHL DUP2 MSTORE PUSH1 0x4 ADD PUSH2 0x23DA SWAP5 SWAP4 SWAP3 SWAP2 SWAP1 PUSH2 0x3BD8 JUMP JUMPDEST PUSH1 0x20 PUSH1 0x40 MLOAD DUP1 DUP4 SUB DUP2 PUSH0 DUP8 GAS CALL SWAP3 POP POP POP DUP1 ISZERO PUSH2 0x2415 JUMPI POP PUSH1 0x40 MLOAD RETURNDATASIZE PUSH1 0x1F NOT PUSH1 0x1F DUP3 ADD AND DUP3 ADD DUP1 PUSH1 0x40 MSTORE POP DUP2 ADD SWAP1 PUSH2 0x2412 SWAP2 SWAP1 PUSH2 0x3C36 JUMP JUMPDEST PUSH1 0x1 JUMPDEST PUSH2 0x2496 JUMPI RETURNDATASIZE DUP1 PUSH0 DUP2 EQ PUSH2 0x2443 JUMPI PUSH1 0x40 MLOAD SWAP2 POP PUSH1 0x1F NOT PUSH1 0x3F RETURNDATASIZE ADD AND DUP3 ADD PUSH1 0x40 MSTORE RETURNDATASIZE DUP3 MSTORE RETURNDATASIZE PUSH0 PUSH1 0x20 DUP5 ADD RETURNDATACOPY PUSH2 0x2448 JUMP JUMPDEST PUSH1 0x60 SWAP2 POP JUMPDEST POP PUSH0 DUP2 MLOAD SUB PUSH2 0x248E JUMPI DUP4 PUSH1 0x40 MLOAD PUSH32 0x64A0AE9200000000000000000000000000000000000000000000000000000000 DUP2 MSTORE PUSH1 0x4 ADD PUSH2 0x2485 SWAP2 SWAP1 PUSH2 0x2BD7 JUMP JUMPDEST PUSH1 0x40 MLOAD DUP1 SWAP2 SUB SWAP1 REVERT JUMPDEST DUP1 MLOAD DUP2 PUSH1 0x20 ADD REVERT JUMPDEST PUSH4 0x150B7A02 PUSH1 0xE0 SHL PUSH28 0xFFFFFFFFFFFFFFFFFFFFFFFFFFFFFFFFFFFFFFFFFFFFFFFFFFFFFFFF NOT AND DUP2 PUSH28 0xFFFFFFFFFFFFFFFFFFFFFFFFFFFFFFFFFFFFFFFFFFFFFFFFFFFFFFFF NOT AND EQ PUSH2 0x251F JUMPI DUP4 PUSH1 0x40 MLOAD PUSH32 0x64A0AE9200000000000000000000000000000000000000000000000000000000 DUP2 MSTORE PUSH1 0x4 ADD PUSH2 0x2516 SWAP2 SWAP1 PUSH2 0x2BD7 JUMP JUMPDEST PUSH1 0x40 MLOAD DUP1 SWAP2 SUB SWAP1 REVERT JUMPDEST POP JUMPDEST POP POP POP POP POP JUMP JUMPDEST PUSH1 0x60 PUSH1 0x40 MLOAD DUP1 PUSH1 0x20 ADD PUSH1 0x40 MSTORE DUP1 PUSH0 DUP2 MSTORE POP SWAP1 POP SWAP1 JUMP JUMPDEST PUSH1 0x60 PUSH0 PUSH1 0x1 PUSH2 0x254C DUP5 PUSH2 0x28C3 JUMP JUMPDEST ADD SWAP1 POP PUSH0 DUP2 PUSH8 0xFFFFFFFFFFFFFFFF DUP2 GT ISZERO PUSH2 0x256A JUMPI PUSH2 0x2569 PUSH2 0x2DC6 JUMP JUMPDEST JUMPDEST PUSH1 0x40 MLOAD SWAP1 DUP1 DUP3 MSTORE DUP1 PUSH1 0x1F ADD PUSH1 0x1F NOT AND PUSH1 0x20 ADD DUP3 ADD PUSH1 0x40 MSTORE DUP1 ISZERO PUSH2 0x259C JUMPI DUP2 PUSH1 0x20 ADD PUSH1 0x1 DUP3 MUL DUP1 CALLDATASIZE DUP4 CALLDATACOPY DUP1 DUP3 ADD SWAP2 POP POP SWAP1 POP JUMPDEST POP SWAP1 POP PUSH0 DUP3 PUSH1 0x20 ADD DUP3 ADD SWAP1 POP JUMPDEST PUSH1 0x1 ISZERO PUSH2 0x25FD JUMPI DUP1 DUP1 PUSH1 0x1 SWAP1 SUB SWAP2 POP POP PUSH32 0x3031323334353637383961626364656600000000000000000000000000000000 PUSH1 0xA DUP7 MOD BYTE DUP2 MSTORE8 PUSH1 0xA DUP6 DUP2 PUSH2 0x25F2 JUMPI PUSH2 0x25F1 PUSH2 0x3891 JUMP JUMPDEST JUMPDEST DIV SWAP5 POP PUSH0 DUP6 SUB PUSH2 0x25A9 JUMPI JUMPDEST DUP2 SWAP4 POP POP POP POP SWAP2 SWAP1 POP JUMP JUMPDEST PUSH0 PUSH1 0x2 PUSH0 DUP4 DUP2 MSTORE PUSH1 0x20 ADD SWAP1 DUP2 MSTORE PUSH1 0x20 ADD PUSH0 KECCAK256 PUSH0 SWAP1 SLOAD SWAP1 PUSH2 0x100 EXP SWAP1 DIV PUSH20 0xFFFFFFFFFFFFFFFFFFFFFFFFFFFFFFFFFFFFFFFF AND SWAP1 POP SWAP2 SWAP1 POP JUMP JUMPDEST DUP1 DUP1 PUSH2 0x2679 JUMPI POP PUSH0 PUSH20 0xFFFFFFFFFFFFFFFFFFFFFFFFFFFFFFFFFFFFFFFF AND DUP3 PUSH20 0xFFFFFFFFFFFFFFFFFFFFFFFFFFFFFFFFFFFFFFFF AND EQ ISZERO JUMPDEST ISZERO PUSH2 0x27AB JUMPI PUSH0 PUSH2 0x2688 DUP5 PUSH2 0x1CB5 JUMP JUMPDEST SWAP1 POP PUSH0 PUSH20 0xFFFFFFFFFFFFFFFFFFFFFFFFFFFFFFFFFFFFFFFF AND DUP4 PUSH20 0xFFFFFFFFFFFFFFFFFFFFFFFFFFFFFFFFFFFFFFFF AND EQ ISZERO DUP1 ISZERO PUSH2 0x26F2 JUMPI POP DUP3 PUSH20 0xFFFFFFFFFFFFFFFFFFFFFFFFFFFFFFFFFFFFFFFF AND DUP2 PUSH20 0xFFFFFFFFFFFFFFFFFFFFFFFFFFFFFFFFFFFFFFFF AND EQ ISZERO JUMPDEST DUP1 ISZERO PUSH2 0x2705 JUMPI POP PUSH2 0x2703 DUP2 DUP5 PUSH2 0x15E2 JUMP JUMPDEST ISZERO JUMPDEST ISZERO PUSH2 0x2747 JUMPI DUP3 PUSH1 0x40 MLOAD PUSH32 0xA9FBF51F00000000000000000000000000000000000000000000000000000000 DUP2 MSTORE PUSH1 0x4 ADD PUSH2 0x273E SWAP2 SWAP1 PUSH2 0x2BD7 JUMP JUMPDEST PUSH1 0x40 MLOAD DUP1 SWAP2 SUB SWAP1 REVERT JUMPDEST DUP2 ISZERO PUSH2 0x27A9 JUMPI DUP4 DUP6 PUSH20 0xFFFFFFFFFFFFFFFFFFFFFFFFFFFFFFFFFFFFFFFF AND DUP3 PUSH20 0xFFFFFFFFFFFFFFFFFFFFFFFFFFFFFFFFFFFFFFFF AND PUSH32 0x8C5BE1E5EBEC7D5BD14F71427D1E84F3DD0314C0F7B2291E5B200AC8C7C3B925 PUSH1 0x40 MLOAD PUSH1 0x40 MLOAD DUP1 SWAP2 SUB SWAP1 LOG4 JUMPDEST POP JUMPDEST DUP4 PUSH1 0x4 PUSH0 DUP6 DUP2 MSTORE PUSH1 0x20 ADD SWAP1 DUP2 MSTORE PUSH1 0x20 ADD PUSH0 KECCAK256 PUSH0 PUSH2 0x100 EXP DUP2 SLOAD DUP2 PUSH20 0xFFFFFFFFFFFFFFFFFFFFFFFFFFFFFFFFFFFFFFFF MUL NOT AND SWAP1 DUP4 PUSH20 0xFFFFFFFFFFFFFFFFFFFFFFFFFFFFFFFFFFFFFFFF AND MUL OR SWAP1 SSTORE POP POP POP POP POP JUMP JUMPDEST PUSH2 0x280B DUP4 DUP4 DUP4 PUSH2 0x2A14 JUMP JUMPDEST PUSH2 0x28BE JUMPI PUSH0 PUSH20 0xFFFFFFFFFFFFFFFFFFFFFFFFFFFFFFFFFFFFFFFF AND DUP4 PUSH20 0xFFFFFFFFFFFFFFFFFFFFFFFFFFFFFFFFFFFFFFFF AND SUB PUSH2 0x287F JUMPI DUP1 PUSH1 0x40 MLOAD PUSH32 0x7E27328900000000000000000000000000000000000000000000000000000000 DUP2 MSTORE PUSH1 0x4 ADD PUSH2 0x2876 SWAP2 SWAP1 PUSH2 0x2D55 JUMP JUMPDEST PUSH1 0x40 MLOAD DUP1 SWAP2 SUB SWAP1 REVERT JUMPDEST DUP2 DUP2 PUSH1 0x40 MLOAD PUSH32 0x177E802F00000000000000000000000000000000000000000000000000000000 DUP2 MSTORE PUSH1 0x4 ADD PUSH2 0x28B5 SWAP3 SWAP2 SWAP1 PUSH2 0x3C61 JUMP JUMPDEST PUSH1 0x40 MLOAD DUP1 SWAP2 SUB SWAP1 REVERT JUMPDEST POP POP POP JUMP JUMPDEST PUSH0 DUP1 PUSH0 SWAP1 POP PUSH27 0x184F03E93FF9F4DAA797ED6E38ED64BF6A1F010000000000000000 DUP4 LT PUSH2 0x291F JUMPI PUSH27 0x184F03E93FF9F4DAA797ED6E38ED64BF6A1F010000000000000000 DUP4 DUP2 PUSH2 0x2915 JUMPI PUSH2 0x2914 PUSH2 0x3891 JUMP JUMPDEST JUMPDEST DIV SWAP3 POP PUSH1 0x40 DUP2 ADD SWAP1 POP JUMPDEST PUSH14 0x4EE2D6D415B85ACEF8100000000 DUP4 LT PUSH2 0x295C JUMPI PUSH14 0x4EE2D6D415B85ACEF8100000000 DUP4 DUP2 PUSH2 0x2952 JUMPI PUSH2 0x2951 PUSH2 0x3891 JUMP JUMPDEST JUMPDEST DIV SWAP3 POP PUSH1 0x20 DUP2 ADD SWAP1 POP JUMPDEST PUSH7 0x2386F26FC10000 DUP4 LT PUSH2 0x298B JUMPI PUSH7 0x2386F26FC10000 DUP4 DUP2 PUSH2 0x2981 JUMPI PUSH2 0x2980 PUSH2 0x3891 JUMP JUMPDEST JUMPDEST DIV SWAP3 POP PUSH1 0x10 DUP2 ADD SWAP1 POP JUMPDEST PUSH4 0x5F5E100 DUP4 LT PUSH2 0x29B4 JUMPI PUSH4 0x5F5E100 DUP4 DUP2 PUSH2 0x29AA JUMPI PUSH2 0x29A9 PUSH2 0x3891 JUMP JUMPDEST JUMPDEST DIV SWAP3 POP PUSH1 0x8 DUP2 ADD SWAP1 POP JUMPDEST PUSH2 0x2710 DUP4 LT PUSH2 0x29D9 JUMPI PUSH2 0x2710 DUP4 DUP2 PUSH2 0x29CF JUMPI PUSH2 0x29CE PUSH2 0x3891 JUMP JUMPDEST JUMPDEST DIV SWAP3 POP PUSH1 0x4 DUP2 ADD SWAP1 POP JUMPDEST PUSH1 0x64 DUP4 LT PUSH2 0x29FC JUMPI PUSH1 0x64 DUP4 DUP2 PUSH2 0x29F2 JUMPI PUSH2 0x29F1 PUSH2 0x3891 JUMP JUMPDEST JUMPDEST DIV SWAP3 POP PUSH1 0x2 DUP2 ADD SWAP1 POP JUMPDEST PUSH1 0xA DUP4 LT PUSH2 0x2A0B JUMPI PUSH1 0x1 DUP2 ADD SWAP1 POP JUMPDEST DUP1 SWAP2 POP POP SWAP2 SWAP1 POP JUMP JUMPDEST PUSH0 DUP1 PUSH20 0xFFFFFFFFFFFFFFFFFFFFFFFFFFFFFFFFFFFFFFFF AND DUP4 PUSH20 0xFFFFFFFFFFFFFFFFFFFFFFFFFFFFFFFFFFFFFFFF AND EQ ISZERO DUP1 ISZERO PUSH2 0x2ACB JUMPI POP DUP3 PUSH20 0xFFFFFFFFFFFFFFFFFFFFFFFFFFFFFFFFFFFFFFFF AND DUP5 PUSH20 0xFFFFFFFFFFFFFFFFFFFFFFFFFFFFFFFFFFFFFFFF AND EQ DUP1 PUSH2 0x2A8C JUMPI POP PUSH2 0x2A8B DUP5 DUP5 PUSH2 0x15E2 JUMP JUMPDEST JUMPDEST DUP1 PUSH2 0x2ACA JUMPI POP DUP3 PUSH20 0xFFFFFFFFFFFFFFFFFFFFFFFFFFFFFFFFFFFFFFFF AND PUSH2 0x2AB2 DUP4 PUSH2 0x1D3B JUMP JUMPDEST PUSH20 0xFFFFFFFFFFFFFFFFFFFFFFFFFFFFFFFFFFFFFFFF AND EQ JUMPDEST JUMPDEST SWAP1 POP SWAP4 SWAP3 POP POP POP JUMP JUMPDEST PUSH0 PUSH1 0x40 MLOAD SWAP1 POP SWAP1 JUMP JUMPDEST PUSH0 DUP1 REVERT JUMPDEST PUSH0 DUP1 REVERT JUMPDEST PUSH0 PUSH32 0xFFFFFFFF00000000000000000000000000000000000000000000000000000000 DUP3 AND SWAP1 POP SWAP2 SWAP1 POP JUMP JUMPDEST PUSH2 0x2B19 DUP2 PUSH2 0x2AE5 JUMP JUMPDEST DUP2 EQ PUSH2 0x2B23 JUMPI PUSH0 DUP1 REVERT JUMPDEST POP JUMP JUMPDEST PUSH0 DUP2 CALLDATALOAD SWAP1 POP PUSH2 0x2B34 DUP2 PUSH2 0x2B10 JUMP JUMPDEST SWAP3 SWAP2 POP POP JUMP JUMPDEST PUSH0 PUSH1 0x20 DUP3 DUP5 SUB SLT ISZERO PUSH2 0x2B4F JUMPI PUSH2 0x2B4E PUSH2 0x2ADD JUMP JUMPDEST JUMPDEST PUSH0 PUSH2 0x2B5C DUP5 DUP3 DUP6 ADD PUSH2 0x2B26 JUMP JUMPDEST SWAP2 POP POP SWAP3 SWAP2 POP POP JUMP JUMPDEST PUSH0 DUP2 ISZERO ISZERO SWAP1 POP SWAP2 SWAP1 POP JUMP JUMPDEST PUSH2 0x2B79 DUP2 PUSH2 0x2B65 JUMP JUMPDEST DUP3 MSTORE POP POP JUMP JUMPDEST PUSH0 PUSH1 0x20 DUP3 ADD SWAP1 POP PUSH2 0x2B92 PUSH0 DUP4 ADD DUP5 PUSH2 0x2B70 JUMP JUMPDEST SWAP3 SWAP2 POP POP JUMP JUMPDEST PUSH0 PUSH20 0xFFFFFFFFFFFFFFFFFFFFFFFFFFFFFFFFFFFFFFFF DUP3 AND SWAP1 POP SWAP2 SWAP1 POP JUMP JUMPDEST PUSH0 PUSH2 0x2BC1 DUP3 PUSH2 0x2B98 JUMP JUMPDEST SWAP1 POP SWAP2 SWAP1 POP JUMP JUMPDEST PUSH2 0x2BD1 DUP2 PUSH2 0x2BB7 JUMP JUMPDEST DUP3 MSTORE POP POP JUMP JUMPDEST PUSH0 PUSH1 0x20 DUP3 ADD SWAP1 POP PUSH2 0x2BEA PUSH0 DUP4 ADD DUP5 PUSH2 0x2BC8 JUMP JUMPDEST SWAP3 SWAP2 POP POP JUMP JUMPDEST PUSH0 DUP2 MLOAD SWAP1 POP SWAP2 SWAP1 POP JUMP JUMPDEST PUSH0 DUP3 DUP3 MSTORE PUSH1 0x20 DUP3 ADD SWAP1 POP SWAP3 SWAP2 POP POP JUMP JUMPDEST DUP3 DUP2 DUP4 MCOPY PUSH0 DUP4 DUP4 ADD MSTORE POP POP POP JUMP JUMPDEST PUSH0 PUSH1 0x1F NOT PUSH1 0x1F DUP4 ADD AND SWAP1 POP SWAP2 SWAP1 POP JUMP JUMPDEST PUSH0 PUSH2 0x2C32 DUP3 PUSH2 0x2BF0 JUMP JUMPDEST PUSH2 0x2C3C DUP2 DUP6 PUSH2 0x2BFA JUMP JUMPDEST SWAP4 POP PUSH2 0x2C4C DUP2 DUP6 PUSH1 0x20 DUP7 ADD PUSH2 0x2C0A JUMP JUMPDEST PUSH2 0x2C55 DUP2 PUSH2 0x2C18 JUMP JUMPDEST DUP5 ADD SWAP2 POP POP SWAP3 SWAP2 POP POP JUMP JUMPDEST PUSH0 PUSH1 0x20 DUP3 ADD SWAP1 POP DUP2 DUP2 SUB PUSH0 DUP4 ADD MSTORE PUSH2 0x2C78 DUP2 DUP5 PUSH2 0x2C28 JUMP JUMPDEST SWAP1 POP SWAP3 SWAP2 POP POP JUMP JUMPDEST PUSH0 DUP2 SWAP1 POP SWAP2 SWAP1 POP JUMP JUMPDEST PUSH2 0x2C92 DUP2 PUSH2 0x2C80 JUMP JUMPDEST DUP2 EQ PUSH2 0x2C9C JUMPI PUSH0 DUP1 REVERT JUMPDEST POP JUMP JUMPDEST PUSH0 DUP2 CALLDATALOAD SWAP1 POP PUSH2 0x2CAD DUP2 PUSH2 0x2C89 JUMP JUMPDEST SWAP3 SWAP2 POP POP JUMP JUMPDEST PUSH0 PUSH1 0x20 DUP3 DUP5 SUB SLT ISZERO PUSH2 0x2CC8 JUMPI PUSH2 0x2CC7 PUSH2 0x2ADD JUMP JUMPDEST JUMPDEST PUSH0 PUSH2 0x2CD5 DUP5 DUP3 DUP6 ADD PUSH2 0x2C9F JUMP JUMPDEST SWAP2 POP POP SWAP3 SWAP2 POP POP JUMP JUMPDEST PUSH2 0x2CE7 DUP2 PUSH2 0x2BB7 JUMP JUMPDEST DUP2 EQ PUSH2 0x2CF1 JUMPI PUSH0 DUP1 REVERT JUMPDEST POP JUMP JUMPDEST PUSH0 DUP2 CALLDATALOAD SWAP1 POP PUSH2 0x2D02 DUP2 PUSH2 0x2CDE JUMP JUMPDEST SWAP3 SWAP2 POP POP JUMP JUMPDEST PUSH0 DUP1 PUSH1 0x40 DUP4 DUP6 SUB SLT ISZERO PUSH2 0x2D1E JUMPI PUSH2 0x2D1D PUSH2 0x2ADD JUMP JUMPDEST JUMPDEST PUSH0 PUSH2 0x2D2B DUP6 DUP3 DUP7 ADD PUSH2 0x2CF4 JUMP JUMPDEST SWAP3 POP POP PUSH1 0x20 PUSH2 0x2D3C DUP6 DUP3 DUP7 ADD PUSH2 0x2C9F JUMP JUMPDEST SWAP2 POP POP SWAP3 POP SWAP3 SWAP1 POP JUMP JUMPDEST PUSH2 0x2D4F DUP2 PUSH2 0x2C80 JUMP JUMPDEST DUP3 MSTORE POP POP JUMP JUMPDEST PUSH0 PUSH1 0x20 DUP3 ADD SWAP1 POP PUSH2 0x2D68 PUSH0 DUP4 ADD DUP5 PUSH2 0x2D46 JUMP JUMPDEST SWAP3 SWAP2 POP POP JUMP JUMPDEST PUSH0 DUP1 PUSH0 PUSH1 0x60 DUP5 DUP7 SUB SLT ISZERO PUSH2 0x2D85 JUMPI PUSH2 0x2D84 PUSH2 0x2ADD JUMP JUMPDEST JUMPDEST PUSH0 PUSH2 0x2D92 DUP7 DUP3 DUP8 ADD PUSH2 0x2CF4 JUMP JUMPDEST SWAP4 POP POP PUSH1 0x20 PUSH2 0x2DA3 DUP7 DUP3 DUP8 ADD PUSH2 0x2CF4 JUMP JUMPDEST SWAP3 POP POP PUSH1 0x40 PUSH2 0x2DB4 DUP7 DUP3 DUP8 ADD PUSH2 0x2C9F JUMP JUMPDEST SWAP2 POP POP SWAP3 POP SWAP3 POP SWAP3 JUMP JUMPDEST PUSH0 DUP1 REVERT JUMPDEST PUSH0 DUP1 REVERT JUMPDEST PUSH32 0x4E487B7100000000000000000000000000000000000000000000000000000000 PUSH0 MSTORE PUSH1 0x41 PUSH1 0x4 MSTORE PUSH1 0x24 PUSH0 REVERT JUMPDEST PUSH2 0x2DFC DUP3 PUSH2 0x2C18 JUMP JUMPDEST DUP2 ADD DUP2 DUP2 LT PUSH8 0xFFFFFFFFFFFFFFFF DUP3 GT OR ISZERO PUSH2 0x2E1B JUMPI PUSH2 0x2E1A PUSH2 0x2DC6 JUMP JUMPDEST JUMPDEST DUP1 PUSH1 0x40 MSTORE POP POP POP JUMP JUMPDEST PUSH0 PUSH2 0x2E2D PUSH2 0x2AD4 JUMP JUMPDEST SWAP1 POP PUSH2 0x2E39 DUP3 DUP3 PUSH2 0x2DF3 JUMP JUMPDEST SWAP2 SWAP1 POP JUMP JUMPDEST PUSH0 PUSH8 0xFFFFFFFFFFFFFFFF DUP3 GT ISZERO PUSH2 0x2E58 JUMPI PUSH2 0x2E57 PUSH2 0x2DC6 JUMP JUMPDEST JUMPDEST PUSH2 0x2E61 DUP3 PUSH2 0x2C18 JUMP JUMPDEST SWAP1 POP PUSH1 0x20 DUP2 ADD SWAP1 POP SWAP2 SWAP1 POP JUMP JUMPDEST DUP3 DUP2 DUP4 CALLDATACOPY PUSH0 DUP4 DUP4 ADD MSTORE POP POP POP JUMP JUMPDEST PUSH0 PUSH2 0x2E8E PUSH2 0x2E89 DUP5 PUSH2 0x2E3E JUMP JUMPDEST PUSH2 0x2E24 JUMP JUMPDEST SWAP1 POP DUP3 DUP2 MSTORE PUSH1 0x20 DUP2 ADD DUP5 DUP5 DUP5 ADD GT ISZERO PUSH2 0x2EAA JUMPI PUSH2 0x2EA9 PUSH2 0x2DC2 JUMP JUMPDEST JUMPDEST PUSH2 0x2EB5 DUP5 DUP3 DUP6 PUSH2 0x2E6E JUMP JUMPDEST POP SWAP4 SWAP3 POP POP POP JUMP JUMPDEST PUSH0 DUP3 PUSH1 0x1F DUP4 ADD SLT PUSH2 0x2ED1 JUMPI PUSH2 0x2ED0 PUSH2 0x2DBE JUMP JUMPDEST JUMPDEST DUP2 CALLDATALOAD PUSH2 0x2EE1 DUP5 DUP3 PUSH1 0x20 DUP7 ADD PUSH2 0x2E7C JUMP JUMPDEST SWAP2 POP POP SWAP3 SWAP2 POP POP JUMP JUMPDEST PUSH0 DUP1 PUSH0 DUP1 PUSH0 PUSH1 0xA0 DUP7 DUP9 SUB SLT ISZERO PUSH2 0x2F03 JUMPI PUSH2 0x2F02 PUSH2 0x2ADD JUMP JUMPDEST JUMPDEST PUSH0 DUP7 ADD CALLDATALOAD PUSH8 0xFFFFFFFFFFFFFFFF DUP2 GT ISZERO PUSH2 0x2F20 JUMPI PUSH2 0x2F1F PUSH2 0x2AE1 JUMP JUMPDEST JUMPDEST PUSH2 0x2F2C DUP9 DUP3 DUP10 ADD PUSH2 0x2EBD JUMP JUMPDEST SWAP6 POP POP PUSH1 0x20 DUP7 ADD CALLDATALOAD PUSH8 0xFFFFFFFFFFFFFFFF DUP2 GT ISZERO PUSH2 0x2F4D JUMPI PUSH2 0x2F4C PUSH2 0x2AE1 JUMP JUMPDEST JUMPDEST PUSH2 0x2F59 DUP9 DUP3 DUP10 ADD PUSH2 0x2EBD JUMP JUMPDEST SWAP5 POP POP PUSH1 0x40 PUSH2 0x2F6A DUP9 DUP3 DUP10 ADD PUSH2 0x2C9F JUMP JUMPDEST SWAP4 POP POP PUSH1 0x60 PUSH2 0x2F7B DUP9 DUP3 DUP10 ADD PUSH2 0x2C9F JUMP JUMPDEST SWAP3 POP POP PUSH1 0x80 PUSH2 0x2F8C DUP9 DUP3 DUP10 ADD PUSH2 0x2C9F JUMP JUMPDEST SWAP2 POP POP SWAP3 SWAP6 POP SWAP3 SWAP6 SWAP1 SWAP4 POP JUMP JUMPDEST PUSH0 DUP1 PUSH0 DUP1 PUSH1 0x80 DUP6 DUP8 SUB SLT ISZERO PUSH2 0x2FB1 JUMPI PUSH2 0x2FB0 PUSH2 0x2ADD JUMP JUMPDEST JUMPDEST PUSH0 PUSH2 0x2FBE DUP8 DUP3 DUP9 ADD PUSH2 0x2C9F JUMP JUMPDEST SWAP5 POP POP PUSH1 0x20 PUSH2 0x2FCF DUP8 DUP3 DUP9 ADD PUSH2 0x2C9F JUMP JUMPDEST SWAP4 POP POP PUSH1 0x40 PUSH2 0x2FE0 DUP8 DUP3 DUP9 ADD PUSH2 0x2C9F JUMP JUMPDEST SWAP3 POP POP PUSH1 0x60 PUSH2 0x2FF1 DUP8 DUP3 DUP9 ADD PUSH2 0x2C9F JUMP JUMPDEST SWAP2 POP POP SWAP3 SWAP6 SWAP2 SWAP5 POP SWAP3 POP JUMP JUMPDEST PUSH0 PUSH1 0x20 DUP3 DUP5 SUB SLT ISZERO PUSH2 0x3012 JUMPI PUSH2 0x3011 PUSH2 0x2ADD JUMP JUMPDEST JUMPDEST PUSH0 PUSH2 0x301F DUP5 DUP3 DUP6 ADD PUSH2 0x2CF4 JUMP JUMPDEST SWAP2 POP POP SWAP3 SWAP2 POP POP JUMP JUMPDEST PUSH2 0x3031 DUP2 PUSH2 0x2B65 JUMP JUMPDEST DUP2 EQ PUSH2 0x303B JUMPI PUSH0 DUP1 REVERT JUMPDEST POP JUMP JUMPDEST PUSH0 DUP2 CALLDATALOAD SWAP1 POP PUSH2 0x304C DUP2 PUSH2 0x3028 JUMP JUMPDEST SWAP3 SWAP2 POP POP JUMP JUMPDEST PUSH0 DUP1 PUSH1 0x40 DUP4 DUP6 SUB SLT ISZERO PUSH2 0x3068 JUMPI PUSH2 0x3067 PUSH2 0x2ADD JUMP JUMPDEST JUMPDEST PUSH0 PUSH2 0x3075 DUP6 DUP3 DUP7 ADD PUSH2 0x2CF4 JUMP JUMPDEST SWAP3 POP POP PUSH1 0x20 PUSH2 0x3086 DUP6 DUP3 DUP7 ADD PUSH2 0x303E JUMP JUMPDEST SWAP2 POP POP SWAP3 POP SWAP3 SWAP1 POP JUMP JUMPDEST PUSH0 PUSH8 0xFFFFFFFFFFFFFFFF DUP3 GT ISZERO PUSH2 0x30AA JUMPI PUSH2 0x30A9 PUSH2 0x2DC6 JUMP JUMPDEST JUMPDEST PUSH2 0x30B3 DUP3 PUSH2 0x2C18 JUMP JUMPDEST SWAP1 POP PUSH1 0x20 DUP2 ADD SWAP1 POP SWAP2 SWAP1 POP JUMP JUMPDEST PUSH0 PUSH2 0x30D2 PUSH2 0x30CD DUP5 PUSH2 0x3090 JUMP JUMPDEST PUSH2 0x2E24 JUMP JUMPDEST SWAP1 POP DUP3 DUP2 MSTORE PUSH1 0x20 DUP2 ADD DUP5 DUP5 DUP5 ADD GT ISZERO PUSH2 0x30EE JUMPI PUSH2 0x30ED PUSH2 0x2DC2 JUMP JUMPDEST JUMPDEST PUSH2 0x30F9 DUP5 DUP3 DUP6 PUSH2 0x2E6E JUMP JUMPDEST POP SWAP4 SWAP3 POP POP POP JUMP JUMPDEST PUSH0 DUP3 PUSH1 0x1F DUP4 ADD SLT PUSH2 0x3115 JUMPI PUSH2 0x3114 PUSH2 0x2DBE JUMP JUMPDEST JUMPDEST DUP2 CALLDATALOAD PUSH2 0x3125 DUP5 DUP3 PUSH1 0x20 DUP7 ADD PUSH2 0x30C0 JUMP JUMPDEST SWAP2 POP POP SWAP3 SWAP2 POP POP JUMP JUMPDEST PUSH0 DUP1 PUSH0 DUP1 PUSH1 0x80 DUP6 DUP8 SUB SLT ISZERO PUSH2 0x3146 JUMPI PUSH2 0x3145 PUSH2 0x2ADD JUMP JUMPDEST JUMPDEST PUSH0 PUSH2 0x3153 DUP8 DUP3 DUP9 ADD PUSH2 0x2CF4 JUMP JUMPDEST SWAP5 POP POP PUSH1 0x20 PUSH2 0x3164 DUP8 DUP3 DUP9 ADD PUSH2 0x2CF4 JUMP JUMPDEST SWAP4 POP POP PUSH1 0x40 PUSH2 0x3175 DUP8 DUP3 DUP9 ADD PUSH2 0x2C9F JUMP JUMPDEST SWAP3 POP POP PUSH1 0x60 DUP6 ADD CALLDATALOAD PUSH8 0xFFFFFFFFFFFFFFFF DUP2 GT ISZERO PUSH2 0x3196 JUMPI PUSH2 0x3195 PUSH2 0x2AE1 JUMP JUMPDEST JUMPDEST PUSH2 0x31A2 DUP8 DUP3 DUP9 ADD PUSH2 0x3101 JUMP JUMPDEST SWAP2 POP POP SWAP3 SWAP6 SWAP2 SWAP5 POP SWAP3 POP JUMP JUMPDEST PUSH0 PUSH1 0xC0 DUP3 ADD SWAP1 POP PUSH2 0x31C1 PUSH0 DUP4 ADD DUP10 PUSH2 0x2D46 JUMP JUMPDEST PUSH2 0x31CE PUSH1 0x20 DUP4 ADD DUP9 PUSH2 0x2BC8 JUMP JUMPDEST PUSH2 0x31DB PUSH1 0x40 DUP4 ADD DUP8 PUSH2 0x2D46 JUMP JUMPDEST PUSH2 0x31E8 PUSH1 0x60 DUP4 ADD DUP7 PUSH2 0x2D46 JUMP JUMPDEST PUSH2 0x31F5 PUSH1 0x80 DUP4 ADD DUP6 PUSH2 0x2B70 JUMP JUMPDEST PUSH2 0x3202 PUSH1 0xA0 DUP4 ADD DUP5 PUSH2 0x2B70 JUMP JUMPDEST SWAP8 SWAP7 POP POP POP POP POP POP POP JUMP JUMPDEST PUSH0 PUSH1 0xFF DUP3 AND SWAP1 POP SWAP2 SWAP1 POP JUMP JUMPDEST PUSH2 0x3222 DUP2 PUSH2 0x320D JUMP JUMPDEST DUP2 EQ PUSH2 0x322C JUMPI PUSH0 DUP1 REVERT JUMPDEST POP JUMP JUMPDEST PUSH0 DUP2 CALLDATALOAD SWAP1 POP PUSH2 0x323D DUP2 PUSH2 0x3219 JUMP JUMPDEST SWAP3 SWAP2 POP POP JUMP JUMPDEST PUSH0 DUP1 PUSH1 0x40 DUP4 DUP6 SUB SLT ISZERO PUSH2 0x3259 JUMPI PUSH2 0x3258 PUSH2 0x2ADD JUMP JUMPDEST JUMPDEST PUSH0 PUSH2 0x3266 DUP6 DUP3 DUP7 ADD PUSH2 0x2C9F JUMP JUMPDEST SWAP3 POP POP PUSH1 0x20 PUSH2 0x3277 DUP6 DUP3 DUP7 ADD PUSH2 0x322F JUMP JUMPDEST SWAP2 POP POP SWAP3 POP SWAP3 SWAP1 POP JUMP JUMPDEST PUSH0 DUP1 PUSH1 0x40 DUP4 DUP6 SUB SLT ISZERO PUSH2 0x3297 JUMPI PUSH2 0x3296 PUSH2 0x2ADD JUMP JUMPDEST JUMPDEST PUSH0 PUSH2 0x32A4 DUP6 DUP3 DUP7 ADD PUSH2 0x2CF4 JUMP JUMPDEST SWAP3 POP POP PUSH1 0x20 PUSH2 0x32B5 DUP6 DUP3 DUP7 ADD PUSH2 0x2CF4 JUMP JUMPDEST SWAP2 POP POP SWAP3 POP SWAP3 SWAP1 POP JUMP JUMPDEST PUSH0 PUSH1 0xC0 DUP3 ADD SWAP1 POP PUSH2 0x32D2 PUSH0 DUP4 ADD DUP10 PUSH2 0x2D46 JUMP JUMPDEST DUP2 DUP2 SUB PUSH1 0x20 DUP4 ADD MSTORE PUSH2 0x32E4 DUP2 DUP9 PUSH2 0x2C28 JUMP JUMPDEST SWAP1 POP DUP2 DUP2 SUB PUSH1 0x40 DUP4 ADD MSTORE PUSH2 0x32F8 DUP2 DUP8 PUSH2 0x2C28 JUMP JUMPDEST SWAP1 POP PUSH2 0x3307 PUSH1 0x60 DUP4 ADD DUP7 PUSH2 0x2D46 JUMP JUMPDEST PUSH2 0x3314 PUSH1 0x80 DUP4 ADD DUP6 PUSH2 0x2D46 JUMP JUMPDEST PUSH2 0x3321 PUSH1 0xA0 DUP4 ADD DUP5 PUSH2 0x2D46 JUMP JUMPDEST SWAP8 SWAP7 POP POP POP POP POP POP POP JUMP JUMPDEST PUSH32 0x4E487B7100000000000000000000000000000000000000000000000000000000 PUSH0 MSTORE PUSH1 0x22 PUSH1 0x4 MSTORE PUSH1 0x24 PUSH0 REVERT JUMPDEST PUSH0 PUSH1 0x2 DUP3 DIV SWAP1 POP PUSH1 0x1 DUP3 AND DUP1 PUSH2 0x3370 JUMPI PUSH1 0x7F DUP3 AND SWAP2 POP JUMPDEST PUSH1 0x20 DUP3 LT DUP2 SUB PUSH2 0x3383 JUMPI PUSH2 0x3382 PUSH2 0x332C JUMP JUMPDEST JUMPDEST POP SWAP2 SWAP1 POP JUMP JUMPDEST PUSH0 PUSH1 0x60 DUP3 ADD SWAP1 POP PUSH2 0x339C PUSH0 DUP4 ADD DUP7 PUSH2 0x2BC8 JUMP JUMPDEST PUSH2 0x33A9 PUSH1 0x20 DUP4 ADD DUP6 PUSH2 0x2D46 JUMP JUMPDEST PUSH2 0x33B6 PUSH1 0x40 DUP4 ADD DUP5 PUSH2 0x2BC8 JUMP JUMPDEST SWAP5 SWAP4 POP POP POP POP JUMP JUMPDEST PUSH32 0x4F6E6C792042696C426F79642063616E20706572666F726D2074686973206163 PUSH0 DUP3 ADD MSTORE PUSH32 0x74696F6E2E000000000000000000000000000000000000000000000000000000 PUSH1 0x20 DUP3 ADD MSTORE POP JUMP JUMPDEST PUSH0 PUSH2 0x3418 PUSH1 0x25 DUP4 PUSH2 0x2BFA JUMP JUMPDEST SWAP2 POP PUSH2 0x3423 DUP3 PUSH2 0x33BE JUMP JUMPDEST PUSH1 0x40 DUP3 ADD SWAP1 POP SWAP2 SWAP1 POP JUMP JUMPDEST PUSH0 PUSH1 0x20 DUP3 ADD SWAP1 POP DUP2 DUP2 SUB PUSH0 DUP4 ADD MSTORE PUSH2 0x3445 DUP2 PUSH2 0x340C JUMP JUMPDEST SWAP1 POP SWAP2 SWAP1 POP JUMP JUMPDEST PUSH0 DUP2 SWAP1 POP DUP2 PUSH0 MSTORE PUSH1 0x20 PUSH0 KECCAK256 SWAP1 POP SWAP2 SWAP1 POP JUMP JUMPDEST PUSH0 PUSH1 0x20 PUSH1 0x1F DUP4 ADD DIV SWAP1 POP SWAP2 SWAP1 POP JUMP JUMPDEST PUSH0 DUP3 DUP3 SHL SWAP1 POP SWAP3 SWAP2 POP POP JUMP JUMPDEST PUSH0 PUSH1 0x8 DUP4 MUL PUSH2 0x34A8 PUSH32 0xFFFFFFFFFFFFFFFFFFFFFFFFFFFFFFFFFFFFFFFFFFFFFFFFFFFFFFFFFFFFFFFF DUP3 PUSH2 0x346D JUMP JUMPDEST PUSH2 0x34B2 DUP7 DUP4 PUSH2 0x346D JUMP JUMPDEST SWAP6 POP DUP1 NOT DUP5 AND SWAP4 POP DUP1 DUP7 AND DUP5 OR SWAP3 POP POP POP SWAP4 SWAP3 POP POP POP JUMP JUMPDEST PUSH0 DUP2 SWAP1 POP SWAP2 SWAP1 POP JUMP JUMPDEST PUSH0 PUSH2 0x34ED PUSH2 0x34E8 PUSH2 0x34E3 DUP5 PUSH2 0x2C80 JUMP JUMPDEST PUSH2 0x34CA JUMP JUMPDEST PUSH2 0x2C80 JUMP JUMPDEST SWAP1 POP SWAP2 SWAP1 POP JUMP JUMPDEST PUSH0 DUP2 SWAP1 POP SWAP2 SWAP1 POP JUMP JUMPDEST PUSH2 0x3506 DUP4 PUSH2 0x34D3 JUMP JUMPDEST PUSH2 0x351A PUSH2 0x3512 DUP3 PUSH2 0x34F4 JUMP JUMPDEST DUP5 DUP5 SLOAD PUSH2 0x3479 JUMP JUMPDEST DUP3 SSTORE POP POP POP POP JUMP JUMPDEST PUSH0 SWAP1 JUMP JUMPDEST PUSH2 0x352E PUSH2 0x3522 JUMP JUMPDEST PUSH2 0x3539 DUP2 DUP5 DUP5 PUSH2 0x34FD JUMP JUMPDEST POP POP POP JUMP JUMPDEST JUMPDEST DUP2 DUP2 LT ISZERO PUSH2 0x355C JUMPI PUSH2 0x3551 PUSH0 DUP3 PUSH2 0x3526 JUMP JUMPDEST PUSH1 0x1 DUP2 ADD SWAP1 POP PUSH2 0x353F JUMP JUMPDEST POP POP JUMP JUMPDEST PUSH1 0x1F DUP3 GT ISZERO PUSH2 0x35A1 JUMPI PUSH2 0x3572 DUP2 PUSH2 0x344C JUMP JUMPDEST PUSH2 0x357B DUP5 PUSH2 0x345E JUMP JUMPDEST DUP2 ADD PUSH1 0x20 DUP6 LT ISZERO PUSH2 0x358A JUMPI DUP2 SWAP1 POP JUMPDEST PUSH2 0x359E PUSH2 0x3596 DUP6 PUSH2 0x345E JUMP JUMPDEST DUP4 ADD DUP3 PUSH2 0x353E JUMP JUMPDEST POP POP JUMPDEST POP POP POP JUMP JUMPDEST PUSH0 DUP3 DUP3 SHR SWAP1 POP SWAP3 SWAP2 POP POP JUMP JUMPDEST PUSH0 PUSH2 0x35C1 PUSH0 NOT DUP5 PUSH1 0x8 MUL PUSH2 0x35A6 JUMP JUMPDEST NOT DUP1 DUP4 AND SWAP2 POP POP SWAP3 SWAP2 POP POP JUMP JUMPDEST PUSH0 PUSH2 0x35D9 DUP4 DUP4 PUSH2 0x35B2 JUMP JUMPDEST SWAP2 POP DUP3 PUSH1 0x2 MUL DUP3 OR SWAP1 POP SWAP3 SWAP2 POP POP JUMP JUMPDEST PUSH2 0x35F2 DUP3 PUSH2 0x2BF0 JUMP JUMPDEST PUSH8 0xFFFFFFFFFFFFFFFF DUP2 GT ISZERO PUSH2 0x360B JUMPI PUSH2 0x360A PUSH2 0x2DC6 JUMP JUMPDEST JUMPDEST PUSH2 0x3615 DUP3 SLOAD PUSH2 0x3359 JUMP JUMPDEST PUSH2 0x3620 DUP3 DUP3 DUP6 PUSH2 0x3560 JUMP JUMPDEST PUSH0 PUSH1 0x20 SWAP1 POP PUSH1 0x1F DUP4 GT PUSH1 0x1 DUP2 EQ PUSH2 0x3651 JUMPI PUSH0 DUP5 ISZERO PUSH2 0x363F JUMPI DUP3 DUP8 ADD MLOAD SWAP1 POP JUMPDEST PUSH2 0x3649 DUP6 DUP3 PUSH2 0x35CE JUMP JUMPDEST DUP7 SSTORE POP PUSH2 0x36B0 JUMP JUMPDEST PUSH1 0x1F NOT DUP5 AND PUSH2 0x365F DUP7 PUSH2 0x344C JUMP JUMPDEST PUSH0 JUMPDEST DUP3 DUP2 LT ISZERO PUSH2 0x3686 JUMPI DUP5 DUP10 ADD MLOAD DUP3 SSTORE PUSH1 0x1 DUP3 ADD SWAP2 POP PUSH1 0x20 DUP6 ADD SWAP5 POP PUSH1 0x20 DUP2 ADD SWAP1 POP PUSH2 0x3661 JUMP JUMPDEST DUP7 DUP4 LT ISZERO PUSH2 0x36A3 JUMPI DUP5 DUP10 ADD MLOAD PUSH2 0x369F PUSH1 0x1F DUP10 AND DUP3 PUSH2 0x35B2 JUMP JUMPDEST DUP4 SSTORE POP JUMPDEST PUSH1 0x1 PUSH1 0x2 DUP9 MUL ADD DUP9 SSTORE POP POP POP JUMPDEST POP POP POP POP POP POP JUMP JUMPDEST PUSH32 0x4E487B7100000000000000000000000000000000000000000000000000000000 PUSH0 MSTORE PUSH1 0x11 PUSH1 0x4 MSTORE PUSH1 0x24 PUSH0 REVERT JUMPDEST PUSH0 PUSH2 0x36EF DUP3 PUSH2 0x2C80 JUMP JUMPDEST SWAP2 POP PUSH2 0x36FA DUP4 PUSH2 0x2C80 JUMP JUMPDEST SWAP3 POP DUP3 DUP3 MUL PUSH2 0x3708 DUP2 PUSH2 0x2C80 JUMP JUMPDEST SWAP2 POP DUP3 DUP3 DIV DUP5 EQ DUP4 ISZERO OR PUSH2 0x371F JUMPI PUSH2 0x371E PUSH2 0x36B8 JUMP JUMPDEST JUMPDEST POP SWAP3 SWAP2 POP POP JUMP JUMPDEST PUSH32 0x496E636F7272656374207061796D656E7420616D6F756E742E00000000000000 PUSH0 DUP3 ADD MSTORE POP JUMP JUMPDEST PUSH0 PUSH2 0x375A PUSH1 0x19 DUP4 PUSH2 0x2BFA JUMP JUMPDEST SWAP2 POP PUSH2 0x3765 DUP3 PUSH2 0x3726 JUMP JUMPDEST PUSH1 0x20 DUP3 ADD SWAP1 POP SWAP2 SWAP1 POP JUMP JUMPDEST PUSH0 PUSH1 0x20 DUP3 ADD SWAP1 POP DUP2 DUP2 SUB PUSH0 DUP4 ADD MSTORE PUSH2 0x3787 DUP2 PUSH2 0x374E JUMP JUMPDEST SWAP1 POP SWAP2 SWAP1 POP JUMP JUMPDEST PUSH0 PUSH2 0x3798 DUP3 PUSH2 0x2C80 JUMP JUMPDEST SWAP2 POP PUSH2 0x37A3 DUP4 PUSH2 0x2C80 JUMP JUMPDEST SWAP3 POP DUP3 DUP3 ADD SWAP1 POP DUP1 DUP3 GT ISZERO PUSH2 0x37BB JUMPI PUSH2 0x37BA PUSH2 0x36B8 JUMP JUMPDEST JUMPDEST SWAP3 SWAP2 POP POP JUMP JUMPDEST PUSH32 0x4C65617365206973206E6F74206163746976652E000000000000000000000000 PUSH0 DUP3 ADD MSTORE POP JUMP JUMPDEST PUSH0 PUSH2 0x37F5 PUSH1 0x14 DUP4 PUSH2 0x2BFA JUMP JUMPDEST SWAP2 POP PUSH2 0x3800 DUP3 PUSH2 0x37C1 JUMP JUMPDEST PUSH1 0x20 DUP3 ADD SWAP1 POP SWAP2 SWAP1 POP JUMP JUMPDEST PUSH0 PUSH1 0x20 DUP3 ADD SWAP1 POP DUP2 DUP2 SUB PUSH0 DUP4 ADD MSTORE PUSH2 0x3822 DUP2 PUSH2 0x37E9 JUMP JUMPDEST SWAP1 POP SWAP2 SWAP1 POP JUMP JUMPDEST PUSH32 0x5061796D656E74206973206E6F74206F7665726475652E000000000000000000 PUSH0 DUP3 ADD MSTORE POP JUMP JUMPDEST PUSH0 PUSH2 0x385D PUSH1 0x17 DUP4 PUSH2 0x2BFA JUMP JUMPDEST SWAP2 POP PUSH2 0x3868 DUP3 PUSH2 0x3829 JUMP JUMPDEST PUSH1 0x20 DUP3 ADD SWAP1 POP SWAP2 SWAP1 POP JUMP JUMPDEST PUSH0 PUSH1 0x20 DUP3 ADD SWAP1 POP DUP2 DUP2 SUB PUSH0 DUP4 ADD MSTORE PUSH2 0x388A DUP2 PUSH2 0x3851 JUMP JUMPDEST SWAP1 POP SWAP2 SWAP1 POP JUMP JUMPDEST PUSH32 0x4E487B7100000000000000000000000000000000000000000000000000000000 PUSH0 MSTORE PUSH1 0x12 PUSH1 0x4 MSTORE PUSH1 0x24 PUSH0 REVERT JUMPDEST PUSH0 PUSH2 0x38C8 DUP3 PUSH2 0x2C80 JUMP JUMPDEST SWAP2 POP PUSH2 0x38D3 DUP4 PUSH2 0x2C80 JUMP JUMPDEST SWAP3 POP DUP3 PUSH2 0x38E3 JUMPI PUSH2 0x38E2 PUSH2 0x3891 JUMP JUMPDEST JUMPDEST DUP3 DUP3 DIV SWAP1 POP SWAP3 SWAP2 POP POP JUMP JUMPDEST PUSH0 PUSH2 0x38F8 DUP3 PUSH2 0x2C80 JUMP JUMPDEST SWAP2 POP PUSH2 0x3903 DUP4 PUSH2 0x2C80 JUMP JUMPDEST SWAP3 POP DUP3 DUP3 SUB SWAP1 POP DUP2 DUP2 GT ISZERO PUSH2 0x391B JUMPI PUSH2 0x391A PUSH2 0x36B8 JUMP JUMPDEST JUMPDEST SWAP3 SWAP2 POP POP JUMP JUMPDEST PUSH0 DUP2 SWAP1 POP SWAP3 SWAP2 POP POP JUMP JUMPDEST PUSH0 PUSH2 0x3935 DUP3 PUSH2 0x2BF0 JUMP JUMPDEST PUSH2 0x393F DUP2 DUP6 PUSH2 0x3921 JUMP JUMPDEST SWAP4 POP PUSH2 0x394F DUP2 DUP6 PUSH1 0x20 DUP7 ADD PUSH2 0x2C0A JUMP JUMPDEST DUP1 DUP5 ADD SWAP2 POP POP SWAP3 SWAP2 POP POP JUMP JUMPDEST PUSH0 PUSH2 0x3966 DUP3 DUP6 PUSH2 0x392B JUMP JUMPDEST SWAP2 POP PUSH2 0x3972 DUP3 DUP5 PUSH2 0x392B JUMP JUMPDEST SWAP2 POP DUP2 SWAP1 POP SWAP4 SWAP3 POP POP POP JUMP JUMPDEST PUSH32 0x4E6F7420617574686F72697A65642E0000000000000000000000000000000000 PUSH0 DUP3 ADD MSTORE POP JUMP JUMPDEST PUSH0 PUSH2 0x39B2 PUSH1 0xF DUP4 PUSH2 0x2BFA JUMP JUMPDEST SWAP2 POP PUSH2 0x39BD DUP3 PUSH2 0x397E JUMP JUMPDEST PUSH1 0x20 DUP3 ADD SWAP1 POP SWAP2 SWAP1 POP JUMP JUMPDEST PUSH0 PUSH1 0x20 DUP3 ADD SWAP1 POP DUP2 DUP2 SUB PUSH0 DUP4 ADD MSTORE PUSH2 0x39DF DUP2 PUSH2 0x39A6 JUMP JUMPDEST SWAP1 POP SWAP2 SWAP1 POP JUMP JUMPDEST PUSH32 0x4C65617365206E6F74206163746976652E000000000000000000000000000000 PUSH0 DUP3 ADD MSTORE POP JUMP JUMPDEST PUSH0 PUSH2 0x3A1A PUSH1 0x11 DUP4 PUSH2 0x2BFA JUMP JUMPDEST SWAP2 POP PUSH2 0x3A25 DUP3 PUSH2 0x39E6 JUMP JUMPDEST PUSH1 0x20 DUP3 ADD SWAP1 POP SWAP2 SWAP1 POP JUMP JUMPDEST PUSH0 PUSH1 0x20 DUP3 ADD SWAP1 POP DUP2 DUP2 SUB PUSH0 DUP4 ADD MSTORE PUSH2 0x3A47 DUP2 PUSH2 0x3A0E JUMP JUMPDEST SWAP1 POP SWAP2 SWAP1 POP JUMP JUMPDEST PUSH32 0x4C65617365206973206E6F7420636F6E6669726D65642E000000000000000000 PUSH0 DUP3 ADD MSTORE POP JUMP JUMPDEST PUSH0 PUSH2 0x3A82 PUSH1 0x17 DUP4 PUSH2 0x2BFA JUMP JUMPDEST SWAP2 POP PUSH2 0x3A8D DUP3 PUSH2 0x3A4E JUMP JUMPDEST PUSH1 0x20 DUP3 ADD SWAP1 POP SWAP2 SWAP1 POP JUMP JUMPDEST PUSH0 PUSH1 0x20 DUP3 ADD SWAP1 POP DUP2 DUP2 SUB PUSH0 DUP4 ADD MSTORE PUSH2 0x3AAF DUP2 PUSH2 0x3A76 JUMP JUMPDEST SWAP1 POP SWAP2 SWAP1 POP JUMP JUMPDEST PUSH32 0x5061796D656E74206973206F7665726475652E00000000000000000000000000 PUSH0 DUP3 ADD MSTORE POP JUMP JUMPDEST PUSH0 PUSH2 0x3AEA PUSH1 0x13 DUP4 PUSH2 0x2BFA JUMP JUMPDEST SWAP2 POP PUSH2 0x3AF5 DUP3 PUSH2 0x3AB6 JUMP JUMPDEST PUSH1 0x20 DUP3 ADD SWAP1 POP SWAP2 SWAP1 POP JUMP JUMPDEST PUSH0 PUSH1 0x20 DUP3 ADD SWAP1 POP DUP2 DUP2 SUB PUSH0 DUP4 ADD MSTORE PUSH2 0x3B17 DUP2 PUSH2 0x3ADE JUMP JUMPDEST SWAP1 POP SWAP2 SWAP1 POP JUMP JUMPDEST PUSH32 0x4C6561736520616C726561647920636F6E6669726D65642E0000000000000000 PUSH0 DUP3 ADD MSTORE POP JUMP JUMPDEST PUSH0 PUSH2 0x3B52 PUSH1 0x18 DUP4 PUSH2 0x2BFA JUMP JUMPDEST SWAP2 POP PUSH2 0x3B5D DUP3 PUSH2 0x3B1E JUMP JUMPDEST PUSH1 0x20 DUP3 ADD SWAP1 POP SWAP2 SWAP1 POP JUMP JUMPDEST PUSH0 PUSH1 0x20 DUP3 ADD SWAP1 POP DUP2 DUP2 SUB PUSH0 DUP4 ADD MSTORE PUSH2 0x3B7F DUP2 PUSH2 0x3B46 JUMP JUMPDEST SWAP1 POP SWAP2 SWAP1 POP JUMP JUMPDEST PUSH0 DUP2 MLOAD SWAP1 POP SWAP2 SWAP1 POP JUMP JUMPDEST PUSH0 DUP3 DUP3 MSTORE PUSH1 0x20 DUP3 ADD SWAP1 POP SWAP3 SWAP2 POP POP JUMP JUMPDEST PUSH0 PUSH2 0x3BAA DUP3 PUSH2 0x3B86 JUMP JUMPDEST PUSH2 0x3BB4 DUP2 DUP6 PUSH2 0x3B90 JUMP JUMPDEST SWAP4 POP PUSH2 0x3BC4 DUP2 DUP6 PUSH1 0x20 DUP7 ADD PUSH2 0x2C0A JUMP JUMPDEST PUSH2 0x3BCD DUP2 PUSH2 0x2C18 JUMP JUMPDEST DUP5 ADD SWAP2 POP POP SWAP3 SWAP2 POP POP JUMP JUMPDEST PUSH0 PUSH1 0x80 DUP3 ADD SWAP1 POP PUSH2 0x3BEB PUSH0 DUP4 ADD DUP8 PUSH2 0x2BC8 JUMP JUMPDEST PUSH2 0x3BF8 PUSH1 0x20 DUP4 ADD DUP7 PUSH2 0x2BC8 JUMP JUMPDEST PUSH2 0x3C05 PUSH1 0x40 DUP4 ADD DUP6 PUSH2 0x2D46 JUMP JUMPDEST DUP2 DUP2 SUB PUSH1 0x60 DUP4 ADD MSTORE PUSH2 0x3C17 DUP2 DUP5 PUSH2 0x3BA0 JUMP JUMPDEST SWAP1 POP SWAP6 SWAP5 POP POP POP POP POP JUMP JUMPDEST PUSH0 DUP2 MLOAD SWAP1 POP PUSH2 0x3C30 DUP2 PUSH2 0x2B10 JUMP JUMPDEST SWAP3 SWAP2 POP POP JUMP JUMPDEST PUSH0 PUSH1 0x20 DUP3 DUP5 SUB SLT ISZERO PUSH2 0x3C4B JUMPI PUSH2 0x3C4A PUSH2 0x2ADD JUMP JUMPDEST JUMPDEST PUSH0 PUSH2 0x3C58 DUP5 DUP3 DUP6 ADD PUSH2 0x3C22 JUMP JUMPDEST SWAP2 POP POP SWAP3 SWAP2 POP POP JUMP JUMPDEST PUSH0 PUSH1 0x40 DUP3 ADD SWAP1 POP PUSH2 0x3C74 PUSH0 DUP4 ADD DUP6 PUSH2 0x2BC8 JUMP JUMPDEST PUSH2 0x3C81 PUSH1 0x20 DUP4 ADD DUP5 PUSH2 0x2D46 JUMP JUMPDEST SWAP4 SWAP3 POP POP POP JUMP INVALID LOG2 PUSH5 0x6970667358 0x22 SLT KECCAK256 0xE1 CALLDATACOPY 0xBE 0x4D BALANCE 0xC6 SSTORE 0xC9 MSTORE8 PUSH0 0xCC 0xCA 0xA5 0xDD 0xCE ADD 0x28 PUSH4 0x1A4CC42D BYTE 0xC1 0xC1 SWAP9 DUP1 PUSH12 0xB7BC541064736F6C63430008 BYTE STOP CALLER "
		},
		"gasEstimates": {
			"creation": {
				"codeDepositCost": "3110000",
				"executionCost": "infinite",
				"totalCost": "infinite"
			},
			"external": {
				"PAYMENT_PERIOD()": "459",
				"addCar(string,string,uint256,uint256,uint256)": "infinite",
				"approve(address,uint256)": "infinite",
				"balanceOf(address)": "infinite",
				"bilBoyd()": "2554",
				"calculateMonthlyQuota(uint256,uint256,uint256,uint256)": "infinite",
				"cars(uint256)": "infinite",
				"confirmLease(address)": "infinite",
				"endLease(uint256,uint8)": "infinite",
				"getApproved(uint256)": "infinite",
				"isApprovedForAll(address,address)": "infinite",
				"leases(address)": "infinite",
				"name()": "infinite",
				"ownerOf(uint256)": "infinite",
				"payMonthlyQuota(uint256)": "infinite",
				"registerLease(uint256,uint256,uint256,uint256)": "infinite",
				"safeTransferFrom(address,address,uint256)": "infinite",
				"safeTransferFrom(address,address,uint256,bytes)": "infinite",
				"setApprovalForAll(address,bool)": "infinite",
				"supportsInterface(bytes4)": "787",
				"symbol()": "infinite",
				"terminateLeaseForNonPayment(address)": "infinite",
				"tokenURI(uint256)": "infinite",
				"transferFrom(address,address,uint256)": "infinite"
			}
		},
		"methodIdentifiers": {
			"PAYMENT_PERIOD()": "200ca6ef",
			"addCar(string,string,uint256,uint256,uint256)": "24cb1534",
			"approve(address,uint256)": "095ea7b3",
			"balanceOf(address)": "70a08231",
			"bilBoyd()": "03ef5104",
			"calculateMonthlyQuota(uint256,uint256,uint256,uint256)": "c31cf51a",
			"cars(uint256)": "f7746e36",
			"confirmLease(address)": "f5df7010",
			"endLease(uint256,uint8)": "e64dea11",
			"getApproved(uint256)": "081812fc",
			"isApprovedForAll(address,address)": "e985e9c5",
			"leases(address)": "d74d1f43",
			"name()": "06fdde03",
			"ownerOf(uint256)": "6352211e",
			"payMonthlyQuota(uint256)": "f01c823d",
			"registerLease(uint256,uint256,uint256,uint256)": "59638956",
			"safeTransferFrom(address,address,uint256)": "42842e0e",
			"safeTransferFrom(address,address,uint256,bytes)": "b88d4fde",
			"setApprovalForAll(address,bool)": "a22cb465",
			"supportsInterface(bytes4)": "01ffc9a7",
			"symbol()": "95d89b41",
			"terminateLeaseForNonPayment(address)": "ae14ae40",
			"tokenURI(uint256)": "c87b56dd",
			"transferFrom(address,address,uint256)": "23b872dd"
		}
	},
	"abi": [
		{
			"inputs": [],
			"stateMutability": "nonpayable",
			"type": "constructor"
		},
		{
			"inputs": [
				{
					"internalType": "address",
					"name": "sender",
					"type": "address"
				},
				{
					"internalType": "uint256",
					"name": "tokenId",
					"type": "uint256"
				},
				{
					"internalType": "address",
					"name": "owner",
					"type": "address"
				}
			],
			"name": "ERC721IncorrectOwner",
			"type": "error"
		},
		{
			"inputs": [
				{
					"internalType": "address",
					"name": "operator",
					"type": "address"
				},
				{
					"internalType": "uint256",
					"name": "tokenId",
					"type": "uint256"
				}
			],
			"name": "ERC721InsufficientApproval",
			"type": "error"
		},
		{
			"inputs": [
				{
					"internalType": "address",
					"name": "approver",
					"type": "address"
				}
			],
			"name": "ERC721InvalidApprover",
			"type": "error"
		},
		{
			"inputs": [
				{
					"internalType": "address",
					"name": "operator",
					"type": "address"
				}
			],
			"name": "ERC721InvalidOperator",
			"type": "error"
		},
		{
			"inputs": [
				{
					"internalType": "address",
					"name": "owner",
					"type": "address"
				}
			],
			"name": "ERC721InvalidOwner",
			"type": "error"
		},
		{
			"inputs": [
				{
					"internalType": "address",
					"name": "receiver",
					"type": "address"
				}
			],
			"name": "ERC721InvalidReceiver",
			"type": "error"
		},
		{
			"inputs": [
				{
					"internalType": "address",
					"name": "sender",
					"type": "address"
				}
			],
			"name": "ERC721InvalidSender",
			"type": "error"
		},
		{
			"inputs": [
				{
					"internalType": "uint256",
					"name": "tokenId",
					"type": "uint256"
				}
			],
			"name": "ERC721NonexistentToken",
			"type": "error"
		},
		{
			"anonymous": false,
			"inputs": [
				{
					"indexed": true,
					"internalType": "address",
					"name": "owner",
					"type": "address"
				},
				{
					"indexed": true,
					"internalType": "address",
					"name": "approved",
					"type": "address"
				},
				{
					"indexed": true,
					"internalType": "uint256",
					"name": "tokenId",
					"type": "uint256"
				}
			],
			"name": "Approval",
			"type": "event"
		},
		{
			"anonymous": false,
			"inputs": [
				{
					"indexed": true,
					"internalType": "address",
					"name": "owner",
					"type": "address"
				},
				{
					"indexed": true,
					"internalType": "address",
					"name": "operator",
					"type": "address"
				},
				{
					"indexed": false,
					"internalType": "bool",
					"name": "approved",
					"type": "bool"
				}
			],
			"name": "ApprovalForAll",
			"type": "event"
		},
		{
			"anonymous": false,
			"inputs": [
				{
					"indexed": true,
					"internalType": "address",
					"name": "from",
					"type": "address"
				},
				{
					"indexed": true,
					"internalType": "address",
					"name": "to",
					"type": "address"
				},
				{
					"indexed": true,
					"internalType": "uint256",
					"name": "tokenId",
					"type": "uint256"
				}
			],
			"name": "Transfer",
			"type": "event"
		},
		{
			"inputs": [],
			"name": "PAYMENT_PERIOD",
			"outputs": [
				{
					"internalType": "uint256",
					"name": "",
					"type": "uint256"
				}
			],
			"stateMutability": "view",
			"type": "function"
		},
		{
			"inputs": [
				{
					"internalType": "string",
					"name": "model",
					"type": "string"
				},
				{
					"internalType": "string",
					"name": "color",
					"type": "string"
				},
				{
					"internalType": "uint256",
					"name": "year",
					"type": "uint256"
				},
				{
					"internalType": "uint256",
					"name": "originalValue",
					"type": "uint256"
				},
				{
					"internalType": "uint256",
					"name": "currentMileage",
					"type": "uint256"
				}
			],
			"name": "addCar",
			"outputs": [],
			"stateMutability": "nonpayable",
			"type": "function"
		},
		{
			"inputs": [
				{
					"internalType": "address",
					"name": "to",
					"type": "address"
				},
				{
					"internalType": "uint256",
					"name": "tokenId",
					"type": "uint256"
				}
			],
			"name": "approve",
			"outputs": [],
			"stateMutability": "nonpayable",
			"type": "function"
		},
		{
			"inputs": [
				{
					"internalType": "address",
					"name": "owner",
					"type": "address"
				}
			],
			"name": "balanceOf",
			"outputs": [
				{
					"internalType": "uint256",
					"name": "",
					"type": "uint256"
				}
			],
			"stateMutability": "view",
			"type": "function"
		},
		{
			"inputs": [],
			"name": "bilBoyd",
			"outputs": [
				{
					"internalType": "address",
					"name": "",
					"type": "address"
				}
			],
			"stateMutability": "view",
			"type": "function"
		},
		{
			"inputs": [
				{
					"internalType": "uint256",
					"name": "carId",
					"type": "uint256"
				},
				{
					"internalType": "uint256",
					"name": "yearsOfExperience",
					"type": "uint256"
				},
				{
					"internalType": "uint256",
					"name": "contractDuration",
					"type": "uint256"
				},
				{
					"internalType": "uint256",
					"name": "mileageCap",
					"type": "uint256"
				}
			],
			"name": "calculateMonthlyQuota",
			"outputs": [
				{
					"internalType": "uint256",
					"name": "",
					"type": "uint256"
				}
			],
			"stateMutability": "view",
			"type": "function"
		},
		{
			"inputs": [
				{
					"internalType": "uint256",
					"name": "",
					"type": "uint256"
				}
			],
			"name": "cars",
			"outputs": [
				{
					"internalType": "uint256",
					"name": "id",
					"type": "uint256"
				},
				{
					"internalType": "string",
					"name": "model",
					"type": "string"
				},
				{
					"internalType": "string",
					"name": "color",
					"type": "string"
				},
				{
					"internalType": "uint256",
					"name": "year",
					"type": "uint256"
				},
				{
					"internalType": "uint256",
					"name": "originalValue",
					"type": "uint256"
				},
				{
					"internalType": "uint256",
					"name": "currentMileage",
					"type": "uint256"
				}
			],
			"stateMutability": "view",
			"type": "function"
		},
		{
			"inputs": [
				{
					"internalType": "address",
					"name": "lessee",
					"type": "address"
				}
			],
			"name": "confirmLease",
			"outputs": [],
			"stateMutability": "nonpayable",
			"type": "function"
		},
		{
			"inputs": [
				{
					"internalType": "uint256",
					"name": "carId",
					"type": "uint256"
				},
				{
					"internalType": "uint8",
					"name": "option",
					"type": "uint8"
				}
			],
			"name": "endLease",
			"outputs": [],
			"stateMutability": "nonpayable",
			"type": "function"
		},
		{
			"inputs": [
				{
					"internalType": "uint256",
					"name": "tokenId",
					"type": "uint256"
				}
			],
			"name": "getApproved",
			"outputs": [
				{
					"internalType": "address",
					"name": "",
					"type": "address"
				}
			],
			"stateMutability": "view",
			"type": "function"
		},
		{
			"inputs": [
				{
					"internalType": "address",
					"name": "owner",
					"type": "address"
				},
				{
					"internalType": "address",
					"name": "operator",
					"type": "address"
				}
			],
			"name": "isApprovedForAll",
			"outputs": [
				{
					"internalType": "bool",
					"name": "",
					"type": "bool"
				}
			],
			"stateMutability": "view",
			"type": "function"
		},
		{
			"inputs": [
				{
					"internalType": "address",
					"name": "",
					"type": "address"
				}
			],
			"name": "leases",
			"outputs": [
				{
					"internalType": "uint256",
					"name": "carId",
					"type": "uint256"
				},
				{
					"internalType": "address",
					"name": "lessee",
					"type": "address"
				},
				{
					"internalType": "uint256",
					"name": "monthlyQuota",
					"type": "uint256"
				},
				{
					"internalType": "uint256",
					"name": "nextPaymentDue",
					"type": "uint256"
				},
				{
					"internalType": "bool",
					"name": "confirmedByBilBoyd",
					"type": "bool"
				},
				{
					"internalType": "bool",
					"name": "active",
					"type": "bool"
				}
			],
			"stateMutability": "view",
			"type": "function"
		},
		{
			"inputs": [],
			"name": "name",
			"outputs": [
				{
					"internalType": "string",
					"name": "",
					"type": "string"
				}
			],
			"stateMutability": "view",
			"type": "function"
		},
		{
			"inputs": [
				{
					"internalType": "uint256",
					"name": "tokenId",
					"type": "uint256"
				}
			],
			"name": "ownerOf",
			"outputs": [
				{
					"internalType": "address",
					"name": "",
					"type": "address"
				}
			],
			"stateMutability": "view",
			"type": "function"
		},
		{
			"inputs": [
				{
					"internalType": "uint256",
					"name": "carId",
					"type": "uint256"
				}
			],
			"name": "payMonthlyQuota",
			"outputs": [],
			"stateMutability": "payable",
			"type": "function"
		},
		{
			"inputs": [
				{
					"internalType": "uint256",
					"name": "carId",
					"type": "uint256"
				},
				{
					"internalType": "uint256",
					"name": "yearsOfExperience",
					"type": "uint256"
				},
				{
					"internalType": "uint256",
					"name": "contractDuration",
					"type": "uint256"
				},
				{
					"internalType": "uint256",
					"name": "mileageCap",
					"type": "uint256"
				}
			],
			"name": "registerLease",
			"outputs": [],
			"stateMutability": "payable",
			"type": "function"
		},
		{
			"inputs": [
				{
					"internalType": "address",
					"name": "from",
					"type": "address"
				},
				{
					"internalType": "address",
					"name": "to",
					"type": "address"
				},
				{
					"internalType": "uint256",
					"name": "tokenId",
					"type": "uint256"
				}
			],
			"name": "safeTransferFrom",
			"outputs": [],
			"stateMutability": "nonpayable",
			"type": "function"
		},
		{
			"inputs": [
				{
					"internalType": "address",
					"name": "from",
					"type": "address"
				},
				{
					"internalType": "address",
					"name": "to",
					"type": "address"
				},
				{
					"internalType": "uint256",
					"name": "tokenId",
					"type": "uint256"
				},
				{
					"internalType": "bytes",
					"name": "data",
					"type": "bytes"
				}
			],
			"name": "safeTransferFrom",
			"outputs": [],
			"stateMutability": "nonpayable",
			"type": "function"
		},
		{
			"inputs": [
				{
					"internalType": "address",
					"name": "operator",
					"type": "address"
				},
				{
					"internalType": "bool",
					"name": "approved",
					"type": "bool"
				}
			],
			"name": "setApprovalForAll",
			"outputs": [],
			"stateMutability": "nonpayable",
			"type": "function"
		},
		{
			"inputs": [
				{
					"internalType": "bytes4",
					"name": "interfaceId",
					"type": "bytes4"
				}
			],
			"name": "supportsInterface",
			"outputs": [
				{
					"internalType": "bool",
					"name": "",
					"type": "bool"
				}
			],
			"stateMutability": "view",
			"type": "function"
		},
		{
			"inputs": [],
			"name": "symbol",
			"outputs": [
				{
					"internalType": "string",
					"name": "",
					"type": "string"
				}
			],
			"stateMutability": "view",
			"type": "function"
		},
		{
			"inputs": [
				{
					"internalType": "address",
					"name": "lessee",
					"type": "address"
				}
			],
			"name": "terminateLeaseForNonPayment",
			"outputs": [],
			"stateMutability": "nonpayable",
			"type": "function"
		},
		{
			"inputs": [
				{
					"internalType": "uint256",
					"name": "tokenId",
					"type": "uint256"
				}
			],
			"name": "tokenURI",
			"outputs": [
				{
					"internalType": "string",
					"name": "",
					"type": "string"
				}
			],
			"stateMutability": "view",
			"type": "function"
		},
		{
			"inputs": [
				{
					"internalType": "address",
					"name": "from",
					"type": "address"
				},
				{
					"internalType": "address",
					"name": "to",
					"type": "address"
				},
				{
					"internalType": "uint256",
					"name": "tokenId",
					"type": "uint256"
				}
			],
			"name": "transferFrom",
			"outputs": [],
			"stateMutability": "nonpayable",
			"type": "function"
		}
	]
}