{
	"data": {
		"bytecode": {
			"linkReferences": {},
			"object": "608060405234801561000f575f80fd5b506040518060400160405280600d81526020017f42696c426f79644361724e4654000000000000000000000000000000000000008152506040518060400160405280600681526020017f4242434e46540000000000000000000000000000000000000000000000000000815250815f908161008a919061031c565b50806001908161009a919061031c565b5050503360095f6101000a81548173ffffffffffffffffffffffffffffffffffffffff021916908373ffffffffffffffffffffffffffffffffffffffff1602179055506103eb565b5f81519050919050565b7f4e487b71000000000000000000000000000000000000000000000000000000005f52604160045260245ffd5b7f4e487b71000000000000000000000000000000000000000000000000000000005f52602260045260245ffd5b5f600282049050600182168061015d57607f821691505b6020821081036101705761016f610119565b5b50919050565b5f819050815f5260205f209050919050565b5f6020601f8301049050919050565b5f82821b905092915050565b5f600883026101d27fffffffffffffffffffffffffffffffffffffffffffffffffffffffffffffffff82610197565b6101dc8683610197565b95508019841693508086168417925050509392505050565b5f819050919050565b5f819050919050565b5f61022061021b610216846101f4565b6101fd565b6101f4565b9050919050565b5f819050919050565b61023983610206565b61024d61024582610227565b8484546101a3565b825550505050565b5f90565b610261610255565b61026c818484610230565b505050565b5b8181101561028f576102845f82610259565b600181019050610272565b5050565b601f8211156102d4576102a581610176565b6102ae84610188565b810160208510156102bd578190505b6102d16102c985610188565b830182610271565b50505b505050565b5f82821c905092915050565b5f6102f45f19846008026102d9565b1980831691505092915050565b5f61030c83836102e5565b9150826002028217905092915050565b610325826100e2565b67ffffffffffffffff81111561033e5761033d6100ec565b5b6103488254610146565b610353828285610293565b5f60209050601f831160018114610384575f8415610372578287015190505b61037c8582610301565b8655506103e3565b601f19841661039286610176565b5f5b828110156103b957848901518255600182019150602085019450602081019050610394565b868310156103d657848901516103d2601f8916826102e5565b8355505b6001600288020188555050505b505050505050565b614096806103f85f395ff3fe60806040526004361061014a575f3560e01c806370a08231116100b5578063c87b56dd1161006e578063c87b56dd14610472578063d74d1f43146104ae578063e985e9c5146104ef578063f01c823d1461052b578063f5df701014610547578063f7746e361461056f5761014a565b806370a082311461035857806395d89b4114610394578063a22cb465146103be578063ae14ae40146103e6578063b88d4fde1461040e578063c31cf51a146104365761014a565b806323b872dd1161010757806323b872dd1461026c57806324cb1534146102945780633a8488f8146102bc57806342842e0e146102d857806359638956146103005780636352211e1461031c5761014a565b806301ffc9a71461014e57806303ef51041461018a57806306fdde03146101b4578063081812fc146101de578063095ea7b31461021a578063200ca6ef14610242575b5f80fd5b348015610159575f80fd5b50610174600480360381019061016f9190612d8f565b6105b0565b6040516101819190612dd4565b60405180910390f35b348015610195575f80fd5b5061019e610691565b6040516101ab9190612e2c565b60405180910390f35b3480156101bf575f80fd5b506101c86106b6565b6040516101d59190612eb5565b60405180910390f35b3480156101e9575f80fd5b5061020460048036038101906101ff9190612f08565b610745565b6040516102119190612e2c565b60405180910390f35b348015610225575f80fd5b50610240600480360381019061023b9190612f5d565b610760565b005b34801561024d575f80fd5b50610256610776565b6040516102639190612faa565b60405180910390f35b348015610277575f80fd5b50610292600480360381019061028d9190612fc3565b61077d565b005b34801561029f575f80fd5b506102ba60048036038101906102b5919061313f565b61087c565b005b6102d660048036038101906102d19190613224565b6109e8565b005b3480156102e3575f80fd5b506102fe60048036038101906102f99190612fc3565b610e42565b005b61031a600480360381019061031591906132ad565b610e61565b005b348015610327575f80fd5b50610342600480360381019061033d9190612f08565b61102d565b60405161034f9190612e2c565b60405180910390f35b348015610363575f80fd5b5061037e60048036038101906103799190613311565b61103e565b60405161038b9190612faa565b60405180910390f35b34801561039f575f80fd5b506103a86110f4565b6040516103b59190612eb5565b60405180910390f35b3480156103c9575f80fd5b506103e460048036038101906103df9190613366565b611184565b005b3480156103f1575f80fd5b5061040c60048036038101906104079190613311565b61119a565b005b348015610419575f80fd5b50610434600480360381019061042f9190613442565b61134f565b005b348015610441575f80fd5b5061045c600480360381019061045791906132ad565b611374565b6040516104699190612faa565b60405180910390f35b34801561047d575f80fd5b5061049860048036038101906104939190612f08565b611752565b6040516104a59190612eb5565b60405180910390f35b3480156104b9575f80fd5b506104d460048036038101906104cf9190613311565b6117b8565b6040516104e6969594939291906134c2565b60405180910390f35b3480156104fa575f80fd5b5061051560048036038101906105109190613521565b611828565b6040516105229190612dd4565b60405180910390f35b61054560048036038101906105409190612f08565b6118b6565b005b348015610552575f80fd5b5061056d60048036038101906105689190613311565b611b2b565b005b34801561057a575f80fd5b5061059560048036038101906105909190612f08565b611d5d565b6040516105a79695949392919061355f565b60405180910390f35b5f7f80ac58cd000000000000000000000000000000000000000000000000000000007bffffffffffffffffffffffffffffffffffffffffffffffffffffffff1916827bffffffffffffffffffffffffffffffffffffffffffffffffffffffff1916148061067a57507f5b5e139f000000000000000000000000000000000000000000000000000000007bffffffffffffffffffffffffffffffffffffffffffffffffffffffff1916827bffffffffffffffffffffffffffffffffffffffffffffffffffffffff1916145b8061068a575061068982611ea1565b5b9050919050565b60095f9054906101000a900473ffffffffffffffffffffffffffffffffffffffff1681565b60605f80546106c4906135f9565b80601f01602080910402602001604051908101604052809291908181526020018280546106f0906135f9565b801561073b5780601f106107125761010080835404028352916020019161073b565b820191905f5260205f20905b81548152906001019060200180831161071e57829003601f168201915b5050505050905090565b5f61074f82611f0a565b5061075982611f90565b9050919050565b610772828261076d611fc9565b611fd0565b5050565b62278d0081565b5f73ffffffffffffffffffffffffffffffffffffffff168273ffffffffffffffffffffffffffffffffffffffff16036107ed575f6040517f64a0ae920000000000000000000000000000000000000000000000000000000081526004016107e49190612e2c565b60405180910390fd5b5f61080083836107fb611fc9565b611fe2565b90508373ffffffffffffffffffffffffffffffffffffffff168173ffffffffffffffffffffffffffffffffffffffff1614610876578382826040517f64283d7b00000000000000000000000000000000000000000000000000000000815260040161086d93929190613629565b60405180910390fd5b50505050565b60095f9054906101000a900473ffffffffffffffffffffffffffffffffffffffff1673ffffffffffffffffffffffffffffffffffffffff163373ffffffffffffffffffffffffffffffffffffffff161461090b576040517f08c379a0000000000000000000000000000000000000000000000000000000008152600401610902906136ce565b60405180910390fd5b61091560066121ed565b5f6109206006612201565b90506040518060c001604052808281526020018781526020018681526020018581526020018481526020018381525060075f8381526020019081526020015f205f820151815f0155602082015181600101908161097d9190613889565b5060408201518160020190816109939190613889565b50606082015181600301556080820151816004015560a082015181600501559050506109e060095f9054906101000a900473ffffffffffffffffffffffffffffffffffffffff168261220d565b505050505050565b858060085f3373ffffffffffffffffffffffffffffffffffffffff1673ffffffffffffffffffffffffffffffffffffffff1681526020019081526020015f205f015414610a6a576040517f08c379a0000000000000000000000000000000000000000000000000000000008152600401610a61906139a2565b60405180910390fd5b5f60085f3373ffffffffffffffffffffffffffffffffffffffff1673ffffffffffffffffffffffffffffffffffffffff1681526020019081526020015f2090508060040160019054906101000a900460ff16610afb576040517f08c379a0000000000000000000000000000000000000000000000000000000008152600401610af290613a0a565b60405180910390fd5b60018760ff1603610b53575f8160040160016101000a81548160ff021916908315150217905550610b4e3360095f9054906101000a900473ffffffffffffffffffffffffffffffffffffffff168a612300565b610e38565b60028760ff1603610b95575f610b6d895f6001600c611374565b905080826002018190555062278d0042610b879190613a55565b826003018190555050610e37565b60038760ff1603610dfb575f8160040160016101000a81548160ff021916908315150217905550610be83360095f9054906101000a900473ffffffffffffffffffffffffffffffffffffffff168a612300565b60085f3373ffffffffffffffffffffffffffffffffffffffff1673ffffffffffffffffffffffffffffffffffffffff1681526020019081526020015f205f8082015f9055600182015f6101000a81549073ffffffffffffffffffffffffffffffffffffffff0219169055600282015f9055600382015f9055600482015f6101000a81549060ff02191690556004820160016101000a81549060ff021916905550506040518060c001604052808781526020013373ffffffffffffffffffffffffffffffffffffffff168152602001610cc288888888611374565b815260200162278d0042610cd69190613a55565b81526020015f151581526020015f151581525060085f3373ffffffffffffffffffffffffffffffffffffffff1673ffffffffffffffffffffffffffffffffffffffff1681526020019081526020015f205f820151815f01556020820151816001015f6101000a81548173ffffffffffffffffffffffffffffffffffffffff021916908373ffffffffffffffffffffffffffffffffffffffff16021790555060408201518160020155606082015181600301556080820151816004015f6101000a81548160ff02191690831515021790555060a08201518160040160016101000a81548160ff021916908315150217905550905050610df660095f9054906101000a900473ffffffffffffffffffffffffffffffffffffffff163088612300565b610e36565b6040517f08c379a0000000000000000000000000000000000000000000000000000000008152600401610e2d90613ad2565b60405180910390fd5b5b5b5050505050505050565b610e5c83838360405180602001604052805f81525061134f565b505050565b5f610e6e85858585611374565b90505f600482610e7e9190613af0565b905080341015610ec3576040517f08c379a0000000000000000000000000000000000000000000000000000000008152600401610eba90613b7b565b60405180910390fd5b6040518060c001604052808781526020013373ffffffffffffffffffffffffffffffffffffffff16815260200183815260200162278d0042610f059190613a55565b81526020015f151581526020015f151581525060085f3373ffffffffffffffffffffffffffffffffffffffff1673ffffffffffffffffffffffffffffffffffffffff1681526020019081526020015f205f820151815f01556020820151816001015f6101000a81548173ffffffffffffffffffffffffffffffffffffffff021916908373ffffffffffffffffffffffffffffffffffffffff16021790555060408201518160020155606082015181600301556080820151816004015f6101000a81548160ff02191690831515021790555060a08201518160040160016101000a81548160ff02191690831515021790555090505061102560095f9054906101000a900473ffffffffffffffffffffffffffffffffffffffff163088612300565b505050505050565b5f61103782611f0a565b9050919050565b5f8073ffffffffffffffffffffffffffffffffffffffff168273ffffffffffffffffffffffffffffffffffffffff16036110af575f6040517f89c62b640000000000000000000000000000000000000000000000000000000081526004016110a69190612e2c565b60405180910390fd5b60035f8373ffffffffffffffffffffffffffffffffffffffff1673ffffffffffffffffffffffffffffffffffffffff1681526020019081526020015f20549050919050565b606060018054611103906135f9565b80601f016020809104026020016040519081016040528092919081815260200182805461112f906135f9565b801561117a5780601f106111515761010080835404028352916020019161117a565b820191905f5260205f20905b81548152906001019060200180831161115d57829003601f168201915b5050505050905090565b61119661118f611fc9565b8383612468565b5050565b60095f9054906101000a900473ffffffffffffffffffffffffffffffffffffffff1673ffffffffffffffffffffffffffffffffffffffff163373ffffffffffffffffffffffffffffffffffffffff1614611229576040517f08c379a0000000000000000000000000000000000000000000000000000000008152600401611220906136ce565b60405180910390fd5b5f60085f8373ffffffffffffffffffffffffffffffffffffffff1673ffffffffffffffffffffffffffffffffffffffff1681526020019081526020015f2090508060040160019054906101000a900460ff166112ba576040517f08c379a00000000000000000000000000000000000000000000000000000000081526004016112b190613be3565b60405180910390fd5b80600301544211611300576040517f08c379a00000000000000000000000000000000000000000000000000000000081526004016112f790613c4b565b60405180910390fd5b5f8160040160016101000a81548160ff02191690831515021790555061134b8260095f9054906101000a900473ffffffffffffffffffffffffffffffffffffffff16835f0154612300565b5050565b61135a84848461077d565b61136e611365611fc9565b858585856125d1565b50505050565b5f8060075f8781526020019081526020015f206040518060c00160405290815f82015481526020016001820180546113ab906135f9565b80601f01602080910402602001604051908101604052809291908181526020018280546113d7906135f9565b80156114225780601f106113f957610100808354040283529160200191611422565b820191905f5260205f20905b81548152906001019060200180831161140557829003601f168201915b5050505050815260200160028201805461143b906135f9565b80601f0160208091040260200160405190810160405280929190818152602001828054611467906135f9565b80156114b25780601f10611489576101008083540402835291602001916114b2565b820191905f5260205f20905b81548152906001019060200180831161149557829003601f168201915b50505050508152602001600382015481526020016004820154815260200160058201548152505090505f6103e882608001516114ee9190613c96565b90505f600487101580156115035750600a8711155b156115285760646002836115179190613af0565b6115219190613c96565b905061154e565b600a87111561154d5760646005836115409190613af0565b61154a9190613c96565b90505b5b5f600287101580156115605750600687105b156115855760646003846115749190613af0565b61157e9190613c96565b90506115e3565b600687101580156115975750600c8711155b156115bc5760646005846115ab9190613af0565b6115b59190613c96565b90506115e2565b600c8711156115e15760646008846115d49190613af0565b6115de9190613c96565b90505b5b5b5f61138887101580156115f7575061271087105b15611610576064846116099190613c96565b9050611670565b61271087101580156116235750614e2087105b156116485760646002856116379190613af0565b6116419190613c96565b905061166f565b614e2087111561166e5760646003856116619190613af0565b61166b9190613c96565b90505b5b5b5f6127108660a001511015801561168c5750614e208660a00151105b156116a55760648561169e9190613c96565b9050611710565b614e208660a00151101580156116c0575061c3508660a00151105b156116e55760646002866116d49190613af0565b6116de9190613c96565b905061170f565b61c3508660a001511061170e5760646003866117019190613af0565b61170b9190613c96565b90505b5b5b5f81838587896117209190613cc6565b61172a9190613cc6565b6117349190613a55565b61173e9190613cc6565b905080975050505050505050949350505050565b606061175d82611f0a565b505f61176761277d565b90505f8151116117855760405180602001604052805f8152506117b0565b8061178f84612793565b6040516020016117a0929190613d33565b6040516020818303038152906040525b915050919050565b6008602052805f5260405f205f91509050805f015490806001015f9054906101000a900473ffffffffffffffffffffffffffffffffffffffff1690806002015490806003015490806004015f9054906101000a900460ff16908060040160019054906101000a900460ff16905086565b5f60055f8473ffffffffffffffffffffffffffffffffffffffff1673ffffffffffffffffffffffffffffffffffffffff1681526020019081526020015f205f8373ffffffffffffffffffffffffffffffffffffffff1673ffffffffffffffffffffffffffffffffffffffff1681526020019081526020015f205f9054906101000a900460ff16905092915050565b808060085f3373ffffffffffffffffffffffffffffffffffffffff1673ffffffffffffffffffffffffffffffffffffffff1681526020019081526020015f205f015414611938576040517f08c379a000000000000000000000000000000000000000000000000000000000815260040161192f906139a2565b60405180910390fd5b5f60085f3373ffffffffffffffffffffffffffffffffffffffff1673ffffffffffffffffffffffffffffffffffffffff1681526020019081526020015f2090508060040160019054906101000a900460ff166119c9576040517f08c379a00000000000000000000000000000000000000000000000000000000081526004016119c090613be3565b60405180910390fd5b806004015f9054906101000a900460ff16611a19576040517f08c379a0000000000000000000000000000000000000000000000000000000008152600401611a1090613da0565b60405180910390fd5b8060030154421115611a60576040517f08c379a0000000000000000000000000000000000000000000000000000000008152600401611a5790613e08565b60405180910390fd5b80600201543414611aa6576040517f08c379a0000000000000000000000000000000000000000000000000000000008152600401611a9d90613e70565b60405180910390fd5b62278d008160030154611ab99190613a55565b816003018190555060095f9054906101000a900473ffffffffffffffffffffffffffffffffffffffff1673ffffffffffffffffffffffffffffffffffffffff166108fc3490811502906040515f60405180830381858888f19350505050158015611b25573d5f803e3d5ffd5b50505050565b60095f9054906101000a900473ffffffffffffffffffffffffffffffffffffffff1673ffffffffffffffffffffffffffffffffffffffff163373ffffffffffffffffffffffffffffffffffffffff1614611bba576040517f08c379a0000000000000000000000000000000000000000000000000000000008152600401611bb1906136ce565b60405180910390fd5b5f60085f8373ffffffffffffffffffffffffffffffffffffffff1673ffffffffffffffffffffffffffffffffffffffff1681526020019081526020015f2090508060040160019054906101000a900460ff1615611c4c576040517f08c379a0000000000000000000000000000000000000000000000000000000008152600401611c4390613ed8565b60405180910390fd5b806004015f9054906101000a900460ff1615611c9d576040517f08c379a0000000000000000000000000000000000000000000000000000000008152600401611c9490613f40565b60405180910390fd5b6001816004015f6101000a81548160ff02191690831515021790555060018160040160016101000a81548160ff02191690831515021790555060095f9054906101000a900473ffffffffffffffffffffffffffffffffffffffff1673ffffffffffffffffffffffffffffffffffffffff166108fc60048360020154611d229190613af0565b90811502906040515f60405180830381858888f19350505050158015611d4a573d5f803e3d5ffd5b50611d593083835f0154612300565b5050565b6007602052805f5260405f205f91509050805f015490806001018054611d82906135f9565b80601f0160208091040260200160405190810160405280929190818152602001828054611dae906135f9565b8015611df95780601f10611dd057610100808354040283529160200191611df9565b820191905f5260205f20905b815481529060010190602001808311611ddc57829003601f168201915b505050505090806002018054611e0e906135f9565b80601f0160208091040260200160405190810160405280929190818152602001828054611e3a906135f9565b8015611e855780601f10611e5c57610100808354040283529160200191611e85565b820191905f5260205f20905b815481529060010190602001808311611e6857829003601f168201915b5050505050908060030154908060040154908060050154905086565b5f7f01ffc9a7000000000000000000000000000000000000000000000000000000007bffffffffffffffffffffffffffffffffffffffffffffffffffffffff1916827bffffffffffffffffffffffffffffffffffffffffffffffffffffffff1916149050919050565b5f80611f158361285d565b90505f73ffffffffffffffffffffffffffffffffffffffff168173ffffffffffffffffffffffffffffffffffffffff1603611f8757826040517f7e273289000000000000000000000000000000000000000000000000000000008152600401611f7e9190612faa565b60405180910390fd5b80915050919050565b5f60045f8381526020019081526020015f205f9054906101000a900473ffffffffffffffffffffffffffffffffffffffff169050919050565b5f33905090565b611fdd8383836001612896565b505050565b5f80611fed8461285d565b90505f73ffffffffffffffffffffffffffffffffffffffff168373ffffffffffffffffffffffffffffffffffffffff161461202e5761202d818486612a55565b5b5f73ffffffffffffffffffffffffffffffffffffffff168173ffffffffffffffffffffffffffffffffffffffff16146120b95761206d5f855f80612896565b600160035f8373ffffffffffffffffffffffffffffffffffffffff1673ffffffffffffffffffffffffffffffffffffffff1681526020019081526020015f205f82825403925050819055505b5f73ffffffffffffffffffffffffffffffffffffffff168573ffffffffffffffffffffffffffffffffffffffff161461213857600160035f8773ffffffffffffffffffffffffffffffffffffffff1673ffffffffffffffffffffffffffffffffffffffff1681526020019081526020015f205f82825401925050819055505b8460025f8681526020019081526020015f205f6101000a81548173ffffffffffffffffffffffffffffffffffffffff021916908373ffffffffffffffffffffffffffffffffffffffff160217905550838573ffffffffffffffffffffffffffffffffffffffff168273ffffffffffffffffffffffffffffffffffffffff167fddf252ad1be2c89b69c2b068fc378daa952ba7f163c4a11628f55a4df523b3ef60405160405180910390a4809150509392505050565b6001815f015f828254019250508190555050565b5f815f01549050919050565b5f73ffffffffffffffffffffffffffffffffffffffff168273ffffffffffffffffffffffffffffffffffffffff160361227d575f6040517f64a0ae920000000000000000000000000000000000000000000000000000000081526004016122749190612e2c565b60405180910390fd5b5f61228983835f611fe2565b90505f73ffffffffffffffffffffffffffffffffffffffff168173ffffffffffffffffffffffffffffffffffffffff16146122fb575f6040517f73c6ac6e0000000000000000000000000000000000000000000000000000000081526004016122f29190612e2c565b60405180910390fd5b505050565b5f73ffffffffffffffffffffffffffffffffffffffff168273ffffffffffffffffffffffffffffffffffffffff1603612370575f6040517f64a0ae920000000000000000000000000000000000000000000000000000000081526004016123679190612e2c565b60405180910390fd5b5f61237c83835f611fe2565b90505f73ffffffffffffffffffffffffffffffffffffffff168173ffffffffffffffffffffffffffffffffffffffff16036123ee57816040517f7e2732890000000000000000000000000000000000000000000000000000000081526004016123e59190612faa565b60405180910390fd5b8373ffffffffffffffffffffffffffffffffffffffff168173ffffffffffffffffffffffffffffffffffffffff1614612462578382826040517f64283d7b00000000000000000000000000000000000000000000000000000000815260040161245993929190613629565b60405180910390fd5b50505050565b5f73ffffffffffffffffffffffffffffffffffffffff168273ffffffffffffffffffffffffffffffffffffffff16036124d857816040517f5b08ba180000000000000000000000000000000000000000000000000000000081526004016124cf9190612e2c565b60405180910390fd5b8060055f8573ffffffffffffffffffffffffffffffffffffffff1673ffffffffffffffffffffffffffffffffffffffff1681526020019081526020015f205f8473ffffffffffffffffffffffffffffffffffffffff1673ffffffffffffffffffffffffffffffffffffffff1681526020019081526020015f205f6101000a81548160ff0219169083151502179055508173ffffffffffffffffffffffffffffffffffffffff168373ffffffffffffffffffffffffffffffffffffffff167f17307eab39ab6107e8899845ad3d59bd9653f200f220920489ca2b5937696c31836040516125c49190612dd4565b60405180910390a3505050565b5f8373ffffffffffffffffffffffffffffffffffffffff163b1115612776578273ffffffffffffffffffffffffffffffffffffffff1663150b7a02868685856040518563ffffffff1660e01b815260040161262f9493929190613fb0565b6020604051808303815f875af192505050801561266a57506040513d601f19601f82011682018060405250810190612667919061400e565b60015b6126eb573d805f8114612698576040519150601f19603f3d011682016040523d82523d5f602084013e61269d565b606091505b505f8151036126e357836040517f64a0ae920000000000000000000000000000000000000000000000000000000081526004016126da9190612e2c565b60405180910390fd5b805181602001fd5b63150b7a0260e01b7bffffffffffffffffffffffffffffffffffffffffffffffffffffffff1916817bffffffffffffffffffffffffffffffffffffffffffffffffffffffff19161461277457836040517f64a0ae9200000000000000000000000000000000000000000000000000000000815260040161276b9190612e2c565b60405180910390fd5b505b5050505050565b606060405180602001604052805f815250905090565b60605f60016127a184612b18565b0190505f8167ffffffffffffffff8111156127bf576127be61301b565b5b6040519080825280601f01601f1916602001820160405280156127f15781602001600182028036833780820191505090505b5090505f82602001820190505b600115612852578080600190039150507f3031323334353637383961626364656600000000000000000000000000000000600a86061a8153600a858161284757612846613c69565b5b0494505f85036127fe575b819350505050919050565b5f60025f8381526020019081526020015f205f9054906101000a900473ffffffffffffffffffffffffffffffffffffffff169050919050565b80806128ce57505f73ffffffffffffffffffffffffffffffffffffffff168273ffffffffffffffffffffffffffffffffffffffff1614155b15612a00575f6128dd84611f0a565b90505f73ffffffffffffffffffffffffffffffffffffffff168373ffffffffffffffffffffffffffffffffffffffff161415801561294757508273ffffffffffffffffffffffffffffffffffffffff168173ffffffffffffffffffffffffffffffffffffffff1614155b801561295a57506129588184611828565b155b1561299c57826040517fa9fbf51f0000000000000000000000000000000000000000000000000000000081526004016129939190612e2c565b60405180910390fd5b81156129fe57838573ffffffffffffffffffffffffffffffffffffffff168273ffffffffffffffffffffffffffffffffffffffff167f8c5be1e5ebec7d5bd14f71427d1e84f3dd0314c0f7b2291e5b200ac8c7c3b92560405160405180910390a45b505b8360045f8581526020019081526020015f205f6101000a81548173ffffffffffffffffffffffffffffffffffffffff021916908373ffffffffffffffffffffffffffffffffffffffff16021790555050505050565b612a60838383612c69565b612b13575f73ffffffffffffffffffffffffffffffffffffffff168373ffffffffffffffffffffffffffffffffffffffff1603612ad457806040517f7e273289000000000000000000000000000000000000000000000000000000008152600401612acb9190612faa565b60405180910390fd5b81816040517f177e802f000000000000000000000000000000000000000000000000000000008152600401612b0a929190614039565b60405180910390fd5b505050565b5f805f90507a184f03e93ff9f4daa797ed6e38ed64bf6a1f0100000000000000008310612b74577a184f03e93ff9f4daa797ed6e38ed64bf6a1f0100000000000000008381612b6a57612b69613c69565b5b0492506040810190505b6d04ee2d6d415b85acef81000000008310612bb1576d04ee2d6d415b85acef81000000008381612ba757612ba6613c69565b5b0492506020810190505b662386f26fc100008310612be057662386f26fc100008381612bd657612bd5613c69565b5b0492506010810190505b6305f5e1008310612c09576305f5e1008381612bff57612bfe613c69565b5b0492506008810190505b6127108310612c2e576127108381612c2457612c23613c69565b5b0492506004810190505b60648310612c515760648381612c4757612c46613c69565b5b0492506002810190505b600a8310612c60576001810190505b80915050919050565b5f8073ffffffffffffffffffffffffffffffffffffffff168373ffffffffffffffffffffffffffffffffffffffff1614158015612d2057508273ffffffffffffffffffffffffffffffffffffffff168473ffffffffffffffffffffffffffffffffffffffff161480612ce15750612ce08484611828565b5b80612d1f57508273ffffffffffffffffffffffffffffffffffffffff16612d0783611f90565b73ffffffffffffffffffffffffffffffffffffffff16145b5b90509392505050565b5f604051905090565b5f80fd5b5f80fd5b5f7fffffffff0000000000000000000000000000000000000000000000000000000082169050919050565b612d6e81612d3a565b8114612d78575f80fd5b50565b5f81359050612d8981612d65565b92915050565b5f60208284031215612da457612da3612d32565b5b5f612db184828501612d7b565b91505092915050565b5f8115159050919050565b612dce81612dba565b82525050565b5f602082019050612de75f830184612dc5565b92915050565b5f73ffffffffffffffffffffffffffffffffffffffff82169050919050565b5f612e1682612ded565b9050919050565b612e2681612e0c565b82525050565b5f602082019050612e3f5f830184612e1d565b92915050565b5f81519050919050565b5f82825260208201905092915050565b8281835e5f83830152505050565b5f601f19601f8301169050919050565b5f612e8782612e45565b612e918185612e4f565b9350612ea1818560208601612e5f565b612eaa81612e6d565b840191505092915050565b5f6020820190508181035f830152612ecd8184612e7d565b905092915050565b5f819050919050565b612ee781612ed5565b8114612ef1575f80fd5b50565b5f81359050612f0281612ede565b92915050565b5f60208284031215612f1d57612f1c612d32565b5b5f612f2a84828501612ef4565b91505092915050565b612f3c81612e0c565b8114612f46575f80fd5b50565b5f81359050612f5781612f33565b92915050565b5f8060408385031215612f7357612f72612d32565b5b5f612f8085828601612f49565b9250506020612f9185828601612ef4565b9150509250929050565b612fa481612ed5565b82525050565b5f602082019050612fbd5f830184612f9b565b92915050565b5f805f60608486031215612fda57612fd9612d32565b5b5f612fe786828701612f49565b9350506020612ff886828701612f49565b925050604061300986828701612ef4565b9150509250925092565b5f80fd5b5f80fd5b7f4e487b71000000000000000000000000000000000000000000000000000000005f52604160045260245ffd5b61305182612e6d565b810181811067ffffffffffffffff821117156130705761306f61301b565b5b80604052505050565b5f613082612d29565b905061308e8282613048565b919050565b5f67ffffffffffffffff8211156130ad576130ac61301b565b5b6130b682612e6d565b9050602081019050919050565b828183375f83830152505050565b5f6130e36130de84613093565b613079565b9050828152602081018484840111156130ff576130fe613017565b5b61310a8482856130c3565b509392505050565b5f82601f83011261312657613125613013565b5b81356131368482602086016130d1565b91505092915050565b5f805f805f60a0868803121561315857613157612d32565b5b5f86013567ffffffffffffffff81111561317557613174612d36565b5b61318188828901613112565b955050602086013567ffffffffffffffff8111156131a2576131a1612d36565b5b6131ae88828901613112565b94505060406131bf88828901612ef4565b93505060606131d088828901612ef4565b92505060806131e188828901612ef4565b9150509295509295909350565b5f60ff82169050919050565b613203816131ee565b811461320d575f80fd5b50565b5f8135905061321e816131fa565b92915050565b5f805f805f8060c0878903121561323e5761323d612d32565b5b5f61324b89828a01612ef4565b965050602061325c89828a01613210565b955050604061326d89828a01612ef4565b945050606061327e89828a01612ef4565b935050608061328f89828a01612ef4565b92505060a06132a089828a01612ef4565b9150509295509295509295565b5f805f80608085870312156132c5576132c4612d32565b5b5f6132d287828801612ef4565b94505060206132e387828801612ef4565b93505060406132f487828801612ef4565b925050606061330587828801612ef4565b91505092959194509250565b5f6020828403121561332657613325612d32565b5b5f61333384828501612f49565b91505092915050565b61334581612dba565b811461334f575f80fd5b50565b5f813590506133608161333c565b92915050565b5f806040838503121561337c5761337b612d32565b5b5f61338985828601612f49565b925050602061339a85828601613352565b9150509250929050565b5f67ffffffffffffffff8211156133be576133bd61301b565b5b6133c782612e6d565b9050602081019050919050565b5f6133e66133e1846133a4565b613079565b90508281526020810184848401111561340257613401613017565b5b61340d8482856130c3565b509392505050565b5f82601f83011261342957613428613013565b5b81356134398482602086016133d4565b91505092915050565b5f805f806080858703121561345a57613459612d32565b5b5f61346787828801612f49565b945050602061347887828801612f49565b935050604061348987828801612ef4565b925050606085013567ffffffffffffffff8111156134aa576134a9612d36565b5b6134b687828801613415565b91505092959194509250565b5f60c0820190506134d55f830189612f9b565b6134e26020830188612e1d565b6134ef6040830187612f9b565b6134fc6060830186612f9b565b6135096080830185612dc5565b61351660a0830184612dc5565b979650505050505050565b5f806040838503121561353757613536612d32565b5b5f61354485828601612f49565b925050602061355585828601612f49565b9150509250929050565b5f60c0820190506135725f830189612f9b565b81810360208301526135848188612e7d565b905081810360408301526135988187612e7d565b90506135a76060830186612f9b565b6135b46080830185612f9b565b6135c160a0830184612f9b565b979650505050505050565b7f4e487b71000000000000000000000000000000000000000000000000000000005f52602260045260245ffd5b5f600282049050600182168061361057607f821691505b602082108103613623576136226135cc565b5b50919050565b5f60608201905061363c5f830186612e1d565b6136496020830185612f9b565b6136566040830184612e1d565b949350505050565b7f4f6e6c792042696c426f79642063616e20706572666f726d20746869732061635f8201527f74696f6e2e000000000000000000000000000000000000000000000000000000602082015250565b5f6136b8602583612e4f565b91506136c38261365e565b604082019050919050565b5f6020820190508181035f8301526136e5816136ac565b9050919050565b5f819050815f5260205f209050919050565b5f6020601f8301049050919050565b5f82821b905092915050565b5f600883026137487fffffffffffffffffffffffffffffffffffffffffffffffffffffffffffffffff8261370d565b613752868361370d565b95508019841693508086168417925050509392505050565b5f819050919050565b5f61378d61378861378384612ed5565b61376a565b612ed5565b9050919050565b5f819050919050565b6137a683613773565b6137ba6137b282613794565b848454613719565b825550505050565b5f90565b6137ce6137c2565b6137d981848461379d565b505050565b5b818110156137fc576137f15f826137c6565b6001810190506137df565b5050565b601f82111561384157613812816136ec565b61381b846136fe565b8101602085101561382a578190505b61383e613836856136fe565b8301826137de565b50505b505050565b5f82821c905092915050565b5f6138615f1984600802613846565b1980831691505092915050565b5f6138798383613852565b9150826002028217905092915050565b61389282612e45565b67ffffffffffffffff8111156138ab576138aa61301b565b5b6138b582546135f9565b6138c0828285613800565b5f60209050601f8311600181146138f1575f84156138df578287015190505b6138e9858261386e565b865550613950565b601f1984166138ff866136ec565b5f5b8281101561392657848901518255600182019150602085019450602081019050613901565b86831015613943578489015161393f601f891682613852565b8355505b6001600288020188555050505b505050505050565b7f4e6f7420617574686f72697a65642e00000000000000000000000000000000005f82015250565b5f61398c600f83612e4f565b915061399782613958565b602082019050919050565b5f6020820190508181035f8301526139b981613980565b9050919050565b7f4c65617365206e6f74206163746976652e0000000000000000000000000000005f82015250565b5f6139f4601183612e4f565b91506139ff826139c0565b602082019050919050565b5f6020820190508181035f830152613a21816139e8565b9050919050565b7f4e487b71000000000000000000000000000000000000000000000000000000005f52601160045260245ffd5b5f613a5f82612ed5565b9150613a6a83612ed5565b9250828201905080821115613a8257613a81613a28565b5b92915050565b7f496e76616c6964206f7074696f6e2073656c65637465642e00000000000000005f82015250565b5f613abc601883612e4f565b9150613ac782613a88565b602082019050919050565b5f6020820190508181035f830152613ae981613ab0565b9050919050565b5f613afa82612ed5565b9150613b0583612ed5565b9250828202613b1381612ed5565b91508282048414831517613b2a57613b29613a28565b5b5092915050565b7f496e636f7272656374207061796d656e742e00000000000000000000000000005f82015250565b5f613b65601283612e4f565b9150613b7082613b31565b602082019050919050565b5f6020820190508181035f830152613b9281613b59565b9050919050565b7f4c65617365206973206e6f74206163746976652e0000000000000000000000005f82015250565b5f613bcd601483612e4f565b9150613bd882613b99565b602082019050919050565b5f6020820190508181035f830152613bfa81613bc1565b9050919050565b7f5061796d656e74206973206e6f74206f7665726475652e0000000000000000005f82015250565b5f613c35601783612e4f565b9150613c4082613c01565b602082019050919050565b5f6020820190508181035f830152613c6281613c29565b9050919050565b7f4e487b71000000000000000000000000000000000000000000000000000000005f52601260045260245ffd5b5f613ca082612ed5565b9150613cab83612ed5565b925082613cbb57613cba613c69565b5b828204905092915050565b5f613cd082612ed5565b9150613cdb83612ed5565b9250828203905081811115613cf357613cf2613a28565b5b92915050565b5f81905092915050565b5f613d0d82612e45565b613d178185613cf9565b9350613d27818560208601612e5f565b80840191505092915050565b5f613d3e8285613d03565b9150613d4a8284613d03565b91508190509392505050565b7f4c65617365206973206e6f7420636f6e6669726d65642e0000000000000000005f82015250565b5f613d8a601783612e4f565b9150613d9582613d56565b602082019050919050565b5f6020820190508181035f830152613db781613d7e565b9050919050565b7f5061796d656e74206973206f7665726475652e000000000000000000000000005f82015250565b5f613df2601383612e4f565b9150613dfd82613dbe565b602082019050919050565b5f6020820190508181035f830152613e1f81613de6565b9050919050565b7f496e636f7272656374207061796d656e7420616d6f756e742e000000000000005f82015250565b5f613e5a601983612e4f565b9150613e6582613e26565b602082019050919050565b5f6020820190508181035f830152613e8781613e4e565b9050919050565b7f4c6561736520616c7265616479206163746976652e00000000000000000000005f82015250565b5f613ec2601583612e4f565b9150613ecd82613e8e565b602082019050919050565b5f6020820190508181035f830152613eef81613eb6565b9050919050565b7f4c6561736520616c726561647920636f6e6669726d65642e00000000000000005f82015250565b5f613f2a601883612e4f565b9150613f3582613ef6565b602082019050919050565b5f6020820190508181035f830152613f5781613f1e565b9050919050565b5f81519050919050565b5f82825260208201905092915050565b5f613f8282613f5e565b613f8c8185613f68565b9350613f9c818560208601612e5f565b613fa581612e6d565b840191505092915050565b5f608082019050613fc35f830187612e1d565b613fd06020830186612e1d565b613fdd6040830185612f9b565b8181036060830152613fef8184613f78565b905095945050505050565b5f8151905061400881612d65565b92915050565b5f6020828403121561402357614022612d32565b5b5f61403084828501613ffa565b91505092915050565b5f60408201905061404c5f830185612e1d565b6140596020830184612f9b565b939250505056fea264697066735822122082555b97fc112dedba7e6cd3b9e81af27e92643e1421d6601292feffa51c93cd64736f6c634300081a0033",
			"opcodes": "PUSH1 0x80 PUSH1 0x40 MSTORE CALLVALUE DUP1 ISZERO PUSH2 0xF JUMPI PUSH0 DUP1 REVERT JUMPDEST POP PUSH1 0x40 MLOAD DUP1 PUSH1 0x40 ADD PUSH1 0x40 MSTORE DUP1 PUSH1 0xD DUP2 MSTORE PUSH1 0x20 ADD PUSH32 0x42696C426F79644361724E465400000000000000000000000000000000000000 DUP2 MSTORE POP PUSH1 0x40 MLOAD DUP1 PUSH1 0x40 ADD PUSH1 0x40 MSTORE DUP1 PUSH1 0x6 DUP2 MSTORE PUSH1 0x20 ADD PUSH32 0x4242434E46540000000000000000000000000000000000000000000000000000 DUP2 MSTORE POP DUP2 PUSH0 SWAP1 DUP2 PUSH2 0x8A SWAP2 SWAP1 PUSH2 0x31C JUMP JUMPDEST POP DUP1 PUSH1 0x1 SWAP1 DUP2 PUSH2 0x9A SWAP2 SWAP1 PUSH2 0x31C JUMP JUMPDEST POP POP POP CALLER PUSH1 0x9 PUSH0 PUSH2 0x100 EXP DUP2 SLOAD DUP2 PUSH20 0xFFFFFFFFFFFFFFFFFFFFFFFFFFFFFFFFFFFFFFFF MUL NOT AND SWAP1 DUP4 PUSH20 0xFFFFFFFFFFFFFFFFFFFFFFFFFFFFFFFFFFFFFFFF AND MUL OR SWAP1 SSTORE POP PUSH2 0x3EB JUMP JUMPDEST PUSH0 DUP2 MLOAD SWAP1 POP SWAP2 SWAP1 POP JUMP JUMPDEST PUSH32 0x4E487B7100000000000000000000000000000000000000000000000000000000 PUSH0 MSTORE PUSH1 0x41 PUSH1 0x4 MSTORE PUSH1 0x24 PUSH0 REVERT JUMPDEST PUSH32 0x4E487B7100000000000000000000000000000000000000000000000000000000 PUSH0 MSTORE PUSH1 0x22 PUSH1 0x4 MSTORE PUSH1 0x24 PUSH0 REVERT JUMPDEST PUSH0 PUSH1 0x2 DUP3 DIV SWAP1 POP PUSH1 0x1 DUP3 AND DUP1 PUSH2 0x15D JUMPI PUSH1 0x7F DUP3 AND SWAP2 POP JUMPDEST PUSH1 0x20 DUP3 LT DUP2 SUB PUSH2 0x170 JUMPI PUSH2 0x16F PUSH2 0x119 JUMP JUMPDEST JUMPDEST POP SWAP2 SWAP1 POP JUMP JUMPDEST PUSH0 DUP2 SWAP1 POP DUP2 PUSH0 MSTORE PUSH1 0x20 PUSH0 KECCAK256 SWAP1 POP SWAP2 SWAP1 POP JUMP JUMPDEST PUSH0 PUSH1 0x20 PUSH1 0x1F DUP4 ADD DIV SWAP1 POP SWAP2 SWAP1 POP JUMP JUMPDEST PUSH0 DUP3 DUP3 SHL SWAP1 POP SWAP3 SWAP2 POP POP JUMP JUMPDEST PUSH0 PUSH1 0x8 DUP4 MUL PUSH2 0x1D2 PUSH32 0xFFFFFFFFFFFFFFFFFFFFFFFFFFFFFFFFFFFFFFFFFFFFFFFFFFFFFFFFFFFFFFFF DUP3 PUSH2 0x197 JUMP JUMPDEST PUSH2 0x1DC DUP7 DUP4 PUSH2 0x197 JUMP JUMPDEST SWAP6 POP DUP1 NOT DUP5 AND SWAP4 POP DUP1 DUP7 AND DUP5 OR SWAP3 POP POP POP SWAP4 SWAP3 POP POP POP JUMP JUMPDEST PUSH0 DUP2 SWAP1 POP SWAP2 SWAP1 POP JUMP JUMPDEST PUSH0 DUP2 SWAP1 POP SWAP2 SWAP1 POP JUMP JUMPDEST PUSH0 PUSH2 0x220 PUSH2 0x21B PUSH2 0x216 DUP5 PUSH2 0x1F4 JUMP JUMPDEST PUSH2 0x1FD JUMP JUMPDEST PUSH2 0x1F4 JUMP JUMPDEST SWAP1 POP SWAP2 SWAP1 POP JUMP JUMPDEST PUSH0 DUP2 SWAP1 POP SWAP2 SWAP1 POP JUMP JUMPDEST PUSH2 0x239 DUP4 PUSH2 0x206 JUMP JUMPDEST PUSH2 0x24D PUSH2 0x245 DUP3 PUSH2 0x227 JUMP JUMPDEST DUP5 DUP5 SLOAD PUSH2 0x1A3 JUMP JUMPDEST DUP3 SSTORE POP POP POP POP JUMP JUMPDEST PUSH0 SWAP1 JUMP JUMPDEST PUSH2 0x261 PUSH2 0x255 JUMP JUMPDEST PUSH2 0x26C DUP2 DUP5 DUP5 PUSH2 0x230 JUMP JUMPDEST POP POP POP JUMP JUMPDEST JUMPDEST DUP2 DUP2 LT ISZERO PUSH2 0x28F JUMPI PUSH2 0x284 PUSH0 DUP3 PUSH2 0x259 JUMP JUMPDEST PUSH1 0x1 DUP2 ADD SWAP1 POP PUSH2 0x272 JUMP JUMPDEST POP POP JUMP JUMPDEST PUSH1 0x1F DUP3 GT ISZERO PUSH2 0x2D4 JUMPI PUSH2 0x2A5 DUP2 PUSH2 0x176 JUMP JUMPDEST PUSH2 0x2AE DUP5 PUSH2 0x188 JUMP JUMPDEST DUP2 ADD PUSH1 0x20 DUP6 LT ISZERO PUSH2 0x2BD JUMPI DUP2 SWAP1 POP JUMPDEST PUSH2 0x2D1 PUSH2 0x2C9 DUP6 PUSH2 0x188 JUMP JUMPDEST DUP4 ADD DUP3 PUSH2 0x271 JUMP JUMPDEST POP POP JUMPDEST POP POP POP JUMP JUMPDEST PUSH0 DUP3 DUP3 SHR SWAP1 POP SWAP3 SWAP2 POP POP JUMP JUMPDEST PUSH0 PUSH2 0x2F4 PUSH0 NOT DUP5 PUSH1 0x8 MUL PUSH2 0x2D9 JUMP JUMPDEST NOT DUP1 DUP4 AND SWAP2 POP POP SWAP3 SWAP2 POP POP JUMP JUMPDEST PUSH0 PUSH2 0x30C DUP4 DUP4 PUSH2 0x2E5 JUMP JUMPDEST SWAP2 POP DUP3 PUSH1 0x2 MUL DUP3 OR SWAP1 POP SWAP3 SWAP2 POP POP JUMP JUMPDEST PUSH2 0x325 DUP3 PUSH2 0xE2 JUMP JUMPDEST PUSH8 0xFFFFFFFFFFFFFFFF DUP2 GT ISZERO PUSH2 0x33E JUMPI PUSH2 0x33D PUSH2 0xEC JUMP JUMPDEST JUMPDEST PUSH2 0x348 DUP3 SLOAD PUSH2 0x146 JUMP JUMPDEST PUSH2 0x353 DUP3 DUP3 DUP6 PUSH2 0x293 JUMP JUMPDEST PUSH0 PUSH1 0x20 SWAP1 POP PUSH1 0x1F DUP4 GT PUSH1 0x1 DUP2 EQ PUSH2 0x384 JUMPI PUSH0 DUP5 ISZERO PUSH2 0x372 JUMPI DUP3 DUP8 ADD MLOAD SWAP1 POP JUMPDEST PUSH2 0x37C DUP6 DUP3 PUSH2 0x301 JUMP JUMPDEST DUP7 SSTORE POP PUSH2 0x3E3 JUMP JUMPDEST PUSH1 0x1F NOT DUP5 AND PUSH2 0x392 DUP7 PUSH2 0x176 JUMP JUMPDEST PUSH0 JUMPDEST DUP3 DUP2 LT ISZERO PUSH2 0x3B9 JUMPI DUP5 DUP10 ADD MLOAD DUP3 SSTORE PUSH1 0x1 DUP3 ADD SWAP2 POP PUSH1 0x20 DUP6 ADD SWAP5 POP PUSH1 0x20 DUP2 ADD SWAP1 POP PUSH2 0x394 JUMP JUMPDEST DUP7 DUP4 LT ISZERO PUSH2 0x3D6 JUMPI DUP5 DUP10 ADD MLOAD PUSH2 0x3D2 PUSH1 0x1F DUP10 AND DUP3 PUSH2 0x2E5 JUMP JUMPDEST DUP4 SSTORE POP JUMPDEST PUSH1 0x1 PUSH1 0x2 DUP9 MUL ADD DUP9 SSTORE POP POP POP JUMPDEST POP POP POP POP POP POP JUMP JUMPDEST PUSH2 0x4096 DUP1 PUSH2 0x3F8 PUSH0 CODECOPY PUSH0 RETURN INVALID PUSH1 0x80 PUSH1 0x40 MSTORE PUSH1 0x4 CALLDATASIZE LT PUSH2 0x14A JUMPI PUSH0 CALLDATALOAD PUSH1 0xE0 SHR DUP1 PUSH4 0x70A08231 GT PUSH2 0xB5 JUMPI DUP1 PUSH4 0xC87B56DD GT PUSH2 0x6E JUMPI DUP1 PUSH4 0xC87B56DD EQ PUSH2 0x472 JUMPI DUP1 PUSH4 0xD74D1F43 EQ PUSH2 0x4AE JUMPI DUP1 PUSH4 0xE985E9C5 EQ PUSH2 0x4EF JUMPI DUP1 PUSH4 0xF01C823D EQ PUSH2 0x52B JUMPI DUP1 PUSH4 0xF5DF7010 EQ PUSH2 0x547 JUMPI DUP1 PUSH4 0xF7746E36 EQ PUSH2 0x56F JUMPI PUSH2 0x14A JUMP JUMPDEST DUP1 PUSH4 0x70A08231 EQ PUSH2 0x358 JUMPI DUP1 PUSH4 0x95D89B41 EQ PUSH2 0x394 JUMPI DUP1 PUSH4 0xA22CB465 EQ PUSH2 0x3BE JUMPI DUP1 PUSH4 0xAE14AE40 EQ PUSH2 0x3E6 JUMPI DUP1 PUSH4 0xB88D4FDE EQ PUSH2 0x40E JUMPI DUP1 PUSH4 0xC31CF51A EQ PUSH2 0x436 JUMPI PUSH2 0x14A JUMP JUMPDEST DUP1 PUSH4 0x23B872DD GT PUSH2 0x107 JUMPI DUP1 PUSH4 0x23B872DD EQ PUSH2 0x26C JUMPI DUP1 PUSH4 0x24CB1534 EQ PUSH2 0x294 JUMPI DUP1 PUSH4 0x3A8488F8 EQ PUSH2 0x2BC JUMPI DUP1 PUSH4 0x42842E0E EQ PUSH2 0x2D8 JUMPI DUP1 PUSH4 0x59638956 EQ PUSH2 0x300 JUMPI DUP1 PUSH4 0x6352211E EQ PUSH2 0x31C JUMPI PUSH2 0x14A JUMP JUMPDEST DUP1 PUSH4 0x1FFC9A7 EQ PUSH2 0x14E JUMPI DUP1 PUSH4 0x3EF5104 EQ PUSH2 0x18A JUMPI DUP1 PUSH4 0x6FDDE03 EQ PUSH2 0x1B4 JUMPI DUP1 PUSH4 0x81812FC EQ PUSH2 0x1DE JUMPI DUP1 PUSH4 0x95EA7B3 EQ PUSH2 0x21A JUMPI DUP1 PUSH4 0x200CA6EF EQ PUSH2 0x242 JUMPI JUMPDEST PUSH0 DUP1 REVERT JUMPDEST CALLVALUE DUP1 ISZERO PUSH2 0x159 JUMPI PUSH0 DUP1 REVERT JUMPDEST POP PUSH2 0x174 PUSH1 0x4 DUP1 CALLDATASIZE SUB DUP2 ADD SWAP1 PUSH2 0x16F SWAP2 SWAP1 PUSH2 0x2D8F JUMP JUMPDEST PUSH2 0x5B0 JUMP JUMPDEST PUSH1 0x40 MLOAD PUSH2 0x181 SWAP2 SWAP1 PUSH2 0x2DD4 JUMP JUMPDEST PUSH1 0x40 MLOAD DUP1 SWAP2 SUB SWAP1 RETURN JUMPDEST CALLVALUE DUP1 ISZERO PUSH2 0x195 JUMPI PUSH0 DUP1 REVERT JUMPDEST POP PUSH2 0x19E PUSH2 0x691 JUMP JUMPDEST PUSH1 0x40 MLOAD PUSH2 0x1AB SWAP2 SWAP1 PUSH2 0x2E2C JUMP JUMPDEST PUSH1 0x40 MLOAD DUP1 SWAP2 SUB SWAP1 RETURN JUMPDEST CALLVALUE DUP1 ISZERO PUSH2 0x1BF JUMPI PUSH0 DUP1 REVERT JUMPDEST POP PUSH2 0x1C8 PUSH2 0x6B6 JUMP JUMPDEST PUSH1 0x40 MLOAD PUSH2 0x1D5 SWAP2 SWAP1 PUSH2 0x2EB5 JUMP JUMPDEST PUSH1 0x40 MLOAD DUP1 SWAP2 SUB SWAP1 RETURN JUMPDEST CALLVALUE DUP1 ISZERO PUSH2 0x1E9 JUMPI PUSH0 DUP1 REVERT JUMPDEST POP PUSH2 0x204 PUSH1 0x4 DUP1 CALLDATASIZE SUB DUP2 ADD SWAP1 PUSH2 0x1FF SWAP2 SWAP1 PUSH2 0x2F08 JUMP JUMPDEST PUSH2 0x745 JUMP JUMPDEST PUSH1 0x40 MLOAD PUSH2 0x211 SWAP2 SWAP1 PUSH2 0x2E2C JUMP JUMPDEST PUSH1 0x40 MLOAD DUP1 SWAP2 SUB SWAP1 RETURN JUMPDEST CALLVALUE DUP1 ISZERO PUSH2 0x225 JUMPI PUSH0 DUP1 REVERT JUMPDEST POP PUSH2 0x240 PUSH1 0x4 DUP1 CALLDATASIZE SUB DUP2 ADD SWAP1 PUSH2 0x23B SWAP2 SWAP1 PUSH2 0x2F5D JUMP JUMPDEST PUSH2 0x760 JUMP JUMPDEST STOP JUMPDEST CALLVALUE DUP1 ISZERO PUSH2 0x24D JUMPI PUSH0 DUP1 REVERT JUMPDEST POP PUSH2 0x256 PUSH2 0x776 JUMP JUMPDEST PUSH1 0x40 MLOAD PUSH2 0x263 SWAP2 SWAP1 PUSH2 0x2FAA JUMP JUMPDEST PUSH1 0x40 MLOAD DUP1 SWAP2 SUB SWAP1 RETURN JUMPDEST CALLVALUE DUP1 ISZERO PUSH2 0x277 JUMPI PUSH0 DUP1 REVERT JUMPDEST POP PUSH2 0x292 PUSH1 0x4 DUP1 CALLDATASIZE SUB DUP2 ADD SWAP1 PUSH2 0x28D SWAP2 SWAP1 PUSH2 0x2FC3 JUMP JUMPDEST PUSH2 0x77D JUMP JUMPDEST STOP JUMPDEST CALLVALUE DUP1 ISZERO PUSH2 0x29F JUMPI PUSH0 DUP1 REVERT JUMPDEST POP PUSH2 0x2BA PUSH1 0x4 DUP1 CALLDATASIZE SUB DUP2 ADD SWAP1 PUSH2 0x2B5 SWAP2 SWAP1 PUSH2 0x313F JUMP JUMPDEST PUSH2 0x87C JUMP JUMPDEST STOP JUMPDEST PUSH2 0x2D6 PUSH1 0x4 DUP1 CALLDATASIZE SUB DUP2 ADD SWAP1 PUSH2 0x2D1 SWAP2 SWAP1 PUSH2 0x3224 JUMP JUMPDEST PUSH2 0x9E8 JUMP JUMPDEST STOP JUMPDEST CALLVALUE DUP1 ISZERO PUSH2 0x2E3 JUMPI PUSH0 DUP1 REVERT JUMPDEST POP PUSH2 0x2FE PUSH1 0x4 DUP1 CALLDATASIZE SUB DUP2 ADD SWAP1 PUSH2 0x2F9 SWAP2 SWAP1 PUSH2 0x2FC3 JUMP JUMPDEST PUSH2 0xE42 JUMP JUMPDEST STOP JUMPDEST PUSH2 0x31A PUSH1 0x4 DUP1 CALLDATASIZE SUB DUP2 ADD SWAP1 PUSH2 0x315 SWAP2 SWAP1 PUSH2 0x32AD JUMP JUMPDEST PUSH2 0xE61 JUMP JUMPDEST STOP JUMPDEST CALLVALUE DUP1 ISZERO PUSH2 0x327 JUMPI PUSH0 DUP1 REVERT JUMPDEST POP PUSH2 0x342 PUSH1 0x4 DUP1 CALLDATASIZE SUB DUP2 ADD SWAP1 PUSH2 0x33D SWAP2 SWAP1 PUSH2 0x2F08 JUMP JUMPDEST PUSH2 0x102D JUMP JUMPDEST PUSH1 0x40 MLOAD PUSH2 0x34F SWAP2 SWAP1 PUSH2 0x2E2C JUMP JUMPDEST PUSH1 0x40 MLOAD DUP1 SWAP2 SUB SWAP1 RETURN JUMPDEST CALLVALUE DUP1 ISZERO PUSH2 0x363 JUMPI PUSH0 DUP1 REVERT JUMPDEST POP PUSH2 0x37E PUSH1 0x4 DUP1 CALLDATASIZE SUB DUP2 ADD SWAP1 PUSH2 0x379 SWAP2 SWAP1 PUSH2 0x3311 JUMP JUMPDEST PUSH2 0x103E JUMP JUMPDEST PUSH1 0x40 MLOAD PUSH2 0x38B SWAP2 SWAP1 PUSH2 0x2FAA JUMP JUMPDEST PUSH1 0x40 MLOAD DUP1 SWAP2 SUB SWAP1 RETURN JUMPDEST CALLVALUE DUP1 ISZERO PUSH2 0x39F JUMPI PUSH0 DUP1 REVERT JUMPDEST POP PUSH2 0x3A8 PUSH2 0x10F4 JUMP JUMPDEST PUSH1 0x40 MLOAD PUSH2 0x3B5 SWAP2 SWAP1 PUSH2 0x2EB5 JUMP JUMPDEST PUSH1 0x40 MLOAD DUP1 SWAP2 SUB SWAP1 RETURN JUMPDEST CALLVALUE DUP1 ISZERO PUSH2 0x3C9 JUMPI PUSH0 DUP1 REVERT JUMPDEST POP PUSH2 0x3E4 PUSH1 0x4 DUP1 CALLDATASIZE SUB DUP2 ADD SWAP1 PUSH2 0x3DF SWAP2 SWAP1 PUSH2 0x3366 JUMP JUMPDEST PUSH2 0x1184 JUMP JUMPDEST STOP JUMPDEST CALLVALUE DUP1 ISZERO PUSH2 0x3F1 JUMPI PUSH0 DUP1 REVERT JUMPDEST POP PUSH2 0x40C PUSH1 0x4 DUP1 CALLDATASIZE SUB DUP2 ADD SWAP1 PUSH2 0x407 SWAP2 SWAP1 PUSH2 0x3311 JUMP JUMPDEST PUSH2 0x119A JUMP JUMPDEST STOP JUMPDEST CALLVALUE DUP1 ISZERO PUSH2 0x419 JUMPI PUSH0 DUP1 REVERT JUMPDEST POP PUSH2 0x434 PUSH1 0x4 DUP1 CALLDATASIZE SUB DUP2 ADD SWAP1 PUSH2 0x42F SWAP2 SWAP1 PUSH2 0x3442 JUMP JUMPDEST PUSH2 0x134F JUMP JUMPDEST STOP JUMPDEST CALLVALUE DUP1 ISZERO PUSH2 0x441 JUMPI PUSH0 DUP1 REVERT JUMPDEST POP PUSH2 0x45C PUSH1 0x4 DUP1 CALLDATASIZE SUB DUP2 ADD SWAP1 PUSH2 0x457 SWAP2 SWAP1 PUSH2 0x32AD JUMP JUMPDEST PUSH2 0x1374 JUMP JUMPDEST PUSH1 0x40 MLOAD PUSH2 0x469 SWAP2 SWAP1 PUSH2 0x2FAA JUMP JUMPDEST PUSH1 0x40 MLOAD DUP1 SWAP2 SUB SWAP1 RETURN JUMPDEST CALLVALUE DUP1 ISZERO PUSH2 0x47D JUMPI PUSH0 DUP1 REVERT JUMPDEST POP PUSH2 0x498 PUSH1 0x4 DUP1 CALLDATASIZE SUB DUP2 ADD SWAP1 PUSH2 0x493 SWAP2 SWAP1 PUSH2 0x2F08 JUMP JUMPDEST PUSH2 0x1752 JUMP JUMPDEST PUSH1 0x40 MLOAD PUSH2 0x4A5 SWAP2 SWAP1 PUSH2 0x2EB5 JUMP JUMPDEST PUSH1 0x40 MLOAD DUP1 SWAP2 SUB SWAP1 RETURN JUMPDEST CALLVALUE DUP1 ISZERO PUSH2 0x4B9 JUMPI PUSH0 DUP1 REVERT JUMPDEST POP PUSH2 0x4D4 PUSH1 0x4 DUP1 CALLDATASIZE SUB DUP2 ADD SWAP1 PUSH2 0x4CF SWAP2 SWAP1 PUSH2 0x3311 JUMP JUMPDEST PUSH2 0x17B8 JUMP JUMPDEST PUSH1 0x40 MLOAD PUSH2 0x4E6 SWAP7 SWAP6 SWAP5 SWAP4 SWAP3 SWAP2 SWAP1 PUSH2 0x34C2 JUMP JUMPDEST PUSH1 0x40 MLOAD DUP1 SWAP2 SUB SWAP1 RETURN JUMPDEST CALLVALUE DUP1 ISZERO PUSH2 0x4FA JUMPI PUSH0 DUP1 REVERT JUMPDEST POP PUSH2 0x515 PUSH1 0x4 DUP1 CALLDATASIZE SUB DUP2 ADD SWAP1 PUSH2 0x510 SWAP2 SWAP1 PUSH2 0x3521 JUMP JUMPDEST PUSH2 0x1828 JUMP JUMPDEST PUSH1 0x40 MLOAD PUSH2 0x522 SWAP2 SWAP1 PUSH2 0x2DD4 JUMP JUMPDEST PUSH1 0x40 MLOAD DUP1 SWAP2 SUB SWAP1 RETURN JUMPDEST PUSH2 0x545 PUSH1 0x4 DUP1 CALLDATASIZE SUB DUP2 ADD SWAP1 PUSH2 0x540 SWAP2 SWAP1 PUSH2 0x2F08 JUMP JUMPDEST PUSH2 0x18B6 JUMP JUMPDEST STOP JUMPDEST CALLVALUE DUP1 ISZERO PUSH2 0x552 JUMPI PUSH0 DUP1 REVERT JUMPDEST POP PUSH2 0x56D PUSH1 0x4 DUP1 CALLDATASIZE SUB DUP2 ADD SWAP1 PUSH2 0x568 SWAP2 SWAP1 PUSH2 0x3311 JUMP JUMPDEST PUSH2 0x1B2B JUMP JUMPDEST STOP JUMPDEST CALLVALUE DUP1 ISZERO PUSH2 0x57A JUMPI PUSH0 DUP1 REVERT JUMPDEST POP PUSH2 0x595 PUSH1 0x4 DUP1 CALLDATASIZE SUB DUP2 ADD SWAP1 PUSH2 0x590 SWAP2 SWAP1 PUSH2 0x2F08 JUMP JUMPDEST PUSH2 0x1D5D JUMP JUMPDEST PUSH1 0x40 MLOAD PUSH2 0x5A7 SWAP7 SWAP6 SWAP5 SWAP4 SWAP3 SWAP2 SWAP1 PUSH2 0x355F JUMP JUMPDEST PUSH1 0x40 MLOAD DUP1 SWAP2 SUB SWAP1 RETURN JUMPDEST PUSH0 PUSH32 0x80AC58CD00000000000000000000000000000000000000000000000000000000 PUSH28 0xFFFFFFFFFFFFFFFFFFFFFFFFFFFFFFFFFFFFFFFFFFFFFFFFFFFFFFFF NOT AND DUP3 PUSH28 0xFFFFFFFFFFFFFFFFFFFFFFFFFFFFFFFFFFFFFFFFFFFFFFFFFFFFFFFF NOT AND EQ DUP1 PUSH2 0x67A JUMPI POP PUSH32 0x5B5E139F00000000000000000000000000000000000000000000000000000000 PUSH28 0xFFFFFFFFFFFFFFFFFFFFFFFFFFFFFFFFFFFFFFFFFFFFFFFFFFFFFFFF NOT AND DUP3 PUSH28 0xFFFFFFFFFFFFFFFFFFFFFFFFFFFFFFFFFFFFFFFFFFFFFFFFFFFFFFFF NOT AND EQ JUMPDEST DUP1 PUSH2 0x68A JUMPI POP PUSH2 0x689 DUP3 PUSH2 0x1EA1 JUMP JUMPDEST JUMPDEST SWAP1 POP SWAP2 SWAP1 POP JUMP JUMPDEST PUSH1 0x9 PUSH0 SWAP1 SLOAD SWAP1 PUSH2 0x100 EXP SWAP1 DIV PUSH20 0xFFFFFFFFFFFFFFFFFFFFFFFFFFFFFFFFFFFFFFFF AND DUP2 JUMP JUMPDEST PUSH1 0x60 PUSH0 DUP1 SLOAD PUSH2 0x6C4 SWAP1 PUSH2 0x35F9 JUMP JUMPDEST DUP1 PUSH1 0x1F ADD PUSH1 0x20 DUP1 SWAP2 DIV MUL PUSH1 0x20 ADD PUSH1 0x40 MLOAD SWAP1 DUP2 ADD PUSH1 0x40 MSTORE DUP1 SWAP3 SWAP2 SWAP1 DUP2 DUP2 MSTORE PUSH1 0x20 ADD DUP3 DUP1 SLOAD PUSH2 0x6F0 SWAP1 PUSH2 0x35F9 JUMP JUMPDEST DUP1 ISZERO PUSH2 0x73B JUMPI DUP1 PUSH1 0x1F LT PUSH2 0x712 JUMPI PUSH2 0x100 DUP1 DUP4 SLOAD DIV MUL DUP4 MSTORE SWAP2 PUSH1 0x20 ADD SWAP2 PUSH2 0x73B JUMP JUMPDEST DUP3 ADD SWAP2 SWAP1 PUSH0 MSTORE PUSH1 0x20 PUSH0 KECCAK256 SWAP1 JUMPDEST DUP2 SLOAD DUP2 MSTORE SWAP1 PUSH1 0x1 ADD SWAP1 PUSH1 0x20 ADD DUP1 DUP4 GT PUSH2 0x71E JUMPI DUP3 SWAP1 SUB PUSH1 0x1F AND DUP3 ADD SWAP2 JUMPDEST POP POP POP POP POP SWAP1 POP SWAP1 JUMP JUMPDEST PUSH0 PUSH2 0x74F DUP3 PUSH2 0x1F0A JUMP JUMPDEST POP PUSH2 0x759 DUP3 PUSH2 0x1F90 JUMP JUMPDEST SWAP1 POP SWAP2 SWAP1 POP JUMP JUMPDEST PUSH2 0x772 DUP3 DUP3 PUSH2 0x76D PUSH2 0x1FC9 JUMP JUMPDEST PUSH2 0x1FD0 JUMP JUMPDEST POP POP JUMP JUMPDEST PUSH3 0x278D00 DUP2 JUMP JUMPDEST PUSH0 PUSH20 0xFFFFFFFFFFFFFFFFFFFFFFFFFFFFFFFFFFFFFFFF AND DUP3 PUSH20 0xFFFFFFFFFFFFFFFFFFFFFFFFFFFFFFFFFFFFFFFF AND SUB PUSH2 0x7ED JUMPI PUSH0 PUSH1 0x40 MLOAD PUSH32 0x64A0AE9200000000000000000000000000000000000000000000000000000000 DUP2 MSTORE PUSH1 0x4 ADD PUSH2 0x7E4 SWAP2 SWAP1 PUSH2 0x2E2C JUMP JUMPDEST PUSH1 0x40 MLOAD DUP1 SWAP2 SUB SWAP1 REVERT JUMPDEST PUSH0 PUSH2 0x800 DUP4 DUP4 PUSH2 0x7FB PUSH2 0x1FC9 JUMP JUMPDEST PUSH2 0x1FE2 JUMP JUMPDEST SWAP1 POP DUP4 PUSH20 0xFFFFFFFFFFFFFFFFFFFFFFFFFFFFFFFFFFFFFFFF AND DUP2 PUSH20 0xFFFFFFFFFFFFFFFFFFFFFFFFFFFFFFFFFFFFFFFF AND EQ PUSH2 0x876 JUMPI DUP4 DUP3 DUP3 PUSH1 0x40 MLOAD PUSH32 0x64283D7B00000000000000000000000000000000000000000000000000000000 DUP2 MSTORE PUSH1 0x4 ADD PUSH2 0x86D SWAP4 SWAP3 SWAP2 SWAP1 PUSH2 0x3629 JUMP JUMPDEST PUSH1 0x40 MLOAD DUP1 SWAP2 SUB SWAP1 REVERT JUMPDEST POP POP POP POP JUMP JUMPDEST PUSH1 0x9 PUSH0 SWAP1 SLOAD SWAP1 PUSH2 0x100 EXP SWAP1 DIV PUSH20 0xFFFFFFFFFFFFFFFFFFFFFFFFFFFFFFFFFFFFFFFF AND PUSH20 0xFFFFFFFFFFFFFFFFFFFFFFFFFFFFFFFFFFFFFFFF AND CALLER PUSH20 0xFFFFFFFFFFFFFFFFFFFFFFFFFFFFFFFFFFFFFFFF AND EQ PUSH2 0x90B JUMPI PUSH1 0x40 MLOAD PUSH32 0x8C379A000000000000000000000000000000000000000000000000000000000 DUP2 MSTORE PUSH1 0x4 ADD PUSH2 0x902 SWAP1 PUSH2 0x36CE JUMP JUMPDEST PUSH1 0x40 MLOAD DUP1 SWAP2 SUB SWAP1 REVERT JUMPDEST PUSH2 0x915 PUSH1 0x6 PUSH2 0x21ED JUMP JUMPDEST PUSH0 PUSH2 0x920 PUSH1 0x6 PUSH2 0x2201 JUMP JUMPDEST SWAP1 POP PUSH1 0x40 MLOAD DUP1 PUSH1 0xC0 ADD PUSH1 0x40 MSTORE DUP1 DUP3 DUP2 MSTORE PUSH1 0x20 ADD DUP8 DUP2 MSTORE PUSH1 0x20 ADD DUP7 DUP2 MSTORE PUSH1 0x20 ADD DUP6 DUP2 MSTORE PUSH1 0x20 ADD DUP5 DUP2 MSTORE PUSH1 0x20 ADD DUP4 DUP2 MSTORE POP PUSH1 0x7 PUSH0 DUP4 DUP2 MSTORE PUSH1 0x20 ADD SWAP1 DUP2 MSTORE PUSH1 0x20 ADD PUSH0 KECCAK256 PUSH0 DUP3 ADD MLOAD DUP2 PUSH0 ADD SSTORE PUSH1 0x20 DUP3 ADD MLOAD DUP2 PUSH1 0x1 ADD SWAP1 DUP2 PUSH2 0x97D SWAP2 SWAP1 PUSH2 0x3889 JUMP JUMPDEST POP PUSH1 0x40 DUP3 ADD MLOAD DUP2 PUSH1 0x2 ADD SWAP1 DUP2 PUSH2 0x993 SWAP2 SWAP1 PUSH2 0x3889 JUMP JUMPDEST POP PUSH1 0x60 DUP3 ADD MLOAD DUP2 PUSH1 0x3 ADD SSTORE PUSH1 0x80 DUP3 ADD MLOAD DUP2 PUSH1 0x4 ADD SSTORE PUSH1 0xA0 DUP3 ADD MLOAD DUP2 PUSH1 0x5 ADD SSTORE SWAP1 POP POP PUSH2 0x9E0 PUSH1 0x9 PUSH0 SWAP1 SLOAD SWAP1 PUSH2 0x100 EXP SWAP1 DIV PUSH20 0xFFFFFFFFFFFFFFFFFFFFFFFFFFFFFFFFFFFFFFFF AND DUP3 PUSH2 0x220D JUMP JUMPDEST POP POP POP POP POP POP JUMP JUMPDEST DUP6 DUP1 PUSH1 0x8 PUSH0 CALLER PUSH20 0xFFFFFFFFFFFFFFFFFFFFFFFFFFFFFFFFFFFFFFFF AND PUSH20 0xFFFFFFFFFFFFFFFFFFFFFFFFFFFFFFFFFFFFFFFF AND DUP2 MSTORE PUSH1 0x20 ADD SWAP1 DUP2 MSTORE PUSH1 0x20 ADD PUSH0 KECCAK256 PUSH0 ADD SLOAD EQ PUSH2 0xA6A JUMPI PUSH1 0x40 MLOAD PUSH32 0x8C379A000000000000000000000000000000000000000000000000000000000 DUP2 MSTORE PUSH1 0x4 ADD PUSH2 0xA61 SWAP1 PUSH2 0x39A2 JUMP JUMPDEST PUSH1 0x40 MLOAD DUP1 SWAP2 SUB SWAP1 REVERT JUMPDEST PUSH0 PUSH1 0x8 PUSH0 CALLER PUSH20 0xFFFFFFFFFFFFFFFFFFFFFFFFFFFFFFFFFFFFFFFF AND PUSH20 0xFFFFFFFFFFFFFFFFFFFFFFFFFFFFFFFFFFFFFFFF AND DUP2 MSTORE PUSH1 0x20 ADD SWAP1 DUP2 MSTORE PUSH1 0x20 ADD PUSH0 KECCAK256 SWAP1 POP DUP1 PUSH1 0x4 ADD PUSH1 0x1 SWAP1 SLOAD SWAP1 PUSH2 0x100 EXP SWAP1 DIV PUSH1 0xFF AND PUSH2 0xAFB JUMPI PUSH1 0x40 MLOAD PUSH32 0x8C379A000000000000000000000000000000000000000000000000000000000 DUP2 MSTORE PUSH1 0x4 ADD PUSH2 0xAF2 SWAP1 PUSH2 0x3A0A JUMP JUMPDEST PUSH1 0x40 MLOAD DUP1 SWAP2 SUB SWAP1 REVERT JUMPDEST PUSH1 0x1 DUP8 PUSH1 0xFF AND SUB PUSH2 0xB53 JUMPI PUSH0 DUP2 PUSH1 0x4 ADD PUSH1 0x1 PUSH2 0x100 EXP DUP2 SLOAD DUP2 PUSH1 0xFF MUL NOT AND SWAP1 DUP4 ISZERO ISZERO MUL OR SWAP1 SSTORE POP PUSH2 0xB4E CALLER PUSH1 0x9 PUSH0 SWAP1 SLOAD SWAP1 PUSH2 0x100 EXP SWAP1 DIV PUSH20 0xFFFFFFFFFFFFFFFFFFFFFFFFFFFFFFFFFFFFFFFF AND DUP11 PUSH2 0x2300 JUMP JUMPDEST PUSH2 0xE38 JUMP JUMPDEST PUSH1 0x2 DUP8 PUSH1 0xFF AND SUB PUSH2 0xB95 JUMPI PUSH0 PUSH2 0xB6D DUP10 PUSH0 PUSH1 0x1 PUSH1 0xC PUSH2 0x1374 JUMP JUMPDEST SWAP1 POP DUP1 DUP3 PUSH1 0x2 ADD DUP2 SWAP1 SSTORE POP PUSH3 0x278D00 TIMESTAMP PUSH2 0xB87 SWAP2 SWAP1 PUSH2 0x3A55 JUMP JUMPDEST DUP3 PUSH1 0x3 ADD DUP2 SWAP1 SSTORE POP POP PUSH2 0xE37 JUMP JUMPDEST PUSH1 0x3 DUP8 PUSH1 0xFF AND SUB PUSH2 0xDFB JUMPI PUSH0 DUP2 PUSH1 0x4 ADD PUSH1 0x1 PUSH2 0x100 EXP DUP2 SLOAD DUP2 PUSH1 0xFF MUL NOT AND SWAP1 DUP4 ISZERO ISZERO MUL OR SWAP1 SSTORE POP PUSH2 0xBE8 CALLER PUSH1 0x9 PUSH0 SWAP1 SLOAD SWAP1 PUSH2 0x100 EXP SWAP1 DIV PUSH20 0xFFFFFFFFFFFFFFFFFFFFFFFFFFFFFFFFFFFFFFFF AND DUP11 PUSH2 0x2300 JUMP JUMPDEST PUSH1 0x8 PUSH0 CALLER PUSH20 0xFFFFFFFFFFFFFFFFFFFFFFFFFFFFFFFFFFFFFFFF AND PUSH20 0xFFFFFFFFFFFFFFFFFFFFFFFFFFFFFFFFFFFFFFFF AND DUP2 MSTORE PUSH1 0x20 ADD SWAP1 DUP2 MSTORE PUSH1 0x20 ADD PUSH0 KECCAK256 PUSH0 DUP1 DUP3 ADD PUSH0 SWAP1 SSTORE PUSH1 0x1 DUP3 ADD PUSH0 PUSH2 0x100 EXP DUP2 SLOAD SWAP1 PUSH20 0xFFFFFFFFFFFFFFFFFFFFFFFFFFFFFFFFFFFFFFFF MUL NOT AND SWAP1 SSTORE PUSH1 0x2 DUP3 ADD PUSH0 SWAP1 SSTORE PUSH1 0x3 DUP3 ADD PUSH0 SWAP1 SSTORE PUSH1 0x4 DUP3 ADD PUSH0 PUSH2 0x100 EXP DUP2 SLOAD SWAP1 PUSH1 0xFF MUL NOT AND SWAP1 SSTORE PUSH1 0x4 DUP3 ADD PUSH1 0x1 PUSH2 0x100 EXP DUP2 SLOAD SWAP1 PUSH1 0xFF MUL NOT AND SWAP1 SSTORE POP POP PUSH1 0x40 MLOAD DUP1 PUSH1 0xC0 ADD PUSH1 0x40 MSTORE DUP1 DUP8 DUP2 MSTORE PUSH1 0x20 ADD CALLER PUSH20 0xFFFFFFFFFFFFFFFFFFFFFFFFFFFFFFFFFFFFFFFF AND DUP2 MSTORE PUSH1 0x20 ADD PUSH2 0xCC2 DUP9 DUP9 DUP9 DUP9 PUSH2 0x1374 JUMP JUMPDEST DUP2 MSTORE PUSH1 0x20 ADD PUSH3 0x278D00 TIMESTAMP PUSH2 0xCD6 SWAP2 SWAP1 PUSH2 0x3A55 JUMP JUMPDEST DUP2 MSTORE PUSH1 0x20 ADD PUSH0 ISZERO ISZERO DUP2 MSTORE PUSH1 0x20 ADD PUSH0 ISZERO ISZERO DUP2 MSTORE POP PUSH1 0x8 PUSH0 CALLER PUSH20 0xFFFFFFFFFFFFFFFFFFFFFFFFFFFFFFFFFFFFFFFF AND PUSH20 0xFFFFFFFFFFFFFFFFFFFFFFFFFFFFFFFFFFFFFFFF AND DUP2 MSTORE PUSH1 0x20 ADD SWAP1 DUP2 MSTORE PUSH1 0x20 ADD PUSH0 KECCAK256 PUSH0 DUP3 ADD MLOAD DUP2 PUSH0 ADD SSTORE PUSH1 0x20 DUP3 ADD MLOAD DUP2 PUSH1 0x1 ADD PUSH0 PUSH2 0x100 EXP DUP2 SLOAD DUP2 PUSH20 0xFFFFFFFFFFFFFFFFFFFFFFFFFFFFFFFFFFFFFFFF MUL NOT AND SWAP1 DUP4 PUSH20 0xFFFFFFFFFFFFFFFFFFFFFFFFFFFFFFFFFFFFFFFF AND MUL OR SWAP1 SSTORE POP PUSH1 0x40 DUP3 ADD MLOAD DUP2 PUSH1 0x2 ADD SSTORE PUSH1 0x60 DUP3 ADD MLOAD DUP2 PUSH1 0x3 ADD SSTORE PUSH1 0x80 DUP3 ADD MLOAD DUP2 PUSH1 0x4 ADD PUSH0 PUSH2 0x100 EXP DUP2 SLOAD DUP2 PUSH1 0xFF MUL NOT AND SWAP1 DUP4 ISZERO ISZERO MUL OR SWAP1 SSTORE POP PUSH1 0xA0 DUP3 ADD MLOAD DUP2 PUSH1 0x4 ADD PUSH1 0x1 PUSH2 0x100 EXP DUP2 SLOAD DUP2 PUSH1 0xFF MUL NOT AND SWAP1 DUP4 ISZERO ISZERO MUL OR SWAP1 SSTORE POP SWAP1 POP POP PUSH2 0xDF6 PUSH1 0x9 PUSH0 SWAP1 SLOAD SWAP1 PUSH2 0x100 EXP SWAP1 DIV PUSH20 0xFFFFFFFFFFFFFFFFFFFFFFFFFFFFFFFFFFFFFFFF AND ADDRESS DUP9 PUSH2 0x2300 JUMP JUMPDEST PUSH2 0xE36 JUMP JUMPDEST PUSH1 0x40 MLOAD PUSH32 0x8C379A000000000000000000000000000000000000000000000000000000000 DUP2 MSTORE PUSH1 0x4 ADD PUSH2 0xE2D SWAP1 PUSH2 0x3AD2 JUMP JUMPDEST PUSH1 0x40 MLOAD DUP1 SWAP2 SUB SWAP1 REVERT JUMPDEST JUMPDEST JUMPDEST POP POP POP POP POP POP POP POP JUMP JUMPDEST PUSH2 0xE5C DUP4 DUP4 DUP4 PUSH1 0x40 MLOAD DUP1 PUSH1 0x20 ADD PUSH1 0x40 MSTORE DUP1 PUSH0 DUP2 MSTORE POP PUSH2 0x134F JUMP JUMPDEST POP POP POP JUMP JUMPDEST PUSH0 PUSH2 0xE6E DUP6 DUP6 DUP6 DUP6 PUSH2 0x1374 JUMP JUMPDEST SWAP1 POP PUSH0 PUSH1 0x4 DUP3 PUSH2 0xE7E SWAP2 SWAP1 PUSH2 0x3AF0 JUMP JUMPDEST SWAP1 POP DUP1 CALLVALUE LT ISZERO PUSH2 0xEC3 JUMPI PUSH1 0x40 MLOAD PUSH32 0x8C379A000000000000000000000000000000000000000000000000000000000 DUP2 MSTORE PUSH1 0x4 ADD PUSH2 0xEBA SWAP1 PUSH2 0x3B7B JUMP JUMPDEST PUSH1 0x40 MLOAD DUP1 SWAP2 SUB SWAP1 REVERT JUMPDEST PUSH1 0x40 MLOAD DUP1 PUSH1 0xC0 ADD PUSH1 0x40 MSTORE DUP1 DUP8 DUP2 MSTORE PUSH1 0x20 ADD CALLER PUSH20 0xFFFFFFFFFFFFFFFFFFFFFFFFFFFFFFFFFFFFFFFF AND DUP2 MSTORE PUSH1 0x20 ADD DUP4 DUP2 MSTORE PUSH1 0x20 ADD PUSH3 0x278D00 TIMESTAMP PUSH2 0xF05 SWAP2 SWAP1 PUSH2 0x3A55 JUMP JUMPDEST DUP2 MSTORE PUSH1 0x20 ADD PUSH0 ISZERO ISZERO DUP2 MSTORE PUSH1 0x20 ADD PUSH0 ISZERO ISZERO DUP2 MSTORE POP PUSH1 0x8 PUSH0 CALLER PUSH20 0xFFFFFFFFFFFFFFFFFFFFFFFFFFFFFFFFFFFFFFFF AND PUSH20 0xFFFFFFFFFFFFFFFFFFFFFFFFFFFFFFFFFFFFFFFF AND DUP2 MSTORE PUSH1 0x20 ADD SWAP1 DUP2 MSTORE PUSH1 0x20 ADD PUSH0 KECCAK256 PUSH0 DUP3 ADD MLOAD DUP2 PUSH0 ADD SSTORE PUSH1 0x20 DUP3 ADD MLOAD DUP2 PUSH1 0x1 ADD PUSH0 PUSH2 0x100 EXP DUP2 SLOAD DUP2 PUSH20 0xFFFFFFFFFFFFFFFFFFFFFFFFFFFFFFFFFFFFFFFF MUL NOT AND SWAP1 DUP4 PUSH20 0xFFFFFFFFFFFFFFFFFFFFFFFFFFFFFFFFFFFFFFFF AND MUL OR SWAP1 SSTORE POP PUSH1 0x40 DUP3 ADD MLOAD DUP2 PUSH1 0x2 ADD SSTORE PUSH1 0x60 DUP3 ADD MLOAD DUP2 PUSH1 0x3 ADD SSTORE PUSH1 0x80 DUP3 ADD MLOAD DUP2 PUSH1 0x4 ADD PUSH0 PUSH2 0x100 EXP DUP2 SLOAD DUP2 PUSH1 0xFF MUL NOT AND SWAP1 DUP4 ISZERO ISZERO MUL OR SWAP1 SSTORE POP PUSH1 0xA0 DUP3 ADD MLOAD DUP2 PUSH1 0x4 ADD PUSH1 0x1 PUSH2 0x100 EXP DUP2 SLOAD DUP2 PUSH1 0xFF MUL NOT AND SWAP1 DUP4 ISZERO ISZERO MUL OR SWAP1 SSTORE POP SWAP1 POP POP PUSH2 0x1025 PUSH1 0x9 PUSH0 SWAP1 SLOAD SWAP1 PUSH2 0x100 EXP SWAP1 DIV PUSH20 0xFFFFFFFFFFFFFFFFFFFFFFFFFFFFFFFFFFFFFFFF AND ADDRESS DUP9 PUSH2 0x2300 JUMP JUMPDEST POP POP POP POP POP POP JUMP JUMPDEST PUSH0 PUSH2 0x1037 DUP3 PUSH2 0x1F0A JUMP JUMPDEST SWAP1 POP SWAP2 SWAP1 POP JUMP JUMPDEST PUSH0 DUP1 PUSH20 0xFFFFFFFFFFFFFFFFFFFFFFFFFFFFFFFFFFFFFFFF AND DUP3 PUSH20 0xFFFFFFFFFFFFFFFFFFFFFFFFFFFFFFFFFFFFFFFF AND SUB PUSH2 0x10AF JUMPI PUSH0 PUSH1 0x40 MLOAD PUSH32 0x89C62B6400000000000000000000000000000000000000000000000000000000 DUP2 MSTORE PUSH1 0x4 ADD PUSH2 0x10A6 SWAP2 SWAP1 PUSH2 0x2E2C JUMP JUMPDEST PUSH1 0x40 MLOAD DUP1 SWAP2 SUB SWAP1 REVERT JUMPDEST PUSH1 0x3 PUSH0 DUP4 PUSH20 0xFFFFFFFFFFFFFFFFFFFFFFFFFFFFFFFFFFFFFFFF AND PUSH20 0xFFFFFFFFFFFFFFFFFFFFFFFFFFFFFFFFFFFFFFFF AND DUP2 MSTORE PUSH1 0x20 ADD SWAP1 DUP2 MSTORE PUSH1 0x20 ADD PUSH0 KECCAK256 SLOAD SWAP1 POP SWAP2 SWAP1 POP JUMP JUMPDEST PUSH1 0x60 PUSH1 0x1 DUP1 SLOAD PUSH2 0x1103 SWAP1 PUSH2 0x35F9 JUMP JUMPDEST DUP1 PUSH1 0x1F ADD PUSH1 0x20 DUP1 SWAP2 DIV MUL PUSH1 0x20 ADD PUSH1 0x40 MLOAD SWAP1 DUP2 ADD PUSH1 0x40 MSTORE DUP1 SWAP3 SWAP2 SWAP1 DUP2 DUP2 MSTORE PUSH1 0x20 ADD DUP3 DUP1 SLOAD PUSH2 0x112F SWAP1 PUSH2 0x35F9 JUMP JUMPDEST DUP1 ISZERO PUSH2 0x117A JUMPI DUP1 PUSH1 0x1F LT PUSH2 0x1151 JUMPI PUSH2 0x100 DUP1 DUP4 SLOAD DIV MUL DUP4 MSTORE SWAP2 PUSH1 0x20 ADD SWAP2 PUSH2 0x117A JUMP JUMPDEST DUP3 ADD SWAP2 SWAP1 PUSH0 MSTORE PUSH1 0x20 PUSH0 KECCAK256 SWAP1 JUMPDEST DUP2 SLOAD DUP2 MSTORE SWAP1 PUSH1 0x1 ADD SWAP1 PUSH1 0x20 ADD DUP1 DUP4 GT PUSH2 0x115D JUMPI DUP3 SWAP1 SUB PUSH1 0x1F AND DUP3 ADD SWAP2 JUMPDEST POP POP POP POP POP SWAP1 POP SWAP1 JUMP JUMPDEST PUSH2 0x1196 PUSH2 0x118F PUSH2 0x1FC9 JUMP JUMPDEST DUP4 DUP4 PUSH2 0x2468 JUMP JUMPDEST POP POP JUMP JUMPDEST PUSH1 0x9 PUSH0 SWAP1 SLOAD SWAP1 PUSH2 0x100 EXP SWAP1 DIV PUSH20 0xFFFFFFFFFFFFFFFFFFFFFFFFFFFFFFFFFFFFFFFF AND PUSH20 0xFFFFFFFFFFFFFFFFFFFFFFFFFFFFFFFFFFFFFFFF AND CALLER PUSH20 0xFFFFFFFFFFFFFFFFFFFFFFFFFFFFFFFFFFFFFFFF AND EQ PUSH2 0x1229 JUMPI PUSH1 0x40 MLOAD PUSH32 0x8C379A000000000000000000000000000000000000000000000000000000000 DUP2 MSTORE PUSH1 0x4 ADD PUSH2 0x1220 SWAP1 PUSH2 0x36CE JUMP JUMPDEST PUSH1 0x40 MLOAD DUP1 SWAP2 SUB SWAP1 REVERT JUMPDEST PUSH0 PUSH1 0x8 PUSH0 DUP4 PUSH20 0xFFFFFFFFFFFFFFFFFFFFFFFFFFFFFFFFFFFFFFFF AND PUSH20 0xFFFFFFFFFFFFFFFFFFFFFFFFFFFFFFFFFFFFFFFF AND DUP2 MSTORE PUSH1 0x20 ADD SWAP1 DUP2 MSTORE PUSH1 0x20 ADD PUSH0 KECCAK256 SWAP1 POP DUP1 PUSH1 0x4 ADD PUSH1 0x1 SWAP1 SLOAD SWAP1 PUSH2 0x100 EXP SWAP1 DIV PUSH1 0xFF AND PUSH2 0x12BA JUMPI PUSH1 0x40 MLOAD PUSH32 0x8C379A000000000000000000000000000000000000000000000000000000000 DUP2 MSTORE PUSH1 0x4 ADD PUSH2 0x12B1 SWAP1 PUSH2 0x3BE3 JUMP JUMPDEST PUSH1 0x40 MLOAD DUP1 SWAP2 SUB SWAP1 REVERT JUMPDEST DUP1 PUSH1 0x3 ADD SLOAD TIMESTAMP GT PUSH2 0x1300 JUMPI PUSH1 0x40 MLOAD PUSH32 0x8C379A000000000000000000000000000000000000000000000000000000000 DUP2 MSTORE PUSH1 0x4 ADD PUSH2 0x12F7 SWAP1 PUSH2 0x3C4B JUMP JUMPDEST PUSH1 0x40 MLOAD DUP1 SWAP2 SUB SWAP1 REVERT JUMPDEST PUSH0 DUP2 PUSH1 0x4 ADD PUSH1 0x1 PUSH2 0x100 EXP DUP2 SLOAD DUP2 PUSH1 0xFF MUL NOT AND SWAP1 DUP4 ISZERO ISZERO MUL OR SWAP1 SSTORE POP PUSH2 0x134B DUP3 PUSH1 0x9 PUSH0 SWAP1 SLOAD SWAP1 PUSH2 0x100 EXP SWAP1 DIV PUSH20 0xFFFFFFFFFFFFFFFFFFFFFFFFFFFFFFFFFFFFFFFF AND DUP4 PUSH0 ADD SLOAD PUSH2 0x2300 JUMP JUMPDEST POP POP JUMP JUMPDEST PUSH2 0x135A DUP5 DUP5 DUP5 PUSH2 0x77D JUMP JUMPDEST PUSH2 0x136E PUSH2 0x1365 PUSH2 0x1FC9 JUMP JUMPDEST DUP6 DUP6 DUP6 DUP6 PUSH2 0x25D1 JUMP JUMPDEST POP POP POP POP JUMP JUMPDEST PUSH0 DUP1 PUSH1 0x7 PUSH0 DUP8 DUP2 MSTORE PUSH1 0x20 ADD SWAP1 DUP2 MSTORE PUSH1 0x20 ADD PUSH0 KECCAK256 PUSH1 0x40 MLOAD DUP1 PUSH1 0xC0 ADD PUSH1 0x40 MSTORE SWAP1 DUP2 PUSH0 DUP3 ADD SLOAD DUP2 MSTORE PUSH1 0x20 ADD PUSH1 0x1 DUP3 ADD DUP1 SLOAD PUSH2 0x13AB SWAP1 PUSH2 0x35F9 JUMP JUMPDEST DUP1 PUSH1 0x1F ADD PUSH1 0x20 DUP1 SWAP2 DIV MUL PUSH1 0x20 ADD PUSH1 0x40 MLOAD SWAP1 DUP2 ADD PUSH1 0x40 MSTORE DUP1 SWAP3 SWAP2 SWAP1 DUP2 DUP2 MSTORE PUSH1 0x20 ADD DUP3 DUP1 SLOAD PUSH2 0x13D7 SWAP1 PUSH2 0x35F9 JUMP JUMPDEST DUP1 ISZERO PUSH2 0x1422 JUMPI DUP1 PUSH1 0x1F LT PUSH2 0x13F9 JUMPI PUSH2 0x100 DUP1 DUP4 SLOAD DIV MUL DUP4 MSTORE SWAP2 PUSH1 0x20 ADD SWAP2 PUSH2 0x1422 JUMP JUMPDEST DUP3 ADD SWAP2 SWAP1 PUSH0 MSTORE PUSH1 0x20 PUSH0 KECCAK256 SWAP1 JUMPDEST DUP2 SLOAD DUP2 MSTORE SWAP1 PUSH1 0x1 ADD SWAP1 PUSH1 0x20 ADD DUP1 DUP4 GT PUSH2 0x1405 JUMPI DUP3 SWAP1 SUB PUSH1 0x1F AND DUP3 ADD SWAP2 JUMPDEST POP POP POP POP POP DUP2 MSTORE PUSH1 0x20 ADD PUSH1 0x2 DUP3 ADD DUP1 SLOAD PUSH2 0x143B SWAP1 PUSH2 0x35F9 JUMP JUMPDEST DUP1 PUSH1 0x1F ADD PUSH1 0x20 DUP1 SWAP2 DIV MUL PUSH1 0x20 ADD PUSH1 0x40 MLOAD SWAP1 DUP2 ADD PUSH1 0x40 MSTORE DUP1 SWAP3 SWAP2 SWAP1 DUP2 DUP2 MSTORE PUSH1 0x20 ADD DUP3 DUP1 SLOAD PUSH2 0x1467 SWAP1 PUSH2 0x35F9 JUMP JUMPDEST DUP1 ISZERO PUSH2 0x14B2 JUMPI DUP1 PUSH1 0x1F LT PUSH2 0x1489 JUMPI PUSH2 0x100 DUP1 DUP4 SLOAD DIV MUL DUP4 MSTORE SWAP2 PUSH1 0x20 ADD SWAP2 PUSH2 0x14B2 JUMP JUMPDEST DUP3 ADD SWAP2 SWAP1 PUSH0 MSTORE PUSH1 0x20 PUSH0 KECCAK256 SWAP1 JUMPDEST DUP2 SLOAD DUP2 MSTORE SWAP1 PUSH1 0x1 ADD SWAP1 PUSH1 0x20 ADD DUP1 DUP4 GT PUSH2 0x1495 JUMPI DUP3 SWAP1 SUB PUSH1 0x1F AND DUP3 ADD SWAP2 JUMPDEST POP POP POP POP POP DUP2 MSTORE PUSH1 0x20 ADD PUSH1 0x3 DUP3 ADD SLOAD DUP2 MSTORE PUSH1 0x20 ADD PUSH1 0x4 DUP3 ADD SLOAD DUP2 MSTORE PUSH1 0x20 ADD PUSH1 0x5 DUP3 ADD SLOAD DUP2 MSTORE POP POP SWAP1 POP PUSH0 PUSH2 0x3E8 DUP3 PUSH1 0x80 ADD MLOAD PUSH2 0x14EE SWAP2 SWAP1 PUSH2 0x3C96 JUMP JUMPDEST SWAP1 POP PUSH0 PUSH1 0x4 DUP8 LT ISZERO DUP1 ISZERO PUSH2 0x1503 JUMPI POP PUSH1 0xA DUP8 GT ISZERO JUMPDEST ISZERO PUSH2 0x1528 JUMPI PUSH1 0x64 PUSH1 0x2 DUP4 PUSH2 0x1517 SWAP2 SWAP1 PUSH2 0x3AF0 JUMP JUMPDEST PUSH2 0x1521 SWAP2 SWAP1 PUSH2 0x3C96 JUMP JUMPDEST SWAP1 POP PUSH2 0x154E JUMP JUMPDEST PUSH1 0xA DUP8 GT ISZERO PUSH2 0x154D JUMPI PUSH1 0x64 PUSH1 0x5 DUP4 PUSH2 0x1540 SWAP2 SWAP1 PUSH2 0x3AF0 JUMP JUMPDEST PUSH2 0x154A SWAP2 SWAP1 PUSH2 0x3C96 JUMP JUMPDEST SWAP1 POP JUMPDEST JUMPDEST PUSH0 PUSH1 0x2 DUP8 LT ISZERO DUP1 ISZERO PUSH2 0x1560 JUMPI POP PUSH1 0x6 DUP8 LT JUMPDEST ISZERO PUSH2 0x1585 JUMPI PUSH1 0x64 PUSH1 0x3 DUP5 PUSH2 0x1574 SWAP2 SWAP1 PUSH2 0x3AF0 JUMP JUMPDEST PUSH2 0x157E SWAP2 SWAP1 PUSH2 0x3C96 JUMP JUMPDEST SWAP1 POP PUSH2 0x15E3 JUMP JUMPDEST PUSH1 0x6 DUP8 LT ISZERO DUP1 ISZERO PUSH2 0x1597 JUMPI POP PUSH1 0xC DUP8 GT ISZERO JUMPDEST ISZERO PUSH2 0x15BC JUMPI PUSH1 0x64 PUSH1 0x5 DUP5 PUSH2 0x15AB SWAP2 SWAP1 PUSH2 0x3AF0 JUMP JUMPDEST PUSH2 0x15B5 SWAP2 SWAP1 PUSH2 0x3C96 JUMP JUMPDEST SWAP1 POP PUSH2 0x15E2 JUMP JUMPDEST PUSH1 0xC DUP8 GT ISZERO PUSH2 0x15E1 JUMPI PUSH1 0x64 PUSH1 0x8 DUP5 PUSH2 0x15D4 SWAP2 SWAP1 PUSH2 0x3AF0 JUMP JUMPDEST PUSH2 0x15DE SWAP2 SWAP1 PUSH2 0x3C96 JUMP JUMPDEST SWAP1 POP JUMPDEST JUMPDEST JUMPDEST PUSH0 PUSH2 0x1388 DUP8 LT ISZERO DUP1 ISZERO PUSH2 0x15F7 JUMPI POP PUSH2 0x2710 DUP8 LT JUMPDEST ISZERO PUSH2 0x1610 JUMPI PUSH1 0x64 DUP5 PUSH2 0x1609 SWAP2 SWAP1 PUSH2 0x3C96 JUMP JUMPDEST SWAP1 POP PUSH2 0x1670 JUMP JUMPDEST PUSH2 0x2710 DUP8 LT ISZERO DUP1 ISZERO PUSH2 0x1623 JUMPI POP PUSH2 0x4E20 DUP8 LT JUMPDEST ISZERO PUSH2 0x1648 JUMPI PUSH1 0x64 PUSH1 0x2 DUP6 PUSH2 0x1637 SWAP2 SWAP1 PUSH2 0x3AF0 JUMP JUMPDEST PUSH2 0x1641 SWAP2 SWAP1 PUSH2 0x3C96 JUMP JUMPDEST SWAP1 POP PUSH2 0x166F JUMP JUMPDEST PUSH2 0x4E20 DUP8 GT ISZERO PUSH2 0x166E JUMPI PUSH1 0x64 PUSH1 0x3 DUP6 PUSH2 0x1661 SWAP2 SWAP1 PUSH2 0x3AF0 JUMP JUMPDEST PUSH2 0x166B SWAP2 SWAP1 PUSH2 0x3C96 JUMP JUMPDEST SWAP1 POP JUMPDEST JUMPDEST JUMPDEST PUSH0 PUSH2 0x2710 DUP7 PUSH1 0xA0 ADD MLOAD LT ISZERO DUP1 ISZERO PUSH2 0x168C JUMPI POP PUSH2 0x4E20 DUP7 PUSH1 0xA0 ADD MLOAD LT JUMPDEST ISZERO PUSH2 0x16A5 JUMPI PUSH1 0x64 DUP6 PUSH2 0x169E SWAP2 SWAP1 PUSH2 0x3C96 JUMP JUMPDEST SWAP1 POP PUSH2 0x1710 JUMP JUMPDEST PUSH2 0x4E20 DUP7 PUSH1 0xA0 ADD MLOAD LT ISZERO DUP1 ISZERO PUSH2 0x16C0 JUMPI POP PUSH2 0xC350 DUP7 PUSH1 0xA0 ADD MLOAD LT JUMPDEST ISZERO PUSH2 0x16E5 JUMPI PUSH1 0x64 PUSH1 0x2 DUP7 PUSH2 0x16D4 SWAP2 SWAP1 PUSH2 0x3AF0 JUMP JUMPDEST PUSH2 0x16DE SWAP2 SWAP1 PUSH2 0x3C96 JUMP JUMPDEST SWAP1 POP PUSH2 0x170F JUMP JUMPDEST PUSH2 0xC350 DUP7 PUSH1 0xA0 ADD MLOAD LT PUSH2 0x170E JUMPI PUSH1 0x64 PUSH1 0x3 DUP7 PUSH2 0x1701 SWAP2 SWAP1 PUSH2 0x3AF0 JUMP JUMPDEST PUSH2 0x170B SWAP2 SWAP1 PUSH2 0x3C96 JUMP JUMPDEST SWAP1 POP JUMPDEST JUMPDEST JUMPDEST PUSH0 DUP2 DUP4 DUP6 DUP8 DUP10 PUSH2 0x1720 SWAP2 SWAP1 PUSH2 0x3CC6 JUMP JUMPDEST PUSH2 0x172A SWAP2 SWAP1 PUSH2 0x3CC6 JUMP JUMPDEST PUSH2 0x1734 SWAP2 SWAP1 PUSH2 0x3A55 JUMP JUMPDEST PUSH2 0x173E SWAP2 SWAP1 PUSH2 0x3CC6 JUMP JUMPDEST SWAP1 POP DUP1 SWAP8 POP POP POP POP POP POP POP POP SWAP5 SWAP4 POP POP POP POP JUMP JUMPDEST PUSH1 0x60 PUSH2 0x175D DUP3 PUSH2 0x1F0A JUMP JUMPDEST POP PUSH0 PUSH2 0x1767 PUSH2 0x277D JUMP JUMPDEST SWAP1 POP PUSH0 DUP2 MLOAD GT PUSH2 0x1785 JUMPI PUSH1 0x40 MLOAD DUP1 PUSH1 0x20 ADD PUSH1 0x40 MSTORE DUP1 PUSH0 DUP2 MSTORE POP PUSH2 0x17B0 JUMP JUMPDEST DUP1 PUSH2 0x178F DUP5 PUSH2 0x2793 JUMP JUMPDEST PUSH1 0x40 MLOAD PUSH1 0x20 ADD PUSH2 0x17A0 SWAP3 SWAP2 SWAP1 PUSH2 0x3D33 JUMP JUMPDEST PUSH1 0x40 MLOAD PUSH1 0x20 DUP2 DUP4 SUB SUB DUP2 MSTORE SWAP1 PUSH1 0x40 MSTORE JUMPDEST SWAP2 POP POP SWAP2 SWAP1 POP JUMP JUMPDEST PUSH1 0x8 PUSH1 0x20 MSTORE DUP1 PUSH0 MSTORE PUSH1 0x40 PUSH0 KECCAK256 PUSH0 SWAP2 POP SWAP1 POP DUP1 PUSH0 ADD SLOAD SWAP1 DUP1 PUSH1 0x1 ADD PUSH0 SWAP1 SLOAD SWAP1 PUSH2 0x100 EXP SWAP1 DIV PUSH20 0xFFFFFFFFFFFFFFFFFFFFFFFFFFFFFFFFFFFFFFFF AND SWAP1 DUP1 PUSH1 0x2 ADD SLOAD SWAP1 DUP1 PUSH1 0x3 ADD SLOAD SWAP1 DUP1 PUSH1 0x4 ADD PUSH0 SWAP1 SLOAD SWAP1 PUSH2 0x100 EXP SWAP1 DIV PUSH1 0xFF AND SWAP1 DUP1 PUSH1 0x4 ADD PUSH1 0x1 SWAP1 SLOAD SWAP1 PUSH2 0x100 EXP SWAP1 DIV PUSH1 0xFF AND SWAP1 POP DUP7 JUMP JUMPDEST PUSH0 PUSH1 0x5 PUSH0 DUP5 PUSH20 0xFFFFFFFFFFFFFFFFFFFFFFFFFFFFFFFFFFFFFFFF AND PUSH20 0xFFFFFFFFFFFFFFFFFFFFFFFFFFFFFFFFFFFFFFFF AND DUP2 MSTORE PUSH1 0x20 ADD SWAP1 DUP2 MSTORE PUSH1 0x20 ADD PUSH0 KECCAK256 PUSH0 DUP4 PUSH20 0xFFFFFFFFFFFFFFFFFFFFFFFFFFFFFFFFFFFFFFFF AND PUSH20 0xFFFFFFFFFFFFFFFFFFFFFFFFFFFFFFFFFFFFFFFF AND DUP2 MSTORE PUSH1 0x20 ADD SWAP1 DUP2 MSTORE PUSH1 0x20 ADD PUSH0 KECCAK256 PUSH0 SWAP1 SLOAD SWAP1 PUSH2 0x100 EXP SWAP1 DIV PUSH1 0xFF AND SWAP1 POP SWAP3 SWAP2 POP POP JUMP JUMPDEST DUP1 DUP1 PUSH1 0x8 PUSH0 CALLER PUSH20 0xFFFFFFFFFFFFFFFFFFFFFFFFFFFFFFFFFFFFFFFF AND PUSH20 0xFFFFFFFFFFFFFFFFFFFFFFFFFFFFFFFFFFFFFFFF AND DUP2 MSTORE PUSH1 0x20 ADD SWAP1 DUP2 MSTORE PUSH1 0x20 ADD PUSH0 KECCAK256 PUSH0 ADD SLOAD EQ PUSH2 0x1938 JUMPI PUSH1 0x40 MLOAD PUSH32 0x8C379A000000000000000000000000000000000000000000000000000000000 DUP2 MSTORE PUSH1 0x4 ADD PUSH2 0x192F SWAP1 PUSH2 0x39A2 JUMP JUMPDEST PUSH1 0x40 MLOAD DUP1 SWAP2 SUB SWAP1 REVERT JUMPDEST PUSH0 PUSH1 0x8 PUSH0 CALLER PUSH20 0xFFFFFFFFFFFFFFFFFFFFFFFFFFFFFFFFFFFFFFFF AND PUSH20 0xFFFFFFFFFFFFFFFFFFFFFFFFFFFFFFFFFFFFFFFF AND DUP2 MSTORE PUSH1 0x20 ADD SWAP1 DUP2 MSTORE PUSH1 0x20 ADD PUSH0 KECCAK256 SWAP1 POP DUP1 PUSH1 0x4 ADD PUSH1 0x1 SWAP1 SLOAD SWAP1 PUSH2 0x100 EXP SWAP1 DIV PUSH1 0xFF AND PUSH2 0x19C9 JUMPI PUSH1 0x40 MLOAD PUSH32 0x8C379A000000000000000000000000000000000000000000000000000000000 DUP2 MSTORE PUSH1 0x4 ADD PUSH2 0x19C0 SWAP1 PUSH2 0x3BE3 JUMP JUMPDEST PUSH1 0x40 MLOAD DUP1 SWAP2 SUB SWAP1 REVERT JUMPDEST DUP1 PUSH1 0x4 ADD PUSH0 SWAP1 SLOAD SWAP1 PUSH2 0x100 EXP SWAP1 DIV PUSH1 0xFF AND PUSH2 0x1A19 JUMPI PUSH1 0x40 MLOAD PUSH32 0x8C379A000000000000000000000000000000000000000000000000000000000 DUP2 MSTORE PUSH1 0x4 ADD PUSH2 0x1A10 SWAP1 PUSH2 0x3DA0 JUMP JUMPDEST PUSH1 0x40 MLOAD DUP1 SWAP2 SUB SWAP1 REVERT JUMPDEST DUP1 PUSH1 0x3 ADD SLOAD TIMESTAMP GT ISZERO PUSH2 0x1A60 JUMPI PUSH1 0x40 MLOAD PUSH32 0x8C379A000000000000000000000000000000000000000000000000000000000 DUP2 MSTORE PUSH1 0x4 ADD PUSH2 0x1A57 SWAP1 PUSH2 0x3E08 JUMP JUMPDEST PUSH1 0x40 MLOAD DUP1 SWAP2 SUB SWAP1 REVERT JUMPDEST DUP1 PUSH1 0x2 ADD SLOAD CALLVALUE EQ PUSH2 0x1AA6 JUMPI PUSH1 0x40 MLOAD PUSH32 0x8C379A000000000000000000000000000000000000000000000000000000000 DUP2 MSTORE PUSH1 0x4 ADD PUSH2 0x1A9D SWAP1 PUSH2 0x3E70 JUMP JUMPDEST PUSH1 0x40 MLOAD DUP1 SWAP2 SUB SWAP1 REVERT JUMPDEST PUSH3 0x278D00 DUP2 PUSH1 0x3 ADD SLOAD PUSH2 0x1AB9 SWAP2 SWAP1 PUSH2 0x3A55 JUMP JUMPDEST DUP2 PUSH1 0x3 ADD DUP2 SWAP1 SSTORE POP PUSH1 0x9 PUSH0 SWAP1 SLOAD SWAP1 PUSH2 0x100 EXP SWAP1 DIV PUSH20 0xFFFFFFFFFFFFFFFFFFFFFFFFFFFFFFFFFFFFFFFF AND PUSH20 0xFFFFFFFFFFFFFFFFFFFFFFFFFFFFFFFFFFFFFFFF AND PUSH2 0x8FC CALLVALUE SWAP1 DUP2 ISZERO MUL SWAP1 PUSH1 0x40 MLOAD PUSH0 PUSH1 0x40 MLOAD DUP1 DUP4 SUB DUP2 DUP6 DUP9 DUP9 CALL SWAP4 POP POP POP POP ISZERO DUP1 ISZERO PUSH2 0x1B25 JUMPI RETURNDATASIZE PUSH0 DUP1 RETURNDATACOPY RETURNDATASIZE PUSH0 REVERT JUMPDEST POP POP POP POP JUMP JUMPDEST PUSH1 0x9 PUSH0 SWAP1 SLOAD SWAP1 PUSH2 0x100 EXP SWAP1 DIV PUSH20 0xFFFFFFFFFFFFFFFFFFFFFFFFFFFFFFFFFFFFFFFF AND PUSH20 0xFFFFFFFFFFFFFFFFFFFFFFFFFFFFFFFFFFFFFFFF AND CALLER PUSH20 0xFFFFFFFFFFFFFFFFFFFFFFFFFFFFFFFFFFFFFFFF AND EQ PUSH2 0x1BBA JUMPI PUSH1 0x40 MLOAD PUSH32 0x8C379A000000000000000000000000000000000000000000000000000000000 DUP2 MSTORE PUSH1 0x4 ADD PUSH2 0x1BB1 SWAP1 PUSH2 0x36CE JUMP JUMPDEST PUSH1 0x40 MLOAD DUP1 SWAP2 SUB SWAP1 REVERT JUMPDEST PUSH0 PUSH1 0x8 PUSH0 DUP4 PUSH20 0xFFFFFFFFFFFFFFFFFFFFFFFFFFFFFFFFFFFFFFFF AND PUSH20 0xFFFFFFFFFFFFFFFFFFFFFFFFFFFFFFFFFFFFFFFF AND DUP2 MSTORE PUSH1 0x20 ADD SWAP1 DUP2 MSTORE PUSH1 0x20 ADD PUSH0 KECCAK256 SWAP1 POP DUP1 PUSH1 0x4 ADD PUSH1 0x1 SWAP1 SLOAD SWAP1 PUSH2 0x100 EXP SWAP1 DIV PUSH1 0xFF AND ISZERO PUSH2 0x1C4C JUMPI PUSH1 0x40 MLOAD PUSH32 0x8C379A000000000000000000000000000000000000000000000000000000000 DUP2 MSTORE PUSH1 0x4 ADD PUSH2 0x1C43 SWAP1 PUSH2 0x3ED8 JUMP JUMPDEST PUSH1 0x40 MLOAD DUP1 SWAP2 SUB SWAP1 REVERT JUMPDEST DUP1 PUSH1 0x4 ADD PUSH0 SWAP1 SLOAD SWAP1 PUSH2 0x100 EXP SWAP1 DIV PUSH1 0xFF AND ISZERO PUSH2 0x1C9D JUMPI PUSH1 0x40 MLOAD PUSH32 0x8C379A000000000000000000000000000000000000000000000000000000000 DUP2 MSTORE PUSH1 0x4 ADD PUSH2 0x1C94 SWAP1 PUSH2 0x3F40 JUMP JUMPDEST PUSH1 0x40 MLOAD DUP1 SWAP2 SUB SWAP1 REVERT JUMPDEST PUSH1 0x1 DUP2 PUSH1 0x4 ADD PUSH0 PUSH2 0x100 EXP DUP2 SLOAD DUP2 PUSH1 0xFF MUL NOT AND SWAP1 DUP4 ISZERO ISZERO MUL OR SWAP1 SSTORE POP PUSH1 0x1 DUP2 PUSH1 0x4 ADD PUSH1 0x1 PUSH2 0x100 EXP DUP2 SLOAD DUP2 PUSH1 0xFF MUL NOT AND SWAP1 DUP4 ISZERO ISZERO MUL OR SWAP1 SSTORE POP PUSH1 0x9 PUSH0 SWAP1 SLOAD SWAP1 PUSH2 0x100 EXP SWAP1 DIV PUSH20 0xFFFFFFFFFFFFFFFFFFFFFFFFFFFFFFFFFFFFFFFF AND PUSH20 0xFFFFFFFFFFFFFFFFFFFFFFFFFFFFFFFFFFFFFFFF AND PUSH2 0x8FC PUSH1 0x4 DUP4 PUSH1 0x2 ADD SLOAD PUSH2 0x1D22 SWAP2 SWAP1 PUSH2 0x3AF0 JUMP JUMPDEST SWAP1 DUP2 ISZERO MUL SWAP1 PUSH1 0x40 MLOAD PUSH0 PUSH1 0x40 MLOAD DUP1 DUP4 SUB DUP2 DUP6 DUP9 DUP9 CALL SWAP4 POP POP POP POP ISZERO DUP1 ISZERO PUSH2 0x1D4A JUMPI RETURNDATASIZE PUSH0 DUP1 RETURNDATACOPY RETURNDATASIZE PUSH0 REVERT JUMPDEST POP PUSH2 0x1D59 ADDRESS DUP4 DUP4 PUSH0 ADD SLOAD PUSH2 0x2300 JUMP JUMPDEST POP POP JUMP JUMPDEST PUSH1 0x7 PUSH1 0x20 MSTORE DUP1 PUSH0 MSTORE PUSH1 0x40 PUSH0 KECCAK256 PUSH0 SWAP2 POP SWAP1 POP DUP1 PUSH0 ADD SLOAD SWAP1 DUP1 PUSH1 0x1 ADD DUP1 SLOAD PUSH2 0x1D82 SWAP1 PUSH2 0x35F9 JUMP JUMPDEST DUP1 PUSH1 0x1F ADD PUSH1 0x20 DUP1 SWAP2 DIV MUL PUSH1 0x20 ADD PUSH1 0x40 MLOAD SWAP1 DUP2 ADD PUSH1 0x40 MSTORE DUP1 SWAP3 SWAP2 SWAP1 DUP2 DUP2 MSTORE PUSH1 0x20 ADD DUP3 DUP1 SLOAD PUSH2 0x1DAE SWAP1 PUSH2 0x35F9 JUMP JUMPDEST DUP1 ISZERO PUSH2 0x1DF9 JUMPI DUP1 PUSH1 0x1F LT PUSH2 0x1DD0 JUMPI PUSH2 0x100 DUP1 DUP4 SLOAD DIV MUL DUP4 MSTORE SWAP2 PUSH1 0x20 ADD SWAP2 PUSH2 0x1DF9 JUMP JUMPDEST DUP3 ADD SWAP2 SWAP1 PUSH0 MSTORE PUSH1 0x20 PUSH0 KECCAK256 SWAP1 JUMPDEST DUP2 SLOAD DUP2 MSTORE SWAP1 PUSH1 0x1 ADD SWAP1 PUSH1 0x20 ADD DUP1 DUP4 GT PUSH2 0x1DDC JUMPI DUP3 SWAP1 SUB PUSH1 0x1F AND DUP3 ADD SWAP2 JUMPDEST POP POP POP POP POP SWAP1 DUP1 PUSH1 0x2 ADD DUP1 SLOAD PUSH2 0x1E0E SWAP1 PUSH2 0x35F9 JUMP JUMPDEST DUP1 PUSH1 0x1F ADD PUSH1 0x20 DUP1 SWAP2 DIV MUL PUSH1 0x20 ADD PUSH1 0x40 MLOAD SWAP1 DUP2 ADD PUSH1 0x40 MSTORE DUP1 SWAP3 SWAP2 SWAP1 DUP2 DUP2 MSTORE PUSH1 0x20 ADD DUP3 DUP1 SLOAD PUSH2 0x1E3A SWAP1 PUSH2 0x35F9 JUMP JUMPDEST DUP1 ISZERO PUSH2 0x1E85 JUMPI DUP1 PUSH1 0x1F LT PUSH2 0x1E5C JUMPI PUSH2 0x100 DUP1 DUP4 SLOAD DIV MUL DUP4 MSTORE SWAP2 PUSH1 0x20 ADD SWAP2 PUSH2 0x1E85 JUMP JUMPDEST DUP3 ADD SWAP2 SWAP1 PUSH0 MSTORE PUSH1 0x20 PUSH0 KECCAK256 SWAP1 JUMPDEST DUP2 SLOAD DUP2 MSTORE SWAP1 PUSH1 0x1 ADD SWAP1 PUSH1 0x20 ADD DUP1 DUP4 GT PUSH2 0x1E68 JUMPI DUP3 SWAP1 SUB PUSH1 0x1F AND DUP3 ADD SWAP2 JUMPDEST POP POP POP POP POP SWAP1 DUP1 PUSH1 0x3 ADD SLOAD SWAP1 DUP1 PUSH1 0x4 ADD SLOAD SWAP1 DUP1 PUSH1 0x5 ADD SLOAD SWAP1 POP DUP7 JUMP JUMPDEST PUSH0 PUSH32 0x1FFC9A700000000000000000000000000000000000000000000000000000000 PUSH28 0xFFFFFFFFFFFFFFFFFFFFFFFFFFFFFFFFFFFFFFFFFFFFFFFFFFFFFFFF NOT AND DUP3 PUSH28 0xFFFFFFFFFFFFFFFFFFFFFFFFFFFFFFFFFFFFFFFFFFFFFFFFFFFFFFFF NOT AND EQ SWAP1 POP SWAP2 SWAP1 POP JUMP JUMPDEST PUSH0 DUP1 PUSH2 0x1F15 DUP4 PUSH2 0x285D JUMP JUMPDEST SWAP1 POP PUSH0 PUSH20 0xFFFFFFFFFFFFFFFFFFFFFFFFFFFFFFFFFFFFFFFF AND DUP2 PUSH20 0xFFFFFFFFFFFFFFFFFFFFFFFFFFFFFFFFFFFFFFFF AND SUB PUSH2 0x1F87 JUMPI DUP3 PUSH1 0x40 MLOAD PUSH32 0x7E27328900000000000000000000000000000000000000000000000000000000 DUP2 MSTORE PUSH1 0x4 ADD PUSH2 0x1F7E SWAP2 SWAP1 PUSH2 0x2FAA JUMP JUMPDEST PUSH1 0x40 MLOAD DUP1 SWAP2 SUB SWAP1 REVERT JUMPDEST DUP1 SWAP2 POP POP SWAP2 SWAP1 POP JUMP JUMPDEST PUSH0 PUSH1 0x4 PUSH0 DUP4 DUP2 MSTORE PUSH1 0x20 ADD SWAP1 DUP2 MSTORE PUSH1 0x20 ADD PUSH0 KECCAK256 PUSH0 SWAP1 SLOAD SWAP1 PUSH2 0x100 EXP SWAP1 DIV PUSH20 0xFFFFFFFFFFFFFFFFFFFFFFFFFFFFFFFFFFFFFFFF AND SWAP1 POP SWAP2 SWAP1 POP JUMP JUMPDEST PUSH0 CALLER SWAP1 POP SWAP1 JUMP JUMPDEST PUSH2 0x1FDD DUP4 DUP4 DUP4 PUSH1 0x1 PUSH2 0x2896 JUMP JUMPDEST POP POP POP JUMP JUMPDEST PUSH0 DUP1 PUSH2 0x1FED DUP5 PUSH2 0x285D JUMP JUMPDEST SWAP1 POP PUSH0 PUSH20 0xFFFFFFFFFFFFFFFFFFFFFFFFFFFFFFFFFFFFFFFF AND DUP4 PUSH20 0xFFFFFFFFFFFFFFFFFFFFFFFFFFFFFFFFFFFFFFFF AND EQ PUSH2 0x202E JUMPI PUSH2 0x202D DUP2 DUP5 DUP7 PUSH2 0x2A55 JUMP JUMPDEST JUMPDEST PUSH0 PUSH20 0xFFFFFFFFFFFFFFFFFFFFFFFFFFFFFFFFFFFFFFFF AND DUP2 PUSH20 0xFFFFFFFFFFFFFFFFFFFFFFFFFFFFFFFFFFFFFFFF AND EQ PUSH2 0x20B9 JUMPI PUSH2 0x206D PUSH0 DUP6 PUSH0 DUP1 PUSH2 0x2896 JUMP JUMPDEST PUSH1 0x1 PUSH1 0x3 PUSH0 DUP4 PUSH20 0xFFFFFFFFFFFFFFFFFFFFFFFFFFFFFFFFFFFFFFFF AND PUSH20 0xFFFFFFFFFFFFFFFFFFFFFFFFFFFFFFFFFFFFFFFF AND DUP2 MSTORE PUSH1 0x20 ADD SWAP1 DUP2 MSTORE PUSH1 0x20 ADD PUSH0 KECCAK256 PUSH0 DUP3 DUP3 SLOAD SUB SWAP3 POP POP DUP2 SWAP1 SSTORE POP JUMPDEST PUSH0 PUSH20 0xFFFFFFFFFFFFFFFFFFFFFFFFFFFFFFFFFFFFFFFF AND DUP6 PUSH20 0xFFFFFFFFFFFFFFFFFFFFFFFFFFFFFFFFFFFFFFFF AND EQ PUSH2 0x2138 JUMPI PUSH1 0x1 PUSH1 0x3 PUSH0 DUP8 PUSH20 0xFFFFFFFFFFFFFFFFFFFFFFFFFFFFFFFFFFFFFFFF AND PUSH20 0xFFFFFFFFFFFFFFFFFFFFFFFFFFFFFFFFFFFFFFFF AND DUP2 MSTORE PUSH1 0x20 ADD SWAP1 DUP2 MSTORE PUSH1 0x20 ADD PUSH0 KECCAK256 PUSH0 DUP3 DUP3 SLOAD ADD SWAP3 POP POP DUP2 SWAP1 SSTORE POP JUMPDEST DUP5 PUSH1 0x2 PUSH0 DUP7 DUP2 MSTORE PUSH1 0x20 ADD SWAP1 DUP2 MSTORE PUSH1 0x20 ADD PUSH0 KECCAK256 PUSH0 PUSH2 0x100 EXP DUP2 SLOAD DUP2 PUSH20 0xFFFFFFFFFFFFFFFFFFFFFFFFFFFFFFFFFFFFFFFF MUL NOT AND SWAP1 DUP4 PUSH20 0xFFFFFFFFFFFFFFFFFFFFFFFFFFFFFFFFFFFFFFFF AND MUL OR SWAP1 SSTORE POP DUP4 DUP6 PUSH20 0xFFFFFFFFFFFFFFFFFFFFFFFFFFFFFFFFFFFFFFFF AND DUP3 PUSH20 0xFFFFFFFFFFFFFFFFFFFFFFFFFFFFFFFFFFFFFFFF AND PUSH32 0xDDF252AD1BE2C89B69C2B068FC378DAA952BA7F163C4A11628F55A4DF523B3EF PUSH1 0x40 MLOAD PUSH1 0x40 MLOAD DUP1 SWAP2 SUB SWAP1 LOG4 DUP1 SWAP2 POP POP SWAP4 SWAP3 POP POP POP JUMP JUMPDEST PUSH1 0x1 DUP2 PUSH0 ADD PUSH0 DUP3 DUP3 SLOAD ADD SWAP3 POP POP DUP2 SWAP1 SSTORE POP POP JUMP JUMPDEST PUSH0 DUP2 PUSH0 ADD SLOAD SWAP1 POP SWAP2 SWAP1 POP JUMP JUMPDEST PUSH0 PUSH20 0xFFFFFFFFFFFFFFFFFFFFFFFFFFFFFFFFFFFFFFFF AND DUP3 PUSH20 0xFFFFFFFFFFFFFFFFFFFFFFFFFFFFFFFFFFFFFFFF AND SUB PUSH2 0x227D JUMPI PUSH0 PUSH1 0x40 MLOAD PUSH32 0x64A0AE9200000000000000000000000000000000000000000000000000000000 DUP2 MSTORE PUSH1 0x4 ADD PUSH2 0x2274 SWAP2 SWAP1 PUSH2 0x2E2C JUMP JUMPDEST PUSH1 0x40 MLOAD DUP1 SWAP2 SUB SWAP1 REVERT JUMPDEST PUSH0 PUSH2 0x2289 DUP4 DUP4 PUSH0 PUSH2 0x1FE2 JUMP JUMPDEST SWAP1 POP PUSH0 PUSH20 0xFFFFFFFFFFFFFFFFFFFFFFFFFFFFFFFFFFFFFFFF AND DUP2 PUSH20 0xFFFFFFFFFFFFFFFFFFFFFFFFFFFFFFFFFFFFFFFF AND EQ PUSH2 0x22FB JUMPI PUSH0 PUSH1 0x40 MLOAD PUSH32 0x73C6AC6E00000000000000000000000000000000000000000000000000000000 DUP2 MSTORE PUSH1 0x4 ADD PUSH2 0x22F2 SWAP2 SWAP1 PUSH2 0x2E2C JUMP JUMPDEST PUSH1 0x40 MLOAD DUP1 SWAP2 SUB SWAP1 REVERT JUMPDEST POP POP POP JUMP JUMPDEST PUSH0 PUSH20 0xFFFFFFFFFFFFFFFFFFFFFFFFFFFFFFFFFFFFFFFF AND DUP3 PUSH20 0xFFFFFFFFFFFFFFFFFFFFFFFFFFFFFFFFFFFFFFFF AND SUB PUSH2 0x2370 JUMPI PUSH0 PUSH1 0x40 MLOAD PUSH32 0x64A0AE9200000000000000000000000000000000000000000000000000000000 DUP2 MSTORE PUSH1 0x4 ADD PUSH2 0x2367 SWAP2 SWAP1 PUSH2 0x2E2C JUMP JUMPDEST PUSH1 0x40 MLOAD DUP1 SWAP2 SUB SWAP1 REVERT JUMPDEST PUSH0 PUSH2 0x237C DUP4 DUP4 PUSH0 PUSH2 0x1FE2 JUMP JUMPDEST SWAP1 POP PUSH0 PUSH20 0xFFFFFFFFFFFFFFFFFFFFFFFFFFFFFFFFFFFFFFFF AND DUP2 PUSH20 0xFFFFFFFFFFFFFFFFFFFFFFFFFFFFFFFFFFFFFFFF AND SUB PUSH2 0x23EE JUMPI DUP2 PUSH1 0x40 MLOAD PUSH32 0x7E27328900000000000000000000000000000000000000000000000000000000 DUP2 MSTORE PUSH1 0x4 ADD PUSH2 0x23E5 SWAP2 SWAP1 PUSH2 0x2FAA JUMP JUMPDEST PUSH1 0x40 MLOAD DUP1 SWAP2 SUB SWAP1 REVERT JUMPDEST DUP4 PUSH20 0xFFFFFFFFFFFFFFFFFFFFFFFFFFFFFFFFFFFFFFFF AND DUP2 PUSH20 0xFFFFFFFFFFFFFFFFFFFFFFFFFFFFFFFFFFFFFFFF AND EQ PUSH2 0x2462 JUMPI DUP4 DUP3 DUP3 PUSH1 0x40 MLOAD PUSH32 0x64283D7B00000000000000000000000000000000000000000000000000000000 DUP2 MSTORE PUSH1 0x4 ADD PUSH2 0x2459 SWAP4 SWAP3 SWAP2 SWAP1 PUSH2 0x3629 JUMP JUMPDEST PUSH1 0x40 MLOAD DUP1 SWAP2 SUB SWAP1 REVERT JUMPDEST POP POP POP POP JUMP JUMPDEST PUSH0 PUSH20 0xFFFFFFFFFFFFFFFFFFFFFFFFFFFFFFFFFFFFFFFF AND DUP3 PUSH20 0xFFFFFFFFFFFFFFFFFFFFFFFFFFFFFFFFFFFFFFFF AND SUB PUSH2 0x24D8 JUMPI DUP2 PUSH1 0x40 MLOAD PUSH32 0x5B08BA1800000000000000000000000000000000000000000000000000000000 DUP2 MSTORE PUSH1 0x4 ADD PUSH2 0x24CF SWAP2 SWAP1 PUSH2 0x2E2C JUMP JUMPDEST PUSH1 0x40 MLOAD DUP1 SWAP2 SUB SWAP1 REVERT JUMPDEST DUP1 PUSH1 0x5 PUSH0 DUP6 PUSH20 0xFFFFFFFFFFFFFFFFFFFFFFFFFFFFFFFFFFFFFFFF AND PUSH20 0xFFFFFFFFFFFFFFFFFFFFFFFFFFFFFFFFFFFFFFFF AND DUP2 MSTORE PUSH1 0x20 ADD SWAP1 DUP2 MSTORE PUSH1 0x20 ADD PUSH0 KECCAK256 PUSH0 DUP5 PUSH20 0xFFFFFFFFFFFFFFFFFFFFFFFFFFFFFFFFFFFFFFFF AND PUSH20 0xFFFFFFFFFFFFFFFFFFFFFFFFFFFFFFFFFFFFFFFF AND DUP2 MSTORE PUSH1 0x20 ADD SWAP1 DUP2 MSTORE PUSH1 0x20 ADD PUSH0 KECCAK256 PUSH0 PUSH2 0x100 EXP DUP2 SLOAD DUP2 PUSH1 0xFF MUL NOT AND SWAP1 DUP4 ISZERO ISZERO MUL OR SWAP1 SSTORE POP DUP2 PUSH20 0xFFFFFFFFFFFFFFFFFFFFFFFFFFFFFFFFFFFFFFFF AND DUP4 PUSH20 0xFFFFFFFFFFFFFFFFFFFFFFFFFFFFFFFFFFFFFFFF AND PUSH32 0x17307EAB39AB6107E8899845AD3D59BD9653F200F220920489CA2B5937696C31 DUP4 PUSH1 0x40 MLOAD PUSH2 0x25C4 SWAP2 SWAP1 PUSH2 0x2DD4 JUMP JUMPDEST PUSH1 0x40 MLOAD DUP1 SWAP2 SUB SWAP1 LOG3 POP POP POP JUMP JUMPDEST PUSH0 DUP4 PUSH20 0xFFFFFFFFFFFFFFFFFFFFFFFFFFFFFFFFFFFFFFFF AND EXTCODESIZE GT ISZERO PUSH2 0x2776 JUMPI DUP3 PUSH20 0xFFFFFFFFFFFFFFFFFFFFFFFFFFFFFFFFFFFFFFFF AND PUSH4 0x150B7A02 DUP7 DUP7 DUP6 DUP6 PUSH1 0x40 MLOAD DUP6 PUSH4 0xFFFFFFFF AND PUSH1 0xE0 SHL DUP2 MSTORE PUSH1 0x4 ADD PUSH2 0x262F SWAP5 SWAP4 SWAP3 SWAP2 SWAP1 PUSH2 0x3FB0 JUMP JUMPDEST PUSH1 0x20 PUSH1 0x40 MLOAD DUP1 DUP4 SUB DUP2 PUSH0 DUP8 GAS CALL SWAP3 POP POP POP DUP1 ISZERO PUSH2 0x266A JUMPI POP PUSH1 0x40 MLOAD RETURNDATASIZE PUSH1 0x1F NOT PUSH1 0x1F DUP3 ADD AND DUP3 ADD DUP1 PUSH1 0x40 MSTORE POP DUP2 ADD SWAP1 PUSH2 0x2667 SWAP2 SWAP1 PUSH2 0x400E JUMP JUMPDEST PUSH1 0x1 JUMPDEST PUSH2 0x26EB JUMPI RETURNDATASIZE DUP1 PUSH0 DUP2 EQ PUSH2 0x2698 JUMPI PUSH1 0x40 MLOAD SWAP2 POP PUSH1 0x1F NOT PUSH1 0x3F RETURNDATASIZE ADD AND DUP3 ADD PUSH1 0x40 MSTORE RETURNDATASIZE DUP3 MSTORE RETURNDATASIZE PUSH0 PUSH1 0x20 DUP5 ADD RETURNDATACOPY PUSH2 0x269D JUMP JUMPDEST PUSH1 0x60 SWAP2 POP JUMPDEST POP PUSH0 DUP2 MLOAD SUB PUSH2 0x26E3 JUMPI DUP4 PUSH1 0x40 MLOAD PUSH32 0x64A0AE9200000000000000000000000000000000000000000000000000000000 DUP2 MSTORE PUSH1 0x4 ADD PUSH2 0x26DA SWAP2 SWAP1 PUSH2 0x2E2C JUMP JUMPDEST PUSH1 0x40 MLOAD DUP1 SWAP2 SUB SWAP1 REVERT JUMPDEST DUP1 MLOAD DUP2 PUSH1 0x20 ADD REVERT JUMPDEST PUSH4 0x150B7A02 PUSH1 0xE0 SHL PUSH28 0xFFFFFFFFFFFFFFFFFFFFFFFFFFFFFFFFFFFFFFFFFFFFFFFFFFFFFFFF NOT AND DUP2 PUSH28 0xFFFFFFFFFFFFFFFFFFFFFFFFFFFFFFFFFFFFFFFFFFFFFFFFFFFFFFFF NOT AND EQ PUSH2 0x2774 JUMPI DUP4 PUSH1 0x40 MLOAD PUSH32 0x64A0AE9200000000000000000000000000000000000000000000000000000000 DUP2 MSTORE PUSH1 0x4 ADD PUSH2 0x276B SWAP2 SWAP1 PUSH2 0x2E2C JUMP JUMPDEST PUSH1 0x40 MLOAD DUP1 SWAP2 SUB SWAP1 REVERT JUMPDEST POP JUMPDEST POP POP POP POP POP JUMP JUMPDEST PUSH1 0x60 PUSH1 0x40 MLOAD DUP1 PUSH1 0x20 ADD PUSH1 0x40 MSTORE DUP1 PUSH0 DUP2 MSTORE POP SWAP1 POP SWAP1 JUMP JUMPDEST PUSH1 0x60 PUSH0 PUSH1 0x1 PUSH2 0x27A1 DUP5 PUSH2 0x2B18 JUMP JUMPDEST ADD SWAP1 POP PUSH0 DUP2 PUSH8 0xFFFFFFFFFFFFFFFF DUP2 GT ISZERO PUSH2 0x27BF JUMPI PUSH2 0x27BE PUSH2 0x301B JUMP JUMPDEST JUMPDEST PUSH1 0x40 MLOAD SWAP1 DUP1 DUP3 MSTORE DUP1 PUSH1 0x1F ADD PUSH1 0x1F NOT AND PUSH1 0x20 ADD DUP3 ADD PUSH1 0x40 MSTORE DUP1 ISZERO PUSH2 0x27F1 JUMPI DUP2 PUSH1 0x20 ADD PUSH1 0x1 DUP3 MUL DUP1 CALLDATASIZE DUP4 CALLDATACOPY DUP1 DUP3 ADD SWAP2 POP POP SWAP1 POP JUMPDEST POP SWAP1 POP PUSH0 DUP3 PUSH1 0x20 ADD DUP3 ADD SWAP1 POP JUMPDEST PUSH1 0x1 ISZERO PUSH2 0x2852 JUMPI DUP1 DUP1 PUSH1 0x1 SWAP1 SUB SWAP2 POP POP PUSH32 0x3031323334353637383961626364656600000000000000000000000000000000 PUSH1 0xA DUP7 MOD BYTE DUP2 MSTORE8 PUSH1 0xA DUP6 DUP2 PUSH2 0x2847 JUMPI PUSH2 0x2846 PUSH2 0x3C69 JUMP JUMPDEST JUMPDEST DIV SWAP5 POP PUSH0 DUP6 SUB PUSH2 0x27FE JUMPI JUMPDEST DUP2 SWAP4 POP POP POP POP SWAP2 SWAP1 POP JUMP JUMPDEST PUSH0 PUSH1 0x2 PUSH0 DUP4 DUP2 MSTORE PUSH1 0x20 ADD SWAP1 DUP2 MSTORE PUSH1 0x20 ADD PUSH0 KECCAK256 PUSH0 SWAP1 SLOAD SWAP1 PUSH2 0x100 EXP SWAP1 DIV PUSH20 0xFFFFFFFFFFFFFFFFFFFFFFFFFFFFFFFFFFFFFFFF AND SWAP1 POP SWAP2 SWAP1 POP JUMP JUMPDEST DUP1 DUP1 PUSH2 0x28CE JUMPI POP PUSH0 PUSH20 0xFFFFFFFFFFFFFFFFFFFFFFFFFFFFFFFFFFFFFFFF AND DUP3 PUSH20 0xFFFFFFFFFFFFFFFFFFFFFFFFFFFFFFFFFFFFFFFF AND EQ ISZERO JUMPDEST ISZERO PUSH2 0x2A00 JUMPI PUSH0 PUSH2 0x28DD DUP5 PUSH2 0x1F0A JUMP JUMPDEST SWAP1 POP PUSH0 PUSH20 0xFFFFFFFFFFFFFFFFFFFFFFFFFFFFFFFFFFFFFFFF AND DUP4 PUSH20 0xFFFFFFFFFFFFFFFFFFFFFFFFFFFFFFFFFFFFFFFF AND EQ ISZERO DUP1 ISZERO PUSH2 0x2947 JUMPI POP DUP3 PUSH20 0xFFFFFFFFFFFFFFFFFFFFFFFFFFFFFFFFFFFFFFFF AND DUP2 PUSH20 0xFFFFFFFFFFFFFFFFFFFFFFFFFFFFFFFFFFFFFFFF AND EQ ISZERO JUMPDEST DUP1 ISZERO PUSH2 0x295A JUMPI POP PUSH2 0x2958 DUP2 DUP5 PUSH2 0x1828 JUMP JUMPDEST ISZERO JUMPDEST ISZERO PUSH2 0x299C JUMPI DUP3 PUSH1 0x40 MLOAD PUSH32 0xA9FBF51F00000000000000000000000000000000000000000000000000000000 DUP2 MSTORE PUSH1 0x4 ADD PUSH2 0x2993 SWAP2 SWAP1 PUSH2 0x2E2C JUMP JUMPDEST PUSH1 0x40 MLOAD DUP1 SWAP2 SUB SWAP1 REVERT JUMPDEST DUP2 ISZERO PUSH2 0x29FE JUMPI DUP4 DUP6 PUSH20 0xFFFFFFFFFFFFFFFFFFFFFFFFFFFFFFFFFFFFFFFF AND DUP3 PUSH20 0xFFFFFFFFFFFFFFFFFFFFFFFFFFFFFFFFFFFFFFFF AND PUSH32 0x8C5BE1E5EBEC7D5BD14F71427D1E84F3DD0314C0F7B2291E5B200AC8C7C3B925 PUSH1 0x40 MLOAD PUSH1 0x40 MLOAD DUP1 SWAP2 SUB SWAP1 LOG4 JUMPDEST POP JUMPDEST DUP4 PUSH1 0x4 PUSH0 DUP6 DUP2 MSTORE PUSH1 0x20 ADD SWAP1 DUP2 MSTORE PUSH1 0x20 ADD PUSH0 KECCAK256 PUSH0 PUSH2 0x100 EXP DUP2 SLOAD DUP2 PUSH20 0xFFFFFFFFFFFFFFFFFFFFFFFFFFFFFFFFFFFFFFFF MUL NOT AND SWAP1 DUP4 PUSH20 0xFFFFFFFFFFFFFFFFFFFFFFFFFFFFFFFFFFFFFFFF AND MUL OR SWAP1 SSTORE POP POP POP POP POP JUMP JUMPDEST PUSH2 0x2A60 DUP4 DUP4 DUP4 PUSH2 0x2C69 JUMP JUMPDEST PUSH2 0x2B13 JUMPI PUSH0 PUSH20 0xFFFFFFFFFFFFFFFFFFFFFFFFFFFFFFFFFFFFFFFF AND DUP4 PUSH20 0xFFFFFFFFFFFFFFFFFFFFFFFFFFFFFFFFFFFFFFFF AND SUB PUSH2 0x2AD4 JUMPI DUP1 PUSH1 0x40 MLOAD PUSH32 0x7E27328900000000000000000000000000000000000000000000000000000000 DUP2 MSTORE PUSH1 0x4 ADD PUSH2 0x2ACB SWAP2 SWAP1 PUSH2 0x2FAA JUMP JUMPDEST PUSH1 0x40 MLOAD DUP1 SWAP2 SUB SWAP1 REVERT JUMPDEST DUP2 DUP2 PUSH1 0x40 MLOAD PUSH32 0x177E802F00000000000000000000000000000000000000000000000000000000 DUP2 MSTORE PUSH1 0x4 ADD PUSH2 0x2B0A SWAP3 SWAP2 SWAP1 PUSH2 0x4039 JUMP JUMPDEST PUSH1 0x40 MLOAD DUP1 SWAP2 SUB SWAP1 REVERT JUMPDEST POP POP POP JUMP JUMPDEST PUSH0 DUP1 PUSH0 SWAP1 POP PUSH27 0x184F03E93FF9F4DAA797ED6E38ED64BF6A1F010000000000000000 DUP4 LT PUSH2 0x2B74 JUMPI PUSH27 0x184F03E93FF9F4DAA797ED6E38ED64BF6A1F010000000000000000 DUP4 DUP2 PUSH2 0x2B6A JUMPI PUSH2 0x2B69 PUSH2 0x3C69 JUMP JUMPDEST JUMPDEST DIV SWAP3 POP PUSH1 0x40 DUP2 ADD SWAP1 POP JUMPDEST PUSH14 0x4EE2D6D415B85ACEF8100000000 DUP4 LT PUSH2 0x2BB1 JUMPI PUSH14 0x4EE2D6D415B85ACEF8100000000 DUP4 DUP2 PUSH2 0x2BA7 JUMPI PUSH2 0x2BA6 PUSH2 0x3C69 JUMP JUMPDEST JUMPDEST DIV SWAP3 POP PUSH1 0x20 DUP2 ADD SWAP1 POP JUMPDEST PUSH7 0x2386F26FC10000 DUP4 LT PUSH2 0x2BE0 JUMPI PUSH7 0x2386F26FC10000 DUP4 DUP2 PUSH2 0x2BD6 JUMPI PUSH2 0x2BD5 PUSH2 0x3C69 JUMP JUMPDEST JUMPDEST DIV SWAP3 POP PUSH1 0x10 DUP2 ADD SWAP1 POP JUMPDEST PUSH4 0x5F5E100 DUP4 LT PUSH2 0x2C09 JUMPI PUSH4 0x5F5E100 DUP4 DUP2 PUSH2 0x2BFF JUMPI PUSH2 0x2BFE PUSH2 0x3C69 JUMP JUMPDEST JUMPDEST DIV SWAP3 POP PUSH1 0x8 DUP2 ADD SWAP1 POP JUMPDEST PUSH2 0x2710 DUP4 LT PUSH2 0x2C2E JUMPI PUSH2 0x2710 DUP4 DUP2 PUSH2 0x2C24 JUMPI PUSH2 0x2C23 PUSH2 0x3C69 JUMP JUMPDEST JUMPDEST DIV SWAP3 POP PUSH1 0x4 DUP2 ADD SWAP1 POP JUMPDEST PUSH1 0x64 DUP4 LT PUSH2 0x2C51 JUMPI PUSH1 0x64 DUP4 DUP2 PUSH2 0x2C47 JUMPI PUSH2 0x2C46 PUSH2 0x3C69 JUMP JUMPDEST JUMPDEST DIV SWAP3 POP PUSH1 0x2 DUP2 ADD SWAP1 POP JUMPDEST PUSH1 0xA DUP4 LT PUSH2 0x2C60 JUMPI PUSH1 0x1 DUP2 ADD SWAP1 POP JUMPDEST DUP1 SWAP2 POP POP SWAP2 SWAP1 POP JUMP JUMPDEST PUSH0 DUP1 PUSH20 0xFFFFFFFFFFFFFFFFFFFFFFFFFFFFFFFFFFFFFFFF AND DUP4 PUSH20 0xFFFFFFFFFFFFFFFFFFFFFFFFFFFFFFFFFFFFFFFF AND EQ ISZERO DUP1 ISZERO PUSH2 0x2D20 JUMPI POP DUP3 PUSH20 0xFFFFFFFFFFFFFFFFFFFFFFFFFFFFFFFFFFFFFFFF AND DUP5 PUSH20 0xFFFFFFFFFFFFFFFFFFFFFFFFFFFFFFFFFFFFFFFF AND EQ DUP1 PUSH2 0x2CE1 JUMPI POP PUSH2 0x2CE0 DUP5 DUP5 PUSH2 0x1828 JUMP JUMPDEST JUMPDEST DUP1 PUSH2 0x2D1F JUMPI POP DUP3 PUSH20 0xFFFFFFFFFFFFFFFFFFFFFFFFFFFFFFFFFFFFFFFF AND PUSH2 0x2D07 DUP4 PUSH2 0x1F90 JUMP JUMPDEST PUSH20 0xFFFFFFFFFFFFFFFFFFFFFFFFFFFFFFFFFFFFFFFF AND EQ JUMPDEST JUMPDEST SWAP1 POP SWAP4 SWAP3 POP POP POP JUMP JUMPDEST PUSH0 PUSH1 0x40 MLOAD SWAP1 POP SWAP1 JUMP JUMPDEST PUSH0 DUP1 REVERT JUMPDEST PUSH0 DUP1 REVERT JUMPDEST PUSH0 PUSH32 0xFFFFFFFF00000000000000000000000000000000000000000000000000000000 DUP3 AND SWAP1 POP SWAP2 SWAP1 POP JUMP JUMPDEST PUSH2 0x2D6E DUP2 PUSH2 0x2D3A JUMP JUMPDEST DUP2 EQ PUSH2 0x2D78 JUMPI PUSH0 DUP1 REVERT JUMPDEST POP JUMP JUMPDEST PUSH0 DUP2 CALLDATALOAD SWAP1 POP PUSH2 0x2D89 DUP2 PUSH2 0x2D65 JUMP JUMPDEST SWAP3 SWAP2 POP POP JUMP JUMPDEST PUSH0 PUSH1 0x20 DUP3 DUP5 SUB SLT ISZERO PUSH2 0x2DA4 JUMPI PUSH2 0x2DA3 PUSH2 0x2D32 JUMP JUMPDEST JUMPDEST PUSH0 PUSH2 0x2DB1 DUP5 DUP3 DUP6 ADD PUSH2 0x2D7B JUMP JUMPDEST SWAP2 POP POP SWAP3 SWAP2 POP POP JUMP JUMPDEST PUSH0 DUP2 ISZERO ISZERO SWAP1 POP SWAP2 SWAP1 POP JUMP JUMPDEST PUSH2 0x2DCE DUP2 PUSH2 0x2DBA JUMP JUMPDEST DUP3 MSTORE POP POP JUMP JUMPDEST PUSH0 PUSH1 0x20 DUP3 ADD SWAP1 POP PUSH2 0x2DE7 PUSH0 DUP4 ADD DUP5 PUSH2 0x2DC5 JUMP JUMPDEST SWAP3 SWAP2 POP POP JUMP JUMPDEST PUSH0 PUSH20 0xFFFFFFFFFFFFFFFFFFFFFFFFFFFFFFFFFFFFFFFF DUP3 AND SWAP1 POP SWAP2 SWAP1 POP JUMP JUMPDEST PUSH0 PUSH2 0x2E16 DUP3 PUSH2 0x2DED JUMP JUMPDEST SWAP1 POP SWAP2 SWAP1 POP JUMP JUMPDEST PUSH2 0x2E26 DUP2 PUSH2 0x2E0C JUMP JUMPDEST DUP3 MSTORE POP POP JUMP JUMPDEST PUSH0 PUSH1 0x20 DUP3 ADD SWAP1 POP PUSH2 0x2E3F PUSH0 DUP4 ADD DUP5 PUSH2 0x2E1D JUMP JUMPDEST SWAP3 SWAP2 POP POP JUMP JUMPDEST PUSH0 DUP2 MLOAD SWAP1 POP SWAP2 SWAP1 POP JUMP JUMPDEST PUSH0 DUP3 DUP3 MSTORE PUSH1 0x20 DUP3 ADD SWAP1 POP SWAP3 SWAP2 POP POP JUMP JUMPDEST DUP3 DUP2 DUP4 MCOPY PUSH0 DUP4 DUP4 ADD MSTORE POP POP POP JUMP JUMPDEST PUSH0 PUSH1 0x1F NOT PUSH1 0x1F DUP4 ADD AND SWAP1 POP SWAP2 SWAP1 POP JUMP JUMPDEST PUSH0 PUSH2 0x2E87 DUP3 PUSH2 0x2E45 JUMP JUMPDEST PUSH2 0x2E91 DUP2 DUP6 PUSH2 0x2E4F JUMP JUMPDEST SWAP4 POP PUSH2 0x2EA1 DUP2 DUP6 PUSH1 0x20 DUP7 ADD PUSH2 0x2E5F JUMP JUMPDEST PUSH2 0x2EAA DUP2 PUSH2 0x2E6D JUMP JUMPDEST DUP5 ADD SWAP2 POP POP SWAP3 SWAP2 POP POP JUMP JUMPDEST PUSH0 PUSH1 0x20 DUP3 ADD SWAP1 POP DUP2 DUP2 SUB PUSH0 DUP4 ADD MSTORE PUSH2 0x2ECD DUP2 DUP5 PUSH2 0x2E7D JUMP JUMPDEST SWAP1 POP SWAP3 SWAP2 POP POP JUMP JUMPDEST PUSH0 DUP2 SWAP1 POP SWAP2 SWAP1 POP JUMP JUMPDEST PUSH2 0x2EE7 DUP2 PUSH2 0x2ED5 JUMP JUMPDEST DUP2 EQ PUSH2 0x2EF1 JUMPI PUSH0 DUP1 REVERT JUMPDEST POP JUMP JUMPDEST PUSH0 DUP2 CALLDATALOAD SWAP1 POP PUSH2 0x2F02 DUP2 PUSH2 0x2EDE JUMP JUMPDEST SWAP3 SWAP2 POP POP JUMP JUMPDEST PUSH0 PUSH1 0x20 DUP3 DUP5 SUB SLT ISZERO PUSH2 0x2F1D JUMPI PUSH2 0x2F1C PUSH2 0x2D32 JUMP JUMPDEST JUMPDEST PUSH0 PUSH2 0x2F2A DUP5 DUP3 DUP6 ADD PUSH2 0x2EF4 JUMP JUMPDEST SWAP2 POP POP SWAP3 SWAP2 POP POP JUMP JUMPDEST PUSH2 0x2F3C DUP2 PUSH2 0x2E0C JUMP JUMPDEST DUP2 EQ PUSH2 0x2F46 JUMPI PUSH0 DUP1 REVERT JUMPDEST POP JUMP JUMPDEST PUSH0 DUP2 CALLDATALOAD SWAP1 POP PUSH2 0x2F57 DUP2 PUSH2 0x2F33 JUMP JUMPDEST SWAP3 SWAP2 POP POP JUMP JUMPDEST PUSH0 DUP1 PUSH1 0x40 DUP4 DUP6 SUB SLT ISZERO PUSH2 0x2F73 JUMPI PUSH2 0x2F72 PUSH2 0x2D32 JUMP JUMPDEST JUMPDEST PUSH0 PUSH2 0x2F80 DUP6 DUP3 DUP7 ADD PUSH2 0x2F49 JUMP JUMPDEST SWAP3 POP POP PUSH1 0x20 PUSH2 0x2F91 DUP6 DUP3 DUP7 ADD PUSH2 0x2EF4 JUMP JUMPDEST SWAP2 POP POP SWAP3 POP SWAP3 SWAP1 POP JUMP JUMPDEST PUSH2 0x2FA4 DUP2 PUSH2 0x2ED5 JUMP JUMPDEST DUP3 MSTORE POP POP JUMP JUMPDEST PUSH0 PUSH1 0x20 DUP3 ADD SWAP1 POP PUSH2 0x2FBD PUSH0 DUP4 ADD DUP5 PUSH2 0x2F9B JUMP JUMPDEST SWAP3 SWAP2 POP POP JUMP JUMPDEST PUSH0 DUP1 PUSH0 PUSH1 0x60 DUP5 DUP7 SUB SLT ISZERO PUSH2 0x2FDA JUMPI PUSH2 0x2FD9 PUSH2 0x2D32 JUMP JUMPDEST JUMPDEST PUSH0 PUSH2 0x2FE7 DUP7 DUP3 DUP8 ADD PUSH2 0x2F49 JUMP JUMPDEST SWAP4 POP POP PUSH1 0x20 PUSH2 0x2FF8 DUP7 DUP3 DUP8 ADD PUSH2 0x2F49 JUMP JUMPDEST SWAP3 POP POP PUSH1 0x40 PUSH2 0x3009 DUP7 DUP3 DUP8 ADD PUSH2 0x2EF4 JUMP JUMPDEST SWAP2 POP POP SWAP3 POP SWAP3 POP SWAP3 JUMP JUMPDEST PUSH0 DUP1 REVERT JUMPDEST PUSH0 DUP1 REVERT JUMPDEST PUSH32 0x4E487B7100000000000000000000000000000000000000000000000000000000 PUSH0 MSTORE PUSH1 0x41 PUSH1 0x4 MSTORE PUSH1 0x24 PUSH0 REVERT JUMPDEST PUSH2 0x3051 DUP3 PUSH2 0x2E6D JUMP JUMPDEST DUP2 ADD DUP2 DUP2 LT PUSH8 0xFFFFFFFFFFFFFFFF DUP3 GT OR ISZERO PUSH2 0x3070 JUMPI PUSH2 0x306F PUSH2 0x301B JUMP JUMPDEST JUMPDEST DUP1 PUSH1 0x40 MSTORE POP POP POP JUMP JUMPDEST PUSH0 PUSH2 0x3082 PUSH2 0x2D29 JUMP JUMPDEST SWAP1 POP PUSH2 0x308E DUP3 DUP3 PUSH2 0x3048 JUMP JUMPDEST SWAP2 SWAP1 POP JUMP JUMPDEST PUSH0 PUSH8 0xFFFFFFFFFFFFFFFF DUP3 GT ISZERO PUSH2 0x30AD JUMPI PUSH2 0x30AC PUSH2 0x301B JUMP JUMPDEST JUMPDEST PUSH2 0x30B6 DUP3 PUSH2 0x2E6D JUMP JUMPDEST SWAP1 POP PUSH1 0x20 DUP2 ADD SWAP1 POP SWAP2 SWAP1 POP JUMP JUMPDEST DUP3 DUP2 DUP4 CALLDATACOPY PUSH0 DUP4 DUP4 ADD MSTORE POP POP POP JUMP JUMPDEST PUSH0 PUSH2 0x30E3 PUSH2 0x30DE DUP5 PUSH2 0x3093 JUMP JUMPDEST PUSH2 0x3079 JUMP JUMPDEST SWAP1 POP DUP3 DUP2 MSTORE PUSH1 0x20 DUP2 ADD DUP5 DUP5 DUP5 ADD GT ISZERO PUSH2 0x30FF JUMPI PUSH2 0x30FE PUSH2 0x3017 JUMP JUMPDEST JUMPDEST PUSH2 0x310A DUP5 DUP3 DUP6 PUSH2 0x30C3 JUMP JUMPDEST POP SWAP4 SWAP3 POP POP POP JUMP JUMPDEST PUSH0 DUP3 PUSH1 0x1F DUP4 ADD SLT PUSH2 0x3126 JUMPI PUSH2 0x3125 PUSH2 0x3013 JUMP JUMPDEST JUMPDEST DUP2 CALLDATALOAD PUSH2 0x3136 DUP5 DUP3 PUSH1 0x20 DUP7 ADD PUSH2 0x30D1 JUMP JUMPDEST SWAP2 POP POP SWAP3 SWAP2 POP POP JUMP JUMPDEST PUSH0 DUP1 PUSH0 DUP1 PUSH0 PUSH1 0xA0 DUP7 DUP9 SUB SLT ISZERO PUSH2 0x3158 JUMPI PUSH2 0x3157 PUSH2 0x2D32 JUMP JUMPDEST JUMPDEST PUSH0 DUP7 ADD CALLDATALOAD PUSH8 0xFFFFFFFFFFFFFFFF DUP2 GT ISZERO PUSH2 0x3175 JUMPI PUSH2 0x3174 PUSH2 0x2D36 JUMP JUMPDEST JUMPDEST PUSH2 0x3181 DUP9 DUP3 DUP10 ADD PUSH2 0x3112 JUMP JUMPDEST SWAP6 POP POP PUSH1 0x20 DUP7 ADD CALLDATALOAD PUSH8 0xFFFFFFFFFFFFFFFF DUP2 GT ISZERO PUSH2 0x31A2 JUMPI PUSH2 0x31A1 PUSH2 0x2D36 JUMP JUMPDEST JUMPDEST PUSH2 0x31AE DUP9 DUP3 DUP10 ADD PUSH2 0x3112 JUMP JUMPDEST SWAP5 POP POP PUSH1 0x40 PUSH2 0x31BF DUP9 DUP3 DUP10 ADD PUSH2 0x2EF4 JUMP JUMPDEST SWAP4 POP POP PUSH1 0x60 PUSH2 0x31D0 DUP9 DUP3 DUP10 ADD PUSH2 0x2EF4 JUMP JUMPDEST SWAP3 POP POP PUSH1 0x80 PUSH2 0x31E1 DUP9 DUP3 DUP10 ADD PUSH2 0x2EF4 JUMP JUMPDEST SWAP2 POP POP SWAP3 SWAP6 POP SWAP3 SWAP6 SWAP1 SWAP4 POP JUMP JUMPDEST PUSH0 PUSH1 0xFF DUP3 AND SWAP1 POP SWAP2 SWAP1 POP JUMP JUMPDEST PUSH2 0x3203 DUP2 PUSH2 0x31EE JUMP JUMPDEST DUP2 EQ PUSH2 0x320D JUMPI PUSH0 DUP1 REVERT JUMPDEST POP JUMP JUMPDEST PUSH0 DUP2 CALLDATALOAD SWAP1 POP PUSH2 0x321E DUP2 PUSH2 0x31FA JUMP JUMPDEST SWAP3 SWAP2 POP POP JUMP JUMPDEST PUSH0 DUP1 PUSH0 DUP1 PUSH0 DUP1 PUSH1 0xC0 DUP8 DUP10 SUB SLT ISZERO PUSH2 0x323E JUMPI PUSH2 0x323D PUSH2 0x2D32 JUMP JUMPDEST JUMPDEST PUSH0 PUSH2 0x324B DUP10 DUP3 DUP11 ADD PUSH2 0x2EF4 JUMP JUMPDEST SWAP7 POP POP PUSH1 0x20 PUSH2 0x325C DUP10 DUP3 DUP11 ADD PUSH2 0x3210 JUMP JUMPDEST SWAP6 POP POP PUSH1 0x40 PUSH2 0x326D DUP10 DUP3 DUP11 ADD PUSH2 0x2EF4 JUMP JUMPDEST SWAP5 POP POP PUSH1 0x60 PUSH2 0x327E DUP10 DUP3 DUP11 ADD PUSH2 0x2EF4 JUMP JUMPDEST SWAP4 POP POP PUSH1 0x80 PUSH2 0x328F DUP10 DUP3 DUP11 ADD PUSH2 0x2EF4 JUMP JUMPDEST SWAP3 POP POP PUSH1 0xA0 PUSH2 0x32A0 DUP10 DUP3 DUP11 ADD PUSH2 0x2EF4 JUMP JUMPDEST SWAP2 POP POP SWAP3 SWAP6 POP SWAP3 SWAP6 POP SWAP3 SWAP6 JUMP JUMPDEST PUSH0 DUP1 PUSH0 DUP1 PUSH1 0x80 DUP6 DUP8 SUB SLT ISZERO PUSH2 0x32C5 JUMPI PUSH2 0x32C4 PUSH2 0x2D32 JUMP JUMPDEST JUMPDEST PUSH0 PUSH2 0x32D2 DUP8 DUP3 DUP9 ADD PUSH2 0x2EF4 JUMP JUMPDEST SWAP5 POP POP PUSH1 0x20 PUSH2 0x32E3 DUP8 DUP3 DUP9 ADD PUSH2 0x2EF4 JUMP JUMPDEST SWAP4 POP POP PUSH1 0x40 PUSH2 0x32F4 DUP8 DUP3 DUP9 ADD PUSH2 0x2EF4 JUMP JUMPDEST SWAP3 POP POP PUSH1 0x60 PUSH2 0x3305 DUP8 DUP3 DUP9 ADD PUSH2 0x2EF4 JUMP JUMPDEST SWAP2 POP POP SWAP3 SWAP6 SWAP2 SWAP5 POP SWAP3 POP JUMP JUMPDEST PUSH0 PUSH1 0x20 DUP3 DUP5 SUB SLT ISZERO PUSH2 0x3326 JUMPI PUSH2 0x3325 PUSH2 0x2D32 JUMP JUMPDEST JUMPDEST PUSH0 PUSH2 0x3333 DUP5 DUP3 DUP6 ADD PUSH2 0x2F49 JUMP JUMPDEST SWAP2 POP POP SWAP3 SWAP2 POP POP JUMP JUMPDEST PUSH2 0x3345 DUP2 PUSH2 0x2DBA JUMP JUMPDEST DUP2 EQ PUSH2 0x334F JUMPI PUSH0 DUP1 REVERT JUMPDEST POP JUMP JUMPDEST PUSH0 DUP2 CALLDATALOAD SWAP1 POP PUSH2 0x3360 DUP2 PUSH2 0x333C JUMP JUMPDEST SWAP3 SWAP2 POP POP JUMP JUMPDEST PUSH0 DUP1 PUSH1 0x40 DUP4 DUP6 SUB SLT ISZERO PUSH2 0x337C JUMPI PUSH2 0x337B PUSH2 0x2D32 JUMP JUMPDEST JUMPDEST PUSH0 PUSH2 0x3389 DUP6 DUP3 DUP7 ADD PUSH2 0x2F49 JUMP JUMPDEST SWAP3 POP POP PUSH1 0x20 PUSH2 0x339A DUP6 DUP3 DUP7 ADD PUSH2 0x3352 JUMP JUMPDEST SWAP2 POP POP SWAP3 POP SWAP3 SWAP1 POP JUMP JUMPDEST PUSH0 PUSH8 0xFFFFFFFFFFFFFFFF DUP3 GT ISZERO PUSH2 0x33BE JUMPI PUSH2 0x33BD PUSH2 0x301B JUMP JUMPDEST JUMPDEST PUSH2 0x33C7 DUP3 PUSH2 0x2E6D JUMP JUMPDEST SWAP1 POP PUSH1 0x20 DUP2 ADD SWAP1 POP SWAP2 SWAP1 POP JUMP JUMPDEST PUSH0 PUSH2 0x33E6 PUSH2 0x33E1 DUP5 PUSH2 0x33A4 JUMP JUMPDEST PUSH2 0x3079 JUMP JUMPDEST SWAP1 POP DUP3 DUP2 MSTORE PUSH1 0x20 DUP2 ADD DUP5 DUP5 DUP5 ADD GT ISZERO PUSH2 0x3402 JUMPI PUSH2 0x3401 PUSH2 0x3017 JUMP JUMPDEST JUMPDEST PUSH2 0x340D DUP5 DUP3 DUP6 PUSH2 0x30C3 JUMP JUMPDEST POP SWAP4 SWAP3 POP POP POP JUMP JUMPDEST PUSH0 DUP3 PUSH1 0x1F DUP4 ADD SLT PUSH2 0x3429 JUMPI PUSH2 0x3428 PUSH2 0x3013 JUMP JUMPDEST JUMPDEST DUP2 CALLDATALOAD PUSH2 0x3439 DUP5 DUP3 PUSH1 0x20 DUP7 ADD PUSH2 0x33D4 JUMP JUMPDEST SWAP2 POP POP SWAP3 SWAP2 POP POP JUMP JUMPDEST PUSH0 DUP1 PUSH0 DUP1 PUSH1 0x80 DUP6 DUP8 SUB SLT ISZERO PUSH2 0x345A JUMPI PUSH2 0x3459 PUSH2 0x2D32 JUMP JUMPDEST JUMPDEST PUSH0 PUSH2 0x3467 DUP8 DUP3 DUP9 ADD PUSH2 0x2F49 JUMP JUMPDEST SWAP5 POP POP PUSH1 0x20 PUSH2 0x3478 DUP8 DUP3 DUP9 ADD PUSH2 0x2F49 JUMP JUMPDEST SWAP4 POP POP PUSH1 0x40 PUSH2 0x3489 DUP8 DUP3 DUP9 ADD PUSH2 0x2EF4 JUMP JUMPDEST SWAP3 POP POP PUSH1 0x60 DUP6 ADD CALLDATALOAD PUSH8 0xFFFFFFFFFFFFFFFF DUP2 GT ISZERO PUSH2 0x34AA JUMPI PUSH2 0x34A9 PUSH2 0x2D36 JUMP JUMPDEST JUMPDEST PUSH2 0x34B6 DUP8 DUP3 DUP9 ADD PUSH2 0x3415 JUMP JUMPDEST SWAP2 POP POP SWAP3 SWAP6 SWAP2 SWAP5 POP SWAP3 POP JUMP JUMPDEST PUSH0 PUSH1 0xC0 DUP3 ADD SWAP1 POP PUSH2 0x34D5 PUSH0 DUP4 ADD DUP10 PUSH2 0x2F9B JUMP JUMPDEST PUSH2 0x34E2 PUSH1 0x20 DUP4 ADD DUP9 PUSH2 0x2E1D JUMP JUMPDEST PUSH2 0x34EF PUSH1 0x40 DUP4 ADD DUP8 PUSH2 0x2F9B JUMP JUMPDEST PUSH2 0x34FC PUSH1 0x60 DUP4 ADD DUP7 PUSH2 0x2F9B JUMP JUMPDEST PUSH2 0x3509 PUSH1 0x80 DUP4 ADD DUP6 PUSH2 0x2DC5 JUMP JUMPDEST PUSH2 0x3516 PUSH1 0xA0 DUP4 ADD DUP5 PUSH2 0x2DC5 JUMP JUMPDEST SWAP8 SWAP7 POP POP POP POP POP POP POP JUMP JUMPDEST PUSH0 DUP1 PUSH1 0x40 DUP4 DUP6 SUB SLT ISZERO PUSH2 0x3537 JUMPI PUSH2 0x3536 PUSH2 0x2D32 JUMP JUMPDEST JUMPDEST PUSH0 PUSH2 0x3544 DUP6 DUP3 DUP7 ADD PUSH2 0x2F49 JUMP JUMPDEST SWAP3 POP POP PUSH1 0x20 PUSH2 0x3555 DUP6 DUP3 DUP7 ADD PUSH2 0x2F49 JUMP JUMPDEST SWAP2 POP POP SWAP3 POP SWAP3 SWAP1 POP JUMP JUMPDEST PUSH0 PUSH1 0xC0 DUP3 ADD SWAP1 POP PUSH2 0x3572 PUSH0 DUP4 ADD DUP10 PUSH2 0x2F9B JUMP JUMPDEST DUP2 DUP2 SUB PUSH1 0x20 DUP4 ADD MSTORE PUSH2 0x3584 DUP2 DUP9 PUSH2 0x2E7D JUMP JUMPDEST SWAP1 POP DUP2 DUP2 SUB PUSH1 0x40 DUP4 ADD MSTORE PUSH2 0x3598 DUP2 DUP8 PUSH2 0x2E7D JUMP JUMPDEST SWAP1 POP PUSH2 0x35A7 PUSH1 0x60 DUP4 ADD DUP7 PUSH2 0x2F9B JUMP JUMPDEST PUSH2 0x35B4 PUSH1 0x80 DUP4 ADD DUP6 PUSH2 0x2F9B JUMP JUMPDEST PUSH2 0x35C1 PUSH1 0xA0 DUP4 ADD DUP5 PUSH2 0x2F9B JUMP JUMPDEST SWAP8 SWAP7 POP POP POP POP POP POP POP JUMP JUMPDEST PUSH32 0x4E487B7100000000000000000000000000000000000000000000000000000000 PUSH0 MSTORE PUSH1 0x22 PUSH1 0x4 MSTORE PUSH1 0x24 PUSH0 REVERT JUMPDEST PUSH0 PUSH1 0x2 DUP3 DIV SWAP1 POP PUSH1 0x1 DUP3 AND DUP1 PUSH2 0x3610 JUMPI PUSH1 0x7F DUP3 AND SWAP2 POP JUMPDEST PUSH1 0x20 DUP3 LT DUP2 SUB PUSH2 0x3623 JUMPI PUSH2 0x3622 PUSH2 0x35CC JUMP JUMPDEST JUMPDEST POP SWAP2 SWAP1 POP JUMP JUMPDEST PUSH0 PUSH1 0x60 DUP3 ADD SWAP1 POP PUSH2 0x363C PUSH0 DUP4 ADD DUP7 PUSH2 0x2E1D JUMP JUMPDEST PUSH2 0x3649 PUSH1 0x20 DUP4 ADD DUP6 PUSH2 0x2F9B JUMP JUMPDEST PUSH2 0x3656 PUSH1 0x40 DUP4 ADD DUP5 PUSH2 0x2E1D JUMP JUMPDEST SWAP5 SWAP4 POP POP POP POP JUMP JUMPDEST PUSH32 0x4F6E6C792042696C426F79642063616E20706572666F726D2074686973206163 PUSH0 DUP3 ADD MSTORE PUSH32 0x74696F6E2E000000000000000000000000000000000000000000000000000000 PUSH1 0x20 DUP3 ADD MSTORE POP JUMP JUMPDEST PUSH0 PUSH2 0x36B8 PUSH1 0x25 DUP4 PUSH2 0x2E4F JUMP JUMPDEST SWAP2 POP PUSH2 0x36C3 DUP3 PUSH2 0x365E JUMP JUMPDEST PUSH1 0x40 DUP3 ADD SWAP1 POP SWAP2 SWAP1 POP JUMP JUMPDEST PUSH0 PUSH1 0x20 DUP3 ADD SWAP1 POP DUP2 DUP2 SUB PUSH0 DUP4 ADD MSTORE PUSH2 0x36E5 DUP2 PUSH2 0x36AC JUMP JUMPDEST SWAP1 POP SWAP2 SWAP1 POP JUMP JUMPDEST PUSH0 DUP2 SWAP1 POP DUP2 PUSH0 MSTORE PUSH1 0x20 PUSH0 KECCAK256 SWAP1 POP SWAP2 SWAP1 POP JUMP JUMPDEST PUSH0 PUSH1 0x20 PUSH1 0x1F DUP4 ADD DIV SWAP1 POP SWAP2 SWAP1 POP JUMP JUMPDEST PUSH0 DUP3 DUP3 SHL SWAP1 POP SWAP3 SWAP2 POP POP JUMP JUMPDEST PUSH0 PUSH1 0x8 DUP4 MUL PUSH2 0x3748 PUSH32 0xFFFFFFFFFFFFFFFFFFFFFFFFFFFFFFFFFFFFFFFFFFFFFFFFFFFFFFFFFFFFFFFF DUP3 PUSH2 0x370D JUMP JUMPDEST PUSH2 0x3752 DUP7 DUP4 PUSH2 0x370D JUMP JUMPDEST SWAP6 POP DUP1 NOT DUP5 AND SWAP4 POP DUP1 DUP7 AND DUP5 OR SWAP3 POP POP POP SWAP4 SWAP3 POP POP POP JUMP JUMPDEST PUSH0 DUP2 SWAP1 POP SWAP2 SWAP1 POP JUMP JUMPDEST PUSH0 PUSH2 0x378D PUSH2 0x3788 PUSH2 0x3783 DUP5 PUSH2 0x2ED5 JUMP JUMPDEST PUSH2 0x376A JUMP JUMPDEST PUSH2 0x2ED5 JUMP JUMPDEST SWAP1 POP SWAP2 SWAP1 POP JUMP JUMPDEST PUSH0 DUP2 SWAP1 POP SWAP2 SWAP1 POP JUMP JUMPDEST PUSH2 0x37A6 DUP4 PUSH2 0x3773 JUMP JUMPDEST PUSH2 0x37BA PUSH2 0x37B2 DUP3 PUSH2 0x3794 JUMP JUMPDEST DUP5 DUP5 SLOAD PUSH2 0x3719 JUMP JUMPDEST DUP3 SSTORE POP POP POP POP JUMP JUMPDEST PUSH0 SWAP1 JUMP JUMPDEST PUSH2 0x37CE PUSH2 0x37C2 JUMP JUMPDEST PUSH2 0x37D9 DUP2 DUP5 DUP5 PUSH2 0x379D JUMP JUMPDEST POP POP POP JUMP JUMPDEST JUMPDEST DUP2 DUP2 LT ISZERO PUSH2 0x37FC JUMPI PUSH2 0x37F1 PUSH0 DUP3 PUSH2 0x37C6 JUMP JUMPDEST PUSH1 0x1 DUP2 ADD SWAP1 POP PUSH2 0x37DF JUMP JUMPDEST POP POP JUMP JUMPDEST PUSH1 0x1F DUP3 GT ISZERO PUSH2 0x3841 JUMPI PUSH2 0x3812 DUP2 PUSH2 0x36EC JUMP JUMPDEST PUSH2 0x381B DUP5 PUSH2 0x36FE JUMP JUMPDEST DUP2 ADD PUSH1 0x20 DUP6 LT ISZERO PUSH2 0x382A JUMPI DUP2 SWAP1 POP JUMPDEST PUSH2 0x383E PUSH2 0x3836 DUP6 PUSH2 0x36FE JUMP JUMPDEST DUP4 ADD DUP3 PUSH2 0x37DE JUMP JUMPDEST POP POP JUMPDEST POP POP POP JUMP JUMPDEST PUSH0 DUP3 DUP3 SHR SWAP1 POP SWAP3 SWAP2 POP POP JUMP JUMPDEST PUSH0 PUSH2 0x3861 PUSH0 NOT DUP5 PUSH1 0x8 MUL PUSH2 0x3846 JUMP JUMPDEST NOT DUP1 DUP4 AND SWAP2 POP POP SWAP3 SWAP2 POP POP JUMP JUMPDEST PUSH0 PUSH2 0x3879 DUP4 DUP4 PUSH2 0x3852 JUMP JUMPDEST SWAP2 POP DUP3 PUSH1 0x2 MUL DUP3 OR SWAP1 POP SWAP3 SWAP2 POP POP JUMP JUMPDEST PUSH2 0x3892 DUP3 PUSH2 0x2E45 JUMP JUMPDEST PUSH8 0xFFFFFFFFFFFFFFFF DUP2 GT ISZERO PUSH2 0x38AB JUMPI PUSH2 0x38AA PUSH2 0x301B JUMP JUMPDEST JUMPDEST PUSH2 0x38B5 DUP3 SLOAD PUSH2 0x35F9 JUMP JUMPDEST PUSH2 0x38C0 DUP3 DUP3 DUP6 PUSH2 0x3800 JUMP JUMPDEST PUSH0 PUSH1 0x20 SWAP1 POP PUSH1 0x1F DUP4 GT PUSH1 0x1 DUP2 EQ PUSH2 0x38F1 JUMPI PUSH0 DUP5 ISZERO PUSH2 0x38DF JUMPI DUP3 DUP8 ADD MLOAD SWAP1 POP JUMPDEST PUSH2 0x38E9 DUP6 DUP3 PUSH2 0x386E JUMP JUMPDEST DUP7 SSTORE POP PUSH2 0x3950 JUMP JUMPDEST PUSH1 0x1F NOT DUP5 AND PUSH2 0x38FF DUP7 PUSH2 0x36EC JUMP JUMPDEST PUSH0 JUMPDEST DUP3 DUP2 LT ISZERO PUSH2 0x3926 JUMPI DUP5 DUP10 ADD MLOAD DUP3 SSTORE PUSH1 0x1 DUP3 ADD SWAP2 POP PUSH1 0x20 DUP6 ADD SWAP5 POP PUSH1 0x20 DUP2 ADD SWAP1 POP PUSH2 0x3901 JUMP JUMPDEST DUP7 DUP4 LT ISZERO PUSH2 0x3943 JUMPI DUP5 DUP10 ADD MLOAD PUSH2 0x393F PUSH1 0x1F DUP10 AND DUP3 PUSH2 0x3852 JUMP JUMPDEST DUP4 SSTORE POP JUMPDEST PUSH1 0x1 PUSH1 0x2 DUP9 MUL ADD DUP9 SSTORE POP POP POP JUMPDEST POP POP POP POP POP POP JUMP JUMPDEST PUSH32 0x4E6F7420617574686F72697A65642E0000000000000000000000000000000000 PUSH0 DUP3 ADD MSTORE POP JUMP JUMPDEST PUSH0 PUSH2 0x398C PUSH1 0xF DUP4 PUSH2 0x2E4F JUMP JUMPDEST SWAP2 POP PUSH2 0x3997 DUP3 PUSH2 0x3958 JUMP JUMPDEST PUSH1 0x20 DUP3 ADD SWAP1 POP SWAP2 SWAP1 POP JUMP JUMPDEST PUSH0 PUSH1 0x20 DUP3 ADD SWAP1 POP DUP2 DUP2 SUB PUSH0 DUP4 ADD MSTORE PUSH2 0x39B9 DUP2 PUSH2 0x3980 JUMP JUMPDEST SWAP1 POP SWAP2 SWAP1 POP JUMP JUMPDEST PUSH32 0x4C65617365206E6F74206163746976652E000000000000000000000000000000 PUSH0 DUP3 ADD MSTORE POP JUMP JUMPDEST PUSH0 PUSH2 0x39F4 PUSH1 0x11 DUP4 PUSH2 0x2E4F JUMP JUMPDEST SWAP2 POP PUSH2 0x39FF DUP3 PUSH2 0x39C0 JUMP JUMPDEST PUSH1 0x20 DUP3 ADD SWAP1 POP SWAP2 SWAP1 POP JUMP JUMPDEST PUSH0 PUSH1 0x20 DUP3 ADD SWAP1 POP DUP2 DUP2 SUB PUSH0 DUP4 ADD MSTORE PUSH2 0x3A21 DUP2 PUSH2 0x39E8 JUMP JUMPDEST SWAP1 POP SWAP2 SWAP1 POP JUMP JUMPDEST PUSH32 0x4E487B7100000000000000000000000000000000000000000000000000000000 PUSH0 MSTORE PUSH1 0x11 PUSH1 0x4 MSTORE PUSH1 0x24 PUSH0 REVERT JUMPDEST PUSH0 PUSH2 0x3A5F DUP3 PUSH2 0x2ED5 JUMP JUMPDEST SWAP2 POP PUSH2 0x3A6A DUP4 PUSH2 0x2ED5 JUMP JUMPDEST SWAP3 POP DUP3 DUP3 ADD SWAP1 POP DUP1 DUP3 GT ISZERO PUSH2 0x3A82 JUMPI PUSH2 0x3A81 PUSH2 0x3A28 JUMP JUMPDEST JUMPDEST SWAP3 SWAP2 POP POP JUMP JUMPDEST PUSH32 0x496E76616C6964206F7074696F6E2073656C65637465642E0000000000000000 PUSH0 DUP3 ADD MSTORE POP JUMP JUMPDEST PUSH0 PUSH2 0x3ABC PUSH1 0x18 DUP4 PUSH2 0x2E4F JUMP JUMPDEST SWAP2 POP PUSH2 0x3AC7 DUP3 PUSH2 0x3A88 JUMP JUMPDEST PUSH1 0x20 DUP3 ADD SWAP1 POP SWAP2 SWAP1 POP JUMP JUMPDEST PUSH0 PUSH1 0x20 DUP3 ADD SWAP1 POP DUP2 DUP2 SUB PUSH0 DUP4 ADD MSTORE PUSH2 0x3AE9 DUP2 PUSH2 0x3AB0 JUMP JUMPDEST SWAP1 POP SWAP2 SWAP1 POP JUMP JUMPDEST PUSH0 PUSH2 0x3AFA DUP3 PUSH2 0x2ED5 JUMP JUMPDEST SWAP2 POP PUSH2 0x3B05 DUP4 PUSH2 0x2ED5 JUMP JUMPDEST SWAP3 POP DUP3 DUP3 MUL PUSH2 0x3B13 DUP2 PUSH2 0x2ED5 JUMP JUMPDEST SWAP2 POP DUP3 DUP3 DIV DUP5 EQ DUP4 ISZERO OR PUSH2 0x3B2A JUMPI PUSH2 0x3B29 PUSH2 0x3A28 JUMP JUMPDEST JUMPDEST POP SWAP3 SWAP2 POP POP JUMP JUMPDEST PUSH32 0x496E636F7272656374207061796D656E742E0000000000000000000000000000 PUSH0 DUP3 ADD MSTORE POP JUMP JUMPDEST PUSH0 PUSH2 0x3B65 PUSH1 0x12 DUP4 PUSH2 0x2E4F JUMP JUMPDEST SWAP2 POP PUSH2 0x3B70 DUP3 PUSH2 0x3B31 JUMP JUMPDEST PUSH1 0x20 DUP3 ADD SWAP1 POP SWAP2 SWAP1 POP JUMP JUMPDEST PUSH0 PUSH1 0x20 DUP3 ADD SWAP1 POP DUP2 DUP2 SUB PUSH0 DUP4 ADD MSTORE PUSH2 0x3B92 DUP2 PUSH2 0x3B59 JUMP JUMPDEST SWAP1 POP SWAP2 SWAP1 POP JUMP JUMPDEST PUSH32 0x4C65617365206973206E6F74206163746976652E000000000000000000000000 PUSH0 DUP3 ADD MSTORE POP JUMP JUMPDEST PUSH0 PUSH2 0x3BCD PUSH1 0x14 DUP4 PUSH2 0x2E4F JUMP JUMPDEST SWAP2 POP PUSH2 0x3BD8 DUP3 PUSH2 0x3B99 JUMP JUMPDEST PUSH1 0x20 DUP3 ADD SWAP1 POP SWAP2 SWAP1 POP JUMP JUMPDEST PUSH0 PUSH1 0x20 DUP3 ADD SWAP1 POP DUP2 DUP2 SUB PUSH0 DUP4 ADD MSTORE PUSH2 0x3BFA DUP2 PUSH2 0x3BC1 JUMP JUMPDEST SWAP1 POP SWAP2 SWAP1 POP JUMP JUMPDEST PUSH32 0x5061796D656E74206973206E6F74206F7665726475652E000000000000000000 PUSH0 DUP3 ADD MSTORE POP JUMP JUMPDEST PUSH0 PUSH2 0x3C35 PUSH1 0x17 DUP4 PUSH2 0x2E4F JUMP JUMPDEST SWAP2 POP PUSH2 0x3C40 DUP3 PUSH2 0x3C01 JUMP JUMPDEST PUSH1 0x20 DUP3 ADD SWAP1 POP SWAP2 SWAP1 POP JUMP JUMPDEST PUSH0 PUSH1 0x20 DUP3 ADD SWAP1 POP DUP2 DUP2 SUB PUSH0 DUP4 ADD MSTORE PUSH2 0x3C62 DUP2 PUSH2 0x3C29 JUMP JUMPDEST SWAP1 POP SWAP2 SWAP1 POP JUMP JUMPDEST PUSH32 0x4E487B7100000000000000000000000000000000000000000000000000000000 PUSH0 MSTORE PUSH1 0x12 PUSH1 0x4 MSTORE PUSH1 0x24 PUSH0 REVERT JUMPDEST PUSH0 PUSH2 0x3CA0 DUP3 PUSH2 0x2ED5 JUMP JUMPDEST SWAP2 POP PUSH2 0x3CAB DUP4 PUSH2 0x2ED5 JUMP JUMPDEST SWAP3 POP DUP3 PUSH2 0x3CBB JUMPI PUSH2 0x3CBA PUSH2 0x3C69 JUMP JUMPDEST JUMPDEST DUP3 DUP3 DIV SWAP1 POP SWAP3 SWAP2 POP POP JUMP JUMPDEST PUSH0 PUSH2 0x3CD0 DUP3 PUSH2 0x2ED5 JUMP JUMPDEST SWAP2 POP PUSH2 0x3CDB DUP4 PUSH2 0x2ED5 JUMP JUMPDEST SWAP3 POP DUP3 DUP3 SUB SWAP1 POP DUP2 DUP2 GT ISZERO PUSH2 0x3CF3 JUMPI PUSH2 0x3CF2 PUSH2 0x3A28 JUMP JUMPDEST JUMPDEST SWAP3 SWAP2 POP POP JUMP JUMPDEST PUSH0 DUP2 SWAP1 POP SWAP3 SWAP2 POP POP JUMP JUMPDEST PUSH0 PUSH2 0x3D0D DUP3 PUSH2 0x2E45 JUMP JUMPDEST PUSH2 0x3D17 DUP2 DUP6 PUSH2 0x3CF9 JUMP JUMPDEST SWAP4 POP PUSH2 0x3D27 DUP2 DUP6 PUSH1 0x20 DUP7 ADD PUSH2 0x2E5F JUMP JUMPDEST DUP1 DUP5 ADD SWAP2 POP POP SWAP3 SWAP2 POP POP JUMP JUMPDEST PUSH0 PUSH2 0x3D3E DUP3 DUP6 PUSH2 0x3D03 JUMP JUMPDEST SWAP2 POP PUSH2 0x3D4A DUP3 DUP5 PUSH2 0x3D03 JUMP JUMPDEST SWAP2 POP DUP2 SWAP1 POP SWAP4 SWAP3 POP POP POP JUMP JUMPDEST PUSH32 0x4C65617365206973206E6F7420636F6E6669726D65642E000000000000000000 PUSH0 DUP3 ADD MSTORE POP JUMP JUMPDEST PUSH0 PUSH2 0x3D8A PUSH1 0x17 DUP4 PUSH2 0x2E4F JUMP JUMPDEST SWAP2 POP PUSH2 0x3D95 DUP3 PUSH2 0x3D56 JUMP JUMPDEST PUSH1 0x20 DUP3 ADD SWAP1 POP SWAP2 SWAP1 POP JUMP JUMPDEST PUSH0 PUSH1 0x20 DUP3 ADD SWAP1 POP DUP2 DUP2 SUB PUSH0 DUP4 ADD MSTORE PUSH2 0x3DB7 DUP2 PUSH2 0x3D7E JUMP JUMPDEST SWAP1 POP SWAP2 SWAP1 POP JUMP JUMPDEST PUSH32 0x5061796D656E74206973206F7665726475652E00000000000000000000000000 PUSH0 DUP3 ADD MSTORE POP JUMP JUMPDEST PUSH0 PUSH2 0x3DF2 PUSH1 0x13 DUP4 PUSH2 0x2E4F JUMP JUMPDEST SWAP2 POP PUSH2 0x3DFD DUP3 PUSH2 0x3DBE JUMP JUMPDEST PUSH1 0x20 DUP3 ADD SWAP1 POP SWAP2 SWAP1 POP JUMP JUMPDEST PUSH0 PUSH1 0x20 DUP3 ADD SWAP1 POP DUP2 DUP2 SUB PUSH0 DUP4 ADD MSTORE PUSH2 0x3E1F DUP2 PUSH2 0x3DE6 JUMP JUMPDEST SWAP1 POP SWAP2 SWAP1 POP JUMP JUMPDEST PUSH32 0x496E636F7272656374207061796D656E7420616D6F756E742E00000000000000 PUSH0 DUP3 ADD MSTORE POP JUMP JUMPDEST PUSH0 PUSH2 0x3E5A PUSH1 0x19 DUP4 PUSH2 0x2E4F JUMP JUMPDEST SWAP2 POP PUSH2 0x3E65 DUP3 PUSH2 0x3E26 JUMP JUMPDEST PUSH1 0x20 DUP3 ADD SWAP1 POP SWAP2 SWAP1 POP JUMP JUMPDEST PUSH0 PUSH1 0x20 DUP3 ADD SWAP1 POP DUP2 DUP2 SUB PUSH0 DUP4 ADD MSTORE PUSH2 0x3E87 DUP2 PUSH2 0x3E4E JUMP JUMPDEST SWAP1 POP SWAP2 SWAP1 POP JUMP JUMPDEST PUSH32 0x4C6561736520616C7265616479206163746976652E0000000000000000000000 PUSH0 DUP3 ADD MSTORE POP JUMP JUMPDEST PUSH0 PUSH2 0x3EC2 PUSH1 0x15 DUP4 PUSH2 0x2E4F JUMP JUMPDEST SWAP2 POP PUSH2 0x3ECD DUP3 PUSH2 0x3E8E JUMP JUMPDEST PUSH1 0x20 DUP3 ADD SWAP1 POP SWAP2 SWAP1 POP JUMP JUMPDEST PUSH0 PUSH1 0x20 DUP3 ADD SWAP1 POP DUP2 DUP2 SUB PUSH0 DUP4 ADD MSTORE PUSH2 0x3EEF DUP2 PUSH2 0x3EB6 JUMP JUMPDEST SWAP1 POP SWAP2 SWAP1 POP JUMP JUMPDEST PUSH32 0x4C6561736520616C726561647920636F6E6669726D65642E0000000000000000 PUSH0 DUP3 ADD MSTORE POP JUMP JUMPDEST PUSH0 PUSH2 0x3F2A PUSH1 0x18 DUP4 PUSH2 0x2E4F JUMP JUMPDEST SWAP2 POP PUSH2 0x3F35 DUP3 PUSH2 0x3EF6 JUMP JUMPDEST PUSH1 0x20 DUP3 ADD SWAP1 POP SWAP2 SWAP1 POP JUMP JUMPDEST PUSH0 PUSH1 0x20 DUP3 ADD SWAP1 POP DUP2 DUP2 SUB PUSH0 DUP4 ADD MSTORE PUSH2 0x3F57 DUP2 PUSH2 0x3F1E JUMP JUMPDEST SWAP1 POP SWAP2 SWAP1 POP JUMP JUMPDEST PUSH0 DUP2 MLOAD SWAP1 POP SWAP2 SWAP1 POP JUMP JUMPDEST PUSH0 DUP3 DUP3 MSTORE PUSH1 0x20 DUP3 ADD SWAP1 POP SWAP3 SWAP2 POP POP JUMP JUMPDEST PUSH0 PUSH2 0x3F82 DUP3 PUSH2 0x3F5E JUMP JUMPDEST PUSH2 0x3F8C DUP2 DUP6 PUSH2 0x3F68 JUMP JUMPDEST SWAP4 POP PUSH2 0x3F9C DUP2 DUP6 PUSH1 0x20 DUP7 ADD PUSH2 0x2E5F JUMP JUMPDEST PUSH2 0x3FA5 DUP2 PUSH2 0x2E6D JUMP JUMPDEST DUP5 ADD SWAP2 POP POP SWAP3 SWAP2 POP POP JUMP JUMPDEST PUSH0 PUSH1 0x80 DUP3 ADD SWAP1 POP PUSH2 0x3FC3 PUSH0 DUP4 ADD DUP8 PUSH2 0x2E1D JUMP JUMPDEST PUSH2 0x3FD0 PUSH1 0x20 DUP4 ADD DUP7 PUSH2 0x2E1D JUMP JUMPDEST PUSH2 0x3FDD PUSH1 0x40 DUP4 ADD DUP6 PUSH2 0x2F9B JUMP JUMPDEST DUP2 DUP2 SUB PUSH1 0x60 DUP4 ADD MSTORE PUSH2 0x3FEF DUP2 DUP5 PUSH2 0x3F78 JUMP JUMPDEST SWAP1 POP SWAP6 SWAP5 POP POP POP POP POP JUMP JUMPDEST PUSH0 DUP2 MLOAD SWAP1 POP PUSH2 0x4008 DUP2 PUSH2 0x2D65 JUMP JUMPDEST SWAP3 SWAP2 POP POP JUMP JUMPDEST PUSH0 PUSH1 0x20 DUP3 DUP5 SUB SLT ISZERO PUSH2 0x4023 JUMPI PUSH2 0x4022 PUSH2 0x2D32 JUMP JUMPDEST JUMPDEST PUSH0 PUSH2 0x4030 DUP5 DUP3 DUP6 ADD PUSH2 0x3FFA JUMP JUMPDEST SWAP2 POP POP SWAP3 SWAP2 POP POP JUMP JUMPDEST PUSH0 PUSH1 0x40 DUP3 ADD SWAP1 POP PUSH2 0x404C PUSH0 DUP4 ADD DUP6 PUSH2 0x2E1D JUMP JUMPDEST PUSH2 0x4059 PUSH1 0x20 DUP4 ADD DUP5 PUSH2 0x2F9B JUMP JUMPDEST SWAP4 SWAP3 POP POP POP JUMP INVALID LOG2 PUSH5 0x6970667358 0x22 SLT KECCAK256 DUP3 SSTORE JUMPDEST SWAP8 0xFC GT 0x2D 0xED 0xBA PUSH31 0x6CD3B9E81AF27E92643E1421D6601292FEFFA51C93CD64736F6C634300081A STOP CALLER "
		},
		"gasEstimates": {
			"creation": {
				"codeDepositCost": "3306800",
				"executionCost": "infinite",
				"totalCost": "infinite"
			},
			"external": {
				"PAYMENT_PERIOD()": "459",
				"addCar(string,string,uint256,uint256,uint256)": "infinite",
				"approve(address,uint256)": "infinite",
				"balanceOf(address)": "infinite",
				"bilBoyd()": "2554",
				"calculateMonthlyQuota(uint256,uint256,uint256,uint256)": "infinite",
				"cars(uint256)": "infinite",
				"confirmLease(address)": "infinite",
				"endLease(uint256,uint8,uint256,uint256,uint256,uint256)": "infinite",
				"getApproved(uint256)": "infinite",
				"isApprovedForAll(address,address)": "infinite",
				"leases(address)": "infinite",
				"name()": "infinite",
				"ownerOf(uint256)": "infinite",
				"payMonthlyQuota(uint256)": "infinite",
				"registerLease(uint256,uint256,uint256,uint256)": "infinite",
				"safeTransferFrom(address,address,uint256)": "infinite",
				"safeTransferFrom(address,address,uint256,bytes)": "infinite",
				"setApprovalForAll(address,bool)": "infinite",
				"supportsInterface(bytes4)": "787",
				"symbol()": "infinite",
				"terminateLeaseForNonPayment(address)": "infinite",
				"tokenURI(uint256)": "infinite",
				"transferFrom(address,address,uint256)": "infinite"
			}
		},
		"methodIdentifiers": {
			"PAYMENT_PERIOD()": "200ca6ef",
			"addCar(string,string,uint256,uint256,uint256)": "24cb1534",
			"approve(address,uint256)": "095ea7b3",
			"balanceOf(address)": "70a08231",
			"bilBoyd()": "03ef5104",
			"calculateMonthlyQuota(uint256,uint256,uint256,uint256)": "c31cf51a",
			"cars(uint256)": "f7746e36",
			"confirmLease(address)": "f5df7010",
			"endLease(uint256,uint8,uint256,uint256,uint256,uint256)": "3a8488f8",
			"getApproved(uint256)": "081812fc",
			"isApprovedForAll(address,address)": "e985e9c5",
			"leases(address)": "d74d1f43",
			"name()": "06fdde03",
			"ownerOf(uint256)": "6352211e",
			"payMonthlyQuota(uint256)": "f01c823d",
			"registerLease(uint256,uint256,uint256,uint256)": "59638956",
			"safeTransferFrom(address,address,uint256)": "42842e0e",
			"safeTransferFrom(address,address,uint256,bytes)": "b88d4fde",
			"setApprovalForAll(address,bool)": "a22cb465",
			"supportsInterface(bytes4)": "01ffc9a7",
			"symbol()": "95d89b41",
			"terminateLeaseForNonPayment(address)": "ae14ae40",
			"tokenURI(uint256)": "c87b56dd",
			"transferFrom(address,address,uint256)": "23b872dd"
		}
	},
	"abi": [
		{
			"inputs": [],
			"stateMutability": "nonpayable",
			"type": "constructor"
		},
		{
			"inputs": [
				{
					"internalType": "address",
					"name": "sender",
					"type": "address"
				},
				{
					"internalType": "uint256",
					"name": "tokenId",
					"type": "uint256"
				},
				{
					"internalType": "address",
					"name": "owner",
					"type": "address"
				}
			],
			"name": "ERC721IncorrectOwner",
			"type": "error"
		},
		{
			"inputs": [
				{
					"internalType": "address",
					"name": "operator",
					"type": "address"
				},
				{
					"internalType": "uint256",
					"name": "tokenId",
					"type": "uint256"
				}
			],
			"name": "ERC721InsufficientApproval",
			"type": "error"
		},
		{
			"inputs": [
				{
					"internalType": "address",
					"name": "approver",
					"type": "address"
				}
			],
			"name": "ERC721InvalidApprover",
			"type": "error"
		},
		{
			"inputs": [
				{
					"internalType": "address",
					"name": "operator",
					"type": "address"
				}
			],
			"name": "ERC721InvalidOperator",
			"type": "error"
		},
		{
			"inputs": [
				{
					"internalType": "address",
					"name": "owner",
					"type": "address"
				}
			],
			"name": "ERC721InvalidOwner",
			"type": "error"
		},
		{
			"inputs": [
				{
					"internalType": "address",
					"name": "receiver",
					"type": "address"
				}
			],
			"name": "ERC721InvalidReceiver",
			"type": "error"
		},
		{
			"inputs": [
				{
					"internalType": "address",
					"name": "sender",
					"type": "address"
				}
			],
			"name": "ERC721InvalidSender",
			"type": "error"
		},
		{
			"inputs": [
				{
					"internalType": "uint256",
					"name": "tokenId",
					"type": "uint256"
				}
			],
			"name": "ERC721NonexistentToken",
			"type": "error"
		},
		{
			"anonymous": false,
			"inputs": [
				{
					"indexed": true,
					"internalType": "address",
					"name": "owner",
					"type": "address"
				},
				{
					"indexed": true,
					"internalType": "address",
					"name": "approved",
					"type": "address"
				},
				{
					"indexed": true,
					"internalType": "uint256",
					"name": "tokenId",
					"type": "uint256"
				}
			],
			"name": "Approval",
			"type": "event"
		},
		{
			"anonymous": false,
			"inputs": [
				{
					"indexed": true,
					"internalType": "address",
					"name": "owner",
					"type": "address"
				},
				{
					"indexed": true,
					"internalType": "address",
					"name": "operator",
					"type": "address"
				},
				{
					"indexed": false,
					"internalType": "bool",
					"name": "approved",
					"type": "bool"
				}
			],
			"name": "ApprovalForAll",
			"type": "event"
		},
		{
			"anonymous": false,
			"inputs": [
				{
					"indexed": true,
					"internalType": "address",
					"name": "from",
					"type": "address"
				},
				{
					"indexed": true,
					"internalType": "address",
					"name": "to",
					"type": "address"
				},
				{
					"indexed": true,
					"internalType": "uint256",
					"name": "tokenId",
					"type": "uint256"
				}
			],
			"name": "Transfer",
			"type": "event"
		},
		{
			"inputs": [],
			"name": "PAYMENT_PERIOD",
			"outputs": [
				{
					"internalType": "uint256",
					"name": "",
					"type": "uint256"
				}
			],
			"stateMutability": "view",
			"type": "function"
		},
		{
			"inputs": [
				{
					"internalType": "string",
					"name": "model",
					"type": "string"
				},
				{
					"internalType": "string",
					"name": "color",
					"type": "string"
				},
				{
					"internalType": "uint256",
					"name": "year",
					"type": "uint256"
				},
				{
					"internalType": "uint256",
					"name": "originalValue",
					"type": "uint256"
				},
				{
					"internalType": "uint256",
					"name": "currentMileage",
					"type": "uint256"
				}
			],
			"name": "addCar",
			"outputs": [],
			"stateMutability": "nonpayable",
			"type": "function"
		},
		{
			"inputs": [
				{
					"internalType": "address",
					"name": "to",
					"type": "address"
				},
				{
					"internalType": "uint256",
					"name": "tokenId",
					"type": "uint256"
				}
			],
			"name": "approve",
			"outputs": [],
			"stateMutability": "nonpayable",
			"type": "function"
		},
		{
			"inputs": [
				{
					"internalType": "address",
					"name": "owner",
					"type": "address"
				}
			],
			"name": "balanceOf",
			"outputs": [
				{
					"internalType": "uint256",
					"name": "",
					"type": "uint256"
				}
			],
			"stateMutability": "view",
			"type": "function"
		},
		{
			"inputs": [],
			"name": "bilBoyd",
			"outputs": [
				{
					"internalType": "address",
					"name": "",
					"type": "address"
				}
			],
			"stateMutability": "view",
			"type": "function"
		},
		{
			"inputs": [
				{
					"internalType": "uint256",
					"name": "carId",
					"type": "uint256"
				},
				{
					"internalType": "uint256",
					"name": "yearsOfExperience",
					"type": "uint256"
				},
				{
					"internalType": "uint256",
					"name": "contractDuration",
					"type": "uint256"
				},
				{
					"internalType": "uint256",
					"name": "mileageCap",
					"type": "uint256"
				}
			],
			"name": "calculateMonthlyQuota",
			"outputs": [
				{
					"internalType": "uint256",
					"name": "",
					"type": "uint256"
				}
			],
			"stateMutability": "view",
			"type": "function"
		},
		{
			"inputs": [
				{
					"internalType": "uint256",
					"name": "",
					"type": "uint256"
				}
			],
			"name": "cars",
			"outputs": [
				{
					"internalType": "uint256",
					"name": "id",
					"type": "uint256"
				},
				{
					"internalType": "string",
					"name": "model",
					"type": "string"
				},
				{
					"internalType": "string",
					"name": "color",
					"type": "string"
				},
				{
					"internalType": "uint256",
					"name": "year",
					"type": "uint256"
				},
				{
					"internalType": "uint256",
					"name": "originalValue",
					"type": "uint256"
				},
				{
					"internalType": "uint256",
					"name": "currentMileage",
					"type": "uint256"
				}
			],
			"stateMutability": "view",
			"type": "function"
		},
		{
			"inputs": [
				{
					"internalType": "address",
					"name": "lessee",
					"type": "address"
				}
			],
			"name": "confirmLease",
			"outputs": [],
			"stateMutability": "nonpayable",
			"type": "function"
		},
		{
			"inputs": [
				{
					"internalType": "uint256",
					"name": "carId",
					"type": "uint256"
				},
				{
					"internalType": "uint8",
					"name": "option",
					"type": "uint8"
				},
				{
					"internalType": "uint256",
					"name": "newCarId",
					"type": "uint256"
				},
				{
					"internalType": "uint256",
					"name": "yearsOfExperience",
					"type": "uint256"
				},
				{
					"internalType": "uint256",
					"name": "contractDuration",
					"type": "uint256"
				},
				{
					"internalType": "uint256",
					"name": "mileageCap",
					"type": "uint256"
				}
			],
			"name": "endLease",
			"outputs": [],
			"stateMutability": "payable",
			"type": "function"
		},
		{
			"inputs": [
				{
					"internalType": "uint256",
					"name": "tokenId",
					"type": "uint256"
				}
			],
			"name": "getApproved",
			"outputs": [
				{
					"internalType": "address",
					"name": "",
					"type": "address"
				}
			],
			"stateMutability": "view",
			"type": "function"
		},
		{
			"inputs": [
				{
					"internalType": "address",
					"name": "owner",
					"type": "address"
				},
				{
					"internalType": "address",
					"name": "operator",
					"type": "address"
				}
			],
			"name": "isApprovedForAll",
			"outputs": [
				{
					"internalType": "bool",
					"name": "",
					"type": "bool"
				}
			],
			"stateMutability": "view",
			"type": "function"
		},
		{
			"inputs": [
				{
					"internalType": "address",
					"name": "",
					"type": "address"
				}
			],
			"name": "leases",
			"outputs": [
				{
					"internalType": "uint256",
					"name": "carId",
					"type": "uint256"
				},
				{
					"internalType": "address",
					"name": "lessee",
					"type": "address"
				},
				{
					"internalType": "uint256",
					"name": "monthlyQuota",
					"type": "uint256"
				},
				{
					"internalType": "uint256",
					"name": "nextPaymentDue",
					"type": "uint256"
				},
				{
					"internalType": "bool",
					"name": "confirmedByBilBoyd",
					"type": "bool"
				},
				{
					"internalType": "bool",
					"name": "active",
					"type": "bool"
				}
			],
			"stateMutability": "view",
			"type": "function"
		},
		{
			"inputs": [],
			"name": "name",
			"outputs": [
				{
					"internalType": "string",
					"name": "",
					"type": "string"
				}
			],
			"stateMutability": "view",
			"type": "function"
		},
		{
			"inputs": [
				{
					"internalType": "uint256",
					"name": "tokenId",
					"type": "uint256"
				}
			],
			"name": "ownerOf",
			"outputs": [
				{
					"internalType": "address",
					"name": "",
					"type": "address"
				}
			],
			"stateMutability": "view",
			"type": "function"
		},
		{
			"inputs": [
				{
					"internalType": "uint256",
					"name": "carId",
					"type": "uint256"
				}
			],
			"name": "payMonthlyQuota",
			"outputs": [],
			"stateMutability": "payable",
			"type": "function"
		},
		{
			"inputs": [
				{
					"internalType": "uint256",
					"name": "carId",
					"type": "uint256"
				},
				{
					"internalType": "uint256",
					"name": "yearsOfExperience",
					"type": "uint256"
				},
				{
					"internalType": "uint256",
					"name": "contractDuration",
					"type": "uint256"
				},
				{
					"internalType": "uint256",
					"name": "mileageCap",
					"type": "uint256"
				}
			],
			"name": "registerLease",
			"outputs": [],
			"stateMutability": "payable",
			"type": "function"
		},
		{
			"inputs": [
				{
					"internalType": "address",
					"name": "from",
					"type": "address"
				},
				{
					"internalType": "address",
					"name": "to",
					"type": "address"
				},
				{
					"internalType": "uint256",
					"name": "tokenId",
					"type": "uint256"
				}
			],
			"name": "safeTransferFrom",
			"outputs": [],
			"stateMutability": "nonpayable",
			"type": "function"
		},
		{
			"inputs": [
				{
					"internalType": "address",
					"name": "from",
					"type": "address"
				},
				{
					"internalType": "address",
					"name": "to",
					"type": "address"
				},
				{
					"internalType": "uint256",
					"name": "tokenId",
					"type": "uint256"
				},
				{
					"internalType": "bytes",
					"name": "data",
					"type": "bytes"
				}
			],
			"name": "safeTransferFrom",
			"outputs": [],
			"stateMutability": "nonpayable",
			"type": "function"
		},
		{
			"inputs": [
				{
					"internalType": "address",
					"name": "operator",
					"type": "address"
				},
				{
					"internalType": "bool",
					"name": "approved",
					"type": "bool"
				}
			],
			"name": "setApprovalForAll",
			"outputs": [],
			"stateMutability": "nonpayable",
			"type": "function"
		},
		{
			"inputs": [
				{
					"internalType": "bytes4",
					"name": "interfaceId",
					"type": "bytes4"
				}
			],
			"name": "supportsInterface",
			"outputs": [
				{
					"internalType": "bool",
					"name": "",
					"type": "bool"
				}
			],
			"stateMutability": "view",
			"type": "function"
		},
		{
			"inputs": [],
			"name": "symbol",
			"outputs": [
				{
					"internalType": "string",
					"name": "",
					"type": "string"
				}
			],
			"stateMutability": "view",
			"type": "function"
		},
		{
			"inputs": [
				{
					"internalType": "address",
					"name": "lessee",
					"type": "address"
				}
			],
			"name": "terminateLeaseForNonPayment",
			"outputs": [],
			"stateMutability": "nonpayable",
			"type": "function"
		},
		{
			"inputs": [
				{
					"internalType": "uint256",
					"name": "tokenId",
					"type": "uint256"
				}
			],
			"name": "tokenURI",
			"outputs": [
				{
					"internalType": "string",
					"name": "",
					"type": "string"
				}
			],
			"stateMutability": "view",
			"type": "function"
		},
		{
			"inputs": [
				{
					"internalType": "address",
					"name": "from",
					"type": "address"
				},
				{
					"internalType": "address",
					"name": "to",
					"type": "address"
				},
				{
					"internalType": "uint256",
					"name": "tokenId",
					"type": "uint256"
				}
			],
			"name": "transferFrom",
			"outputs": [],
			"stateMutability": "nonpayable",
			"type": "function"
		}
	]
}